:04000000DAEF26F01D
:104DB400000EF86E0001DFEF26F056EC2AF099ECB5
:104DC4002AF000EF00F0000E026E4B0E016E7BEC39
:104DD40027F01200000E026EE10E016E7BEC27F04C
:104DE4001200020E026E0D0E016E7BEC27F0120013
:104DF400036E000E026E3A0E036005D02F0E03649C
:104E040002D0010E026E02C001F001301200838450
:104E1400000E026E050E016E65EC27F08394000E01
:104E2400026E050E016E65EC27F0120001500210AF
:104E34000310D8B406D0000E011A000E021A800E18
:104E4400031A01C001F002C002F003C003F0120013
:104E540009C001F00AC002F0036A8E0E046E000E4F
:104E6400056E77EC2BF001C009F002C00AF003C014
:104E74000BF012000F501102F3CF13F0F4CF14F023
:104E84000F501202F350142610501102F35014263E
:104E940013C00FF014C010F0120001C007F002C0DC
:104EA40008F008D007C0D9FF08C0DAFF03C0DFFF4D
:104EB400074A082A0506D8A006060528F3E10628AD
:104EC400D8B41200EFD7000E056E000E046E06D0A3
:104ED400100EE82EFED700D0044A052A0150045CC7
:104EE4000550800A036E0250800A0358D8B012009D
:104EF400EFD7000E056E000E046E06D0A60EE82E47
:104F0400FED700D0044A052A0150045C0550800AEB
:104F1400036E0250800A0358D8B01200EFD701C0C4
:104F240005F002C006F004D0054A062A034A042A02
:104F340003C0F6FF04C0F7FF05C0D9FF06C0DAFFBF
:104F44000800F5CFDFFFDF50D8B41200EDD79296FA
:104F540001500210D8B409D0809600F000D000D0DF
:104F64008086090EE82EFED7120080960B0EE82EDE
:104F7400FED700D0808600F000D000D01200000ED2
:104F8400116E000E106E08D0000E076E3C0E066EF9
:104F9400BCEC28F0104A112A0D50105C1150800A04
:104FA4000F6E0E50800A0F58D8B01200EDD7000EC5
:104FB400166E000E156E08D0000E0E6E3C0E0D6EB1
:104FC400C1EC27F0154A162A1250155C1650800AB7
:104FD400146E1350800A1458D8B01200EDD7000E86
:104FE400056E000E046E92968096808600D080A690
:104FF40003D0036A032A01D0036A0350046E056ACE
:105004000A0EE82EFED704C001F005C002F012001B
:1050140083828386000E076E000E066E07BE06D0DE
:1050240007500DE1E10E065CD8B009D009EC27F079
:10503400064A072A07BEFAD7075001E1F3D783923D
:105044008396120083828386000E076E000E066E1E
:1050540007BE06D007500DE14B0E065CD8B009D050
:1050640009EC27F0064A072A07BEFAD7075001E1E0
:10507400F3D7839283961200000E0C6E0AAE06D00C
:10508400096C0A1ED8B00A2A010E0C6E09C001F080
:105094000AC002F0036A8E0E046E0CC005F077ECB1
:1050A4002BF001C009F002C00AF003C00BF012009B
:1050B4003D503E103F10D8B406D0000E3D1A000EED
:1050C4003E1A800E3F1A3AC02EF03BC02FF03CC06F
:1050D40030F03DC031F03EC032F03FC033F0D7EC89
:1050E40030F02EC03AF02FC03BF030C03CF012003C
:1050F40001C005F002C006F002D0054A062A05C028
:10510400D9FF06C0DAFFDF50D8B405D0F6D7054A78
:10511400062A034A042A03C0D9FF04C0DAFF05C0E3
:10512400E1FF06C0E2FFDFCFE7FFE750D8B412008B
:10513400EED7000E056E010E046E929680965D0EFB
:10514400E82EFED700F080860B0EE82EFED700D0A6
:10515400928680A603D0036A032A01D0036A03500F
:10516400046E056A460EE82EFED704C001F005C0A1
:1051740002F01200000E0A6E000E096E17D0000E27
:105184000C6E000E0B6E0CBE06D00C500DE10A0E18
:105194000B5CD8B009D0000E026E640E016E7BEC7D
:1051A40027F00B4A0C2AEFD7094A0A2A0650095C51
:1051B4000A50800A086E0750800A0858D8B01200B6
:1051C400DED701C005F002C006F002D0054A062A67
:1051D40005C0F6FF06C0F7FFF86A050EF76403D0B2
:1051E4000800F55005D0F6CFE9FFF7CFEAFFEF50FE
:1051F4000009D8A4EBD701C003F002C004F0031ED9
:10520400041E034A042A05500324016E0650042098
:10521400026E12008E0E116E06D0D8900C320B3234
:105224000A320932112A000E09140D6E000E0A14F6
:105234000E6E000E0B140F6EFF0E0C14106E0D503C
:105244000E100F101010D8A4E8D709C001F00AC03E
:1052540002F00BC003F011C004F0000E056E77ECF1
:105264002BF001C009F002C00AF003C00BF01200D9
:10527400000E0D6E000E0C6E1CD024EC28F015D020
:105284000AEC28F012D00C5008240A6E0D500920A4
:105294000B6E0AC0F6FF0BC0F7FF0800F5502D0A8D
:1052A400D8B4EED7030AD8B4E8D7E5EC26F00C4A14
:1052B4000D2A08C001F009C002F0E3EC28F0015007
:1052C4000C5C02500D58D8B01200DDD712501310E8
:1052D40014101510D8B424D0010E166E06D0D89030
:1052E4001236133614361536162A15AEF8D7125060
:1052F4000E5C13500F581450105815501158D8A064
:1053040008D012500E5E13500F5A1450105A1550F4
:10531400115AD8901532143213321232162EE7D79E
:105324000EC00EF00FC00FF010C010F011C011F03D
:105334001200000E066E02AE06D0016C021ED8B03A
:10534400022A010E066E04AE04D0036C041ED8B00B
:10535400042A03500410D8B418D0010E056E04D0EA
:10536400D89003360436052A04AEFAD70350015CFC
:1053740004500258D8A004D00350015E0450025ACD
:10538400D89004320332052EF1D70650D8B404D095
:10539400016C021ED8B0022A01C001F002C002F062
:1053A4001200000E096E000E0A6E000E0B6E000E47
:1053B4000C6E0550061007100810D8B42AD0010E40
:1053C4000D6E06D0D89005360636073608360D2AF7
:1053D40008AEF8D7D89009360A360B360C36055085
:1053E400015C065002580750035808500458D8A0CE
:1053F40009D00550015E0650025A0750035A08505E
:10540400045A0980D89008320732063205320D2E2C
:10541400E1D709C001F00AC002F00BC003F00CC0D0
:1054240004F01200000E0C6E0AAE06D0096C0A1EBF
:10543400D8B00A2A010E0C6E08AE06D0076C081EFE
:10544400D8B0082A010E0C1A000E0E6E000E0D6E56
:1054540009500A10D8B41CD0010E0B6E04D0D89099
:1054640009360A360B2A0AAEFAD7D8900D360E360C
:105474000950075C0A500858D8A005D00950075EA7
:105484000A50085A0D80D8900A3209320B2EEDD7F3
:105494000C50D8B404D00D6C0E1ED8B00E2A0DC01A
:1054A40007F00EC008F012000F01428F0F0142896D
:1054B4000F01429B0F01428D080EC16EAF0EC06EEC
:1054C40092809282928492869288928A0F01388185
:1054D4000F0138830F0138850F0138970F01388B7E
:1054E40089908992899489968998899A95909592B8
:1054F400959495969598959A959C959E0F013B91B8
:105504000F013B930F013B950F013B970F013B9913
:105514000F013B9B0F013B9D0F013B9F8C908C9295
:105524008C948C968C988C9A8C9C8C9E120024EC77
:105534002BF024C080F025C081F026C082F027EC37
:105544002CF03AC07CF03BC07DF0CEEC2BF03AC09E
:105554007EF03BC07FF06EEC36F03AC079F03BC091
:105564007AF03CC07BF0000182BF17D080C054F0B9
:1055740081C055F082C056F07CC057F07DC058F011
:105584007EC059F07FC05AF079C05BF07AC05CF0FD
:105594007BC05DF080EC2CF006D0000E136E020E82
:1055A400126ED9EC27F0000E0E6E030E0D6EC1ECD8
:1055B40027F0BDD703AE16D001C007F002C008F033
:1055C40003C009F0071E081E091E072A000E082240
:1055D4000922000E0724016E000E0820026E800EC0
:1055E4000920036E06AE16D004C007F005C008F00B
:1055F40006C009F0071E081E091E072A000E08220D
:105604000922000E0724046E000E0820056E800E89
:105614000920066E000E011A000E021A800E031AEB
:10562400000E041A000E051A800E061A0450015CBE
:105634000550025806500358D8B002D0D890120032
:10564400D8801200000E276E000E286E000E296E00
:10565400000E2A6E000E2B6E000E2C6EC294C296A3
:10566400C298C29AC29CC2809E9CC2829EACFED743
:10567400C3CF09F0C4CF0AF02AEC27F009C027F001
:105684000AC028F00BC029F09E9CC29027C015F0D8
:1056940028C016F029C017F0330E186E830E196E49
:1056A4003A0E1A6EDEEC2DF015C02AF016C02BF05F
:1056B40017C02CF02AC015F02BC016F02CC017F020
:1056C400660E186EB60E196E400E1A6EDEEC2DF0D4
:1056D40015C02AF016C02BF017C02CF02AC024F0F5
:1056E4002BC025F02CC026F012000450D8B405D0ED
:1056F400015002100310D8A40CD0000E016E000E4D
:10570400026E000E036E1200042AD8900332023295
:105714000132000E0114066E000E0214076EFE0E16
:105724000314086E065007100810D8B40CD0ECD738
:10573400042A010E0126000E0222000E0322D89034
:10574400033202320132000E0114066E000E0214FE
:10575400076EFF0E0314086E065007100810D8B425
:1057640006D0E6D70406D89001360236033602BEC8
:1057740003D0020E0460F6D704A0029ED89004322F
:10578400045003120550D8A4038E01C001F002C0D6
:1057940002F003C003F01200000E3C6E000E3D6EDA
:1057A400000E3E6E000E3F6E000E406E000E416E07
:1057B400C294C286C298C29AC29CC2809E9CC28273
:1057C4009EACFED7C3CF09F0C4CF0AF02AEC27F071
:1057D40009C03CF00AC03DF00BC03EF09E9CC29054
:1057E4003CC015F03DC016F03EC017F0330E186EE5
:1057F400830E196E3A0E1A6EDEEC2DF015C03FF0D2
:1058040016C040F017C041F03FC015F040C016F07C
:1058140041C017F0000E186E800E196E3F0E1A6EFE
:10582400DEEC2DF015C03FF016C040F017C041F07B
:105834003FC02BF040C02CF041C02DF064EC2DF0A3
:105844002BC03AF02CC03BF01200000E3C6E000E50
:105854003D6E000E3E6E000E3F6E000E406E000E5A
:10586400416EC284C296C298C29AC29CC2809E9C57
:10587400C2829EACFED7C3CF09F0C4CF0AF02AEC93
:1058840027F009C03CF00AC03DF00BC03EF09E9CDE
:10589400C2903CC015F03DC016F03EC017F0330E68
:1058A400186E830E196E3A0E1A6EDEEC2DF015C0CA
:1058B4003FF016C040F017C041F03FC015F040C0A3
:1058C40016F041C017F0000E186E800E196E3F0ED0
:1058D4001A6EDEEC2DF015C03FF016C040F017C074
:1058E40041F03FC02BF040C02CF041C02DF064ECDF
:1058F4002DF02BC03AF02CC03BF01200000E016ECC
:10590400010E026E000E046E000E036E000E066E93
:10591400800E056E4FEC27F0000E016E010E026E34
:105924009E0E036E7F0E046E91EC27F0800E016EC6
:10593400010E026E000E046E000E036E000E066E63
:10594400400E056E4FEC27F0800E406E010E416E46
:105954006B0E426E7F0E436E5BC044F05CC045F03C
:105964005DC046F054C047F055C048F056C049F0F9
:1059740057C04AF058C04BF059C04CF05AC04DF0D3
:1059840006EC3AF0000E016E010E026E800E036EFC
:10599400010E046E7AEC28F0000E0101C16F000EB6
:1059A400C06F0ED0000E0101C025D96E010E010199
:1059B400C121DA6EDF50D0EC32F00101C04BC12BB3
:1059C400000E016E010E026EE3EC28F0015001019D
:1059D400C05D02500101C159D8B01200E3D70FC015
:1059E40013F0146A156A0E34133601E3148013504D
:1059F4001A6E1A50D8A407D0000E0D6E000E0E6E4B
:105A0400000E0F6E120012C013F0146A156A1134DE
:105A1400133601E3148013501B6E1B50D8A407D017
:105A2400000E0D6E000E0E6E000E0F6E1200000EB4
:105A3400176E000E186E000E196E1B50890F1A5E39
:105A44000FC01BF012501B1A800E1B160E8EFF0E79
:105A54000D16FF0E0E16000E0F16118EFF0E1016E9
:105A6400FF0E1116000E1216180E166ED890173669
:105A74001836193610500D5C11500E5812500F582C
:105A8400D8A007D010500D5E11500E5A12500F5A64
:105A94001780D8900D360E360F36162EE7D717C05E
:105AA40001F018C002F019C003F01AC004F01BC0C2
:105AB40005F077EC2BF001C00DF002C00EF003C02E
:105AC4000FF012002DC02FF0306A316A2C342F36BB
:105AD40001E330802F50396E3950D8A409D0000E1C
:105AE4002B6E000E2C6E000E2D6E000E2E6E12000C
:105AF400170E2F6E2BC030F02CC031F02DC032F0B9
:105B04002F28336E04D0D890323231323032332ED3
:105B1400FAD73050346E2C8EFF0E2B16FF0E2C1637
:105B2400000E2D162B50356E2C50366E2D50376EC0
:105B3400386A8E0E395E39AE16D03950800A8F0F0E
:105B4400D8B009D0000E2B6E000E2C6E000E2D6EF8
:105B5400000E2E6E1200D89038323732363235327B
:105B6400393EF9D715D0170E39640FD0000E2B6EBD
:105B7400000E2C6E000E2D6E000E2E6E1200D890AC
:105B8400353636363736383639063950D8A4F7D74D
:105B94003450D8B408D0381E371E361E356C000E6B
:105BA40036223722382235C02BF036C02CF037C0CD
:105BB4002DF038C02EF0120017C01BF01C6A1D6AAD
:105BC40016341B3601E31C801B501E6E1E50D8A4D5
:105BD40007D0000E156E000E166E000E176E120022
:105BE4001AC01BF01C6A1D6A19341B3601E31C80A1
:105BF4001B50236E2350D8A407D0000E156E000E40
:105C0400166E000E176E120023507B0F1E2617C04F
:105C140023F01A50231A800E2316168E198EFF0EA7
:105C24001816FF0E1916000E1A16000E1F6E000E1F
:105C3400206E000E216E070E226E15A006D018509D
:105C44001F26195020221A502122D89017321632BA
:105C54001532D890183619361A36222EEED7090E78
:105C6400226E15A006D018501F26195020221A5053
:105C74002122D890173216321532D8902132203290
:105C84001F32222EEED71FC001F020C002F021C027
:105C940003F01EC004F023C005F077EC2BF001C024
:105CA40015F002C016F003C017F0120003340434D8
:105CB4000C6E0C50D8A409D0000E016E000E026EBA
:105CC400000E036E000E046E1200063407340B6ED1
:105CD4000B50D8A409D0000E016E000E026E000E07
:105CE400036E000E046E1200038EFF0E0116FF0EEB
:105CF4000216FF0E0316000E0416068EFF0E04167F
:105D0400FF0E0516FF0E0616000E0716000E076E90
:105D1400000E086E000E096E000E0A6E7F0E0C5EF9
:105D24000B50A00F0C5E200E0B6ED8900736083671
:105D340009360A360450015C0550025806500358CF
:105D440007500458D8A009D00450015E0550025AE7
:105D54000650035A0750045A0780D8900136023679
:105D6400033604360B2EE1D70CAE16D00C50800A45
:105D74009F0FD8B009D0000E016E000E026E000E07
:105D8400036E000E046E1200D8900A3209320832F3
:105D940007320C3EF9D715D01F0E0C640FD0000E3D
:105DA400016E000E026E000E036E000E046E1200F1
:105DB400D8900736083609360A360C060C50D8A493
:105DC400F7D707C001F008C002F009C003F00AC009
:105DD40004F0120003C007F0086A096A02340736A7
:105DE40001E3088007500F6E0F50D8A409D0000EAD
:105DF400016E000E026E000E036E000E046E1200A1
:105E040006C007F0086A096A0534073601E308800A
:105E140007500E6E0E50D8A409D0000E016E000E6D
:105E2400026E000E036E000E046E1200028EFF0E50
:105E34000116FF0E0216000E0316058EFF0E041641
:105E4400FF0E0516000E0616000E0A6E000E0B6EEF
:105E5400000E0C6E000E0D6E7F0E0F5E0E50980F2E
:105E64000F5E180E0E6ED8900A360B360C360D36B1
:105E74000450015C0550025806500358D8A007D0BE
:105E84000450015E0550025A0650035A0A80D89005
:105E94000136023603360E2EE6D70FAE16D00F505B
:105EA400800A970FD8B009D0000E016E000E026E62
:105EB400000E036E000E046E1200D8900D320C32E8
:105EC4000B320A320F3EF9D715D0170E0F640FD0DC
:105ED400000E016E000E026E000E036E000E046EC4
:105EE4001200D8900A360B360C360D360F060F50BA
:105EF400D8A4F7D70AC001F00BC002F00CC003F01D
:105F04000DC004F01200000E276E000E266E92865D
:105F1400F1EC27F001C016F002C017F0F1EC27F005
:105F240001C018F002C019F0F1EC27F001C01AF01A
:105F340002C01BF0F1EC27F001C01CF002C01DF000
:105F4400F1EC27F001C01EF002C01FF0F1EC27F0C5
:105F540001C020F002C021F0F1EC27F001C022F0D2
:105F640002C023F0F1EC27F001C024F002C025F0B8
:105F740024C008F025C009F0070ED8900836093669
:105F8400E82EFBD722C00AF023C00BF0060ED890EF
:105F94000A360B36E82EFBD720C00CF021C00DF0DA
:105FA400050ED8900C360D36E82EFBD71EC00EF029
:105FB4001FC00FF00E3A0F3AF00E0F160E500F0BD3
:105FC4000F12F00E0E161CC010F01DC011F0D89068
:105FD40010361136D89010361136D8901036113646
:105FE4001AC012F01BC013F0D89012361336D89092
:105FF4001236133618C014F019C015F0D8901436A0
:106004001536125014261350152210501426115010
:1060140015220E5014260F5015220C5014260D5024
:1060240015220A5014260B50152208501426095024
:10603400152216501424266E17501520276E26C0DC
:1060440006F027C007F01200010E0314086E096A57
:1060540004340430066E0330056E010E05140A6E16
:106064000B6A03C005F004C006F00634063205329C
:10607400063406320532010E05140C6E0D6A03C097
:1060840005F004C006F00634063205320634063242
:106094000532063406320532010E05140E6E0F6AFF
:1060A40003C005F004C006F0040E076E0634063281
:1060B4000532072EFBD7010E0514106E116A03C0BA
:1060C40005F004C006F0050E076E063406320532EC
:1060D400072EFBD7010E0514126E136A03C005F0D8
:1060E40004C006F0060E076E063406320532072E8B
:1060F400FBD7010E0514146E156A03C005F004C025
:1061040006F0070E076E063406320532072EFBD75B
:10611400010E0514166E176A08C001F009C002F0DA
:10612400A9EC27F000F000D000D00AC001F00BC0A9
:1061340002F0A9EC27F000F000D000D00CC001F070
:106144000DC002F0A9EC27F000F000D000D00EC082
:1061540001F00FC002F0A9EC27F000F000D000D04D
:1061640010C001F011C002F0A9EC27F000F000D03B
:1061740000D012C001F013C002F0A9EC27F000F027
:1061840000D000D014C001F015C002F0A9EC27F033
:1061940000F000D000D016C001F017C002F0A9EC46
:1061A40027F000F000D000D0120030C034F0356A7F
:1061B400366A2F34343601E335803450396E33C0B7
:1061C40034F0356A366A3234343601E3358034507B
:1061D400386E3950D8B40BD03850395CD8B00ED0A2
:1061E400395000083824346E180E346407D031C096
:1061F4002EF032C02FF033C030F012003850D8B433
:106204000BD03950385CD8B00ED03850000839243F
:10621400346E180E346407D02EC02EF02FC02FF029
:1062240030C030F01200060E376E30BE378E33BEEB
:10623400378C2F8EFF0E2E16FF0E2F16000E3016E3
:10624400328EFF0E3116FF0E3216000E3316385002
:10625400395CD8B01BD0D890313632363336380654
:1062640039503818D8B40DD0370637C034F0070E7B
:106274003416D8B406D0EFD7D89030322F322E321D
:10628400392A38503918D8B41FD0F6D73950385C69
:10629400D8B01AD0D8902E362F3630363906395029
:1062A4003818D8B40DD0370637C034F0070E34167A
:1062B400D8B406D0EFD7D890333232323132382ABC
:1062C40038503918D8A4F7D737AE0CD0FF0E2E1A91
:1062D400FF0E2F1AFF0E301A010E2E26000E2F224B
:1062E400000E302237AC0CD0FF0E311AFF0E321ADA
:1062F400FF0E331A010E3126000E3222000E332215
:10630400000E376E2E5031262F5032223050332259
:1063140033AE0ED0FF0E311AFF0E321AFF0E331AAF
:10632400010E3126000E3222000E3322010E376E8A
:1063340031C001F032C002F033C003F039C004F0C0
:1063440037C005F077EC2BF001C02EF002C02FF01F
:1063540003C030F012002D6E6D0E2D649FD0000E20
:10636400126E030E116E000E0A6E0A0E096E000EF6
:10637400046E640E036E2DC001F0026A9BEC29F0DA
:1063840001C007F002C008F014EC2AF0090E07243B
:106394000F6E000E0820106E3CEC27F01D0E0F242B
:1063A400F66E7F0E1020F76E0900F5CF18F0090085
:1063B400F5CF19F00A00F5CF1AF0000E0A6E640E3C
:1063C400096E2DC007F0086A14EC2AF0120E072497
:1063D4000F6E000E0820106E000E126E030E116E6A
:1063E4003CEC27F01D0E0F24F66E7F0E1020F76E86
:1063F4000900F5CF15F00900F5CF16F00A00F5CF26
:1064040017F0DEEC2DF015C02AF016C02BF017C0E3
:106414002CF0000E126E030E116E000E046E0A0EA6
:10642400036E2DC001F0026A9BEC29F001C00FF04D
:1064340002C010F03CEC27F01D0E0F24F66E7F0E08
:106444001020F76E0900F5CF18F00900F5CF19F008
:106454000A00F5CF1AF02AC015F02BC016F02CC094
:1064640017F0DEEC2DF015C027F016C028F017C089
:1064740029F027C015F028C016F029C017F0000E27
:10648400186E000E196E3F0E1A6EDEEC2DF015C05C
:1064940024F016C025F017C026F012000A0E2D6451
:1064A4005DD0000E126E030E116E000E046E0A0E05
:1064B400036E2DC001F0026A9BEC29F001C00FF0BD
:1064C40002C010F03CEC27F01D0E0F24F66E7F0E78
:1064D4001020F76E0900F5CF18F00900F5CF19F078
:1064E4000A00F5CF1AF0000E0A6E0A0E096E2DC0CE
:1064F40007F0086A14EC2AF0090E07240F6E000E48
:106504000820106E000E126E030E116E3CEC27F084
:106514001D0E0F24F66E7F0E1020F76E0900F5CFC6
:1065240015F00900F5CF16F00A00F5CF17F0DEECF0
:106534002DF015C02AF016C02BF017C02CF02AC07D
:1065440015F02BC016F02CC017F0000E186E000EBC
:10655400196E3F0E1A6EDEEC2DF099D72D50030DF7
:106564001D0EF324F66E7F0EF420F76E0900F5CFAE
:1065740015F00900F5CF16F00A00F5CF17F0000E5C
:10658400186E000E196E3F0E1A6EDEEC2DF015C05B
:1065940024F016C025F017C026F012000E6E22D18A
:1065A400E80E086E7F0E096E3AEC29F09AD1D00EEF
:1065B400086E7F0E096E3AEC29F093D1F50E086E41
:1065C4007F0E096E3AEC29F08CD1CB0E086E7F0E4B
:1065D400096E3AEC29F085D1C10E086E7F0E096E62
:1065E4003AEC29F07ED1C40E086E7F0E096E3AECA7
:1065F40029F077D1BF0E086E7F0E096E3AEC29F0B0
:1066040070D1D60E086E7F0E096E3AEC29F069D16E
:10661400CC0E086E7F0E096E3AEC29F062D1B20EF0
:10662400086E7F0E096E3AEC29F05BD1E70E086E16
:106634007F0E096E3AEC29F054D1FA0E086E7F0EE3
:10664400096E3AEC29F04DD1A80E086E7F0E096E42
:106654003AEC29F046D1C00E086E7F0E096E3AEC72
:1066640029F03FD1A70E086E7F0E096E3AEC29F08F
:1066740038D1F00E086E7F0E096E3AEC29F031D154
:10668400E60E086E7F0E096E3AEC29F02AD1F60E5A
:10669400086E7F0E096E3AEC29F023D1D10E086EF4
:1066A4007F0E096E3AEC29F01CD1A90E086E7F0EFC
:1066B400096E3AEC29F015D1EC0E086E7F0E096EC6
:1066C4003AEC29F00ED1920E086E7F0E096E3AEC68
:1066D40029F007D1E20E086E7F0E096E3AEC29F01C
:1066E40000D1EB0E086E7F0E096E3AEC29F0F9D05A
:1066F400E10E086E7F0E096E3AEC29F0F2D0CA0E54
:10670400086E7F0E096E3AEC29F0EBD0A50E086EE8
:106714007F0E096E3AEC29F0E4D0AB0E086E7F0EC2
:10672400096E3AEC29F0DDD0B10E086E7F0E096EC9
:106734003AEC29F0D6D0B70E086E7F0E096E3AEC0B
:1067440029F0CFD0910E086E7F0E096E3AEC29F035
:10675400C8D0DB0E086E7F0E096E3AEC29F0C1D06A
:10676400D50E086E7F0E096E3AEC29F0BAD0CF0E22
:10677400086E7F0E096E3AEC29F0B3D0C90E086E8C
:106784007F0E096E3AEC29F0ACD0BD0E086E7F0E78
:10679400096E3AEC29F0A5D0820E086E7F0E096EC0
:1067A4003AEC29F09ED0970E086E7F0E096E3AECF3
:1067B40029F097D0C30E086E7F0E096E3AEC29F0CB
:1067C40090D0890E086E7F0E096E3AEC29F089D0BC
:1067D400900E086E7F0E096E3AEC29F082D0F3EC2D
:1067E40026F07FD00E50200AD8B4F9D70C0AD8B4BA
:1067F400D3D7010AD8B4ECD7030AD8B4E2D7010A34
:10680400D8B4D8D71F0AD8B481D7010AD8B485D749
:10681400030AD8B489D7010AD8B48DD7070AD8B4E3
:1068240091D7010AD8B495D7030AD8B499D7010AE5
:10683400D8B49DD70F0AD8B4A1D7010AD8B4A5D724
:10684400060AD8B4B0D77E0AD8B4AAD6030AD8B4F4
:10685400AED6010AD8B4B2D6070AD8B4B6D6010A5D
:10686400D8B4BAD6030AD8B4BED6010AD8B4C2D6AC
:106874000F0AD8B4C6D6010AD8B4CAD6030AD8B403
:10688400CED6010AD8B4D2D6070AD8B4D6D6010ACD
:10689400D8B4DAD6030AD8B4DED6010AD8B4E2D61C
:1068A4001F0AD8B4E6D6010AD8B4EAD6030AD8B483
:1068B400EED6010AD8B4F2D6070AD8B4F6D6010A3D
:1068C400D8B4FAD6030AD8B4FED6010AD8B402D78B
:1068D4000F0AD8B406D7010AD8B40AD7030AD8B421
:1068E4000ED7ECEC26F012002A6E2AAEFBD02A6CEE
:1068F4002A50800A120FD8A091D0000E126E030EF7
:10690400116E000E0A6E0A0E096E000E046E640EFD
:10691400036E2A50016E026A01BE02069BEC29F046
:1069240001C007F002C008F014EC2AF0090E072495
:106934000F6E000E0820106E3CEC27F01D0E0F2485
:10694400F66E7F0E1020F76E0900F5CF18F00900DF
:10695400F5CF19F00A00F5CF1AF0000E0A6E640E96
:10696400096E2A50076E086A07BE080614EC2AF05E
:10697400120E07240F6E000E0820106E000E126E09
:10698400030E116E3CEC27F01D0E0F24F66E7F0EE5
:106994001020F76E0900F5CF15F00900F5CF16F0B9
:1069A4000A00F5CF17F0DEEC2DF015C027F016C065
:1069B40028F017C029F027C015F028C016F029C008
:1069C40017F0000E126E030E116E000E046E0A0E06
:1069D400036E2A50016E026A01BE02069BEC29F086
:1069E40001C00FF002C010F03CEC27F01D0E0F2484
:1069F400F66E7F0E1020F76E0900F5CF18F009002F
:106A0400F5CF19F00A00F5CF1AF0DEEC2DF015C021
:106A140024F016C025F017C026F012002A50800A70
:106A2400750FD8A04DD0000E0A6E0A0E096E2A50BA
:106A3400076E086A07BE080614EC2AF0090E07243C
:106A44000F6E000E0820106E000E126E030E116EF3
:106A54003CEC27F01D0E0F24F66E7F0E1020F76E0F
:106A64000900F5CF15F00900F5CF16F00A00F5CFAF
:106A740017F0000E126E030E116E000E046E0A0E55
:106A8400036E2A50016E026A01BE02069BEC29F0D5
:106A940001C00FF002C010F03CEC27F01D0E0F24D3
:106AA400F66E7F0E1020F76E0900F5CF18F009007E
:106AB400F5CF19F00A00F5CF1AF0DEEC2DF0A7D7C8
:106AC4002A50030D1D0EF324F66E7F0EF420F76E8C
:106AD4000900F5CF24F00900F5CF25F00A00F5CF21
:106AE40026F012002A50800A120FD8A091D0000E6E
:106AF400126E030E116E000E0A6E0A0E096E000E5F
:106B0400046E640E036E2A50016E026A01BE020610
:106B14009BEC29F001C007F002C008F014EC2AF045
:106B2400090E07240F6E000E0820106E3CEC27F0AF
:106B3400440E0F24F66E7F0E1020F76E0900F5CF79
:106B440018F00900F5CF19F00A00F5CF1AF0000E7D
:106B54000A6E640E096E2A50076E086A07BE08069C
:106B640014EC2AF0120E07240F6E000E0820106E8B
:106B7400000E126E030E116E3CEC27F0440E0F242F
:106B8400F66E7F0E1020F76E0900F5CF15F00900A0
:106B9400F5CF16F00A00F5CF17F0DEEC2DF015C096
:106BA40027F016C028F017C029F027C015F028C018
:106BB40016F029C017F0000E126E030E116E000EAF
:106BC400046E0A0E036E2A50016E026A01BE0206AA
:106BD4009BEC29F001C00FF002C010F03CEC27F050
:106BE400440E0F24F66E7F0E1020F76E0900F5CFC9
:106BF40018F00900F5CF19F00A00F5CF1AF0DEEC11
:106C04002DF015C024F016C025F017C026F0120090
:106C14002A50800A750FD8A04DD0000E0A6E0A0EB5
:106C2400096E2A50076E086A07BE080614EC2AF09B
:106C3400090E07240F6E000E0820106E000E126E4F
:106C4400030E116E3CEC27F0440E0F24F66E7F0EFB
:106C54001020F76E0900F5CF15F00900F5CF16F0F6
:106C64000A00F5CF17F0000E126E030E116E000E1F
:106C7400046E0A0E036E2A50016E026A01BE0206F9
:106C84009BEC29F001C00FF002C010F03CEC27F09F
:106C9400440E0F24F66E7F0E1020F76E0900F5CF18
:106CA40018F00900F5CF19F00A00F5CF1AF0DEEC60
:106CB4002DF0A7D72A50030D440EF324F66E7F0E51
:106CC400F420F76E0900F5CF24F00900F5CF25F084
:106CD4000A00F5CF26F01200000E0101B46F000E79
:106CE400B36F000E0101B66F000EB56F000E010107
:106CF400B86F000EB76F000E0101BA6F000EB96FC6
:106D0400000E0101BC6F000EBB6F000E0101BE6FCF
:106D1400000EBD6F000E0101C06F000EBF6F000EAC
:106D24000101C26F000EC16F000E0101C46F000E9D
:106D3400C36F000E0101A36F000EA26F000E0101CC
:106D4400C66F000EC56F000E0101C86F000EC76F3D
:106D5400000E0101C96F000E0101CA6F000E01018E
:106D6400CB6F000E0101A46F800E0101A56F3F0ED1
:106D74000101A66F000E0101CD6F000ECC6F9BECDC
:106D840028F001500210D8B407D0330E3A6EC60E64
:106D94003B6EC20E3C6E1200000E046ECC0E036EEF
:106DA40026EC30F0000E046E440E036E26EC30F038
:106DB4009286000E0101CD6F000ECC6F09D0000E3B
:106DC400076E010E066EBCEC28F00101CC4BCD2BF6
:106DD4000101CDBF08D00101CD5107E1050E01012C
:106DE400CC5DD8B002D080A6EAD7050E0101CC193B
:106DF4000101CD11D8A407D0660E3A6EC60E3B6EC3
:106E0400C20E3C6E12009BEC28F001500210D8B464
:106E140007D09A0E3A6EC60E3B6EC20E3C6E12003E
:106E2400000E046ECC0E036E26EC30F0000E046EE1
:106E3400BE0E036E26EC30F085EC2FF006C090F108
:106E440007C091F185EC2FF006C092F107C093F1D1
:106E540085EC2FF006C094F107C095F185EC2FF076
:106E640006C096F107C097F185EC2FF006C098F1A3
:106E740007C099F185EC2FF006C09AF107C09BF189
:106E840085EC2FF006C09CF107C09DF185EC2FF036
:106E940006C09EF107C09FF185EC2FF006C0A0F15B
:106EA40007C0A1F1000E0101C66F000EC56F0101FC
:106EB400C6BF08D00101C6514BE1090E0101C55DF1
:106EC400D8B046D0000E0101C86F000EC76F010193
:106ED400C8BF08D00101C85137E1080E0101C75DE0
:106EE400D8B032D0C7C13DF0D8900101C535D96EB4
:106EF4000101C635DA6E900ED926010EDA22DECFF4
:106F04003EF0DDCF3FF03D2A03D03F343F323E32E6
:106F14003D2EFBD7010E3E16000E3F16D890010100
:106F2400A235D96E0101A335DA6E000ED926010E01
:106F3400DA223EC0DEFF3FC0DDFF0101A24BA32BDE
:106F44000101C74BC82BC3D70101C54BC62BAFD713
:106F5400000E0101CD6F000ECC6F0101CDBF08D032
:106F64000101CD5152E1480E0101CC5DD8B04DD0A4
:106F7400D8900101CC35D96E0101CD35DA6E000E01
:106F8400D926010EDA22DECF3DF0DDCF3EF001013D
:106F9400B3513D180101C36F0101B4513E18010101
:106FA400C46FB5C1B3F1B6C1B4F1B7C1B5F1B8C1DD
:106FB400B6F10101C3510101B9190101B76F010112
:106FC400C4510101BA190101B86F0101C351010192
:106FD400BB190101B96F0101C4510101BC190101BF
:106FE400BA6FBDC1BBF1BEC1BCF1BFC1BDF1C0C16F
:106FF400BEF1C1C1BFF1C2C1C0F1C3C1C1F1C4C1BD
:10700400C2F10101CC4BCD2BA8D70101B351010131
:10701400B411D8A42AD00101B5510101B611D8A4E4
:1070240024D00101B7510101B811D8B406D001012F
:10703400B9510101BA11D8A418D00101BB51010101
:10704400BC11D8A412D00101BD510101BE11D8B4A4
:1070540006D00101BF510101C011D8A406D001011D
:10706400C1510101C211D8B407D0660E3A6EC70EE1
:107074003B6EC20E3C6E1200010116510101171144
:10708400D8A408D0000E0101A46F800E0101A56FE1
:107094003F0E07D0000E0101A46F800E0101A56F01
:1070A400BF0E0101A66F000E106E000E116E410E90
:1070B400126E02C109F003C10AF03EEC28F009C0C7
:1070C4000DF00AC00EF00BC00FF0F1EC2CF00DC067
:1070D40031F00EC032F00FC033F0000E106E800E8F
:1070E400116E410E126E00C109F001C10AF03EECAE
:1070F40028F009C00DF00AC00EF00BC00FF0F1EC3F
:107104002CF00DC02EF00EC02FF00FC030F0D7ECD5
:1071140030F02EC0A7F12FC0A8F130C0A9F1000EA5
:10712400106E800E116E400E126E04C109F005C17E
:107134000AF03EEC28F009C00DF00AC00EF00BC0B6
:107144000FF0F1EC2CF00DC031F00EC032F00FC096
:1071540033F0A7C12EF0A8C12FF0A9C130F0D7ECAD
:1071640030F02EC0AAF12FC0ABF130C0ACF1000E4C
:10717400106E000E116E400E126E06C109F007C1AA
:107184000AF03EEC28F009C00DF00AC00EF00BC066
:107194000FF0F1EC2CF00DC031F00EC032F00FC046
:1071A40033F0AAC12EF0ABC12FF0ACC130F0D7EC54
:1071B40030F02EC0ADF12FC0AEF130C0AFF108C138
:1071C40009F009C10AF03EEC28F009C031F00AC008
:1071D40032F00BC033F0ADC12EF0AEC12FF0AFC111
:1071E40030F0D7EC30F02EC0B0F12FC0B1F130C088
:1071F400B2F1B0C12EF0B1C12FF0B2C130F0000E27
:10720400186E000E196E400E1A6E0AC109F00BC1F9
:107214000AF03EEC28F009C015F00AC016F00BC0C5
:1072240017F0DEEC2DF015C031F016C032F017C0A7
:1072340033F0D7EC30F02EC0C9F12FC0CAF130C002
:10724400CBF1000E186E000E196E410E1A6E0EC1AF
:1072540009F00FC10AF03EEC28F009C015F00AC08D
:1072640016F00BC017F0DEEC2DF015C031F016C08F
:1072740032F017C033F0000E186E800E196E400EF7
:107284001A6E0CC109F00DC10AF03EEC28F009C0D9
:1072940015F00AC016F00BC017F0DEEC2DF015C087
:1072A4002EF016C02FF017C030F0D7EC30F02EC0FF
:1072B400A7F12FC0A8F130C0A9F1000E186E800EFE
:1072C400196E410E1A6E10C109F011C10AF03EEC9C
:1072D40028F009C015F00AC016F00BC017F0DEEC58
:1072E4002DF015C031F016C032F017C033F0A7C12D
:1072F4002EF0A8C12FF0A9C130F0D7EC30F02EC089
:10730400AAF12FC0ABF130C0ACF1000E186E000E24
:10731400196E420E1A6E12C109F013C10AF03EEC46
:1073240028F009C015F00AC016F00BC017F0DEEC07
:107334002DF015C031F016C032F017C033F0AAC1D9
:107344002EF0ABC12FF0ACC130F0D7EC30F02EC032
:10735400ADF12FC0AEF130C0AFF1000E186E800E4B
:10736400196E420E1A6E14C109F015C10AF03EECF2
:1073740028F009C015F00AC016F00BC017F0DEECB7
:107384002DF015C031F016C032F017C033F0ADC186
:107394002EF0AEC12FF0AFC130F0D7EC30F02EC0DC
:1073A400B0F12FC0B1F130C0B2F1B0C12EF0B1C113
:1073B4002FF0B2C130F0C9C131F0CAC132F0CBC133
:1073C40033F0D7EC30F02EC0C9F12FC0CAF130C071
:1073D400CBF1C9C115F0CAC116F0CBC117F0A4C1D5
:1073E40018F0A5C119F0A6C11AF0DEEC2DF015C0F5
:1073F400C9F116C0CAF117C0CBF1C9C13AF0CAC16C
:107404003BF0CBC13CF01200440E0001636F000E50
:107414000001646F65EF3FF0250E00017819D8B4C0
:107424000AD040C0D9FF41C0DAFF78C0DFFF404A2C
:10743400412A65EF3FF0000E0001686F000E676F90
:10744400000E0001666F000E656F42C0F6FF43C078
:10745400F7FF0800F550FAEC26F0D8A035D0000E5E
:107464000001686F000E676F67C00FF068C010F00E
:10747400000E126E0A0E116E3CEC27F00FC067F07E
:1074840010C068F0D00E4E6EFF0E4F6E42C0F6FF75
:1074940043C0F7FF0800F550506E516A4E50502615
:1074A4004F5051225050000167275150000168236A
:1074B400424A432A42C0F6FF43C0F7FF0800F55092
:1074C400FAEC26F0D8B0D0D742C0F6FF43C0F7FF9D
:1074D4000800F5502E0AD8A432D00001668D424A25
:1074E400432A000E0001776F000E766F1DD076C020
:1074F4000FF077C010F0000E126E0A0E116E3CEC05
:1075040027F042C0F6FF43C0F7FF0800F5500F26EE
:10751400000E1022D00E0F240001766FFF0E1020F3
:107524000001776F424A432A42C0F6FF43C0F7FF87
:107534000800F550FAEC26F0D8A00CD0D8D7000EED
:107544000001776F000E766F0001668903D0000199
:10755400668519D042C0F6FF43C0F7FF424A432A6A
:107564000800F5CF78F000017851000AD8B473EF21
:107574003FF0640AD8B407D0020AD8B4E8D70F0A97
:10758400D8A465EF3FF0070E00016615D8B44AD3BE
:10759400000166A905D0000E0001776F060E766F14
:1075A40063C0D9FF64C0DAFFDECF73F0DECF74F0BE
:1075B400DDCF75F0030E00016327000E6423000184
:1075C40075AF11D073C001F074C002F075C003F040
:1075D40018EC27F001C073F002C074F003C075F01A
:1075E400030E00016513000E0001726F000E716F2F
:1075F400000173510001741100017511D8B48BD0CE
:10760400820E4E6EFF0E4F6E73C050F074C051F078
:1076140075C052F076C053F0100E05D0D890533296
:10762400523251325032E82EF9D750504E240001D4
:10763400716F000E4F200001726F00017107D8A016
:10764400720771C00FF072C010F0000E126E030EBC
:10765400116E3CEC27F00FC071F010C072F071C0D5
:1076640007F072C008F0000E0A6E0A0E096E14ECE0
:107674002AF007C071F008C072F0000172AF04D0A4
:1076840000017107D8A0720700017151000876EC5F
:1076940034F024C069F025C06AF026C06BF069C0DC
:1076A40015F06AC016F06BC017F073C018F074C000
:1076B40019F075C01AF0DEEC2DF015C069F016C093
:1076C4006AF017C06BF069C001F06AC002F06BC0C9
:1076D40003F0000E046E800E056E3F0E066EDCECA9
:1076E4002AF0D8B005D000017107D8A0720713D0D2
:1076F40069C001F06AC002F06BC003F0000E046EB2
:10770400200E056E410E066EDCEC2AF0D8A003D0E4
:107714000001714B722B000177BF08D00001775133
:107724001DE10D0E0001765DD8B018D073C02EF0A7
:1077340074C02FF075C030F000017651ADEC31F01B
:1077440024C031F025C032F026C033F0D7EC30F03D
:107754002EC073F02FC074F030C075F0000172BFFA
:1077640008D00001725126E10A0E0001715DD8B003
:1077740021D0000173510001741100017511D8B4B6
:107784005BD073C02BF074C02CF075C02DF064EC8A
:107794002DF02B502C102D102E10D8A44DD00001FC
:1077A40072BF4AD00001725105E1020E0001715D01
:1077B400D8A042D069C001F06AC002F06BC003F0E7
:1077C400700E046E890E056E400E066EDCEC2AF017
:1077D400D8B003D00001F70E02D00001F80E7127D3
:1077E400FF0E72230001715176EC34F024C069F06D
:1077F40025C06AF026C06BF073C001F074C002F0BB
:1078040075C003F069C004F06AC005F06BC006F0EF
:10781400ECEC2EF001C06DF002C06EF003C06FF00E
:1078240004C070F0000E0001736F000E0001746F4D
:10783400000E0001756F33D073C02BF074C02CF0B0
:1078440075C02DF064EC2DF02BC06DF02CC06EF0E3
:107854002DC06FF02EC070F073C03AF074C03BF0CE
:1078640075C03CF06DC009F06EC00AF06FC00BF03B
:1078740070C00CF00CEC29F009C03DF00AC03EF0D9
:107884000BC03FF05AEC28F03AC073F03BC074F0E0
:107894003CC075F0000E0001726F000E716F010E96
:1078A4000001786F0A0E00017819D8B41ED00001C7
:1078B4007851040DF50EF324F66E7E0EF420F76E67
:1078C4000900F55000016D5D0900F55000016E5985
:1078D4000900F55000016F590900F5500001705975
:1078E400D8A003D00001782BDDD778C04EF04F6AC2
:1078F4004EBE4F06000176514E26000177514F22AD
:10790400000171514E26000172514F224E50000168
:10791400675F4F500001685B0001765100017711E9
:10792400D8B404D000016707D8A06807030E00018B
:1079340065154E6E000E000166154F6E4E504F10C9
:10794400D8B40DD008D040C0D9FF41C0DAFF200E12
:10795400DF6E404A412A00016707D8A0680700018A
:1079640068BF07D000016851EEE100016705D8B097
:10797400EAD7030E000165154E6E000E0001661570
:107984004F6E4E504F10D8B453D040C0D9FF41C0B1
:10799400DAFF2D0E4BD0404A412A4AD06DC001F087
:1079A4006EC002F06FC003F070C004F000017851A3
:1079B400040DF50EF324F66E7E0EF420F76E090026
:1079C400F5CF05F00900F5CF06F00900F5CF07F073
:1079D4000A00F5CF08F0D3EC29F001C069F002C029
:1079E4006AF003C06BF004C06CF069C00EF06AC0AA
:1079F4000FF06BC010F06CC011F00A0E126E000E86
:107A0400136E000E146E000E156E68EC29F00EC095
:107A140069F00FC06AF010C06BF011C06CF0000187
:107A24006951300F40C0D9FF41C0DAFFDF6EB3D7D0
:107A34000001780700017829D8B40DD0AFD740C031
:107A4400D9FF41C0DAFF300EDF6E404A412A0001FF
:107A54007107D8A07207000172BF07D000017251EC
:107A6400EEE100017105D8B0EAD7000177BF0CD070
:107A74000001775105E1090E0001765DD8A004D01C
:107A8400080E0001786F02D076C078F000017851BA
:107A94000001765F000E000178BFFF0E0001775BE6
:107AA400000178510001D8B408D040C0D9FF41C0CA
:107AB400DAFF2E0EDF6E404A412A0001785176EC3F
:107AC40034F024C060F025C061F026C062F073C0B9
:107AD40018F074C019F075C01AF060C015F061C0D8
:107AE40016F062C017F0DEEC2DF015C02BF016C0B6
:107AF4002CF017C02DF064EC2DF02BC06DF02CC0D1
:107B04006EF02DC06FF02EC070F072D06DC001F019
:107B14006EC002F06FC003F070C004F00001785131
:107B2400040DF50EF324F66E7E0EF420F76E0900B4
:107B3400F5CF05F00900F5CF06F00900F5CF07F001
:107B44000A00F5CF08F0D3EC29F001C069F002C0B7
:107B54006AF003C06BF004C06CF069C00EF06AC038
:107B64000FF06BC010F06CC011F00A0E126E000E14
:107B7400136E000E146E000E156E68EC29F00EC024
:107B840069F00FC06AF010C06BF011C06CF0000116
:107B94006951300F40C0D9FF41C0DAFFDF6E404A5F
:107BA400412A6DC00EF06EC00FF06FC010F070C0AF
:107BB40011F000017851040DF50EF324F66E7E0EDB
:107BC400F420F76E0900F5CF12F00900F5CF13F099
:107BD4000900F5CF14F00A00F5CF15F068EC29F090
:107BE4000EC06DF00FC06EF010C06FF011C070F0D9
:107BF4000001780700017829D8B40DD087D740C098
:107C0400D9FF41C0DAFF300EDF6E404A412A00013D
:107C14007607D8A077070001765100017711D8B410
:107C240052D1EDD763C0D9FF64C0DAFFDECF6DF067
:107C3400DDCF6EF00001000E6EBFFF0E6F6F706F30
:107C4400020E00016327000E6423000170AF0CD004
:107C5400030E000165130001701F6F1F6E1F6D6D11
:107C6400000E6E236F2370230001765100017711FB
:107C7400D8A40DD000016D5100016E1100016F11E7
:107C840000017011D8A403D00001764B772B010EAC
:107C94000001786F0A0E00017819D8B41ED00001D3
:107CA4007851040DF50EF324F66E7E0EF420F76E73
:107CB4000900F55000016D5D0900F55000016E5991
:107CC4000900F55000016F590900F5500001705981
:107CD400D8A003D00001782BDDD7800E000178BF37
:107CE4007F0E4E6E000176510001785D00017751E0
:107CF400800A4E58D8B003D076C078F016D0000170
:107D04007751800A4E6E000178510001765D800E35
:107D1400000178BF7F0E4E58D8B007D000017851CB
:107D24000001766F776B76BF77070001675100011A
:107D34006811D8B410D0030E000165154E6E000E04
:107D4400000166154F6E4E504F10D8B404D0000198
:107D54006707D8A06807000166AD1CD00001675111
:107D64000001765D00017751800A4E6E0001685172
:107D7400800A4E58D8B009D0000176510001675FDF
:107D8400000177510001685B05D0000E0001686FA7
:107D9400000E676F800E000178BF7F0E4E6E0001EB
:107DA40067510001785D00016851800A4E58D8B0CF
:107DB4000BD0000178510001675F000E000178BF0D
:107DC400FF0E0001685B05D0000E0001686F000E15
:107DD400676F0001675100016811D8B412D040C028
:107DE400D9FF41C0DAFF200EDF6E404A412A00016C
:107DF4006707D8A068070001675100016811D8A47B
:107E0400EED7030E000165154E6E000E00016615D7
:107E14004F6E4E504F10D8B44BD040C0D9FF41C024
:107E2400DAFF2D0EDF6E42D076C04EF077C04FF0F1
:107E3400D8904E364F36D8904E364F36F50E4E24E7
:107E4400F66E7E0E4F20F76E0900F5CF05F009009F
:107E5400F5CF06F00900F5CF07F00A00F5CF08F0DA
:107E64006DC001F06EC002F06FC003F070C004F08A
:107E7400D3EC29F001C00EF002C00FF003C010F0E3
:107E840004C011F00A0E126E000E136E000E146E72
:107E9400000E156E68EC29F00E50300F0001786F5B
:107EA40040C0D9FF41C0DAFF78C0DFFF404A412A11
:107EB40000017607D8A0770700017629B5E1000113
:107EC4007729D8A4B1D742C0F6FF43C0F7FF424A8E
:107ED400432A0800F5CF78F000017851D8A40EEFBA
:107EE4003AF040C0D9FF41C0DAFF000EDF6E120045
:107EF40000010000000A00000064000000E8030024
:107F04000010270000A086010040420F00809698D0
:107F14000000E1F50500CA9A3B00803FCDCC3DD777
:107F2400233C12833AB7D138C62737388635C0D6B2
:107F340033CC2B32708930E7DB2EE53C1E42A20D98
:107F440000803F00204100C842007A44401C465053
:107F5400C34724744997184BBCBE4C6B6E4E031533
:107F64005079AD60F3497120252E316620252E31DC
:107F7400662025332E30642025332E3064002D2DC9
:107F84002E2E2D2D002E2D2E2D2E2D002D2E2E2E6F
:107F94002E2D002E2E2D2D2E2E00454153415432D0
:107FA400002D2D2D2D2D002E2D2D2D2D002E2E2D81
:107FB4002D2D002E2E2E2D2D002D2D2D2D2E002D70
:107FC4002E2E2D2E002D2D2D2E2E002D2D2E2E2E2F
:107FD400002D2E2E2E2E002E2E2E2E2E002D2E2D4A
:107FE4002D002D2D2E2D002D2E2E2D002E2D2D2E3F
:0C7FF400002D2E2D2E002E2D2E2E000014
:020000040020DA
:08000000FFFFFFFFFFFFFFFF00
:020000040030CA
:0E000000FF21193CFF8581FF0FC00F400F400C
:00000001FF
