:0400000053EF00F0CA
:060008004682BEEF0DF080
:100018004680D8CF60F0E8CF61F0E0CF62F0FACF49
:1000280063F0FBCF64F0E9CF65F0EACF66F0E1CF8B
:1000380067F0E2CF68F0D9CF69F0DACF6AF0F3CF92
:100048006BF0F4CF6CF0F6CF6DF0F7CF6EF0F8CF21
:100058006FF0F5CF70F070C0F5FF6FC0F8FF6EC09D
:10006800F7FF6DC0F6FF6CC0F4FF6BC0F3FF6AC00A
:10007800DAFF69C0D9FF68C0E2FF67C0E1FF66C068
:10008800EAFF65C0E9FF64C0FBFF63C0FAFF62C016
:10009800E0FF61C0E8FF60C0D8FF46901000F1EFB4
:1000A8001AF0A40E0001B76F000E0001B86F01EF3F
:1000B80006F0250E0001CC19D8B40BD0A0C0D9FF8A
:1000C800A1C0DAFFCCC0DFFF0001A04BA12B01EFDC
:1000D80006F0000E0001BC6F000EBB6F000E0001A1
:1000E800BA6F000EB96FA2C0F6FFA3C0F7FF0800F1
:1000F800F550DEEC1CF0D8A040D0000E0001BC6F1B
:10010800000EBB6FBBC071F0BCC072F0000E0001E6
:10011800746F0A0E736F32EC1CF071C0BBF072C0C2
:10012800BCF0D00E0001AE6FFF0E0001AF6FA2C091
:10013800F6FFA3C0F7FF0800F5500001B06FB16BE0
:100148000001AE510001B0270001AF510001B123F9
:100158000001B0510001BB270001B1510001BC23CF
:100168000001A24BA32BA2C0F6FFA3C0F7FF080013
:10017800F550DEEC1CF0D8B0C5D7A2C0F6FFA3C07E
:10018800F7FF0800F5502E0AD8A439D00001BA8D1F
:100198000001A24BA32B000E0001CB6F000ECA6F0B
:1001A80023D0CAC071F0CBC072F0000E0001746F8A
:1001B8000A0E736F32EC1CF0A2C0F6FFA3C0F7FF63
:1001C8000800F55000017127000E00017223D00EBF
:1001D800000171250001CA6FFF0E000172210001A4
:1001E800CB6F0001A24BA32BA2C0F6FFA3C0F7FF61
:1001F8000800F550DEEC1CF0D8A00CD0D2D7000EC9
:100208000001CB6F000ECA6F0001BA8903D000014C
:10021800BA851AD0A2C0F6FFA3C0F7FF0001A24B0F
:10022800A32B0800F5CFCCF00001CC51000AD8B4BC
:1002380010EF06F0640AD8B407D0020AD8B4E7D79A
:100248000F0AD8A401EF06F0070E0001BA15D8B4BA
:100258006CD30001BAA905D0000E0001CB6F060EC1
:10026800CA6FB7C0D9FFB8C0DAFFDECFC7F0DECF9C
:10027800C8F0DDCFC9F0030E0001B727000EB82380
:100288000001C9AF11D0C7C01AF0C8C01BF0C9C05F
:100298001CF0CCEC1CF01AC0C7F01BC0C8F01CC086
:1002A800C9F0030E0001B913000E0001C66F000E5D
:1002B800C56F0001C7510001C8110001C911D8B4A8
:1002C80092D0820E0001AE6FFF0E0001AF6FC7C063
:1002D800B0F0C8C0B1F0C9C0B2F0CAC0B3F0100ED7
:1002E80006D00001D890B333B233B133B033E82E1F
:1002F800F8D70001B0510001AE250001C56F000E0E
:100308000001AF210001C66F0001C507D8A0C607CC
:10031800C5C071F0C6C072F0000E0001746F030E04
:10032800736F32EC1CF071C0C5F072C0C6F0C5C066
:1003380020F0C6C021F0000E236E0A0E226EACEC2F
:1003480019F020C0C5F021C0C6F00001C6AF04D026
:100358000001C507D8A0C6070001C5510008E3EC95
:1003680009F084C0BDF085C0BEF086C0BFF0BDC036
:1003780075F0BEC076F0BFC077F0C7C078F0C8C0CF
:1003880079F0C9C07AF063EC13F075C0BDF076C09F
:10039800BEF077C0BFF0BDC01AF0BEC01BF0BFC032
:1003A8001CF0000E1D6E800E1E6E3F0E1F6E1EECA2
:1003B80019F0D8B005D00001C507D8A0C60713D0DA
:1003C800BDC01AF0BEC01BF0BFC01CF0000E1D6EF1
:1003D800200E1E6E410E1F6E1EEC19F0D8A003D021
:1003E8000001C54BC62B0001CBBF08D00001CB5183
:1003F8001DE10D0E0001CA5DD8B018D0C7C08EF03F
:10040800C8C08FF0C9C090F00001CA515FEC0FF06E
:1004180084C091F085C092F086C093F0A4EC10F0EF
:100428008EC0C7F08FC0C8F090C0C9F00001C6BF29
:1004380008D00001C6512AE10A0E0001C55DD8B0F6
:1004480025D00001C7510001C8110001C911D8B455
:100458005FD0C7C08BF0C8C08CF0C9C08DF012EC5B
:1004680014F000018B5100018C1100018D11000165
:100478008E11D8A44DD00001C6BF4AD00001C65184
:1004880005E1020E0001C55DD8A042D0BDC01AF03A
:10049800BEC01BF0BFC01CF0700E1D6E890E1E6E14
:1004A800400E1F6E1EEC19F0D8B003D00001F70EF5
:1004B80002D00001F80EC527FF0EC6230001C55162
:1004C800E3EC09F084C0BDF085C0BEF086C0BFF083
:1004D800C7C01AF0C8C01BF0C9C01CF0BDC01DF0D1
:1004E800BEC01EF0BFC01FF054EC15F01AC0C1F01A
:1004F8001BC0C2F01CC0C3F01DC0C4F0000E000138
:10050800C76F000E0001C86F000E0001C96F33D01D
:10051800C7C08BF0C8C08CF0C9C08DF012EC14F0C5
:100528008BC0C1F08CC0C2F08DC0C3F08EC0C4F0C7
:10053800C7C09AF0C8C09BF0C9C09CF0C1C071F098
:10054800C2C072F0C3C073F0C4C074F067EC1AF094
:1005580071C09DF072C09EF073C09FF03FEC1BF01D
:100568009AC0C7F09BC0C8F09CC0C9F0000E00013B
:10057800C66F000EC56F010E0001CC6F0A0E000198
:10058800CC19D8B41ED00001CC51040DF50EF324BB
:10059800F66E7E0EF420F76E0900F5500001C15D7D
:1005A8000900F5500001C2590900F5500001C3596E
:1005B8000900F5500001C459D8A003D00001CC2B84
:1005C800DDD7CCC0AEF00001AF6BAEBFAF07000106
:1005D800CA510001AE270001CB510001AF23000131
:1005E800C5510001AE270001C6510001AF2300012B
:1005F800AE510001BB5F0001AF510001BC5B0001BF
:10060800CA510001CB11D8B404D00001BB07D8A04F
:10061800BC07030E0001B9150001AE6F000E000102
:10062800BA150001AF6F0001AE510001AF11D8B487
:100638000ED009D0A0C0D9FFA1C0DAFF200EDF6E0E
:100648000001A04BA12B0001BB07D8A0BC070001EB
:10065800BCBF07D00001BC51EDE10001BB05D8B01B
:10066800E9D7030E0001B9150001AE6F000E0001B5
:10067800BA150001AF6F0001AE510001AF11D8B437
:1006880055D0A0C0D9FFA1C0DAFF2D0E4DD0000172
:10069800A04BA12B4BD0C1C01AF0C2C01BF0C3C0E5
:1006A8001CF0C4C01DF00001CC51040DF50EF3245C
:1006B800F66E7E0EF420F76E0900F5CF1EF00900E5
:1006C800F5CF1FF00900F5CF20F00A00F5CF21F093
:1006D800EEEC19F01AC0BDF01BC0BEF01CC0BFF094
:1006E8001DC0C0F0BDC071F0BEC072F0BFC073F0D5
:1006F800C0C074F00A0E0001756F000E766F000E10
:10070800776F000E786FD4EC18F071C0BDF072C02E
:10071800BEF073C0BFF074C0C0F00001BD51300F0F
:10072800A0C0D9FFA1C0DAFFDF6EB1D70001CC07A6
:100738000001CC29D8B40ED0AED7A0C0D9FFA1C033
:10074800DAFF300EDF6E0001A04BA12B0001C507B8
:10075800D8A0C6070001C6BF07D00001C651EDE109
:100768000001C505D8B0E9D70001CBBF0CD0000106
:10077800CB5105E1090E0001CA5DD8A004D0080ECE
:100788000001CC6F02D0CAC0CCF00001CC510001EE
:10079800CA5F000E0001CCBFFF0E0001CB5B000159
:1007A800CC510001D8B409D0A0C0D9FFA1C0DAFF4C
:1007B8002E0EDF6E0001A04BA12B0001CC51E3EC03
:1007C80009F084C0B4F085C0B5F086C0B6F0C7C0E3
:1007D80078F0C8C079F0C9C07AF0B4C075F0B5C077
:1007E80076F0B6C077F063EC13F075C08BF076C086
:1007F8008CF077C08DF012EC14F08BC0C1F08CC077
:10080800C2F08DC0C3F08EC0C4F074D0C1C01AF05D
:10081800C2C01BF0C3C01CF0C4C01DF00001CC5105
:10082800040DF50EF324F66E7E0EF420F76E090023
:10083800F5CF1EF00900F5CF1FF00900F5CF20F025
:100848000A00F5CF21F0EEEC19F01AC0BDF01BC07C
:10085800BEF01CC0BFF01DC0C0F0BDC071F0BEC06E
:1008680072F0BFC073F0C0C074F00A0E0001756F5B
:10087800000E766F000E776F000E786FD4EC18F0CC
:1008880071C0BDF072C0BEF073C0BFF074C0C0F0DC
:100898000001BD51300FA0C0D9FFA1C0DAFFDF6E43
:1008A8000001A04BA12BC1C071F0C2C072F0C3C03F
:1008B80073F0C4C074F00001CC51040DF50EF3249C
:1008C800F66E7E0EF420F76E0900F5CF75F009007C
:1008D800F5CF76F00900F5CF77F00A00F5CF78F07C
:1008E800D4EC18F071C0C1F072C0C2F073C0C3F08C
:1008F80074C0C4F00001CC070001CC29D8B40ED0D4
:1009080085D7A0C0D9FFA1C0DAFF300EDF6E000185
:10091800A04BA12B0001CA07D8A0CB070001CA51E0
:100928000001CB11D8B469D1ECD7B7C0D9FFB8C092
:10093800DAFFDECFC1F0DDCFC2F00001000EC2BF8A
:10094800FF0EC36FC46F020E0001B727000EB82355
:100958000001C4AF0CD0030E0001B9130001C41F7D
:10096800C31FC21FC16D000EC223C323C4230001CD
:10097800CA510001CB11D8A40DD00001C15100010A
:10098800C2110001C3110001C411D8A403D0000191
:10099800CA4BCB2B010E0001CC6F0A0E0001CC19FB
:1009A800D8B41ED00001CC51040DF50EF324F66E18
:1009B8007E0EF420F76E0900F5500001C15D0900B4
:1009C800F5500001C2590900F5500001C35909004A
:1009D800F5500001C459D8A003D00001CC2BDDD7B5
:1009E800800E0001CCBF7F0E0001AE6F0001CA511E
:1009F8000001CC5D0001CB51800A0001AE59D8B08E
:100A080003D0CAC0CCF018D00001CB51800A000135
:100A1800AE6F0001CC510001CA5D800E0001CCBF51
:100A28007F0E0001AE59D8B007D00001CC510001AB
:100A3800CA6FCB6BCABFCB070001BB510001BC1109
:100A4800D8B414D0030E0001B9150001AE6F000E22
:100A58000001BA150001AF6F0001AE510001AF11DE
:100A6800D8B404D00001BB07D8A0BC070001BAADB8
:100A78001ED00001BB510001CA5D0001CB51800AA4
:100A88000001AE6F0001BC51800A0001AE59D8B018
:100A980009D00001CA510001BB5F0001CB51000120
:100AA800BC5B05D0000E0001BC6F000EBB6F800E52
:100AB8000001CCBF7F0E0001AE6F0001BB510001E9
:100AC800CC5D0001BC51800A0001AE59D8B00BD0F2
:100AD8000001CC510001BB5F000E0001CCBFFF0E2E
:100AE8000001BC5B05D0000E0001BC6F000EBB6F9F
:100AF8000001BB510001BC11D8B413D0A0C0D9FF6C
:100B0800A1C0DAFF200EDF6E0001A04BA12B00016F
:100B1800BB07D8A0BC070001BB510001BC11D8A479
:100B2800EDD7030E0001B9150001AE6F000E0001EC
:100B3800BA150001AF6F0001AE510001AF11D8B472
:100B480051D0A0C0D9FFA1C0DAFF2D0EDF6E47D06B
:100B5800CAC0AEF0CBC0AFF00001D890AE37AF3707
:100B68000001D890AE37AF37F50E0001AE25F66E0E
:100B78007E0EAF21F76E0900F5CF1EF00900F5CF04
:100B88001FF00900F5CF20F00A00F5CF21F0C1C011
:100B98001AF0C2C01BF0C3C01CF0C4C01DF0EEECBC
:100BA80019F01AC071F01BC072F01CC073F01DC0A0
:100BB80074F00A0E0001756F000E766F000E776FE5
:100BC800000E786FD4EC18F000017151300F00015D
:100BD800CC6FA0C0D9FFA1C0DAFFCCC0DFFF0001F5
:100BE800A04BA12B0001CA07D8A0CB070001CA2936
:100BF800AFE10001CB29D8A4ABD7A2C0F6FFA3C0B0
:100C0800F7FF0001A24BA32B0800F5CFCCF00001A1
:100C1800CC51D8A45DEF00F0A0C0D9FFA1C0DAFF85
:100C2800000EDF6E1200000E0101B46F000EB36FEC
:100C3800000E0101B66F000EB56F000E0101B86F0E
:100C4800000EB76F000E0101BA6F000EB96F000EEB
:100C58000101BC6F000EBB6F000E0101BE6F000EDC
:100C6800BD6F000E0101C06F000EBF6F000E0101C5
:100C7800C26F000EC16F000E0101C46F000EC36F7A
:100C8800000E0101A36F000EA26F000E0101C66FD6
:100C9800000EC56F000E0101C86F000EC76F000E71
:100CA8000101C96F000E0101CA6F000E0101CB6F6F
:100CB800000E0101A46F800E0101A56F3F0E010116
:100CC800A66F000E0101CD6F000ECC6FF29E65EC91
:100CD8001BF01A501B10D8B40AD0330E00019A6FBB
:100CE800C60E00019B6FC20E00019C6F1200000E21
:100CF8001D6ECC0E1C6EA2EC12F0000E1D6E440E82
:100D08001C6EA2EC12F09286F28E000E0101CD6FDD
:100D1800000ECC6F09D0000E206E010E1F6E18EC6D
:100D28001BF00101CC4BCD2B0101CDBF08D0010137
:100D3800CD5107E1050E0101CC5DD8B002D080A6E7
:100D4800EAD7050E0101CC190101CD11D8A40AD0AA
:100D5800660E00019A6FC60E00019B6FC20E00015D
:100D68009C6F1200F29E65EC1BF01A501B10D8B451
:100D78000AD09A0E00019A6FC60E00019B6FC20E30
:100D880000019C6F1200000E1D6ECC0E1C6EA2ECB2
:100D980012F0000E1D6EBE0E1C6EA2EC12F0D8EC06
:100DA80011F01FC090F120C091F1D8EC11F01FC0D4
:100DB80092F120C093F1D8EC11F01FC094F120C03B
:100DC80095F1D8EC11F01FC096F120C097F1D8EC3E
:100DD80011F01FC098F120C099F1D8EC11F01FC094
:100DE8009AF120C09BF1D8EC11F01FC09CF120C0F3
:100DF8009DF1D8EC11F01FC09EF120C09FF1D8ECF6
:100E080011F01FC0A0F120C0A1F1F28E000E010167
:100E1800C66F000EC56F0101C6BF08D00101C651DB
:100E28004FE1090E0101C55DD8B04AD0000E01019D
:100E3800C86F000EC76F0101C8BF08D00101C851B3
:100E48003BE1080E0101C75DD8B036D0C7C19DF09F
:100E5800D8900101C535D96E0101C635DA6E900EFC
:100E6800D926010EDA22DECF9EF0DDCF9FF00001F9
:100E78009D2B04D000019F359F339E3300019D2F89
:100E8800F9D7010E00019E17000E9F17D890010197
:100E9800A235D96E0101A335DA6E000ED926010EEE
:100EA800DA229EC0DEFF9FC0DDFF0101A24BA32B0B
:100EB8000101C74BC82BBFD70101C54BC62BABD708
:100EC800000E0101CD6F000ECC6F0101CDBF08D01F
:100ED8000101CD5154E1480E0101CC5DD8B04FD08D
:100EE800D8900101CC35D96E0101CD35DA6E000EEE
:100EF800D926010EDA22DECF9DF0DDCF9EF001016A
:100F0800B35100019D190101C36F0101B4510001E2
:100F18009E190101C46FB5C1B3F1B6C1B4F1B7C12F
:100F2800B5F1B8C1B6F10101C3510101B919010107
:100F3800B76F0101C4510101BA190101B86F01016C
:100F4800C3510101BB190101B96F0101C45101016C
:100F5800BC190101BA6FBDC1BBF1BEC1BCF1BFC1B3
:100F6800BDF1C0C1BEF1C1C1BFF1C2C1C0F1C3C1B1
:100F7800C1F1C4C1C2F10101CC4BCD2BA6D70101EF
:100F8800B3510101B411D8A42AD00101B55101010E
:100F9800B611D8A424D00101B7510101B811D8B4B1
:100FA80006D00101B9510101BA11D8A418D0010124
:100FB800BB510101BC11D8A412D00101BD510101DE
:100FC800BE11D8B406D00101BF510101C011D8A487
:100FD80006D00101C1510101C211D8B40AD0660E70
:100FE80000019A6FC70E00019B6FC20E00019C6F33
:100FF80012000101165101011711D8A408D0000EE2
:101008000101A46F800E0101A56F3F0E07D0000EED
:101018000101A46F800E0101A56FBF0E0101A66F2B
:10102800000E0001776F000E0001786F410E00017D
:10103800796F02C171F003C172F0C5EC1BF071C089
:1010480074F072C075F073C076F0B4EC14F074C02C
:1010580091F075C092F076C093F0000E0001776FA2
:10106800800E0001786F410E0001796F00C171F0A8
:1010780001C172F0C5EC1BF071C074F072C075F05C
:1010880073C076F0B4EC14F074C08EF075C08FF0B5
:1010980076C090F0A4EC10F08EC0A7F18FC0A8F134
:1010A80090C0A9F1000E0001776F800E0001786FE3
:1010B800400E0001796F04C171F005C172F0C5ECF2
:1010C8001BF071C074F072C075F073C076F0B4ECA8
:1010D80014F074C091F075C092F076C093F0A7C177
:1010E8008EF0A8C18FF0A9C190F0A4EC10F08EC0CA
:1010F800AAF18FC0ABF190C0ACF1000E0001776F80
:10110800000E0001786F400E0001796F06C171F082
:1011180007C172F0C5EC1BF071C074F072C075F0B5
:1011280073C076F0B4EC14F074C091F075C092F00E
:1011380076C093F0AAC18EF0ABC18FF0ACC190F02D
:10114800A4EC10F08EC0ADF18FC0AEF190C0AFF13D
:1011580008C171F009C172F0C5EC1BF071C091F0C3
:1011680072C092F073C093F0ADC18EF0AEC18FF033
:10117800AFC190F0A4EC10F08EC0B0F18FC0B1F107
:1011880090C0B2F1B0C18EF0B1C18FF0B2C190F091
:10119800000E0001786F000E0001796F400E00010B
:1011A8007A6F0AC171F00BC172F0C5EC1BF071C007
:1011B80075F072C076F073C077F063EC13F075C009
:1011C80091F076C092F077C093F0A4EC10F08EC046
:1011D800C9F18FC0CAF190C0CBF1000E0001786F41
:1011E800000E0001796F410E00017A6F0EC171F097
:1011F8000FC172F0C5EC1BF071C075F072C076F0CB
:1012080073C077F063EC13F075C091F076C092F07C
:1012180077C093F0000E0001786F800E0001796F9F
:10122800400E00017A6F0CC171F00DC172F0C5EC6F
:101238001BF071C075F072C076F073C077F063EC84
:1012480013F075C08EF076C08FF077C090F0A4ECE4
:1012580010F08EC0A7F18FC0A8F190C0A9F1000EC0
:101268000001786F800E0001796F410E00017A6FDE
:1012780010C171F011C172F0C5EC1BF071C075F0AE
:1012880072C076F073C077F063EC13F075C091F01C
:1012980076C092F077C093F0A7C18EF0A8C18FF006
:1012A800A9C190F0A4EC10F08EC0AAF18FC0ABF1E8
:1012B80090C0ACF1000E0001786F000E0001796F4C
:1012C800420E00017A6F12C171F013C172F0C5ECC1
:1012D8001BF071C075F072C076F073C077F063ECE4
:1012E80013F075C091F076C092F077C093F0AAC160
:1012F8008EF0ABC18FF0ACC190F0A4EC10F08EC0B2
:10130800ADF18FC0AEF190C0AFF1000E0001786F63
:10131800800E0001796F420E00017A6F14C171F0DE
:1013280015C172F0C5EC1BF071C075F072C076F093
:1013380073C077F063EC13F075C091F076C092F04B
:1013480077C093F0ADC18EF0AEC18FF0AFC190F011
:10135800A4EC10F08EC0B0F18FC0B1F190C0B2F122
:10136800B0C18EF0B1C18FF0B2C190F0C9C191F097
:10137800CAC192F0CBC193F0A4EC10F08EC0C9F1B1
:101388008FC0CAF190C0CBF1C9C175F0CAC176F05F
:10139800CBC177F0A4C178F0A5C179F0A6C17AF0E5
:1013A80063EC13F075C0C9F176C0CAF177C0CBF110
:1013B800C9C19AF0CAC19BF0CBC19CF012000001D0
:1013C8008A6F00018AAF19D100018A6D00018A5124
:1013D800800A120FD8A0A1D0000E0001746F030E6E
:1013E800736F000E236E0A0E226E000E1D6E640EC1
:1013F8001C6E00018A511A6E1B6A1ABE1B062FEC5E
:101408001AF01AC020F01BC021F0ACEC19F0090E3C
:1014180020240001716F000E21200001726F32EC50
:101428001CF0440E00017125F66E7F0E000172213A
:10143800F76E0900F5CF78F00900F5CF79F00A00CA
:10144800F5CF7AF0000E236E640E226E00018A51E9
:10145800206E216A20BE2106ACEC19F0120E202461
:101468000001716F000E21200001726F000E000153
:10147800746F030E736F32EC1CF0440E000171257B
:10148800F66E7F0E00017221F76E0900F5CF75F038
:101498000900F5CF76F00A00F5CF77F063EC13F08A
:1014A80075C087F076C088F077C089F087C075F07E
:1014B80088C076F089C077F0000E0001746F030EC3
:1014C800736F000E1D6E0A0E1C6E00018A511A6E93
:1014D8001B6A1ABE1B062FEC1AF01AC071F01BC04B
:1014E80072F032EC1CF0440E00017125F66E7F0E8E
:1014F80000017221F76E0900F5CF78F00900F5CFE9
:1015080079F00A00F5CF7AF063EC13F075C084F037
:1015180076C085F077C086F0120000018A51800AF3
:10152800750FD8A057D0000E236E0A0E226E000148
:101538008A51206E216A20BE2106ACEC19F0090EF2
:1015480020240001716F000E21200001726F000E2F
:101558000001746F030E736F32EC1CF0440E00012F
:101568007125F66E7F0E00017221F76E0900F5CF26
:1015780075F00900F5CF76F00A00F5CF77F0000E88
:101588000001746F030E736F000E1D6E0A0E1C6E41
:1015980000018A511A6E1B6A1ABE1B062FEC1AF03C
:1015A8001AC071F01BC072F032EC1CF0440E00013E
:1015B8007125F66E7F0E00017221F76E0900F5CFD6
:1015C80078F00900F5CF79F00A00F5CF7AF063ECEE
:1015D80013F09CD700018A51030D440EF324F66ED4
:1015E8007F0EF420F76E0900F5CF84F00900F5CFDF
:1015F80085F00A00F5CF86F0120000018A51800AB2
:10160800120FD8A0A1D0000E0001746F030E736FE3
:10161800000E236E0A0E226E000E1D6E640E1C6EE6
:1016280000018A511A6E1B6A1ABE1B062FEC1AF0AB
:101638001AC020F01BC021F0ACEC19F0090E2024D0
:101648000001716F000E21200001726F32EC1CF056
:101658001D0E00017125F66E7F0E00017221F76ED6
:101668000900F5CF78F00900F5CF79F00A00F5CF39
:101678007AF0000E236E640E226E00018A51206EED
:10168800216A20BE2106ACEC19F0120E20240001BC
:10169800716F000E21200001726F000E0001746F3F
:1016A800030E736F32EC1CF01D0E00017125F66EEF
:1016B8007F0E00017221F76E0900F5CF75F0090061
:1016C800F5CF76F00A00F5CF77F063EC13F075C02C
:1016D80087F076C088F077C089F087C075F088C039
:1016E80076F089C077F0000E0001746F030E736FF7
:1016F800000E1D6E0A0E1C6E00018A511A6E1B6ABE
:101708001ABE1B062FEC1AF01AC071F01BC072F03B
:1017180032EC1CF01D0E00017125F66E7F0E0001E3
:101728007221F76E0900F5CF78F00900F5CF79F04E
:101738000A00F5CF7AF063EC13F075C084F076C038
:1017480085F077C086F0120000018A51800A750F73
:10175800D8A057D0000E236E0A0E226E00018A51BF
:10176800206E216A20BE2106ACEC19F0090E202457
:101778000001716F000E21200001726F000E000140
:10178800746F030E736F32EC1CF01D0E000171258F
:10179800F66E7F0E00017221F76E0900F5CF75F025
:1017A8000900F5CF76F00A00F5CF77F0000E0001BA
:1017B800746F030E736F000E1D6E0A0E1C6E00010F
:1017C8008A511A6E1B6A1ABE1B062FEC1AF01AC031
:1017D80071F01BC072F032EC1CF01D0E0001712577
:1017E800F66E7F0E00017221F76E0900F5CF78F0D2
:1017F8000900F5CF79F00A00F5CF7AF063EC13F021
:101808009CD700018A51030D1D0EF324F66E7F0E3E
:10181800F420F76E0900F5CF84F00900F5CF85F0C4
:101828000A00F5CF86F01200266E22D1E80E206E4F
:101838007F0E216E9AEC1AF09AD1D00E206E7F0E90
:10184800216E9AEC1AF093D1F50E206E7F0E216E60
:101858009AEC1AF08CD1CB0E206E7F0E216E9AEC8A
:101868001AF085D1C10E206E7F0E216E9AEC1AF007
:101878007ED1C40E206E7F0E216E9AEC1AF077D1BD
:10188800BF0E206E7F0E216E9AEC1AF070D1D60E24
:10189800206E7F0E216E9AEC1AF069D1CC0E206E64
:1018A8007F0E216E9AEC1AF062D1B20E206E7F0E76
:1018B800216E9AEC1AF05BD1E70E206E7F0E216E36
:1018C8009AEC1AF054D1FA0E206E7F0E216E9AEC23
:1018D8001AF04DD1A80E206E7F0E216E9AEC1AF0E8
:1018E80046D1C00E206E7F0E216E9AEC1AF03FD1C1
:1018F800A70E206E7F0E216E9AEC1AF038D1F00EEA
:10190800206E7F0E216E9AEC1AF031D1E60E206E11
:101918007F0E216E9AEC1AF02AD1F60E206E7F0EF9
:10192800216E9AEC1AF023D1D10E206E7F0E216E13
:101938009AEC1AF01CD1A90E206E7F0E216E9AEC3B
:101948001AF015D1EC0E206E7F0E216E9AEC1AF06B
:101958000ED1920E206E7F0E216E9AEC1AF007D1EE
:10196800E20E206E7F0E216E9AEC1AF000D1EB0E7B
:10197800206E7F0E216E9AEC1AF0F9D0E10E206EDF
:101988007F0E216E9AEC1AF0F2D0CA0E206E7F0EEE
:10199800216E9AEC1AF0EBD0A50E206E7F0E216E08
:1019A8009AEC1AF0E4D0AB0E206E7F0E216E9AEC02
:1019B8001AF0DDD0B10E206E7F0E216E9AEC1AF06F
:1019C800D6D0B70E206E7F0E216E9AEC1AF0CFD0CB
:1019D800910E206E7F0E216E9AEC1AF0C8D0DB0EA5
:1019E800206E7F0E216E9AEC1AF0C1D0D50E206EB3
:1019F8007F0E216E9AEC1AF0BAD0CF0E206E7F0EB1
:101A0800216E9AEC1AF0B3D0C90E206E7F0E216EAB
:101A18009AEC1AF0ACD0BD0E206E7F0E216E9AECB7
:101A28001AF0A5D0820E206E7F0E216E9AEC1AF065
:101A38009ED0970E206E7F0E216E9AEC1AF097D0EA
:101A4800C30E206E7F0E216E9AEC1AF090D0890E8C
:101A5800206E7F0E216E9AEC1AF089D0900E206EBF
:101A68007F0E216E9AEC1AF082D02EEC1DF07FD0FA
:101A78002650200AD8B4F9D70C0AD8B4D3D7010A0B
:101A8800D8B4ECD7030AD8B4E2D7010AD8B4D8D767
:101A98001F0AD8B481D7010AD8B485D7030AD8B4A5
:101AA80089D7010AD8B48DD7070AD8B491D7010AC3
:101AB800D8B495D7030AD8B499D7010AD8B49DD712
:101AC8000F0AD8B4A1D7010AD8B4A5D7060AD8B442
:101AD800B0D77E0AD8B4AAD6030AD8B4AED6010ABB
:101AE800D8B4B2D6070AD8B4B6D6010AD8B4BAD68A
:101AF800030AD8B4BED6010AD8B4C2D60F0AD8B4DD
:101B0800C6D6010AD8B4CAD6030AD8B4CED6010AB2
:101B1800D8B4D2D6070AD8B4D6D6010AD8B4DAD6F9
:101B2800030AD8B4DED6010AD8B4E2D61F0AD8B45C
:101B3800E6D6010AD8B4EAD6030AD8B4EED6010A22
:101B4800D8B4F2D6070AD8B4F6D6010AD8B4FAD669
:101B5800030AD8B4FED6010AD8B402D70F0AD8B4FB
:101B680006D7010AD8B40AD7030AD8B40ED735EC79
:101B78001DF01200FACF06F0FBCF07F0E9CF08F00E
:101B8800EACF09F0E1CF0AF0E2CF0BF0D9CF0CF0A1
:101B9800DACF0DF0F3CF0EF0F4CF0FF0F6CF10F050
:101BA800F7CF11F0F8CF12F0F5CF13F0000E176E43
:101BB800000E166E000E156E000E146E000E196ED5
:101BC800000E186E9EA202D09E9257D19EA055D1AB
:101BD800EC0ECF6E770ECE6E83BA03D0016A012A5F
:101BE80001D0016A013A014683500118DF0B011840
:101BF800836E3A4A3B2A320E3A183B10D8A411D0C9
:101C080083B803D0016A012A01D0016A013A8350DE
:101C18000118EF0B0118836E0400000E3B6E000ED6
:101C28003A6E315006E1800E305CD8B002D0304AAE
:101C3800312AC294C296C288C29AC29CC2809E9C13
:101C4800C2829EACFED7C3CF16F0C4CF17F09E9CBD
:101C5800C2904050D8B402D0344A352A175004E113
:101C6800810E165CD8A01DD01650445C17504558FC
:101C7800D8B017D0000E156E010E146E364A372AEA
:101C8800C80E36183710D8A485D08182010E406E50
:101C9800000E356E000E346E000E376E000E366E76
:101CA80079D0000E156E000E146E000E376E000E01
:101CB800366EE00E341807E12E0E3518D8A403D07E
:101CC8008192000E406ED8903834D96E3934DA6E6D
:101CD800000ED926020EDA2216C0DEFF17C0DDFF7D
:101CE800165032261750332238503910D8B416D02F
:101CF800FE0E016EFF0E026E38C003F039C004F00C
:101D0800D890033604360150032602500422000EF0
:101D18000324D96E020E0420DA6E02D022EEFEF001
:101D2800DE50325EDD50335A384A392A800E381870
:101D38003910D8A404D0000E396E000E386E800E0B
:101D480030183110D8A426D032C041F033C042F048
:101D5800436A070E016E41C002F042C003F043C05F
:101D680004F00128056E04D0D89004320332023200
:101D7800052EFAD702C041F003C042F004C043F078
:101D8800415042104310D8A402D0010E01D0000ED9
:101D9800446E456A2E502F10D8A409D0140415108B
:101DA800D8A405D0000E196E010E186E0CD02E04A2
:101DB8002F10D8A411D014501510D8A40DD0000E8F
:101DC800196E000EF2D72B500FE1200E2A5CD8B006
:101DD8000BD02A4A2B2A08D0000E196E020E186E54
:101DE800000E2B6E000E2A6E020E18181910D8B4A9
:101DF80016D02B5014E1210E2A5CD8B010D03C50DC
:101E08003D10D8A40CD0FE0E3E143E6EFF0E3F14BB
:101E18003F6E18503E103E6E19503F103F6E020E36
:101E280018181910D8A412D0020E2C182D10D8B4D6
:101E38000DD03C503D10D8A409D0200E2A182B10E4
:101E4800D8A404D0000E3D6E010E3C6E020E181888
:101E58001910D8A411D0020E2C182D10D8A40CD00B
:101E68003C503D10D8A408D0000E3F6E000E3E6EC8
:101E7800000E2B6E000E2A6E9E9013C0F5FF12C046
:101E8800F8FF11C0F7FF10C0F6FF0FC0F4FF0EC037
:101E9800F3FF0DC0DAFF0CC0D9FF0BC0E2FF0AC088
:101EA800E1FF09C0EAFF08C0E9FF07C0FBFF06C061
:101EB800FAFF4692110000018D6F6D0E00018D65CD
:101EC800AFD0000E0001746F030E736F000E236E07
:101ED8000A0E226E000E1D6E640E1C6E8DC01AF066
:101EE8001B6A2FEC1AF01AC020F01BC021F0ACECD2
:101EF80019F0090E20240001716F000E2120000145
:101F0800726F32EC1CF0440E00017125F66E7F0EE4
:101F180000017221F76E0900F5CF78F00900F5CFBE
:101F280079F00A00F5CF7AF0000E236E640E226E67
:101F38008DC020F0216AACEC19F0120E20240001AB
:101F4800716F000E21200001726F000E0001746F86
:101F5800030E736F32EC1CF0440E00017125F66E0F
:101F68007F0E00017221F76E0900F5CF75F00900A8
:101F7800F5CF76F00A00F5CF77F063EC13F075C073
:101F88008AF076C08BF077C08CF0000E0001746F79
:101F9800030E736F000E1D6E0A0E1C6E8DC01AF0B4
:101FA8001B6A2FEC1AF01AC071F01BC072F032ECE9
:101FB8001CF0440E00017125F66E7F0E000172219F
:101FC800F76E0900F5CF78F00900F5CF79F00A002F
:101FD800F5CF7AF08AC075F08BC076F08CC077F0B8
:101FE80063EC13F075C087F076C088F077C089F08D
:101FF80087C075F088C076F089C077F0000E0001C0
:10200800786F000E0001796F3F0E00017A6F63EC64
:1020180013F075C084F076C085F077C086F01200A2
:102028000A0E00018D6568D0000E0001746F030E62
:10203800736F000E1D6E0A0E1C6E8DC01AF01B6A9F
:102048002FEC1AF01AC071F01BC072F032EC1CF0C1
:10205800440E00017125F66E7F0E00017221F76EA5
:102068000900F5CF78F00900F5CF79F00A00F5CF2F
:102078007AF0000E236E0A0E226E8DC020F0216ABF
:10208800ACEC19F0090E20240001716F000E21201C
:102098000001726F000E0001746F030E736F32EC53
:1020A8001CF0440E00017125F66E7F0E00017221AE
:1020B800F76E0900F5CF75F00900F5CF76F00A0044
:1020C800F5CF77F063EC13F075C08AF076C08BF02B
:1020D80077C08CF08AC075F08BC076F08CC077F032
:1020E800000E0001786F000E0001796F3F0E0001AD
:1020F8007A6F63EC13F08DD700018D51030D440EF8
:10210800F324F66E7F0EF420F76E0900F5CF75F014
:102118000900F5CF76F00A00F5CF77F0000E000140
:10212800786F000E0001796F3F0E00017A6F63EC43
:1021380013F075C084F076C085F077C086F0120081
:1021480090C094F00001956B966B00018F350001EB
:10215800943701E39581000194510001996F93C070
:1021680094F00001956B966B00019235000194374D
:1021780001E39581000194510001986F0001995184
:102188000001D8B411D0000198510001995DD8B070
:1021980012D0000199510008000198250001946FA0
:1021A800180E0001946507D091C08EF092C08FF090
:1021B80093C090F01200000198510001D8B411D0DA
:1021C800000199510001985DD8B012D000019851D2
:1021D8000008000199250001946F180E000194650C
:1021E80007D08EC08EF08FC08FF090C090F0120094
:1021F800060E0001976F000190AF02D00001978F83
:10220800000193AF02D00001978D00018F8FFF0E60
:1022180000018E17FF0E00018F17000E00019017A6
:102228000001928FFF0E00019117FF0E0001921717
:10223800000E00019317000198510001995DD8B074
:1022480025D00001D890913792379337000198072D
:102258000001995100019819D8B411D000019707CD
:1022680097C094F0070E00019417D8B408D0E9D7A6
:102278000001D89090338F338E330001992B0001E1
:10228800985100019919D8B42BD0F2D7000199516F
:102298000001985DD8B024D00001D8908E378F37D0
:1022A8009037000199070001995100019819D8B495
:1022B80011D00001970797C094F0070E00019417FA
:1022C800D8B408D0E9D70001D8909333923391332A
:1022D8000001982B0001985100019919D8A4F3D74F
:1022E800000197AF12D0FF0E00018E1BFF0E0001F8
:1022F8008F1BFF0E0001901B010E00018E27000EA0
:1023080000018F23000E00019023000197AD12D029
:10231800FF0E0001911BFF0E0001921BFF0E000132
:10232800931B010E00019127000E00019223000E5D
:1023380000019323000E0001976F00018E510001E8
:10234800912700018F510001922300019051000153
:102358009323000193AF15D0FF0E0001911BFF0ED0
:102368000001921BFF0E0001931B010E0001912733
:10237800000E00019223000E00019323010E0001BC
:10238800976F91C01AF092C01BF093C01CF099C0CF
:102398001DF097C01EF07DEC18F01AC08EF01BC01F
:1023A8008FF01CC090F01200000E0001906F000E1C
:1023B8008F6F928619EC1CF01AC07FF01BC080F05A
:1023C80019EC1CF01AC081F01BC082F019EC1CF04B
:1023D8001AC083F01BC084F019EC1CF01AC085F0F9
:1023E8001BC086F019EC1CF01AC087F01BC088F0DF
:1023F80019EC1CF01AC089F01BC08AF019EC1CF00B
:102408001AC08BF01BC08CF019EC1CF01AC08DF0B0
:102418001BC08EF08DC071F08EC072F0070ED89080
:10242800000171377237E82EFAD78BC073F08CC071
:1024380074F0060ED890000173377437E82EFAD777
:1024480089C075F08AC076F0050ED89000017537FE
:102458007637E82EFAD787C077F088C078F0000181
:10246800773B783BF00E781777510F0B7813F00E07
:10247800771785C079F086C07AF00001D89079374F
:102488007A370001D89079377A370001D8907937B0
:102498007A3783C07BF084C07CF00001D8907B370A
:1024A8007C370001D8907B377C3781C07DF082C0B3
:1024B8007EF0D89000017D377E3700017B51000106
:1024C8007D2700017C5100017E2300017951000124
:1024D8007D2700017A5100017E2300017751000118
:1024E8007D270001785100017E230001755100010C
:1024F8007D270001765100017E2300017351000100
:102508007D270001745100017E23000171510001F3
:102518007D270001725100017E2300017F510001D7
:102528007D2500018F6F0001805100017E2100018F
:10253800906F8FC01FF090C020F01200010E1C1485
:102548000001716F0001726B1D341D301F6E1C304D
:102558001E6E010E1E140001736F0001746B1CC007
:102568001EF01DC01FF01F341F321E321F341F32D1
:102578001E32010E1E140001756F0001766B1CC01F
:102588001EF01DC01FF01F341F321E321F341F32B1
:102598001E321F341F321E32010E1E140001776FC7
:1025A8000001786B1CC01EF01DC01FF0040E206EC9
:1025B8001F341F321E32202EFBD7010E1E140001BD
:1025C800796F00017A6B1CC01EF01DC01FF0050E4C
:1025D800206E1F341F321E32202EFBD7010E1E1410
:1025E80000017B6F00017C6B1CC01EF01DC01FF03A
:1025F800060E206E1F341F321E32202EFBD7010E0E
:102608001E1400017D6F00017E6B1CC01EF01DC0F2
:102618001FF0070E206E1F341F321E32202EFBD7EC
:10262800010E1E1400017F6F0001806B71C01AF04B
:1026380072C01BF04BEC1CF000D000D000F073C04F
:102648001AF074C01BF04BEC1CF000D000D000F066
:1026580075C01AF076C01BF04BEC1CF000D000D00F
:1026680000F077C01AF078C01BF04BEC1CF000D0DB
:1026780000D000F079C01AF07AC01BF04BEC1CF0C7
:1026880000D000D000F07BC01AF07CC01BF04BECEF
:102698001CF000D000D000F07DC01AF07EC01BF006
:1026A8004BEC1CF000D000D000F07FC01AF080C0C6
:1026B8001BF04BEC1CF000D000D000F0120077C0EB
:1026C8007BF000017C6B7D6B0001763500017B3768
:1026D80001E37C8100017B5100017E6F00017E5186
:1026E800D8A40AD0000E0001756F000E0001766FA5
:1026F800000E0001776F12007AC07BF000017C6B3E
:102708007D6B0001793500017B3701E37C81000195
:102718007B510001836F00018351D8A40AD0000EB9
:102728000001756F000E0001766F000E0001776FD3
:102738001200000183517B0F00017E2777C083F0D0
:1027480000017A510001831B800E000183170001EC
:10275800768F0001798FFF0E00017817FF0E0001B8
:102768007917000E00017A17000E00017F6F000E26
:102778000001806F000E0001816F070E0001826F5B
:10278800000175A10CD00001785100017F270001DC
:1027980079510001802300017A5100018123000151
:1027A800D8907733763375330001D89078377937F6
:1027B8007A370001822FE4D7090E0001826F0001E9
:1027C80075A10CD00001785100017F2700017951D3
:1027D8000001802300017A51000181230001D89073
:1027E8007733763375330001D890813380337F3364
:1027F8000001822FE4D77FC01AF080C01BF081C08F
:102808001CF07EC01DF083C01EF07DEC18F01AC0CD
:1028180075F01BC076F01CC077F012008DC08FF0E9
:102828000001906B916B00018C3500018F3701E33B
:10283800908100018F510001996F00019951D8A42E
:102848000AD0000E00018B6F000E8C6F000E8D6F8A
:10285800000E8E6F1200170E00018F6F8BC090F064
:102868008CC091F08DC092F000018F290001936F08
:1028780005D00001D8909233913390330001932F03
:10288800F8D7000190510001946F00018C8FFF0E62
:1028980000018B17FF0E00018C17000E00018D1729
:1028A80000018B510001956F00018C510001966F5A
:1028B80000018D510001976F0001986B8E0E000189
:1028C800995F000199AF1AD000019951800A8F0FC2
:1028D800D8B00AD0000E00018B6F000E8C6F000E6E
:1028E8008D6F000E8E6F12000001D89098339733C9
:1028F800963395330001993FF7D71BD0170E000187
:10290800996512D0000E00018B6F000E8C6F000EBF
:102918008D6F000E8E6F12000001D8909537963794
:102928009737983700019907000199510001D8A4F9
:10293800F3D7000194510001D8B409D00001981FC1
:10294800971F961F956D000E96239723982395C081
:102958008BF096C08CF097C08DF098C08EF0120066
:1029680076C023F0246A256A00017535233601E311
:102978002480235000017E6F00017E51D8A40AD024
:10298800000E0001746F000E0001756F000E00014B
:10299800766F120079C023F0246A256A0001783521
:1029A800233601E32480235000017F6F00017F510B
:1029B800D8A40AD0000E0001746F000E0001756FD4
:1029C800000E0001766F1200000E00017B6F000EF2
:1029D80000017C6F000E00017D6F00017F51890F9F
:1029E80000017E5F76C07FF00001795100017F1BF6
:1029F800800E00017F170001758FFF0E000174170C
:102A0800FF0E00017517000E000176170001788F80
:102A1800FF0E00017717FF0E00017817000E000166
:102A28007917180E00017A6F0001D8907B377C3730
:102A38007D37000177510001745D00017851000174
:102A480075590001795100017659D8A00ED00001BE
:102A580077510001745F000178510001755B000136
:102A680079510001765B00017B810001D8907437B1
:102A78007537763700017A2FD7D77BC01AF07CC01C
:102A88001BF07DC01CF07EC01DF07FC01EF07DECE9
:102A980018F01AC074F01BC075F01CC076F0120054
:102AA8001CC020F0216A226A1B34203601E32180F1
:102AB8002050286E2850D8A409D0000E1A6E000E97
:102AC8001B6E000E1C6E000E1D6E12001FC020F043
:102AD800216A226A1E34203601E321802050276EA5
:102AE8002750D8A409D0000E1A6E000E1B6E000ED7
:102AF8001C6E000E1D6E12001B8EFF0E1A16FF0EA6
:102B08001B16000E1C161E8EFF0E1D16FF0E1E161F
:102B1800000E1F16000E236E000E246E000E256E8A
:102B2800000E266E7F0E285E2750980F285E180E1E
:102B3800276ED89023362436253626361D501A5C43
:102B48001E501B581F501C58D8A007D01D501A5E85
:102B58001E501B5A1F501C5A2380D8901A361B36F9
:102B68001C36272EE6D728AE16D02850800A970F95
:102B7800D8B009D0000E1A6E000E1B6E000E1C6E27
:102B8800000E1D6E1200D8902632253224322332D0
:102B9800283EF9D715D0170E28640FD0000E1A6EEC
:102BA800000E1B6E000E1C6E000E1D6E1200D890DB
:102BB800233624362536263628062850D8A4F7D7B3
:102BC80023C01AF024C01BF025C01CF026C01DF03D
:102BD80012001C341D34256E2550D8A409D0000ECF
:102BE8001A6E000E1B6E000E1C6E000E1D6E12007B
:102BF8001F342034246E2450D8A409D0000E1A6E35
:102C0800000E1B6E000E1C6E000E1D6E12001C8E38
:102C1800FF0E1A16FF0E1B16FF0E1C16000E1D16B1
:102C28001F8EFF0E1D16FF0E1E16FF0E1F16000E1E
:102C38002016000E206E000E216E000E226E000E71
:102C4800236E7F0E255E2450A00F255E200E246E75
:102C5800D89020362136223623361D501A5C1E5055
:102C68001B581F501C5820501D58D8A009D01D5063
:102C78001A5E1E501B5A1F501C5A20501D5A208085
:102C8800D8901A361B361C361D36242EE1D725AEB1
:102C980016D02550800A9F0FD8B009D0000E1A6EA2
:102CA800000E1B6E000E1C6E000E1D6E1200D890DA
:102CB8002332223221322032253EF9D715D01F0E79
:102CC80025640FD0000E1A6E000E1B6E000E1C6ECF
:102CD800000E1D6E1200D89020362136223623367B
:102CE80025062550D8A4F7D720C01AF021C01BF01C
:102CF80022C01CF023C01DF01200000E1A6E010E37
:102D08001B6E000E1D6E000E1C6E000E1F6E800ED8
:102D18001E6E91EC1CF0000E1A6E010E1B6E9E0EBC
:102D28001C6E7F0E1D6E63EC1CF0800E1A6E010E79
:102D38001B6E000E1D6E000E1C6E000E1F6E400EE8
:102D48001E6E91EC1CF0800E0001A06F010E0001B8
:102D5800A16F6B0E0001A26F7F0E0001A36FD4C09C
:102D6800A4F0D5C0A5F0D6C0A6F0CDC0A7F0CEC0BF
:102D7800A8F0CFC0A9F0D0C0AAF0D1C0ABF0D2C0A3
:102D8800ACF0D3C0ADF055EC00F0000E1A6E010E99
:102D98001B6E800E1C6E010E1D6E86EC1BF0000E65
:102DA8000101C16F000EC06F0ED0000E0101C025D9
:102DB800D96E010E0101C121DA6EDF5018EC0CF05A
:102DC8000101C04BC12B000E1A6E010E1B6EC8EC20
:102DD8001AF01A500101C05D1B500101C159D8B049
:102DE8001200E3D7000E00019C6F000E00019D6FDA
:102DF800000E00019E6F000E00019F6F000E000183
:102E0800A06F000E0001A16FC284C296C298C29A38
:102E1800C29CC2809E9CC2829EACFED7C3CF71F07A
:102E2800C4CF72F0BAEC1CF071C09CF072C09DF077
:102E380073C09EF09E9CC2909CC075F09DC076F0B9
:102E48009EC077F0330E0001786F030E0001796F92
:102E58003B0E00017A6F63EC13F075C09FF076C0EB
:102E6800A0F077C0A1F09FC075F0A0C076F0A1C017
:102E780077F0000E0001786F800E0001796F3F0E29
:102E880000017A6F63EC13F075C09FF076C0A0F074
:102E980077C0A1F09FC08BF0A0C08CF0A1C08DF0CE
:102EA80012EC14F08BC09AF08CC09BF01200000E4C
:102EB80000019C6F000E00019D6F000E00019E6FC7
:102EC800000E00019F6F000E0001A06F000E0001B0
:102ED800A16FC294C296C288C28AC29CC2809E9CBC
:102EE800C2829EACFED7C3CF71F0C4CF72F0BAECE9
:102EF8001CF071C09CF072C09DF073C09EF09E9C47
:102F0800C2909CC075F09DC076F09EC077F0330EDD
:102F18000001786F030E0001796F3B0E00017A6F94
:102F280063EC13F075C09FF076C0A0F077C0A1F0F5
:102F38009FC075F0A0C076F0A1C077F0000E000128
:102F4800786F800E0001796F3F0E00017A6F63EC95
:102F580013F075C09FF076C0A0F077C0A1F09FC0B5
:102F68008BF0A0C08CF0A1C08DF012EC14F08BC0D7
:102F78009AF08CC09BF01200000E0001876F000EC3
:102F88000001886F000E0001896F000E00018A6F32
:102F9800000E00018B6F000E00018C6FC294C29668
:102FA800C298C29AC29CC2809E9CC2829EACFED726
:102FB800C3CF71F0C4CF72F0BAEC1CF071C087F0C7
:102FC80072C088F073C089F09E9CC29087C075F06B
:102FD80088C076F089C077F0330E0001786F030E51
:102FE8000001796F3B0E00017A6F63EC13F075C036
:102FF8008AF076C08BF077C08CF08AC075F08BC0F1
:1030080076F08CC077F0660E0001786FB60E00017E
:10301800796F400E00017A6F63EC13F075C08AF087
:1030280076C08BF077C08CF08AC084F08BC085F0B6
:103038008CC086F012000F01428F0F0142990F01D8
:10304800428B0F01428D080EC16EAF0EC06E92808A
:103058009282929492869288928A0F0138810F0107
:1030680038830F0138850F0138970F01388B899005
:103078008992899489968998899A000E616EF18E51
:1030880093809392939493969398939A939C939EF8
:103098000F0139810F0139930F0139950F013997C4
:1030A8000F01399B8A908A928A948A968A988A9A7A
:1030B80095909592959495969598959A959C959EA8
:1030C8000F013B910F013B930F013B950F013B977C
:1030D8000F013B990F013B9B0F013B9D0F013B9F4C
:1030E8008C908C928C948C968C988C9A8C9C8C9EC0
:1030F80012001D50D8B405D01A501B101C10D8A4AB
:103108000CD0000E1A6E000E1B6E000E1C6E120004
:103118001D2AD8901C321B321A32000E1A141F6E48
:10312800000E1B14206EFE0E1C14216E1F50201062
:103138002110D8B40CD0ECD71D2A010E1A26000E87
:103148001B22000E1C22D8901C321B321A32000E91
:103158001A141F6E000E1B14206EFF0E1C14216E15
:103168001F5020102110D8B406D0E6D71D06D890DD
:103178001A361B361C361BBE03D0020E1D60F6D74E
:103188001DA01B9ED8901D321D501C121E50D8A485
:103198001C8E1AC01AF01BC01BF01CC01CF01200B9
:1031A80000017551000176110001771100017811B5
:1031B800D8B437D0010E276E07D00001D8907537E4
:1031C800763777377837272A000178AFF6D70001A6
:1031D80075510001715D00017651000172590001BD
:1031E8007751000173590001785100017459D8A032
:1031F80010D0000175510001715F00017651000186
:10320800725B000177510001735B00017851000186
:10321800745B0001D8907833773376337533272E73
:10322800D6D771C071F072C072F073C073F074C0F9
:1032380074F012001CAE16D01AC020F01BC021F08A
:103248001CC022F0201E211E221E202A000E212230
:103258002222000E20241A6E000E21201B6E800EE2
:1032680022201C6E1FAE16D01DC020F01EC021F0FB
:103278001FC022F0201E211E221E202A000E2122FD
:103288002222000E20241D6E000E21201E6E800EAC
:1032980022201F6E000E1A1A000E1B1A800E1C1A0E
:1032A800000E1D1A000E1E1A800E1F1A1D501A5CE1
:1032B8001E501B581F501C58D8B002D0D89012006E
:1032C800D8801200EDEC1CF0C0EC17F084C0DEF0E2
:1032D80085C0DFF086C0E0F0F6EC16F09AC0DAF0B0
:1032E8009BC0DBF05BEC17F09AC0DCF09BC0DDF014
:1032F80017EC06F09AC0D7F09BC0D8F09CC0D9F064
:103308000001E0BF17D0DEC0CDF0DFC0CEF0E0C0D6
:10331800CFF0DAC0D0F0DBC0D1F0DCC0D2F0DDC035
:10332800D3F0D7C0D4F0D8C0D5F0D9C0D6F081EC4E
:1033380016F007D0000E0001746F020E736FA7EC31
:103348001BF0000E276E030E266EE3EC1BF0BAD7B7
:10335800000E256E23AE06D0226C231ED8B0232A79
:10336800010E256E21AE06D0206C211ED8B0212A70
:10337800010E251A000E276E000E266E225023100D
:10338800D8B41CD0010E246E04D0D890223623362F
:10339800242A23AEFAD7D890263627362250205C26
:1033A80023502158D8A005D02250205E2350215AFE
:1033B8002680D89023322232242EEDD72550D8B437
:1033C80004D0266C271ED8B0272A26C020F027C094
:1033D80021F01200000E226E000E236E000E246EE5
:1033E800000E256E1E501F1020102110D8B42AD0B0
:1033F800010E266E06D0D8901E361F36203621368E
:10340800262A21AEF8D7D8902236233624362536F8
:103418001E501A5C1F501B5820501C5821501D5814
:10342800D8A009D01E501A5E1F501B5A20501C5A93
:1034380021501D5A2280D890213220321F321E324C
:10344800262EE1D722C01AF023C01BF024C01CF09E
:1034580025C01DF01200000E1F6E1BAE06D01A6CA0
:103468001B1ED8B01B2A010E1F6E1DAE04D01C6C8B
:103478001D1ED8B01D2A1C501D10D8B418D0010E1E
:103488001E6E04D0D8901C361D361E2A1DAEFAD7E3
:103498001C501A5C1D501B58D8A004D01C501A5E32
:1034A8001D501B5AD8901D321C321E2EF1D71F50AA
:1034B800D8B404D01A6C1B1ED8B01B2A1AC01AF034
:1034C8001BC01BF012008E0E266E07D00001D8908C
:1034D8007433733372337133262A000E0001711569
:1034E800226E000E00017215236E000E0001731586
:1034F800246EFF0E00017415256E2250231024102F
:103508002510D8A4E3D771C01AF072C01BF073C09D
:103518001CF026C01DF0000E1E6E7DEC18F01AC0BF
:1035280071F01BC072F01CC073F01200000E256E03
:10353800000E246E1CD0FCEC1CF015D009EC1DF01C
:1035480012D024502024226E25502120236E22C020
:10355800F6FF23C0F7FF0800F5502D0AD8B4EED7C0
:10356800030AD8B4E8D73CEC1DF0244A252A20C029
:103578001AF021C01BF0C8EC1AF01A50245C1B503A
:103588002558D8B01200DDD71AC01EF01BC01FF096
:1035980002D01E4A1F2A1EC0F6FF1FC0F7FFF86A96
:1035A800050EF76403D00800F55005D0F6CFE9FF03
:1035B800F7CFEAFFEF500009D8A4EBD71AC01CF0E8
:1035C8001BC01DF01C1E1D1E1C4A1D2A1E501C243B
:1035D8001A6E1F501D201B6E1200A20EF66E3A0EB8
:1035E800F76E000EF86E00EE41F010EE05F00900DF
:1035F800F5CFEEFFE550E150FAE102EE00F011EEF2
:1036080000F0EE6AE550E150FCE1E250FAE100EE2C
:103618002AF0170EEE6AE806FDE146904692000E83
:10362800F86E000143EF1DF0000E236E000E226EAF
:1036380017D0000E256E000E246E25BE06D025502C
:103648000DE10A0E245CD8B009D0000E1B6E640E82
:103658001A6E7BEC1CF0244A252AEFD7224A232A2B
:103668001F50225C2350800A216E2050800A215866
:10367800D8B01200DED700019D5100019E11000153
:103688009F11D8B409D0000E00019D1B000E000147
:103698009E1B800E00019F1B9AC08EF09BC08FF06E
:1036A8009CC090F09DC091F09EC092F09FC093F096
:1036B800A4EC10F08EC09AF08FC09BF090C09CF0E4
:1036C8001200000E1E6E010E1D6E929680965D0E03
:1036D800E82EFED700F080860B0EE82EFED700D02D
:1036E800928680A603D01C6A1C2A01D01C6A1C5032
:1036F8001D6E1E6A460EE82EFED71DC01AF01EC0AB
:103708001BF012001AC01EF01BC01FF002D01E4A88
:103718001F2A1EC0D9FF1FC0DAFFDF50D8B405D05A
:10372800F6D71E4A1F2A1C4A1D2A1CC0D9FF1DC0D5
:10373800DAFF1EC0E1FF1FC0E2FFDFCFE7FFE7505F
:10374800D8B41200EED7000E0001766F000E756F28
:1037580009D0000E276E3C0E266EE3EC1BF000012C
:10376800754B762B000173510001755D0001765190
:10377800800A296E00017451800A2958D8B01200B5
:10378800E8D7000E226E000172AF07D00001716DFC
:10379800721FD8B0722B010E226E71C01AF072C05F
:1037A8001BF01C6A8E0E1D6E22C01EF07DEC18F0F8
:1037B8001AC071F01BC072F01CC073F01200000E2A
:1037C8000001726F000E716F09D0000E206E3C0E62
:1037D8001F6E18EC1BF00001714B722B2650000174
:1037E800715D00017251800A286E2750800A28589E
:1037F800D8B01200EAD795849586E70E0F014917CD
:103808007C0EBB6E3F0E66166650F00B0C09666E9A
:1038180063906382638463963E0E676E6650CF0B37
:103828002009666EBA949E921200000E1E6E000E5B
:103838001D6E92968096808600D080A603D01C6A62
:103848001C2A01D01C6A1C501D6E1E6A0A0EE82E26
:10385800FED71DC01AF01EC01BF0120000017151E6
:1038680000017303F3CF28F0F4CF29F00001715160
:1038780000017403F35029260001725100017303FB
:10388800F350292628C071F029C072F012009296D0
:103898001A501B10D8B409D0809600D000D000F080
:1038A8008086090EE82EFED7120080960B0EE82EB1
:1038B800FED700D0808600D000D000F012001AC0D9
:1038C8001EF01BC01FF004D01E4A1F2A1C4A1D2AC6
:1038D8001CC0F6FF1DC0F7FF1EC0D9FF1FC0DAFFCE
:1038E8000800F5CFDFFFDF50D8B41200EDD7000E87
:1038F8001E6E000E1D6E06D0A60EE82EFED700D056
:103908001D4A1E2A1A501D5C1E50800A1C6E1B5030
:10391800800A1C58D8B01200EFD71AC020F01BC07C
:1039280021F008D020C0D9FF21C0DAFF1CC0DFFF7A
:10393800204A212A1E06D8A01F061E28F3E11F28A8
:10394800D8B41200EFD7D08ECD90CD9CCD9ECD9A15
:10395800CD98CD96CD82EC0ECF6E770ECE6E9D8033
:103968009F809E90CD80F29CF28E120071C01AF05A
:1039780072C01BF01C6A8E0E1D6E000E1E6E7DEC52
:1039880018F01AC071F01BC072F01CC073F012005E
:103998001A501B101C10D8B406D0000E1A1A000EAC
:1039A8001B1A800E1C1A1AC01AF01BC01BF01CC070
:1039B8001CF012001C6E000E1B6E3A0E1C6005D027
:1039C8002F0E1C6402D0010E1B6E1BC01AF01A3099
:1039D800120083BA03D01A6A1A2A01D01A6A1A3A4C
:1039E8001A4683501A18DF0B1A18836E0400120047
:1039F80083824DEC1DF0000E1B6E4B0E1A6E7BEC95
:103A08001CF049EC1DF08392120083824DEC1DF0EE
:103A1800000E1B6EE10E1A6E7BEC1CF049EC1DF0DB
:103A280083921200BA94BA80BA92BA96BA98BA9A9D
:103A3800BA9C000EBC6E9D829F929E921200EDEC85
:103A48001CF01FEC18F0A7EC1CF016EC1DF0FFECB6
:103A58001BF01200020E1B6E0D0E1A6E7BEC1CF092
:103A68001200000E1B6EE10E1A6E7BEC1CF01200A9
:103A7800000E1B6E4B0E1A6E7BEC1CF0120023EC32
:103A88001DF066EC19F053EF00F095849586BA9412
:0F3A9800120095949596BA841200007D00007D6F
:107EF40000010000000A00000064000000E8030024
:107F04000010270000A086010040420F00809698D0
:107F14000000E1F50500CA9A3B00803F00204100C3
:107F2400C842007A44401C4650C3472474499718F9
:107F34004BBCBE4C6B6E4E03155079AD60F349716A
:107F440000803FCDCC3DD7233C12833AB7D138C60D
:107F54002737388635C0D633CC2B32708930E7DBEF
:107F64002EE53C1E42A20D20252E316620252E3101
:107F7400662025332E30642025332E3064002D2DC9
:107F84002E2E2D2D002E2D2E2D2E2D002D2E2E2E6F
:107F94002E2D002E2E2D2D2E2E00454153415432D0
:107FA400002D2D2D2D2D002E2D2D2D2D002E2E2D81
:107FB4002D2D002E2E2E2D2D002D2D2D2D2E002D70
:107FC4002E2E2D2E002D2D2D2E2E002D2D2E2E2E2F
:107FD400002D2E2E2E2E002E2E2E2E2E002D2E2D4A
:107FE4002D002D2D2E2D002D2E2E2D002E2D2D2E3F
:0C7FF400002D2E2D2E002E2D2E2E000014
:020000040020DA
:08000000FFFFFFFFFFFFFFFF00
:020000040030CA
:0E000000FF21193FFF8581FF0FC00F400F4009
:00000001FF
