:0400000053EF00F0CA
:06000800448208EF10F035
:100018004480D8CF60F0E8CF61F0E0CF62F0FACF4B
:1000280063F0FBCF64F0E9CF65F0EACF66F0E1CF8B
:1000380067F0E2CF68F0D9CF69F0DACF6AF0F3CF92
:100048006BF0F4CF6CF0F6CF6DF0F7CF6EF0F8CF21
:100058006FF0F5CF70F070C0F5FF6FC0F8FF6EC09D
:10006800F7FF6DC0F6FF6CC0F4FF6BC0F3FF6AC00A
:10007800DAFF69C0D9FF68C0E2FF67C0E1FF66C068
:10008800EAFF65C0E9FF64C0FBFF63C0FAFF62C016
:10009800E0FF61C0E8FF60C0D8FF449010006CEF3B
:1000A80021F0E3EF07F0250E0001C319D8B438D0CA
:1000B800000120EE02F0A151D926A251DA22DE5029
:1000C800DE10D8B416D0000120EE02F0A151D926D6
:1000D800A251DA2202D8E3EF07F00500FA6EDE50EB
:1000E800FD6EDE50FE6EF850FF6EFA500001C351EF
:1000F8001200A1C0D9FFA2C0DAFFDECFA7F0DDCF82
:10010800A8F0A7C0D9FFA8C0DAFFC3C0DFFFA1C00D
:10011800D9FFA2C0DAFFDE2A000EDD22E3EF07F0E6
:10012800000E0001B36F000EB26F000E0001B16F38
:10013800000EB06FA3C0F6FFA4C0F7FF0800F5508B
:10014800CBEC23F0D8A040D0000E0001B36F000E16
:10015800B26FB2C075F0B3C076F0000E0001786FD0
:100168000A0E776F1FEC23F075C0B2F076C0B3F0BB
:10017800D00E0001A76FFF0E0001A86FA3C0F6FF05
:10018800A4C0F7FF0800F5500001A96FAA6B000191
:10019800A7510001A9270001A8510001AA230001C5
:1001A800A9510001B2270001AA510001B32300019F
:1001B800A34BA42BA3C0F6FFA4C0F7FF0800F5507B
:1001C800CBEC23F0D8B0C5D7A3C0F6FFA4C0F7FF87
:1001D8000800F5502E0AD8A439D00001B18D0001CD
:1001E800A34BA42B000E0001C26F000EC16F23D0D9
:1001F800C1C075F0C2C076F0000E0001786F0A0E1B
:10020800776F1FEC23F0A3C0F6FFA4C0F7FF080028
:10021800F55000017527000E00017623D00E00016D
:1002280075250001C16FFF0E000176210001C26F24
:100238000001A34BA42BA3C0F6FFA4C0F7FF08003E
:10024800F550CBEC23F0D8A00CD0D2D7000E00018B
:10025800C26F000EC16F0001B18903D00001B185E2
:100268001AD0A3C0F6FFA4C0F7FF0001A34BA42B2C
:100278000800F5CFC3F00001C351000AD8B4F2EF6B
:1002880007F0640AD8B407D0020AD8B4E7D70F0A2F
:10029800D8A4E3EF07F0070E0001B115D8B4F6EFC4
:1002A80005F00001B1A905D0000E0001C26F060ECD
:1002B800C16FA5C0D9FFA6C0DAFFDFCFA7F0030E34
:1002C800DE26DFCFA8F0000EDD22A7C0D9FFA8C028
:1002D800DAFFDECFBEF0DECFBFF0DDCFC0F0000129
:1002E800C0AF11D0BEC01CF0BFC01DF0C0C01EF012
:1002F800B9EC23F01CC0BEF01DC0BFF01EC0C0F09A
:10030800030E0001B013000E0001B96F000EB86FA4
:100318000001BE510001BF110001C011D8B493D033
:10032800820E0001A76FFF0E0001A86FBEC0A9F0E2
:10033800BFC0AAF0C0C0ABF0C1C0ACF0100E06D070
:100348000001D890AC33AB33AA33A933E82EF8D7E1
:100358000001A9510001A7250001B86F000E000196
:10036800A8210001B96F0001B807D8A0B907B8C023
:1003780075F0B9C076F0000E0001786F030E776F44
:100388001FEC23F075C0B8F076C0B9F0B8C071F0B2
:10039800B9C072F0000E0001746F0A0E736F47EC5B
:1003A8001EF071C0B8F072C0B9F00001B9AF04D046
:1003B8000001B807D8A0B9070001B8510008C5EC7A
:1003C8000BF085C0BAF086C0BBF087C0BCF0BAC0DD
:1003D80079F0BBC07AF0BCC07BF0BEC07CF0BFC077
:1003E8007DF0C0C07EF01BEC18F079C0BAF07AC07E
:1003F800BBF07BC0BCF0BAC01CF0BBC01DF0BCC0D9
:100408001EF0000E1F6E800E206E3F0E216ECBEC8C
:100418001FF0D8B005D00001B807D8A0B90713D08D
:10042800BAC01CF0BBC01DF0BCC01EF0000E1F6E91
:10043800200E206E410E216ECBEC1FF0D8A003D009
:100448000001B84BB92B0001C2BF08D00001C2514E
:100458001DE10D0E0001C15DD8B018D0BEC08FF0EF
:10046800BFC090F0C0C091F00001C15146EC13F03C
:1004780085C092F086C093F087C094F096EC14F093
:100488008FC0BEF090C0BFF091C0C0F00001B9BFEE
:1004980008D00001B9512AE10A0E0001B85DD8B0B0
:1004A80025D00001BE510001BF110001C011D8B410
:1004B8005FD0BEC08CF0BFC08DF0C0C08EF0C4EC61
:1004C80018F000018C5100018D1100018E110001FE
:1004D8008F11D8A44DD00001B9BF4AD00001B9513D
:1004E80005E1020E0001B85DD8A042D0BAC01CF0E8
:1004F800BBC01DF0BCC01EF0700E1F6E890E206EB2
:10050800400E216ECBEC1FF0D8B003D00001F70EDF
:1005180002D00001F80EB827FF0EB9230001B85128
:10052800C5EC0BF085C0BAF086C0BBF087C0BCF044
:10053800BEC01CF0BFC01DF0C0C01EF0BAC01FF086
:10054800BBC020F0BCC021F006EC1AF01CC0B4F00F
:100558001DC0B5F01EC0B6F01FC0B7F0000E0001F8
:10056800BE6F000E0001BF6F000E0001C06F33D0D8
:10057800BEC08CF0BFC08DF0C0C08EF0C4EC18F0C7
:100588008CC0B4F08DC0B5F08EC0B6F08FC0B7F097
:10059800BEC09BF0BFC09CF0C0C09DF0B4C071F05D
:1005A800B5C072F0B6C073F0B7C074F009EC21F0B2
:1005B80071C09EF072C09FF073C0A0F015EC22F0DD
:1005C8009BC0BEF09CC0BFF09DC0C0F0000E0001F3
:1005D800B96F000EB86F010E0001C36F0A0E00015B
:1005E800C319D8B41ED00001C351040DD50EF3248D
:1005F800F66E7E0EF420F76E0900F5500001B45D2A
:100608000900F5500001B5590900F5500001B65927
:100618000900F5500001B759D8A003D00001C32B39
:10062800DDD7C3C0A7F00001A86BA7BFA8070001CA
:10063800C1510001A7270001C2510001A8230001F0
:10064800B8510001A7270001B9510001A8230001F2
:10065800A7510001B25F0001A8510001B35B00017E
:10066800C1510001C211D8B404D00001B207D8A00A
:10067800B307030E0001B0150001A76F000E0001BB
:10068800B1150001A86F0001A7510001A811D8B445
:1006980039D034D0000120EE02F0A151D926A25160
:1006A800DA22DE50DE10D8B414D0000120EE02F0B9
:1006B800A151D926A251DA2201D820D00500FA6E1C
:1006C800DE50FD6EDE50FE6EF850FF6EFA50200EC2
:1006D8001200A1C0D9FFA2C0DAFFDECFA7F0DDCF9C
:1006E800A8F0A7C0D9FFA8C0DAFF200EDF6EA1C00E
:1006F800D9FFA2C0DAFFDE2A000EDD220001B20710
:10070800D8A0B3070001B3BF07D00001B351C2E1BD
:100718000001B205D8B0BED7030E0001B015000124
:10072800A76F000E0001B1150001A86F0001A751C5
:100738000001A811D8B4A9D0000120EE02F0A151FF
:10074800D926A251DA22DE50DE10D8B414D0000126
:1007580020EE02F0A151D926A251DA2201D895D073
:100768000500FA6EDE50FD6EDE50FE6EF850FF6E2C
:10077800FA502D0E1200A1C0D9FFA2C0DAFFDECFB9
:10078800A7F0DDCFA8F0A7C0D9FFA8C0DAFF2D0ECB
:100798007AD0A1C0D9FFA2C0DAFFDE2A000EDD227E
:1007A80074D0B4C071F0B5C072F0B6C073F0B7C001
:1007B80074F00001C351040DD50EF324F66E7E0EBD
:1007C800F420F76E0900F5CF75F00900F5CF76F043
:1007D8000900F5CF77F00A00F5CF78F098EC1DF016
:1007E80071C0BAF072C0BBF073C0BCF074C0BDF089
:1007F800BAC079F0BBC07AF0BCC07BF0BDC07CF059
:100808000A0E00017D6F000E7E6F000E7F6F000ED6
:10081800806F38EC1FF079C0BAF07AC0BBF07BC0AB
:10082800BCF07CC0BDF0000120EE02F0A151D92639
:10083800A251DA22DE50DE10D8B416D0000120EE24
:1008480002F0A151D926A251DA2201D81ED0050002
:10085800FA6EDE50FD6EDE50FE6EF850FF6EFA50F6
:100868000001BA51300F12000001BA51300FA1C077
:10087800D9FFA2C0DAFFDECFA7F0DDCFA8F0A7C06E
:10088800D9FFA8C0DAFFDF6E84D70001C3070001D3
:10089800C329D8B439D085D7000120EE02F0A15180
:1008A800D926A251DA22DE50DE10D8B414D00001C5
:1008B80020EE02F0A151D926A251DA2201D820D087
:1008C8000500FA6EDE50FD6EDE50FE6EF850FF6ECB
:1008D800FA50300E1200A1C0D9FFA2C0DAFFDECF55
:1008E800A7F0DDCFA8F0A7C0D9FFA8C0DAFF300E67
:1008F800DF6EA1C0D9FFA2C0DAFFDE2A000EDD221A
:100908000001B807D8A0B9070001B9BF07D0000196
:10091800B951C2E10001B805D8B0BED70001C2BFC5
:100928000CD00001C25105E1090E0001C15DD8A03B
:1009380004D0080E0001C36F02D0C1C0C3F000018B
:10094800C3510001C15F000E0001C3BFFF0E0001CB
:10095800C25B0001C3510001D8B434D0000120EEBD
:1009680002F0A151D926A251DA22DE50DE10D8B405
:1009780014D0000120EE02F0A151D926A251DA22AA
:1009880001D820D00500FA6EDE50FD6EDE50FE6EF6
:10099800F850FF6EFA502E0E1200A1C0D9FFA2C067
:1009A800DAFFDECFA7F0DDCFA8F0A7C0D9FFA8C037
:1009B800DAFF2E0EDF6EA1C0D9FFA2C0DAFFDE2A51
:1009C800000EDD220001C351C5EC0BF085C0ADF06F
:1009D80086C0AEF087C0AFF0BEC07CF0BFC07DF06F
:1009E800C0C07EF0ADC079F0AEC07AF0AFC07BF089
:1009F8001BEC18F079C08CF07AC08DF07BC08EF0BB
:100A0800C4EC18F08CC0B4F08DC0B5F08EC0B6F050
:100A18008FC0B7F0A1D0B4C071F0B5C072F0B6C045
:100A280073F0B7C074F00001C351040DD50EF32460
:100A3800F66E7E0EF420F76E0900F5CF75F009000A
:100A4800F5CF76F00900F5CF77F00A00F5CF78F00A
:100A580098EC1DF071C0BAF072C0BBF073C0BCF066
:100A680074C0BDF0BAC079F0BBC07AF0BCC07BF0EE
:100A7800BDC07CF00A0E00017D6F000E7E6F000E77
:100A88007F6F000E806F38EC1FF079C0BAF07AC023
:100A9800BBF07BC0BCF07CC0BDF0000120EE02F0D2
:100AA800A151D926A251DA22DE50DE10D8B416D0D0
:100AB800000120EE02F0A151D926A251DA2201D874
:100AC80024D00500FA6EDE50FD6EDE50FE6EF85042
:100AD800FF6EFA500001BA51300F12000001BA51EE
:100AE800300FA1C0D9FFA2C0DAFFDECFA7F0DDCF5B
:100AF800A8F0A7C0D9FFA8C0DAFFDF6EA1C0D9FF50
:100B0800A2C0DAFFDE2A000EDD22B4C079F0B5C03B
:100B18007AF0B6C07BF0B7C07CF00001C351040D79
:100B2800D50EF324F66E7E0EF420F76E0900F5CF8D
:100B38007DF00900F5CF7EF00900F5CF7FF00A00BF
:100B4800F5CF80F038EC1FF079C0B4F07AC0B5F07A
:100B58007BC0B6F07CC0B7F00001C3070001C32911
:100B6800D8B439D058D7000120EE02F0A151D926C7
:100B7800A251DA22DE50DE10D8B414D0000120EEE3
:100B880002F0A151D926A251DA2201D820D00500BD
:100B9800FA6EDE50FD6EDE50FE6EF850FF6EFA50B3
:100BA800300E1200A1C0D9FFA2C0DAFFDECFA7F035
:100BB800DDCFA8F0A7C0D9FFA8C0DAFF300EDF6EDE
:100BC800A1C0D9FFA2C0DAFFDE2A000EDD22000193
:100BD800C107D8A0C2070001C1510001C211D8B491
:100BE800EED1C1D7A5C0D9FFA6C0DAFFDFCFA7F0E5
:100BF800020EDE26DFCFA8F0000EDD22A7C0D9FF47
:100C0800A8C0DAFFDECFB4F0DDCFB5F00001000EEA
:100C1800B5BFFF0EB66FB76F0001B7AF0CD0030EAC
:100C28000001B0130001B71FB61FB51FB46D000E49
:100C3800B523B623B7230001C1510001C211D8A4BE
:100C48000DD00001B4510001B5110001B611000129
:100C5800B711D8A403D00001C14BC22B010E00016B
:100C6800C36F0A0E0001C319D8B41ED00001C351C6
:100C7800040DD50EF324F66E7E0EF420F76E0900EF
:100C8800F5500001B45D0900F5500001B55909009F
:100C9800F5500001B6590900F5500001B759D8A020
:100CA80003D00001C32BDDD7800E0001C3BF7F0E28
:100CB8000001A76F0001C1510001C35D0001C251CD
:100CC800800A0001A759D8B003D0C1C0C3F018D01A
:100CD8000001C251800A0001A76F0001C351000141
:100CE800C15D800E0001C3BF7F0E0001A759D8B0B7
:100CF80007D00001C3510001C16FC26BC1BFC20759
:100D08000001B2510001B311D8B414D0030E000190
:100D1800B0150001A76F000E0001B1150001A86F02
:100D28000001A7510001A811D8B404D00001B207EE
:100D3800D8A0B3070001B1AD1ED00001B251000127
:100D4800C15D0001C251800A0001A76F0001B351C3
:100D5800800A0001A759D8B009D00001C15100018B
:100D6800B25F0001C2510001B35B05D0000E000163
:100D7800B36F000EB26F800E0001C3BF7F0E00017B
:100D8800A76F0001B2510001C35D0001B351800A91
:100D98000001A759D8B00BD00001C3510001B25FC0
:100DA800000E0001C3BFFF0E0001B35B05D0000EAB
:100DB8000001B36F000EB26F0001B2510001B31110
:100DC800D8B43ED0000120EE02F0A151D926A2519C
:100DD800DA22DE50DE10D8B414D0000120EE02F082
:100DE800A151D926A251DA2201D820D00500FA6EE5
:100DF800DE50FD6EDE50FE6EF850FF6EFA50200E8B
:100E08001200A1C0D9FFA2C0DAFFDECFA7F0DDCF64
:100E1800A8F0A7C0D9FFA8C0DAFF200EDF6EA1C0D6
:100E2800D9FFA2C0DAFFDE2A000EDD220001B207D8
:100E3800D8A0B3070001B2510001B311D8A4C2D79A
:100E4800030E0001B0150001A76F000E0001B115D7
:100E58000001A86F0001A7510001A811D8B4A4D0BF
:100E6800000120EE02F0A151D926A251DA22DE506B
:100E7800DE10D8B414D0000120EE02F0A151D9261A
:100E8800A251DA2201D890D00500FA6EDE50FD6E2C
:100E9800DE50FE6EF850FF6EFA502D0E1200A1C003
:100EA800D9FFA2C0DAFFDECFA7F0DDCFA8F0A7C038
:100EB800D9FFA8C0DAFF2D0EDF6E6FD0C1C0A7F032
:100EC800C2C0A8F00001D890A737A8370001D89071
:100ED800A737A837D50E0001A725F66E7E0EA821E4
:100EE800F76E0900F5CF75F00900F5CF76F0090027
:100EF800F5CF77F00A00F5CF78F0B4C071F0B5C03F
:100F080072F0B6C073F0B7C074F098EC1DF071C001
:100F180079F072C07AF073C07BF074C07CF00A0E6E
:100F280000017D6F000E7E6F000E7F6F000E806FD8
:100F380038EC1FF000017951300F0001C36F000138
:100F480020EE02F0A151D926A251DA22DE50DE109D
:100F5800D8B415D0000120EE02F0A151D926A25133
:100F6800DA2201D821D00500FA6EDE50FD6EDE507F
:100F7800FE6EF850FF6EFA500001C3511200A1C076
:100F8800D9FFA2C0DAFFDECFA7F0DDCFA8F0A7C057
:100F9800D9FFA8C0DAFFC3C0DFFFA1C0D9FFA2C034
:100FA800DAFFDE2A000EDD220001C107D8A0C20741
:100FB8000001C12983E10001C229D8A47FD7A3C0B9
:100FC800F6FFA4C0F7FF0001A34BA42B0800F5CF40
:100FD800C3F00001C351D8A457EF00F0000E000180
:100FE800A26F000EA16F1200000E0101B46F000E77
:100FF800B36F000E0101B66F000EB56F000E010150
:10100800B86F000EB76F000E0101BA6F000EB96F0E
:10101800000E0101BC6F000EBB6F000E0101BE6F18
:10102800000EBD6F000E0101C06F000EBF6F000EF5
:101038000101C26F000EC16F000E0101C46F000EE6
:10104800C36F000E0101A36F000EA26F000E010115
:10105800C66F000EC56F000E0101C86F000EC76F86
:10106800000E0101C96F000E0101CA6F000E0101D7
:10107800CB6F000E0101A46F800E0101A56F3F0E1A
:101088000101A66F000E0101CD6F000ECC6FF29E1C
:101098003BEC22F01C501D10D8B40AD0330E0001CE
:1010A8009B6FC60E00019C6FC20E00019D6F12005F
:1010B800000E1F6ECC0E1E6E5AEC17F0000E1F6E3F
:1010C800440E1E6E5AEC17F09286F28E000E010145
:1010D800CD6F000ECC6F0AD0000E0001726F010EAA
:1010E800716F9AEC21F00101CC4BCD2B0101CDBFE2
:1010F80008D00101CD5107E1050E0101CC5DD8B042
:1011080002D080A6E9D7050E0101CC190101CD1145
:10111800D8A40AD0660E00019B6FC60E00019C6F12
:10112800C20E00019D6F1200F29E3BEC22F01C5093
:101138001D10D8B40AD09A0E00019B6FC60E00018C
:101148009C6FC20E00019D6F1200000E1F6ECC0E28
:101158001E6E5AEC17F0000E1F6EBE0E1E6E5AEC75
:1011680017F0CAEC15F071C090F172C091F1CAEC99
:1011780015F071C092F172C093F1CAEC15F071C00C
:1011880094F172C095F1CAEC15F071C096F172C075
:1011980097F1CAEC15F071C098F172C099F1CAECD8
:1011A80015F071C09AF172C09BF1CAEC15F071C0CC
:1011B8009CF172C09DF1CAEC15F071C09EF172C02D
:1011C8009FF1CAEC15F071C0A0F172C0A1F1F28EC6
:1011D800000E0101C66F000EC56F0101C6BF08D021
:1011E8000101C6514FE1090E0101C55DD8B04AD0D1
:1011F800000E0101C86F000EC76F0101C8BF08D0FB
:101208000101C8513BE1080E0101C75DD8B036D0D5
:10121800C7C19EF0D8900101C535D96E0101C63508
:10122800DA6E900ED926010EDA22DECF9FF0DDCFDE
:10123800A0F000019E2B04D00001A035A0339F33FD
:1012480000019E2FF9D7010E00019F17000EA0176D
:10125800D8900101A235D96E0101A335DA6E000ECE
:10126800D926010EDA229FC0DEFFA0C0DDFF0101F2
:10127800A24BA32B0101C74BC82BBFD70101C54BFC
:10128800C62BABD7000E0101CD6F000ECC6F01014C
:10129800CDBF08D00101CD5154E1480E0101CC5D0C
:1012A800D8B04FD0D8900101CC35D96E0101CD35D9
:1012B800DA6E000ED926010EDA22DECF9EF0DDCFDF
:1012C8009FF00101B35100019E190101C36F010193
:1012D800B45100019F190101C46FB5C1B3F1B6C182
:1012E800B4F1B7C1B5F1B8C1B6F10101C3510101FB
:1012F800B9190101B76F0101C4510101BA190101FE
:10130800B86F0101C3510101BB190101B96F010196
:10131800C4510101BC190101BA6FBDC1BBF1BEC105
:10132800BCF1BFC1BDF1C0C1BEF1C1C1BFF1C2C1F5
:10133800C0F1C3C1C1F1C4C1C2F10101CC4BCD2B75
:10134800A6D70101B3510101B411D8A42AD00101D3
:10135800B5510101B611D8A424D00101B75101013A
:10136800B811D8B406D00101B9510101BA11D8A4F5
:1013780018D00101BB510101BC11D8A412D0010140
:10138800BD510101BE11D8B406D00101BF51010100
:10139800C011D8A406D00101C1510101C211D8B4AD
:1013A8000AD0660E00019B6FC70E00019C6FC20E2B
:1013B80000019D6F12000101165101011711D8A4F7
:1013C80008D0000E0101A46F800E0101A56F3F0E29
:1013D80007D0000E0101A46F800E0101A56FBF0E9A
:1013E8000101A66F000E0001776F000E0001786FF3
:1013F800410E0001796F02C171F003C172F07DECFA
:1014080022F071C074F072C075F073C076F066ECAB
:1014180019F074C092F075C093F076C094F0000E85
:101428000001776F800E0001786F410E0001796F1F
:1014380000C171F001C172F07DEC22F071C074F04E
:1014480072C075F073C076F066EC19F074C08FF056
:1014580075C090F076C091F096EC14F08FC0A7F1AB
:1014680090C0A8F191C0A9F1000E0001776F800E1D
:101478000001786F400E0001796F04C171F005C159
:1014880072F07DEC22F071C074F072C075F073C018
:1014980076F066EC19F074C092F075C093F076C0DF
:1014A80094F0A7C18FF0A8C190F0A9C191F096EC73
:1014B80014F08FC0AAF190C0ABF191C0ACF1000E4E
:1014C8000001776F000E0001786F400E0001796F00
:1014D80006C171F007C172F07DEC22F071C074F0A2
:1014E80072C075F073C076F066EC19F074C092F0B3
:1014F80075C093F076C094F0AAC18FF0ABC190F09C
:10150800ACC191F096EC14F08FC0ADF190C0AEF183
:1015180091C0AFF108C171F009C172F07DEC22F001
:1015280071C092F072C093F073C094F0ADC18FF0A7
:10153800AEC190F0AFC191F096EC14F08FC0B0F14D
:1015480090C0B1F191C0B2F1B0C18FF0B1C190F0CB
:10155800B2C191F0000E00017C6F000E00017D6F9A
:10156800400E00017E6F0AC171F00BC172F07DEC74
:1015780022F071C079F072C07AF073C07BF01BEC76
:1015880018F079C092F07AC093F07BC094F096EC92
:1015980014F08FC0C9F190C0CAF191C0CBF1000E10
:1015A80000017C6F000E00017D6F410E00017E6F0F
:1015B8000EC171F00FC172F07DEC22F071C079F0AC
:1015C80072C07AF073C07BF01BEC18F079C092F00F
:1015D8007AC093F07BC094F0000E00017C6F800EFF
:1015E80000017D6F400E00017E6F0CC171F00DC1CE
:1015F80072F07DEC22F071C079F072C07AF073C09D
:101608007BF01BEC18F079C08FF07AC090F07BC0AB
:1016180091F096EC14F08FC0A7F190C0A8F191C09A
:10162800A9F1000E00017C6F800E00017D6F410E54
:1016380000017E6F10C171F011C172F07DEC22F0D3
:1016480071C079F072C07AF073C07BF01BEC18F0AF
:1016580079C092F07AC093F07BC094F0A7C18FF064
:10166800A8C190F0A9C191F096EC14F08FC0AAF12E
:1016780090C0ABF191C0ACF1000E00017C6F000E80
:1016880000017D6F420E00017E6F12C171F013C11F
:1016980072F07DEC22F071C079F072C07AF073C0FC
:1016A8007BF01BEC18F079C092F07AC093F07BC005
:1016B80094F0AAC18FF0ABC190F0ACC191F096EC58
:1016C80014F08FC0ADF190C0AEF191C0AFF1000E33
:1016D80000017C6F800E00017D6F420E00017E6F5D
:1016E80014C171F015C172F07DEC22F071C079F06F
:1016F80072C07AF073C07BF01BEC18F079C092F0DE
:101708007AC093F07BC094F0ADC18FF0AEC190F079
:10171800AFC191F096EC14F08FC0B0F190C0B1F168
:1017280091C0B2F1B0C18FF0B1C190F0B2C191F0E7
:10173800C9C192F0CAC193F0CBC194F096EC14F0F1
:101748008FC0C9F190C0CAF191C0CBF1C9C179F07D
:10175800CAC17AF0CBC17BF0A4C17CF0A5C17DF0F1
:10176800A6C17EF01BEC18F079C0C9F17AC0CAF1A5
:101778007BC0CBF1C9C19BF0CAC19CF0CBC19DF025
:10178800120000018B6F00018BAF24D100018B6D1B
:1017980000018B51800A120FD8A0A8D0000E0001BA
:1017A800786F030E776F000E0001746F0A0E736F67
:1017B800000E1F6E640E1E6E00018B511C6E1D6A9A
:1017C8001CBE1D06D1EC20F01CC071F01DC072F0CB
:1017D80047EC1EF0090E000171250001756F000E1F
:1017E800000172210001766F1FEC23F0240E000126
:1017F8007525F66E7F0E00017621F76E0900F5CF8C
:101808007CF00900F5CF7DF00A00F5CF7EF0000EE0
:101818000001746F640E736F00018B510001716FCA
:10182800726B71BF720747EC1EF0120E0001712532
:101838000001756F000E000172210001766F000E25
:101848000001786F030E776F1FEC23F0240E000160
:101858007525F66E7F0E00017621F76E0900F5CF2B
:1018680079F00900F5CF7AF00A00F5CF7BF01BEC90
:1018780018F079C088F07AC089F07BC08AF088C0F7
:1018880079F089C07AF08AC07BF0000E0001786F89
:10189800030E776F000E1F6E0A0E1E6E00018B512D
:1018A8001C6E1D6A1CBE1D06D1EC20F01CC075F014
:1018B8001DC076F01FEC23F0240E00017525F66E8E
:1018C8007F0E00017621F76E0900F5CF7CF0090044
:1018D800F5CF7DF00A00F5CF7EF01BEC18F079C04B
:1018E80085F07AC086F07BC087F0120000018B512A
:1018F800800A750FD8A05BD0000E0001746F0A0E25
:10190800736F00018B510001716F726B71BF7207A9
:1019180047EC1EF0090E000171250001756F000EDD
:10192800000172210001766F000E0001786F030E2E
:10193800776F1FEC23F0240E00017525F66E7F0EDD
:1019480000017621F76E0900F5CF79F00900F5CF8F
:101958007AF00A00F5CF7BF0000E0001786F030ED5
:10196800776F000E1F6E0A0E1E6E00018B511C6EE3
:101978001D6A1CBE1D06D1EC20F01CC075F01DC0F0
:1019880076F01FEC23F0240E00017525F66E7F0E0D
:1019980000017621F76E0900F5CF7CF00900F5CF3C
:1019A8007DF00A00F5CF7EF01BEC18F098D7000107
:1019B8008B51030D240EF324F66E7F0EF420F76E80
:1019C8000900F5CF85F00900F5CF86F00A00F5CFBC
:1019D80087F0120000018B51800A120FD8A0A8D0FE
:1019E800000E0001786F030E776F000E0001746F10
:1019F8000A0E736F000E1F6E640E1E6E00018B516F
:101A08001C6E1D6A1CBE1D06D1EC20F01CC071F0B6
:101A18001DC072F047EC1EF0090E0001712500018F
:101A2800756F000E000172210001766F1FEC23F024
:101A3800FD0E00017525F66E7E0E00017621F76E0B
:101A48000900F5CF7CF00900F5CF7DF00A00F5CF4D
:101A58007EF0000E0001746F640E736F00018B51ED
:101A68000001716F726B71BF720747EC1EF0120EA6
:101A7800000171250001756F000E0001722100013F
:101A8800766F000E0001786F030E776F1FEC23F05E
:101A9800FD0E00017525F66E7E0E00017621F76EAB
:101AA8000900F5CF79F00900F5CF7AF00A00F5CFF3
:101AB8007BF01BEC18F079C088F07AC089F07BC005
:101AC8008AF088C079F089C07AF08AC07BF0000E6D
:101AD8000001786F030E776F000E1F6E0A0E1E6EE0
:101AE80000018B511C6E1D6A1CBE1D06D1EC20F036
:101AF8001CC075F01DC076F01FEC23F0FD0E000130
:101B08007525F66E7E0E00017621F76E0900F5CF79
:101B18007CF00900F5CF7DF00A00F5CF7EF01BECD4
:101B280018F079C085F07AC086F07BC087F0120083
:101B380000018B51800A750FD8A05BD0000E000100
:101B4800746F0A0E736F00018B510001716F726B15
:101B580071BF720747EC1EF0090E000171250001E4
:101B6800756F000E000172210001766F000E0001F2
:101B7800786F030E776F1FEC23F0FD0E00017525BB
:101B8800F66E7E0E00017621F76E0900F5CF79F02A
:101B98000900F5CF7AF00A00F5CF7BF0000E0001BE
:101BA800786F030E776F000E1F6E0A0E1E6E00010F
:101BB8008B511C6E1D6A1CBE1D06D1EC20F01CC08A
:101BC80075F01DC076F01FEC23F0FD0E00017525A1
:101BD800F66E7E0E00017621F76E0900F5CF7CF0D7
:101BE8000900F5CF7DF00A00F5CF7EF01BEC18F068
:101BF80098D700018B51030DFD0EF324F66E7E0E6F
:101C0800F420F76E0900F5CF85F00900F5CF86F0CE
:101C18000A00F5CF87F01200266E74D1E30E00019A
:101C2800716F7F0E0001726F3CEC21F0EAD1CB0E90
:101C38000001716F7F0E0001726F3CEC21F0E1D161
:101C4800F00E0001716F7F0E0001726F3CEC21F005
:101C5800D8D1C60E0001716F7F0E0001726F3CEC87
:101C680021F0CFD1BC0E0001716F7F0E0001726FA1
:101C78003CEC21F0C6D1BF0E0001716F7F0E000150
:101C8800726F3CEC21F0BDD1BA0E0001716F7F0E6E
:101C98000001726F3CEC21F0B4D1D10E0001716FDC
:101CA8007F0E0001726F3CEC21F0ABD1C70E000132
:101CB800716F7F0E0001726F3CEC21F0A2D1AD0E66
:101CC8000001716F7F0E0001726F3CEC21F099D119
:101CD800E20E0001716F7F0E0001726F3CEC21F083
:101CE80090D1F50E0001716F7F0E0001726F3CEC10
:101CF80021F087D1A30E0001716F7F0E0001726F72
:101D08003CEC21F07ED1BB0E0001716F7F0E00010B
:101D1800726F3CEC21F075D1A20E0001716F7F0E3D
:101D28000001726F3CEC21F06CD1EB0E0001716F79
:101D38007F0E0001726F3CEC21F063D1E10E0001CF
:101D4800716F7F0E0001726F3CEC21F05AD1F10ED9
:101D58000001716F7F0E0001726F3CEC21F051D1D0
:101D6800CC0E0001716F7F0E0001726F3CEC21F008
:101D780048D1A40E0001716F7F0E0001726F3CEC18
:101D880021F03FD1E70E0001716F7F0E0001726FE5
:101D98003CEC21F036D18D0E0001716F7F0E0001F1
:101DA800726F3CEC21F02DD1DD0E0001716F7F0EBA
:101DB8000001726F3CEC21F024D1E60E0001716F36
:101DC8007F0E0001726F3CEC21F01BD1DC0E00018C
:101DD800716F7F0E0001726F3CEC21F012D1C50EBD
:101DE8000001716F7F0E0001726F3CEC21F009D188
:101DF800A00E0001716F7F0E0001726F3CEC21F0A4
:101E080000D1A60E0001716F7F0E0001726F3CECCD
:101E180021F0F7D0AC0E0001716F7F0E0001726FD8
:101E28003CEC21F0EED0B20E0001716F7F0E000184
:101E3800726F3CEC21F0E5D08C0E0001716F7F0EC3
:101E48000001726F3CEC21F0DCD0D60E0001716FFE
:101E58007F0E0001726F3CEC21F0D3D0D00E000150
:101E6800716F7F0E0001726F3CEC21F0CAD0CA0E70
:101E78000001716F7F0E0001726F3CEC21F0C1D040
:101E8800C40E0001716F7F0E0001726F3CEC21F0EF
:101E9800B8D0B80E0001716F7F0E0001726F3CEC74
:101EA80021F0AFD07D0E0001716F7F0E0001726FBF
:101EB8003CEC21F0A6D0920E0001716F7F0E00015C
:101EC800726F3CEC21F09DD0BE0E0001716F7F0E49
:101ED8000001726F3CEC21F094D0840E0001716F08
:101EE8007F0E0001726F3CEC21F08BD08B0E00014D
:101EF800716F7F0E0001726F3CEC21F082D01BECF9
:101F080024F07FD02650200AD8B4F9D70C0AD8B4C8
:101F1800C9D7010AD8B4EAD7030AD8B4DED7010A68
:101F2800D8B4D2D71F0AD8B463D7010AD8B469D7AE
:101F3800030AD8B46FD7010AD8B475D7070AD8B43A
:101F48007BD7010AD8B481D7030AD8B487D7010A46
:101F5800D8B48DD70F0AD8B493D7010AD8B499D773
:101F6800060AD8B4A8D77E0AD8B458D6030AD8B473
:101F78005ED6010AD8B464D6070AD8B46AD6010A6C
:101F8800D8B470D6030AD8B476D6010AD8B47CD6A9
:101F98000F0AD8B482D6010AD8B488D6030AD8B4AE
:101FA8008ED6010AD8B494D6070AD8B49AD6010AAC
:101FB800D8B4A0D6030AD8B4A6D6010AD8B4ACD6E9
:101FC8001F0AD8B4B2D6010AD8B4B8D6030AD8B40E
:101FD800BED6010AD8B4C4D6070AD8B4CAD6010AEC
:101FE800D8B4D0D6030AD8B4D6D6010AD8B4DCD629
:101FF8000F0AD8B4E2D6010AD8B4E8D6030AD8B48E
:10200800EED622EC24F01200FACF06F0FBCF07F050
:10201800E9CF08F0EACF09F0E1CF0AF0E2CF0BF000
:10202800D9CF0CF0DACF0DF0F3CF0EF0F4CF0FF0DC
:10203800F6CF10F0F7CF11F0F8CF12F0F5CF13F07C
:10204800000E196E000E186E000E156E000E146E3E
:10205800000E176E000E166E000E1B6E000E1A6E26
:102068009EA202D09E927FD19EA07DD1EC0ECF6E13
:10207800770ECE6E83BA03D0016A012A01D0016AB5
:10208800013A014683500118DF0B0118836E3C4A60
:102098003D2A320E3C183D10D8A411D083B803D085
:1020A800016A012A01D0016A013A83500118EF0B35
:1020B8000118836E0400000E3D6E000E3C6EC29443
:1020C800C296C288C29AC29CC2809E9CC2829EACA2
:1020D800FED7C3CF18F0C4CF19F09E9CC2903E50D3
:1020E800D8B402D0364A372A195004E1810E185C58
:1020F800D8A01ED01850425C19504358D8B018D0F8
:10210800000E176E010E166E384A392A395004E14E
:10211800C80E385CD8A08CD08182010E3E6E000EAD
:10212800376E000E366E000E396E000E386E80D097
:10213800000E176E000E166E000E396E000E386E09
:10214800E00E365C2E0E3758D8A003D08192000ED0
:102158003E6E800E32183310D8A40ED0D8903A3480
:10216800D96E3B34DA6E000ED926020EDA22DECFA3
:1021780014F0DDCF15F004D0000E156E000E146EAD
:10218800D8903A34D96E3B34DA6E000ED926020E56
:10219800DA2218C0DEFF19C0DDFF335006E1800ED9
:1021A800325CD8B002D0324A332A3A4A3B2A800EEF
:1021B8003A183B10D8A404D0000E3B6E000E3A6EBD
:1021C80014C001F015C002F0011E021E014A022AC5
:1021D800345001263550022218500124346E19500B
:1021E8000220356E800E32183310D8A421D034C0A6
:1021F8003FF035C040F0416A070E016E3FC002F063
:1022080040C003F041C004F00128056E04D0D89006
:10221800043203320232052EFAD702C03FF003C05F
:1022280040F004C041F0D8903F34426E4034436ED1
:1022380030503110D8A409D016041710D8A405D0EE
:10224800000E1B6E010E1A6E0CD030043110D8A48B
:1022580011D016501710D8A40DD0000E1B6E000E0A
:10226800F2D72D500FE1200E2C5CD8B00BD02C4AA1
:102278002D2A08D0000E1B6E020E1A6E000E2D6E4F
:10228800000E2C6E020E1A181B10D8B434D02D5024
:1022980032E1210E2C5CD8B02ED00001E8510001AB
:1022A800E911D8A428D0FE0E0001E4150001E46F5E
:1022B800FF0E0001E5150001E56FFF0E0001E615B0
:1022C8000001E66F000E0001E7150001E76F1A50E4
:1022D8000001E4110001E46F1B500001E511000149
:1022E800E56F000E0001E6110001E66F000E000127
:1022F800E7110001E76F020E1A181B10D8A415D0B9
:10230800020E2E182F10D8B410D00001E851000189
:10231800E911D8A40AD0200E2C182D10D8A405D065
:10232800000E0001E96F010EE86F020E1A181B106B
:10233800D8A418D0020E2E182F10D8A413D000013C
:10234800E8510001E911D8A40DD0000E0001E46F96
:10235800000EE56F000EE66F000EE76F000E2D6EA3
:10236800000E2C6E9E9013C0F5FF12C0F8FF11C02E
:10237800F7FF10C0F6FF0FC0F4FF0EC0F3FF0DC04B
:10238800DAFF0CC0D9FF0BC0E2FF0AC0E1FF09C0A9
:10239800EAFF08C0E9FF07C0FBFF06C0FAFF449246
:1023A800110085C091F086C092F087C093F088C074
:1023B80094F089C0D9FF8AC0DAFF000EDE6E000EE5
:1023C800DD6E030E0001906F00019F69A069010E88
:1023D8000001956F000E966F000E976F000E986FB4
:1023E8003DD100019F2904E10001A029D8B44DD0B6
:1023F8000001A0BF2FD00001A05104E100019F05FA
:10240800D8A028D000019551000191190001856FCD
:1024180000019651000192190001866F0001975141
:10242800000193190001876F000198510001941968
:102438000001886F00019551000195270001965110
:10244800000196230001975100019723000198513C
:102458000001982300019551000191190001856F31
:1024680000019651000192190001866F00019751F1
:10247800000193190001876F000198510001941918
:102488000001886F020E0001906F85C01CF086C0A5
:102498001DF087C01EF088C01FF056EC20F01CC04D
:1024A8009BF01DC09CF01EC09DF01FC09EF0000157
:1024B8009B5100019C1100019D1100019E11D8B48F
:1024C800C4D0000E00019A6F000E996F00019ABFE8
:1024D8000AD000019A5106E1170E0001995DD8B0A3
:1024E800B0D001D0AED09BC01CF09CC01DF09DC0E8
:1024F8001EF09EC01FF09AEC1EF089C0D9FF8AC05A
:10250800DAFF1CC0DEFF1DC0DDFF00019051000195
:102518008D6F8E6BDE5000018D5D00018E51800A3B
:1025280000018F6FDE50800A00018F59D8A057D064
:1025380000019B51000185190001856F00019C5124
:10254800000186190001866F00019D51000187195D
:102558000001876F00019E51000188190001886FF2
:1025680085C01CF086C01DF087C01EF088C01FF013
:1025780099C020F09AC021F013EC20F01CC085F01F
:102588001DC086F01EC087F01FC088F00001A0BFE4
:1025980015D089C0D9FF8AC0DAFFDECF8BF0DDCF36
:1025A8008CF0010E00018B27000E8C2389C0D9FF07
:1025B8008AC0DAFF8BC0DEFF8CC0DDFF85C09BF0D0
:1025C80086C09CF087C09DF088C09EF09BC085F0B7
:1025D8009CC086F09DC087F09EC088F0120085C020
:1025E8001CF086C01DF087C01EF088C01FF0000ECA
:1025F800216E010E206E95EC20F01CC085F01DC0E8
:1026080086F01EC087F01FC088F085C01CF086C009
:102618001DF087C01EF088C01FF056EC20F01CC0CB
:102628009BF01DC09CF01EC09DF01FC09EF00001D5
:10263800994B9A2B00019ABF56D700019A5101E194
:102648004BD700019F4BA02B09D085C085F086C0D1
:1026580086F087C087F088C088F012000001A0BF0C
:10266800C0D60001A05105E1170E00019F5DD8A05A
:10267800B8D691C085F092C086F093C087F094C018
:1026880088F0120000018E6F6D0E00018E65B6D0C5
:10269800000E0001786F030E776F000E0001746F53
:1026A8000A0E736F000E1F6E640E1E6E8EC01CF035
:1026B8001D6AD1EC20F01CC071F01DC072F047EC0F
:1026C8001EF0090E000171250001756F000E000152
:1026D80072210001766F1FEC23F0240E000175258E
:1026E800F66E7F0E00017621F76E0900F5CF7CF0BB
:1026F8000900F5CF7DF00A00F5CF7EF0000E00014D
:10270800746F640E736F8EC071F00001726B47ECCA
:102718001EF0120E000171250001756F000E0001F8
:1027280072210001766F000E0001786F030E776F3B
:102738001FEC23F0240E00017525F66E7F0E0001B4
:102748007621F76E0900F5CF79F00900F5CF7AF018
:102758000A00F5CF7BF01BEC18F079C08BF07AC03B
:102768008CF07BC08DF0000E0001786F030E776F40
:10277800000E1F6E0A0E1E6E8EC01CF01D6AD1EC74
:1027880020F01CC075F01DC076F01FEC23F0240E5D
:1027980000017525F66E7F0E00017621F76E09009F
:1027A800F5CF7CF00900F5CF7DF00A00F5CF7EF07B
:1027B8008BC079F08CC07AF08DC07BF01BEC18F0E0
:1027C80079C088F07AC089F07BC08AF088C079F037
:1027D80089C07AF08AC07BF0000E00017C6F000E81
:1027E80000017D6F3F0E00017E6F1BEC18F079C071
:1027F80085F07AC086F07BC087F012000A0E0001CF
:102808008E656CD0000E0001786F030E776F000E96
:102818001F6E0A0E1E6E8EC01CF01D6AD1EC20F0D1
:102828001CC075F01DC076F01FEC23F0240E0001CB
:102838007525F66E7F0E00017621F76E0900F5CF3B
:102848007CF00900F5CF7DF00A00F5CF7EF0000E90
:102858000001746F0A0E736F8EC071F00001726B05
:1028680047EC1EF0090E000171250001756F000E7E
:10287800000172210001766F000E0001786F030ECF
:10288800776F1FEC23F0240E00017525F66E7F0E7E
:1028980000017621F76E0900F5CF79F00900F5CF30
:1028A8007AF00A00F5CF7BF01BEC18F079C08BF0BA
:1028B8007AC08CF07BC08DF08BC079F08CC07AF038
:1028C8008DC07BF0000E00017C6F000E00017D6F53
:1028D8003F0E00017E6F1BEC18F089D700018E5166
:1028E800030D240EF324F66E7F0EF420F76E090014
:1028F800F5CF79F00900F5CF7AF00A00F5CF7BF033
:10290800000E00017C6F000E00017D6F3F0E00017C
:102918007E6F1BEC18F079C085F07AC086F07BC01A
:1029280087F0120091C095F00001966B976B00013B
:1029380090350001953701E396810001955100011A
:102948009A6F94C095F00001966B976B00019335D0
:102958000001953701E39681000195510001996FB7
:1029680000019A510001D8B411D000019951000119
:102978009A5DD8B012D000019A510008000199253B
:102988000001956F180E0001956507D092C08FF071
:1029980093C090F094C091F0120000019951000189
:1029A800D8B411D000019A510001995DD8B012D065
:1029B80000019951000800019A250001956F180E31
:1029C8000001956507D08FC08FF090C090F091C03E
:1029D80091F01200060E0001986F000191AF02D02D
:1029E8000001988F000194AF02D00001988D00017A
:1029F800908FFF0E00018F17FF0E00019017000E39
:102A0800000191170001938FFF0E00019217FF0E2E
:102A180000019317000E000194170001995100015D
:102A28009A5DD8B025D00001D89092379337943763
:102A38000001990700019A5100019919D8B411D0E1
:102A48000001980798C095F0070E00019517D8B4B3
:102A580008D0E9D70001D890913390338F33000123
:102A68009A2B0001995100019A19D8B42BD0F2D7AA
:102A780000019A510001995DD8B024D00001D89086
:102A88008F379037913700019A0700019A5100015A
:102A98009919D8B411D00001980798C095F0070E7D
:102AA80000019517D8B408D0E9D70001D89094331D
:102AB800933392330001992B0001995100019A191F
:102AC800D8A4F3D7000198AF12D0FF0E00018F1BD6
:102AD800FF0E0001901BFF0E0001911B010E00016B
:102AE8008F27000E00019023000E000191230001A2
:102AF80098AD12D0FF0E0001921BFF0E0001931B30
:102B0800FF0E0001941B010E00019227000E000128
:102B18009323000E00019423000E0001986F00011A
:102B28008F51000192270001905100019323000169
:102B3800915100019423000194AF15D0FF0E0001BC
:102B4800921BFF0E0001931BFF0E0001941B010E48
:102B580000019227000E00019323000E0001942328
:102B6800010E0001986F92C01CF093C01DF094C034
:102B78001EF09AC01FF098C020F0F0EC1DF01CC0A9
:102B88008FF01DC090F01EC091F01200000E0001E1
:102B9800926F000E916F928606EC23F01CC081F0B4
:102BA8001DC082F006EC23F01CC083F01DC084F029
:102BB80006EC23F01CC085F01DC086F006EC23F05F
:102BC8001CC087F01DC088F006EC23F01CC089F0FB
:102BD8001DC08AF006EC23F01CC08BF01DC08CF0E1
:102BE80006EC23F01CC08DF01DC08EF006EC23F01F
:102BF8001CC08FF01DC090F08FC073F090C074F0AF
:102C0800070ED890000173377437E82EFAD78DC0B5
:102C180075F08EC076F0060ED890000175377637BD
:102C2800E82EFAD78BC077F08CC078F0050ED890D4
:102C3800000177377837E82EFAD789C079F08AC04B
:102C48007AF00001793B7A3BF00E7A1779510F0B35
:102C58007A13F00E791787C07BF088C07CF00001EA
:102C6800D8907B377C370001D8907B377C370001C0
:102C7800D8907B377C3785C07DF086C07EF0000118
:102C8800D8907D377E370001D8907D377E3783C056
:102C98007FF084C080F0D89000017F378037000132
:102CA8007D5100017F2700017E5100018023000132
:102CB8007B5100017F2700017C5100018023000126
:102CC800795100017F2700017A510001802300011A
:102CD800775100017F27000178510001802300010E
:102CE800755100017F270001765100018023000102
:102CF800735100017F2700017451000180230001F6
:102D0800815100017F250001916F0001825100016E
:102D180080210001926F91C071F092C072F0120090
:102D2800A1C028F0A2C029F0A3C02AF0A4C02BF0AB
:102D3800190E05D0D8902B322A3229322832E82EA3
:102D4800F9D7550E28140001A96F0001AA6B550E7A
:102D58000001A9190001AA11D8B406D0000E00017B
:102D6800A26F000EA16F1200FF0E0001A115000155
:102D7800B16FFF0E0001A2150001B26FFF0E000136
:102D8800A3150001B36F000E0001A4150001B46F74
:102D9800B1C01CF0B2C01DF0B3C01EF0B4C01FF02B
:102DA80056EC20F01C501D101E101F10D8A424D063
:102DB800FF0E0001B1150001B56F0F0E0001B2152D
:102DC8000001B66F000E0001B3150001B76F000EC9
:102DD8000001B41552D00F0E0001B515286E000E73
:102DE8000001B615296EA5C0D9FFA6C0DAFF28C014
:102DF800DEFF29C0DDFF44D0B1C085F0B2C086F047
:102E0800B3C087F0B4C088F0AF0E0001896F000E20
:102E180000018A6FD5EC11F085C0ABF086C0ACF02C
:102E280087C0ADF088C0AEF0ABC01CF0ACC01DF0E0
:102E3800ADC01EF0AEC01FF0D1EC22F01C501D102A
:102E4800D8B42ED0000E0001AB27000EAC23800EA4
:102E5800AD23000EAE23FF0E0001AB150001B56FC8
:102E68000F0E0001AC150001B66F000E0001AD1584
:102E78000001B76F000E0001AE150001B86FABD7A7
:102E8800FF0E0001B515286E000E0001B615296E5B
:102E9800A7C0D9FFA8C0DAFF28C0DEFF29C0DDFF20
:102EA800000E0001A26F010EA16F1200010E1E1488
:102EB8000001716F0001726B1F341F30216E1E30CC
:102EC800206E010E20140001736F0001746B1EC088
:102ED80020F01FC021F02134213220322134213248
:102EE8002032010E20140001756F0001766B1EC0A0
:102EF80020F01FC021F02134213220322134213228
:102F08002032213421322032010E20140001776F43
:102F18000001786B1EC020F01FC021F0040E226E45
:102F2800213421322032222EFBD7010E2014000139
:102F3800796F00017A6B1EC020F01FC021F0050ECA
:102F4800226E213421322032222EFBD7010E20148A
:102F580000017B6F00017C6B1EC020F01FC021F0B8
:102F6800060E226E213421322032222EFBD7010E8A
:102F7800201400017D6F00017E6B1EC020F01FC071
:102F880021F0070E226E213421322032222EFBD767
:102F9800010E201400017F6F0001806B71C01CF0CE
:102FA80072C01DF038EC23F000D000D000F073C0E0
:102FB8001CF074C01DF038EC23F000D000D000F0F5
:102FC80075C01CF076C01DF038EC23F000D000D09E
:102FD80000F077C01CF078C01DF038EC23F000D06A
:102FE80000D000F079C01CF07AC01DF038EC23F056
:102FF80000D000D000F07BC01CF07CC01DF038EC85
:1030080023F000D000D000F07DC01CF07EC01DF081
:1030180038EC23F000D000D000F07FC01CF080C056
:103028001DF038EC23F000D000D000F012007BC077
:1030380028F0296A2A6A00017A35283601E32980AE
:10304800285000017F6F00017F51D8A40AD0000EDC
:103058000001796F000E00017A6F000E00017B6F8E
:1030680012007EC028F0296A2A6A00017D352836B8
:1030780001E3298028500001846F00018451D8A4FD
:103088000AD0000E0001796F000E00017A6F000E61
:1030980000017B6F1200000184517B0F00017F2724
:1030A8007BC084F000017E510001841B800E00016A
:1030B800841700017A8F00017D8FFF0E00017C17B5
:1030C800FF0E00017D17000E00017E17000E0001A3
:1030D800806F000E0001816F000E0001826F070EE5
:1030E8000001836F000179A10CD000017C5100011F
:1030F800802700017D510001812300017E510001DC
:1031080082230001D8907B337A3379330001D89039
:103118007C377D377E370001832FE4D7090E000105
:10312800836F000179A10CD000017C510001802738
:1031380000017D510001812300017E51000182239D
:103148000001D8907B337A3379330001D8908233E9
:10315800813380330001832FE4D780C01CF081C005
:103168001DF082C01EF07FC01FF084C020F0F0EC7C
:103178001DF01CC079F01DC07AF01EC07BF0120053
:103188008EC090F00001916B926B00018D350001AB
:10319800903701E391810001905100019A6F00017D
:1031A8009A51D8A40AD0000E00018C6F000E8D6FC2
:1031B800000E8E6F000E8F6F1200170E0001906FB9
:1031C8008CC091F08DC092F08EC093F000019029D0
:1031D8000001946F05D00001D89093339233913356
:1031E8000001942FF8D7000191510001956F00015B
:1031F8008D8FFF0E00018C17FF0E00018D17000E3A
:1032080000018E1700018C510001966F00018D514D
:103218000001976F00018E510001986F0001996BB2
:103228008E0E00019A5F00019AAF1AD000019A51E0
:10323800800A8F0FD8B00AD0000E00018C6F000EE4
:103248008D6F000E8E6F000E8F6F12000001D890E8
:10325800993398339733963300019A3FF7D71BD0A9
:10326800170E00019A6512D0000E00018C6F000E37
:103278008D6F000E8E6F000E8F6F12000001D890B8
:10328800963797379837993700019A0700019A516E
:103298000001D8A4F3D7000195510001D8B409D092
:1032A8000001991F981F971F966D000E972398236A
:1032B800992396C08CF097C08DF098C08EF099C075
:1032C8008FF0120076C025F0266A276A000175354E
:1032D800253601E32680255000017E6F00017E51CE
:1032E800D8A40AD0000E0001746F000E0001756F9B
:1032F800000E0001766F120079C025F0266A276A51
:1033080000017835253601E32680255000017F6FBE
:1033180000017F51D8A40AD0000E0001746F000E7E
:103328000001756F000E0001766F1200000E00019B
:103338007B6F000E00017C6F000E00017D6F0001A5
:103348007F51890F00017E5F76C07FF000017951BF
:1033580000017F1B800E00017F170001758FFF0E93
:1033680000017417FF0E00017517000E0001761793
:103378000001788FFF0E00017717FF0E0001781704
:10338800000E00017917180E00017A6F0001D8901D
:103398007B377C377D37000177510001745D000170
:1033A8007851000175590001795100017659D8A06A
:1033B8000ED0000177510001745F000178510001BF
:1033C800755B000179510001765B00017B8100018A
:1033D800D89074377537763700017A2FD7D77BC0E6
:1033E8001CF07CC01DF07DC01EF07EC01FF07FC0A9
:1033F80020F0F0EC1DF01CC074F01DC075F01EC06C
:1034080076F012001EC022F0236A246A1D34223688
:1034180001E3238022502A6E2A50D8A409D0000E36
:103428001C6E000E1D6E000E1E6E000E1F6E12002A
:1034380021C022F0236A246A2034223601E3238043
:103448002250296E2950D8A409D0000E1C6E000EF7
:103458001D6E000E1E6E000E1F6E12001D8EFF0EDA
:103468001C16FF0E1D16000E1E16208EFF0E1F16B0
:10347800FF0E2016000E2116000E256E000E266E79
:10348800000E276E000E286E7F0E2A5E2950980FB8
:103498002A5E180E296ED890253626362736283605
:1034A8001F501C5C20501D5821501E58D8A007D012
:1034B8001F501C5E20501D5A21501E5A2580D8903E
:1034C8001C361D361E36292EE6D72AAE16D02A50AF
:1034D800800A970FD8B009D0000E1C6E000E1D6E22
:1034E800000E1E6E000E1F6E1200D8902832273272
:1034F800263225322A3EF9D715D0170E2A640FD066
:10350800000E1C6E000E1D6E000E1E6E000E1F6E4D
:103518001200D89025362636273628362A062A500D
:10352800D8A4F7D725C01CF026C01DF027C01EF070
:1035380028C01FF012001E341F34276E2750D8A44D
:1035480009D0000E1C6E000E1D6E000E1E6E000EC1
:103558001F6E120021342234266E2650D8A409D0BA
:10356800000E1C6E000E1D6E000E1E6E000E1F6EED
:1035780012001E8EFF0E1C16FF0E1D16FF0E1E16C5
:10358800000E1F16218EFF0E1F16FF0E2016FF0EAF
:103598002116000E2216000E226E000E236E000E5B
:1035A800246E000E256E7F0E275E2650A00F275E24
:1035B800200E266ED89022362336243625361F5004
:1035C8001C5C20501D5821501E5822501F58D8A04E
:1035D80009D01F501C5E20501D5A21501E5A2250DF
:1035E8001F5A2280D8901C361D361E361F36262EAE
:1035F800E1D727AE16D02750800A9F0FD8B009D040
:10360800000E1C6E000E1D6E000E1E6E000E1F6E4C
:103618001200D8902532243223322232273EF9D79D
:1036280015D01F0E27640FD0000E1C6E000E1D6EE5
:10363800000E1E6E000E1F6E1200D8902236233622
:103648002436253627062750D8A4F7D722C01CF0E1
:1036580023C01DF024C01EF025C01FF01200000E6C
:103668001C6E010E1D6E000E1F6E000E1E6E000EEB
:10367800216E800E206E7EEC23F0000E1C6E010E73
:103688001D6E990E1E6E7F0E1F6E50EC23F0800E7D
:103698001C6E010E1D6E000E1F6E000E1E6E000EBB
:1036A800216E400E206E7EEC23F0800E0001C46F68
:1036B800010E0001C56F5B0E0001C66F7F0E000191
:1036C800C76FDFC0C8F0E0C0C9F0E1C0CAF0D8C019
:1036D800CBF0D9C0CCF0DAC0CDF0DBC0CEF0DCC086
:1036E800CFF0DDC0D0F0DEC0D1F0ECEC21F0000E60
:1036F8001C6E010E1D6E800E1E6E010E1F6E5CECA0
:1037080022F0000E0101C16F000EC06F0ED0000E36
:103718000101C025D96E010E0101C121DA6EDF5009
:1037280010EC0EF00101C04BC12B000E1C6E010EF7
:103738001D6EC3EC21F01C500101C05D1D5001013C
:10374800C159D8B01200E3D7000E1C6E010E1D6ED1
:10375800000E1F6E000E1E6E000E216E800E206E73
:103768007EEC23F0000E1C6E010E1D6E720E1E6E96
:103778007F0E1F6E50EC23F0800E1C6E010E1D6E26
:10378800000E1F6E000E1E6E000E216E400E206E83
:103798007EEC23F0800E0001C46F010E0001C56F9E
:1037A800650E0001C66F7F0E0001C76FD8C0C8F054
:1037B800D9C0C9F0DAC0CAF0DBC0CBF0ECEC21F01C
:1037C800000E1C6E010E1D6E800E1E6E010E1F6E09
:1037D8005CEC22F0000E0101C16F000EC06F0ED02C
:1037E800000E0101C025D96E010E0101C121DA6E5A
:1037F800DF5010EC0EF00101C04BC12B000E1C6E07
:10380800010E1D6EC3EC21F01C500101C05D1D505E
:103818000101C159D8B01200E3D7000E00019D6F15
:10382800000E00019E6F000E00019F6F000E000148
:10383800A06F000E0001A16F000E0001A26FC284EC
:10384800C296C298C29AC29CC2809E9CC2829EACFA
:10385800FED7C3CF71F0C4CF72F0A7EC23F071C0CC
:103868009DF072C09EF073C09FF09E9CC2909DC058
:1038780079F09EC07AF09FC07BF0330E00017C6F18
:10388800030E00017D6F3B0E00017E6F1BEC18F0EC
:1038980079C0A0F07AC0A1F07BC0A2F0A0C079F0F6
:1038A800A1C07AF0A2C07BF0000E00017C6F800EF0
:1038B80000017D6F3F0E00017E6F1BEC18F079C090
:1038C800A0F07AC0A1F07BC0A2F0A0C08CF0A1C08B
:1038D8008DF0A2C08EF0C4EC18F08CC09BF08DC0A7
:1038E8009CF01200000E00019D6F000E00019E6FFB
:1038F800000E00019F6F000E0001A06F000E000176
:10390800A16F000E0001A26FC294C296C288C28A3B
:10391800C29CC2809E9CC2829EACFED7C3CF71F06F
:10392800C4CF72F0A7EC23F071C09DF072C09EF076
:1039380073C09FF09E9CC2909DC079F09EC07AF0A3
:103948009FC07BF0330E00017C6F030E00017D6F7A
:103958003B0E00017E6F1BEC18F079C0A0F07AC016
:10396800A1F07BC0A2F0A0C079F0A1C07AF0A2C0FB
:103978007BF0000E00017C6F800E00017D6F3F0E12
:1039880000017E6F1BEC18F079C0A0F07AC0A1F09E
:103998007BC0A2F0A0C08CF0A1C08DF0A2C08EF0B8
:1039A800C4EC18F08CC09BF08DC09CF01200000E87
:1039B8000001886F000E0001896F000E00018A6FF8
:1039C800000E00018B6F000E00018C6F000E0001CD
:1039D8008D6FC294C296C298C29AC29CC2809E9CA5
:1039E800C2829EACFED7C3CF71F0C4CF72F0A7ECF1
:1039F80023F071C088F072C089F073C08AF09E9C71
:103A0800C29088C079F089C07AF08AC07BF0330E02
:103A180000017C6F030E00017D6F3B0E00017E6F7D
:103A28001BEC18F079C08BF07AC08CF07BC08DF05D
:103A38008BC079F08CC07AF08DC07BF0660E0001E7
:103A48007C6FB60E00017D6F400E00017E6F1BEC8F
:103A580018F079C08BF07AC08CF07BC08DF08BC0E9
:103A680085F08CC086F08DC087F012000F01428F60
:103A78000F0142990F01428B0F01428D080EC16E52
:103A8800AF0EC06E92809282929492869288928AA9
:103A98000F0138810F0138830F0138850F013897DE
:103AA8000F01388B89908992899489968998899A87
:103AB800000E616EF18E93809392939493969398EF
:103AC800939A939C939E0F0139810F0139930F01AB
:103AD80039950F0139970F01399B8A908A928A94F8
:103AE8008A968A988A9A959095929594959695989B
:103AF800959A959C959E0F013B910F013B930F0161
:103B08003B950F013B970F013B990F013B9B0F0121
:103B18003B9D0F013B9F8C908C928C948C968C983B
:103B28008C9A8C9C8C9E1200000E1C6E000E1D6ED2
:103B3800000E1E6E000E1F6E0001755100017611F9
:103B48000001771100017811D8B43DD0010E206E24
:103B580007D00001D8907537763777377837202A1D
:103B6800000178AFF6D7D8901C361D361E361F36A2
:103B7800000175510001715D000176510001725913
:103B880000017751000173590001785100017459FF
:103B9800D8A011D0000175510001715F0001765164
:103BA8000001725B000177510001735B00017851DD
:103BB8000001745B1C800001D8907833773376332A
:103BC8007533202ED0D71CC071F01DC072F01EC0F6
:103BD80073F01FC074F012001F50D8B405D01C50E9
:103BE8001D101E10D8A40CD0000E1C6E000E1D6EE9
:103BF800000E1E6E12001F2AD8901E321D321C3273
:103C0800000E1C14216E000E1D14226EFE0E1E14D2
:103C1800236E215022102310D8B40CD0ECD71F2AC1
:103C2800010E1C26000E1D22000E1E22D8901E32E8
:103C38001D321C32000E1C14216E000E1D14226E43
:103C4800FF0E1E14236E215022102310D8B406D064
:103C5800E6D71F06D8901C361D361E361DBE03D06B
:103C6800020E1F60F6D71FA01D9ED8901F321F504E
:103C78001E122050D8A41E8E1CC01CF01DC01DF0A2
:103C88001EC01EF01200000E236E000174AF07D094
:103C98000001736D741FD8B0742B010E236E0001E0
:103CA80072AF07D00001716D721FD8B0722B010E70
:103CB800231A000E256E000E246E000173510001B8
:103CC8007411D8B427D0010E226E05D00001D89007
:103CD80073377437222A000174AFF8D7D890243686
:103CE8002536000173510001715D00017451000116
:103CF8007259D8A009D0000173510001715F000109
:103D080074510001725B24800001D89074337333BE
:103D1800222EE4D72350D8B404D0246C251ED8B062
:103D2800252A24C071F025C072F012004B0EF66EE1
:103D38007F0EF76E20EE71F00F0E0900F5CFDEFF53
:103D4800E806FBE2000E0001846F000E836F000E90
:103D58000001826F000E816F24D00F0E1C14206E9C
:103D6800000E1D14216E710E2024D96E000E212024
:103D7800DA6EDF50226E2250000183250001836F26
:103D8800000E000184210001846F040E206ED8907B
:103D98001F321E321D321C32202EF9D70001814BF2
:103DA800822B000182BF08D0000182510BE1060E70
:103DB8000001815DD8B006D01C501D101E101F10C8
:103DC800D8A4CBD783C01CF084C01DF01200000E0D
:103DD8000001E16F000EE06F000E0001E36F000EBE
:103DE800E26F000E0001DC6F000EDD6F000EDE6F6B
:103DF800000EDF6F0001E8510001E911D8B42ED0A0
:103E0800E4C0DCF0E5C0DDF0E6C0DEF0E7C0DFF0DE
:103E1800DCC0A1F0DDC0A2F0DEC0A3F0DFC0A4F0DA
:103E2800E00E0001A56F000E0001A66FE20E000172
:103E3800A76F000E0001A86F94EC16F00001A151C5
:103E48000001A211D8B40AD0E0C0D8F0E1C0D9F07E
:103E5800E2C0DAF0E3C0DBF0A8EC1BF0000E0001D2
:103E6800E96F000EE86F120000017D5100017E111C
:103E780000017F1100018011D8B437D0010E216EE6
:103E880007D00001D8907D377E377F378037212AC9
:103E9800000180AFF6D700017D510001795D000176
:103EA8007E5100017A5900017F5100017B590001C0
:103EB800805100017C59D8A010D000017D5100012B
:103EC800795F00017E5100017A5B00017F5100019A
:103ED8007B5B0001805100017C5B0001D89080333E
:103EE8007F337E337D33212ED6D779C079F07AC0DF
:103EF8007AF07BC07BF07CC07CF01200DAEC23F017
:103F0800EBEC1EF0DBEC1CF085C0D5F186C0D6F1D9
:103F180087C0D7F111EC1CF09BC0D1F19CC0D2F145
:103F280076EC1CF09BC0D3F19CC0D4F1F8EC07F000
:103F38009BC0CEF19CC0CFF19DC0D0F10101D7BF8D
:103F480017D0D5C1D8F0D6C1D9F0D7C1DAF0D1C1D0
:103F5800DBF0D2C1DCF0D3C1DDF0D4C1DEF0CEC1DC
:103F6800DFF0CFC1E0F0D0C1E1F033EC1BF007D0B7
:103F7800000E0001766F020E756F9BEC22F0000EAA
:103F88000001746F030E736FB6EC22F0B7D71EAE44
:103F980016D01CC022F01DC023F01EC024F0221E23
:103FA800231E241E222A000E23222422000E22244D
:103FB8001C6E000E23201D6E800E24201E6E21AE66
:103FC80016D01FC022F020C023F021C024F0221EEA
:103FD800231E241E222A000E23222422000E22241D
:103FE8001F6E000E2320206E800E2420216E000EEE
:103FF8001C1A000E1D1A800E1E1A000E1F1A000E23
:10400800201A800E211A1F501C5C20501D58215068
:104018001E58D8B002D0D8901200D8801200205074
:104028002110D8B432D0000E276E010E266E23D090
:104038001CA01AD01CC022F01DC023F01EC024F002
:104048001FC025F0D8902532243223322232000EA8
:1040580022101C6E000E23101D6E400E24101E6EC2
:10406800000E25101F6E05D0D8901F321E321D324B
:104078001C32264A272A2650205C2150800A226EAC
:104088002750800A2258D8B0D3D7FF0E1C141C6EB4
:10409800FF0E1D141D6E7F0E1E141E6E000E1F14C3
:1040A8001F6E1200FF0E1C16FF0E1D167F0E1E1629
:1040B800000E1F16000E256E010E246E25BE06D0BA
:1040C800255016E10D0E245CD8B012D01CA008D0E3
:1040D800E30E1C1A0A0E1D1A000E1E1A000E1F1AD5
:1040E800D8901F321E321D321C32244A252AE6D7A8
:1040F8001CC020F01DC021F01EC022F01FC023F0FC
:104108000C0ED8902036213622362336E82EF9D7E1
:1041180020C01CF021C01DF022C01EF023C01FF0DB
:10412800120020502110D8B42BD0000E276E010E9B
:10413800266E1CD01EAC13D0D8901C34226E1D34B1
:10414800236E1E34246E1F34256E010E22101C6E41
:1041580023501D6E24501E6E25501F6E05D0D8901A
:104168001C361D361E361F36264A272A2650205C46
:104178002150800A226E2750800A2258D8B0DAD7F8
:10418800FF0E1C141C6EFF0E1D141D6E7F0E1E14D8
:104198001E6E000E1F141F6E1200000E216E1DAE43
:1041A80006D01C6C1D1ED8B01D2A010E216E1FAE34
:1041B80004D01E6C1F1ED8B01F2A1E501F10D8B462
:1041C80018D0010E206E04D0D8901E361F36202A33
:1041D8001FAEFAD71E501C5C1F501D58D8A004D023
:1041E8001E501C5E1F501D5AD8901F321E32202EA2
:1041F800F1D72150D8B404D01C6C1D1ED8B01D2A8C
:104208001CC01CF01DC01DF012008E0E286E07D0B9
:104218000001D8907433733372337133282A000E37
:1042280000017115246E000E00017215256E000E36
:1042380000017315266EFF0E00017415276E2450B9
:10424800251026102710D8A4E3D771C01CF072C01F
:104258001DF073C01EF028C01FF0000E206EF0EC99
:104268001DF01CC071F01DC072F01EC073F012006A
:10427800000E256E000E246E1ED0E9EC23F017D038
:10428800F6EC23F014D0245000017125226E25503D
:1042980000017221236E22C0F6FF23C0F7FF080039
:1042A800F5502D0AD8B4ECD7030AD8B4E6D729ECD0
:1042B80024F0244A252A71C01CF072C01DF0C3ECFA
:1042C80021F01C50245C1D502558D8B01200DBD7B3
:1042D8007C0EF66E480EF76E000EF86E00EE3FF09C
:1042E80010EE05F00900F5CFEEFFE550E150FAE1D8
:1042F80002EE00F011EE00F0EE6AE550E150FCE14C
:10430800E250FAE10001E96BE86BE76BE66BE56BFD
:10431800E46B00EE2CF0130EEE6AE806FDE1449023
:104328004492000EF86E000130EF24F0000E236E68
:10433800000E226E17D0000E256E000E246E25BECC
:1043480006D025500DE10A0E245CD8B009D0000E25
:104358001D6E640E1C6E68EC23F0244A252AEFD7E4
:10436800224A232A00017151225C2350800A216EBF
:1043780000017251800A2158D8B01200DCD71CC045
:1043880020F01DC021F002D0204A212A20C0F6FFCB
:1043980021C0F7FFF86A050EF76403D00800F5504E
:1043A80005D0F6CFE9FFF7CFEAFFEF500009D8A410
:1043B800EBD71CC01EF01DC01FF01E1E1F1E1E4A7C
:1043C8001F2A20501E241C6E21501F201D6E120013
:1043D800C4C0D4F0C5C0D5F0000E0001D66F000EE1
:1043E8000001D76FC80E0001D26F000E0001D36F15
:1043F800D40E0001A16F000E0001A26FC6C0A3F089
:10440800C7C0A4F0D20E0001A56F000E0001A66F70
:1044180055EC00F0D4C0D9FFD5C0DAFF000EDF6E2E
:10442800120000019E5100019F110001A011D8B493
:1044380009D0000E00019E1B000E00019F1B800E7C
:104448000001A01B9BC08FF09CC090F09DC091F014
:104458009EC092F09FC093F0A0C094F096EC14F028
:104468008FC09BF090C09CF091C09DF01200000E90
:10447800206E010E1F6E929680965D0EE82EFED776
:1044880000F080860B0EE82EFED700D0928680A61C
:1044980003D01E6A1E2A01D01E6A1E501F6E206A93
:1044A800460EE82EFED71FC01CF020C01DF01200DB
:1044B8001CC020F01DC021F002D0204A212A20C0B3
:1044C800D9FF21C0DAFFDF50D8B405D0F6D7204A8B
:1044D800212A1E4A1F2A1EC0D9FF1FC0DAFF20C08A
:1044E800E1FF21C0E2FFDFCFE7FFE750D8B41200B9
:1044F800EED7000E246E000172AF07D00001716D77
:10450800721FD8B0722B010E246E71C01CF072C0DD
:104518001DF01E6A8E0E1F6E24C020F0F0EC1DF0F8
:104528001CC071F01DC072F01EC073F01200000EA6
:104538002B6E000E2A6E09D0000E0001746F3C0E1F
:10454800736FB6EC22F02A4A2B2A000175512A5CB7
:104558002B50800A296E00017651800A2958D8B05C
:104568001200EAD7000E286E000E276E09D0000E42
:104578000001726F3C0E716F9AEC21F0274A282ACD
:1045880000017351275C2850800A266E000174517F
:10459800800A2658D8B01200EAD71CC021F01D5056
:1045A800211A1E50211A21380F0B2118216E214083
:1045B800E8423F0B2118216ED89021302118216E36
:1045C80021C020F0010E201620501C6E1D6A12001A
:1045D80095849586E70E0F0149177C0EBB6E3F0E3A
:1045E80066166650F00B0C09666E639063826384EE
:1045F80063963E0E676E6650CF0B2009666EBA94BE
:104608009E921200000E206E000E1F6E92968096EB
:10461800808600D080A603D01E6A1E2A01D01E6A9A
:104628001E501F6E206A0A0EE82EFED71FC01CF00F
:1046380020C01DF012000001755100017703F3CF6F
:1046480026F0F4CF27F00001755100017803F350EC
:1046580027260001765100017703F350272626C04C
:1046680075F027C076F0120092961C501D10D8B431
:1046780009D0809600D000D000F08086090EE82E80
:10468800FED7120080960B0EE82EFED700D080864B
:1046980000D000D000F012001CC020F01DC021F096
:1046A80004D0204A212A1E4A1F2A1EC0F6FF1FC016
:1046B800F7FF20C0D9FF21C0DAFF0800F5CFDFFFE0
:1046C800DF50D8B41200EDD7000E206E000E1F6E1A
:1046D80006D0A60EE82EFED700D01F4A202A1C506E
:1046E8001F5C2050800A1E6E1D50800A1E58D8B0CC
:1046F8001200EFD71CC022F01DC023F008D022C042
:10470800D9FF23C0DAFF1EC0DFFF224A232A200672
:10471800D8A021062028F3E12128D8B41200EFD729
:10472800D08ECD90CD9CCD9ECD9ACD98CD96CD8274
:10473800EC0ECF6E770ECE6E9D809F809E90CD80C2
:10474800F29CF28E120071C01CF072C01DF01E6A3D
:104758008E0E1F6E000E206EF0EC1DF01CC071F066
:104768001DC072F01EC073F012001C501D101E10E8
:10477800D8B406D0000E1C1A000E1D1A800E1E1A80
:104788001CC01CF01DC01DF01EC01EF012001E6EC5
:10479800000E1D6E3A0E1E6005D02F0E1E6402D04C
:1047A800010E1D6E1DC01CF01C30120083BA03D010
:1047B8001C6A1C2A01D01C6A1C3A1C4683501C180F
:1047C800DF0B1C18836E0400120083823AEC24F07D
:1047D800000E1D6E4B0E1C6E68EC23F036EC24F0B8
:1047E8008392120083823AEC24F0000E1D6EE10ED3
:1047F8001C6E68EC23F036EC24F083921200BA9415
:10480800BA80BA92BA96BA98BA9ABA9C000EBC6E96
:104818009D829F929E921200DAEC23F03AEC1DF0F2
:1048280094EC23F003EC24F0ECEC22F01200020EDE
:104838001D6E0D0E1C6E68EC23F01200000E1D6E2E
:10484800E10E1C6E68EC23F01200000E1D6E4B0E7C
:104858001C6E68EC23F0120010EC24F082EC1FF0C0
:1048680053EF00F095849586BA9412009594959626
:09487800BA841200007D00007DED
:02488200120022
:107ED40000010000000A00000064000000E8030044
:107EE4000010270000A086010040420F00809698F1
:107EF4000000E1F50500CA9A3B00803F00204100E4
:107F0400C842007A44401C4650C347247449971819
:107F14004BBCBE4C6B6E4E03155079AD60F349718A
:107F240000803FCDCC3DD7233C12833AB7D138C62D
:107F34002737388635C0D633CC2B32708930E7DB0F
:107F44002EE53C1E42A20D000101020102020301C2
:107F54000202030203030420252E316620252E315C
:107F6400662025332E30642025332E3064004541AD
:107F7400534154322041434B002D2D2E2E2D2D00E4
:107F84002E2D2E2D2E2D002D2E2E2E2E2D002E2E6E
:107F94002D2D2E2E00454153415432002D2D2D2DD3
:107FA4002D002E2D2D2D2D002E2E2D2D2D002E2E7F
:107FB4002E2D2D002D2D2D2D2E002D2E2E2D2E006F
:107FC4002D2D2D2E2E002D2D2E2E2E002D2E2E2E2F
:107FD4002E002E2E2E2E2E002D2E2D2D002D2D2E4C
:107FE4002D002D2E2E2D002E2D2D2E002D2E2D2E3E
:0B7FF400002E2D2E2E0030003100006A
:020000040020DA
:08000000FFFFFFFFFFFFFFFF00
:020000040030CA
:0E000000FF21193FFF8581FF0FC00F400F4009
:00000001FF
