:0400000053EF00F0CA
:060008003D82D0EF10F074
:100018003D80D8CF1CF0E8CF1DF0E0CF1EF0FACF1E
:100028001FF0FBCF20F0E9CF21F0EACF22F0E1CF9B
:1000380023F0E2CF24F0D9CF25F0DACF26F0F3CFA2
:1000480027F0F4CF28F0F6CF29F0F7CF2AF0F8CF31
:100058002BF0F5CF2CF02CC0F5FF2BC0F8FF2AC0F1
:10006800F7FF29C0F6FF28C0F4FF27C0F3FF26C01A
:10007800DAFF25C0D9FF24C0E2FF23C0E1FF22C078
:10008800EAFF21C0E9FF20C0FBFF1FC0FAFF1EC026
:10009800E0FF1DC0E8FF1CC0D8FF3D90100014EF22
:1000A8001DF0A30E0001B66F000E0001B76F0EEF32
:1000B80006F0250E0001CB19D8B40BD09FC0D9FF8C
:1000C800A0C0DAFFCBC0DFFF00019F4BA02B0EEFD3
:1000D80006F0000E0001BB6F000EBA6F000E0001A3
:1000E800B96F000EB86FA1C0F6FFA2C0F7FF0800F5
:1000F800F55087EC1EF0D8A040D0000E0001BB6F71
:10010800000EBA6FBAC06EF0BBC06FF0000E0001EF
:10011800716F0A0E706FD7EC1DF06EC0BAF06FC029
:10012800BBF0D00E0001AD6FFF0E0001AE6FA1C095
:10013800F6FFA2C0F7FF0800F5500001AF6FB06BE3
:100148000001AD510001AF270001AE510001B023FD
:100158000001AF510001BA270001B0510001BB23D3
:100168000001A14BA22BA1C0F6FFA2C0F7FF080017
:10017800F55087EC1EF0D8B0C5D7A1C0F6FFA2C0D5
:10018800F7FF0800F5502E0AD8A439D00001B98D20
:100198000001A14BA22B000E0001CA6F000EC96F0F
:1001A80023D0C9C06EF0CAC06FF0000E0001716F95
:1001B8000A0E706FD7EC1DF0A1C0F6FFA2C0F7FFC2
:1001C8000800F55000016E27000E00016F23D00EC5
:1001D80000016E250001C96FFF0E00016F210001AB
:1001E800CA6F0001A14BA22BA1C0F6FFA2C0F7FF66
:1001F8000800F55087EC1EF0D8A00CD0D2D7000E1E
:100208000001CA6F000EC96F0001B98903D000014F
:10021800B9851AD0A1C0F6FFA2C0F7FF0001A14B13
:10022800A22B0800F5CFCBF00001CB51000AD8B4BF
:100238001DEF06F0640AD8B407D0020AD8B4E7D78D
:100248000F0AD8A40EEF06F0070E0001B915D8B4AE
:1002580079D30001B9A905D0000E0001CA6F060EB6
:10026800C96FB6C0D9FFB7C0DAFFDECFC6F0DECFA0
:10027800C7F0DDCFC8F0030E0001B627000EB72384
:100288000001C8AF11D0C6C060F0C7C061F0C8C0D7
:1002980062F05AEC1EF060C0C6F061C0C7F062C0E0
:1002A800C8F0030E0001B813000E0001C56F000E60
:1002B800C46F0001C6510001C7110001C811D8B4AC
:1002C8009BD0820E0001AD6FFF0E0001AE6FC6C05D
:1002D800AFF0C7C0B0F0C8C0B1F0C9C0B2F0100EDE
:1002E80006D00001D890B233B133B033AF33E82E23
:1002F800F8D70001AF510001AD250001C46F000E11
:100308000001AE210001C56F0001C407D8A0C507D0
:10031800C4C06EF0C5C06FF0000E0001716F030E0F
:10032800706FD7EC1DF06EC0C4F06FC0C5F0C4C0CC
:1003380066F0C5C067F0000E0001696F0A0E686FAD
:1003480092EC19F066C0C4F067C0C5F00001C5AFF3
:1003580004D00001C407D8A0C5070001C451000893
:10036800F5EC09F083C0BCF084C0BDF085C0BEF0D8
:10037800BCC074F0BDC075F0BEC076F0C6C077F0E2
:10038800C7C078F0C8C079F0FFEC14F074C0BCF0B6
:1003980075C0BDF076C0BEF0BCC060F0BDC061F0F5
:1003A800BEC062F0000E0001636F800E0001646F32
:1003B8003F0E0001656FCFEC18F00001D8B005D0F2
:1003C8000001C407D8A0C50717D0BCC060F0BDC0E5
:1003D80061F0BEC062F0000E0001636F200E0001E4
:1003E800646F410E0001656FCFEC18F00001D8A0D2
:1003F80003D00001C44BC52B0001CABF08D00001BF
:10040800CA511DE10D0E0001C95DD8B018D0C6C093
:100418008DF0C7C08EF0C8C08FF00001C95146ECFE
:100428000EF083C090F084C091F085C092F09CECEF
:100438000FF08DC0C6F08EC0C7F08FC0C8F00001A5
:10044800C5BF08D00001C5512AE10A0E0001C45DEC
:10045800D8B025D00001C6510001C7110001C8114C
:10046800D8B463D0C6C08AF0C7C08BF0C8C08CF0BF
:1004780054EC16F000018A5100018B1100018C1117
:1004880000018D11D8A451D00001C5BF4ED0000184
:10049800C55105E1020E0001C45DD8A046D0BCC01C
:1004A80060F0BDC061F0BEC062F0700E0001636F05
:1004B800890E0001646F400E0001656FCFEC18F0E3
:1004C8000001D8B003D00001F70E02D00001F80EE9
:1004D800C427FF0EC5230001C451F5EC09F083C001
:1004E800BCF084C0BDF085C0BEF0C6C060F0C7C017
:1004F80061F0C8C062F0BCC063F0BDC064F0BEC0AB
:1005080065F0A2EC12F060C0C0F061C0C1F062C03A
:10051800C2F063C0C3F0000E0001C66F000E0001F8
:10052800C76F000E0001C86F33D0C6C08AF0C7C0BD
:100538008BF0C8C08CF054EC16F08AC0C0F08BC0A9
:10054800C1F08CC0C2F08DC0C3F0C6C099F0C7C05E
:100558009AF0C8C09BF0C0C068F0C1C069F0C2C0C2
:100568006AF0C3C06BF091EC1BF068C09CF069C0E6
:100578009DF06AC09EF0CAEC1CF099C0C6F09AC003
:10058800C7F09BC0C8F0000E0001C56F000EC46F15
:10059800010E0001CB6F0A0E0001CB19D8B41ED092
:1005A8000001CB51040DF50EF324F66E7E0EF420F7
:1005B800F76E0900F5500001C05D0900F550000113
:1005C800C1590900F5500001C2590900F550000150
:1005D800C359D8A003D00001CB2BDDD7CBC0ADF0D9
:1005E8000001AE6BADBFAE070001C9510001AD27D8
:1005F8000001CA510001AE230001C4510001AD271A
:100608000001C5510001AE230001AD510001BA5FE0
:100618000001AE510001BB5B0001C9510001CA11C4
:10062800D8B404D00001BA07D8A0BB07030E000154
:10063800B8150001AD6F000E0001B9150001AE6FCD
:100648000001AD510001AE11D8B40ED009D09FC041
:10065800D9FFA0C0DAFF200EDF6E00019F4BA02B50
:100668000001BA07D8A0BB070001BBBF07D0000133
:10067800BB51EDE10001BA05D8B0E9D7030E00017E
:10068800B8150001AD6F000E0001B9150001AE6F7D
:100698000001AD510001AE11D8B455D09FC0D9FFAB
:1006A800A0C0DAFF2D0E4DD000019F4BA02B4BD0E0
:1006B800C0C060F0C1C061F0C2C062F0C3C063F0E6
:1006C8000001CB51040DF50EF324F66E7E0EF420D6
:1006D800F76E0900F5CF64F00900F5CF65F0090061
:1006E800F5CF66F00A00F5CF67F0F1EC19F060C0BD
:1006F800BCF061C0BDF062C0BEF063C0BFF0BCC05A
:100708006DF0BDC06EF0BEC06FF0BFC070F00A0ED5
:100718000001716F000E726F000E736F000E746F20
:10072800FEEC1AF06DC0BCF06EC0BDF06FC0BEF03C
:1007380070C0BFF00001BC51300F9FC0D9FFA0C0EE
:10074800DAFFDF6EB1D70001CB070001CB29D8B49F
:100758000ED0AED79FC0D9FFA0C0DAFF300EDF6E33
:1007680000019F4BA02B0001C407D8A0C5070001BA
:10077800C5BF07D00001C551EDE10001C405D8B0DF
:10078800E9D70001CABF0CD00001CA5105E1090E22
:100798000001C95DD8A004D0080E0001CB6F02D0BB
:1007A800C9C0CBF00001CB510001C95F000E0001A8
:1007B800CBBFFF0E0001CA5B0001CB510001D8B4CA
:1007C80009D09FC0D9FFA0C0DAFF2E0EDF6E00014E
:1007D8009F4BA02B0001CB51F5EC09F083C0B3F07F
:1007E80084C0B4F085C0B5F0C6C077F0C7C078F053
:1007F800C8C079F0B3C074F0B4C075F0B5C076F075
:10080800FFEC14F074C08AF075C08BF076C08CF0E1
:1008180054EC16F08AC0C0F08BC0C1F08CC0C2F096
:100828008DC0C3F074D0C0C060F0C1C061F0C2C058
:1008380062F0C3C063F00001CB51040DF50EF32440
:10084800F66E7E0EF420F76E0900F5CF64F009000D
:10085800F5CF65F00900F5CF66F00A00F5CF67F02F
:10086800F1EC19F060C0BCF061C0BDF062C0BEF030
:1008780063C0BFF0BCC06DF0BDC06EF0BEC06FF00D
:10088800BFC070F00A0E0001716F000E726F000E8B
:10089800736F000E746FFEEC1AF06DC0BCF06EC082
:1008A800BDF06FC0BEF070C0BFF00001BC51300F8A
:1008B8009FC0D9FFA0C0DAFFDF6E00019F4BA02BBD
:1008C800C0C06DF0C1C06EF0C2C06FF0C3C070F0A0
:1008D8000001CB51040DF50EF324F66E7E0EF420C4
:1008E800F76E0900F5CF71F00900F5CF72F0090035
:1008F800F5CF73F00A00F5CF74F0FEEC1AF06DC076
:10090800C0F06EC0C1F06FC0C2F070C0C3F000018B
:10091800CB070001CB29D8B40ED085D79FC0D9FF0B
:10092800A0C0DAFF300EDF6E00019F4BA02B000144
:10093800C907D8A0CA070001C9510001CA11D8B413
:1009480069D1ECD7B6C0D9FFB7C0DAFFDECFC0F0A7
:10095800DDCFC1F00001000EC1BFFF0EC26FC36F33
:10096800020E0001B627000EB7230001C3AF0CD05A
:10097800030E0001B8130001C31FC21FC11FC06DC1
:10098800000EC123C223C3230001C9510001CA11AB
:10099800D8A40DD00001C0510001C1110001C2113D
:1009A8000001C311D8A403D00001C94BCA2B010E02
:1009B8000001CB6F0A0E0001CB19D8B41ED000017C
:1009C800CB51040DF50EF324F66E7E0EF420F76E6F
:1009D8000900F5500001C05D0900F5500001C1593A
:1009E8000900F5500001C2590900F5500001C3592A
:1009F800D8A003D00001CB2BDDD7800E0001CBBFE0
:100A08007F0E0001AD6F0001C9510001CB5D0001EF
:100A1800CA51800A0001AD59D8B003D0C9C0CBF083
:100A280018D00001CA51800A0001AD6F0001CB51F6
:100A38000001C95D800E0001CBBF7F0E0001AD59DA
:100A4800D8B007D00001CB510001C96FCA6BC9BF2C
:100A5800CA070001BA510001BB11D8B414D0030E63
:100A68000001B8150001AD6F000E0001B9150001B5
:100A7800AE6F0001AD510001AE11D8B404D0000131
:100A8800BA07D8A0BB070001B9AD1ED00001BA5102
:100A98000001C95D0001CA51800A0001AD6F000163
:100AA800BB51800A0001AD59D8B009D00001C95125
:100AB8000001BA5F0001CA510001BB5B05D0000EFE
:100AC8000001BB6F000EBA6F800E0001CBBF7F0E16
:100AD8000001AD6F0001BA510001CB5D0001BB51AF
:100AE800800A0001AD59D8B00BD00001CB510001EC
:100AF800BA5F000E0001CBBFFF0E0001BB5B05D043
:100B0800000E0001BB6F000EBA6F0001BA51000160
:100B1800BB11D8B413D09FC0D9FFA0C0DAFF200EF4
:100B2800DF6E00019F4BA02B0001BA07D8A0BB07BE
:100B38000001BA510001BB11D8A4EDD7030E000182
:100B4800B8150001AD6F000E0001B9150001AE6FB8
:100B58000001AD510001AE11D8B451D09FC0D9FFEA
:100B6800A0C0DAFF2D0EDF6E47D0C9C0ADF0CAC0F5
:100B7800AEF00001D890AD37AE370001D890AD3750
:100B8800AE37F50E0001AD25F66E7E0EAE21F76E7E
:100B98000900F5CF64F00900F5CF65F00900F5CF3D
:100BA80066F00A00F5CF67F0C0C060F0C1C061F020
:100BB800C2C062F0C3C063F0F1EC19F060C06DF020
:100BC80061C06EF062C06FF063C070F00A0E000181
:100BD800716F000E726F000E736F000E746FFEEC73
:100BE8001AF000016D51300F0001CB6F9FC0D9FF83
:100BF800A0C0DAFFCBC0DFFF00019F4BA02B000194
:100C0800C907D8A0CA070001C929AFE10001CA294C
:100C1800D8A4ABD7A1C0F6FFA2C0F7FF0001A14B33
:100C2800A22B0800F5CFCBF00001CB51D8A45DEF83
:100C380000F09FC0D9FFA0C0DAFF000EDF6E1200DF
:100C4800000E0101B46F000EB36F000E0101B66F04
:100C5800000EB56F000E0101B86F000EB76F000EE1
:100C68000101BA6F000EB96F000E0101BC6F000ED2
:100C7800BB6F000E0101BE6F000EBD6F000E0101BB
:100C8800C06F000EBF6F000E0101C26F000EC16F72
:100C9800000E0101C46F000EC36F000E0101A36FA7
:100CA800000EA26F000E0101C66F000EC56F000E88
:100CB8000101C86F000EC76F000E0101C96F000E59
:100CC8000101CA6F000E0101CB6F000E0101A46F74
:100CD800800E0101A56F3F0E0101A66F000E0101F4
:100CE800CD6F000ECC6FA4EC1CF000016051000128
:100CF8006111D8B40AD0330E0001996FC60E0001F5
:100D08009A6FC20E00019B6F1200000E0001636F04
:100D1800CC0E626FC4EC11F0000E0001636F440E3C
:100D2800626FC4EC11F09286000E0101CD6F000EC7
:100D3800CC6F0AD0000E0001666F010E656F09ECDA
:100D48001CF00101CC4BCD2B0101CDBF08D0010116
:100D5800CD5107E1050E0101CC5DD8B002D080A6C7
:100D6800E9D7050E0101CC190101CD11D8A40AD08B
:100D7800660E0001996FC60E00019A6FC20E00013F
:100D88009B6F1200A4EC1CF000016051000161117E
:100D9800D8B40AD09A0E0001996FC60E00019A6F56
:100DA800C20E00019B6F1200000E0001636FCC0E93
:100DB800626FC4EC11F0000E0001636FBE0E626F2B
:100DC800C4EC11F071EC13F065C090F166C091F1BC
:100DD80071EC13F065C092F166C093F171EC13F0F9
:100DE80065C094F166C095F171EC13F065C096F199
:100DF80066C097F171EC13F065C098F166C099F17F
:100E080071EC13F065C09AF166C09BF171EC13F0B8
:100E180065C09CF166C09DF171EC13F065C09EF150
:100E280066C09FF171EC13F065C0A0F166C0A1F136
:100E3800000E0101C66F000EC56F0101C6BF08D0C4
:100E48000101C6514FE1090E0101C55DD8B04AD074
:100E5800000E0101C86F000EC76F0101C8BF08D09E
:100E68000101C8513BE1080E0101C75DD8B036D079
:100E7800C7C19CF0D8900101C535D96E0101C635AE
:100E8800DA6E900ED926010EDA22DECF9DF0DDCF84
:100E98009EF000019C2B04D000019E359E339D33AB
:100EA80000019C2FF9D7010E00019D17000E9E1717
:100EB800D8900101A235D96E0101A335DA6E000E72
:100EC800D926010EDA229DC0DEFF9EC0DDFF01019A
:100ED800A24BA32B0101C74BC82BBFD70101C54BA0
:100EE800C62BABD7000E0101CD6F000ECC6F0101F0
:100EF800CDBF08D00101CD5154E1480E0101CC5DB0
:100F0800D8B04FD0D8900101CC35D96E0101CD357C
:100F1800DA6E000ED926010EDA22DECF9CF0DDCF84
:100F28009DF00101B35100019C190101C36F01013A
:100F3800B45100019D190101C46FB5C1B3F1B6C127
:100F4800B4F1B7C1B5F1B8C1B6F10101C35101019E
:100F5800B9190101B76F0101C4510101BA190101A1
:100F6800B86F0101C3510101BB190101B96F01013A
:100F7800C4510101BC190101BA6FBDC1BBF1BEC1A9
:100F8800BCF1BFC1BDF1C0C1BEF1C1C1BFF1C2C199
:100F9800C0F1C3C1C1F1C4C1C2F10101CC4BCD2B19
:100FA800A6D70101B3510101B411D8A42AD0010177
:100FB800B5510101B611D8A424D00101B7510101DE
:100FC800B811D8B406D00101B9510101BA11D8A499
:100FD80018D00101BB510101BC11D8A412D00101E4
:100FE800BD510101BE11D8B406D00101BF510101A4
:100FF800C011D8A406D00101C1510101C211D8B451
:101008000AD0660E0001996FC70E00019A6FC20ED2
:1010180000019B6F12000101165101011711D8A49C
:1010280008D0000E0101A46F800E0101A56F3F0ECC
:1010380007D0000E0101A46F800E0101A56FBF0E3D
:101048000101A66F000E00016F6F000E0001706FA6
:10105800410E0001716F02C168F003C169F037ECFD
:101068001DF068C06CF069C06DF06AC06EF0AEEC3F
:1010780015F06CC090F06DC091F06EC092F0000E4B
:1010880000016F6F800E0001706F410E0001716FDB
:1010980000C168F001C169F037EC1DF068C06CF060
:1010A80069C06DF06AC06EF0AEEC15F06CC08DF0E2
:1010B8006DC08EF06EC08FF09CEC0FF08DC0A7F164
:1010C8008EC0A8F18FC0A9F1000E00016F6F800ECD
:1010D8000001706F400E0001716F04C168F005C116
:1010E80069F037EC1DF068C06CF069C06DF06AC03B
:1010F8006EF0AEEC15F06CC090F06DC091F06EC063
:1011080092F0A7C18DF0A8C18EF0A9C18FF09CEC18
:101118000FF08DC0AAF18EC0ABF18FC0ACF1000EFC
:1011280000016F6F000E0001706F400E0001716FBB
:1011380006C168F007C169F037EC1DF068C06CF0B3
:1011480069C06DF06AC06EF0AEEC15F06CC090F03E
:101158006DC091F06EC092F0AAC18DF0ABC18EF057
:10116800ACC18FF09CEC0FF08DC0ADF18EC0AEF12C
:101178008FC0AFF108C168F009C169F037EC1DF004
:1011880068C090F069C091F06AC092F0ADC18DF06E
:10119800AEC18EF0AFC18FF09CEC0FF08DC0B0F1F6
:1011A8008EC0B1F18FC0B2F1B0C18DF0B1C18EF077
:1011B800B2C18FF0000E0001776F000E0001786F4A
:1011C800400E0001796F0AC168F00BC169F037EC75
:1011D8001DF068C074F069C075F06AC076F0FFEC65
:1011E80014F074C090F075C091F076C092F09CEC49
:1011F8000FF08DC0C9F18EC0CAF18FC0CBF1000EBF
:101208000001776F000E0001786F410E0001796FC1
:101218000EC168F00FC169F037EC1DF068C074F0BA
:1012280069C075F06AC076F0FFEC14F074C090F0F5
:1012380075C091F076C092F0000E0001776F800EB5
:101248000001786F400E0001796F0CC168F00DC184
:1012580069F037EC1DF068C074F069C075F06AC0B9
:1012680076F0FFEC14F074C08DF075C08EF076C087
:101278008FF09CEC0FF08DC0A7F18EC0A8F18FC045
:10128800A9F1000E0001776F800E0001786F410E02
:101298000001796F10C168F011C169F037EC1DF0D9
:1012A80068C074F069C075F06AC076F0FFEC14F09D
:1012B80074C090F075C091F076C092F0A7C18DF01F
:1012C800A8C18EF0A9C18FF09CEC0FF08DC0AAF1D7
:1012D8008EC0ABF18FC0ACF1000E0001776F000E2D
:1012E8000001786F420E0001796F12C168F013C1D6
:1012F80069F037EC1DF068C074F069C075F06AC019
:1013080076F0FFEC14F074C090F075C091F076C0E0
:1013180092F0AAC18DF0ABC18EF0ACC18FF09CECFD
:101328000FF08DC0ADF18EC0AEF18FC0AFF1000EE1
:101338000001776F800E0001786F420E0001796F0F
:1013480014C168F015C169F037EC1DF068C074F07D
:1013580069C075F06AC076F0FFEC14F074C090F0C4
:1013680075C091F076C092F0ADC18DF0AEC18EF02F
:10137800AFC18FF09CEC0FF08DC0B0F18EC0B1F111
:101388008FC0B2F1B0C18DF0B1C18EF0B2C18FF093
:10139800C9C190F0CAC191F0CBC192F09CEC0FF09A
:1013A8008DC0C9F18EC0CAF18FC0CBF1C9C174F02C
:1013B800CAC175F0CBC176F0A4C177F0A5C178F0A9
:1013C800A6C179F0FFEC14F074C0C9F175C0CAF178
:1013D80076C0CBF1C9C199F0CAC19AF0CBC19BF0D4
:1013E80012000001896F000189AF2AD10001896DBF
:1013F80000018951800A120FD8A0ACD0000E00015C
:10140800716F030E706F000E0001696F0A0E686F2E
:10141800000E0001636F640E626F000189510001C4
:10142800606F616B60BF6107ADEC1AF060C066F079
:1014380061C067F092EC19F0090E00016625000101
:101448006E6F000E0001672100016F6FD7EC1DF071
:101458001D0E00016E25F66E7F0E00016F21F76EDE
:101468000900F5CF77F00900F5CF78F00A00F5CF3D
:1014780079F0000E0001696F640E686F00018951F0
:101488000001666F676B66BF670792EC19F0120E72
:101498000001662500016E6F000E00016721000142
:1014A8006F6F000E0001716F030E706FD7EC1DF0A7
:1014B8001D0E00016E25F66E7F0E00016F21F76E7E
:1014C8000900F5CF74F00900F5CF75F00A00F5CFE3
:1014D80076F0FFEC14F074C086F075C087F076C023
:1014E80088F086C074F087C075F088C076F0000E6A
:1014F8000001716F030E706F000E0001636F0A0E1A
:10150800626F000189510001606F616B60BF610704
:10151800ADEC1AF060C06EF061C06FF0D7EC1DF052
:101528001D0E00016E25F66E7F0E00016F21F76E0D
:101538000900F5CF77F00900F5CF78F00A00F5CF6C
:1015480079F0FFEC14F074C083F075C084F076C0B5
:1015580085F0120000018951800A750FD8A05DD06E
:10156800000E0001696F0A0E686F000189510001C1
:10157800666F676B66BF670792EC19F0090E00018A
:10158800662500016E6F000E0001672100016F6F74
:10159800000E0001716F030E706FD7EC1DF01D0E69
:1015A80000016E25F66E7F0E00016F21F76E0900AF
:1015B800F5CF74F00900F5CF75F00A00F5CF76F095
:1015C800000E0001716F030E706F000E0001636F53
:1015D8000A0E626F000189510001606F616B60BF84
:1015E8006107ADEC1AF060C06EF061C06FF0D7EC27
:1015F8001DF01D0E00016E25F66E7F0E00016F2195
:10160800F76E0900F5CF77F00900F5CF78F00A00FA
:10161800F5CF79F0FFEC14F096D700018951030D4E
:101628001D0EF324F66E7F0EF420F76E0900F5CF39
:1016380083F00900F5CF84F00A00F5CF85F0120099
:1016480000018951800A120FD8A0ACD0000E000109
:10165800716F030E706F000E0001696F0A0E686FDC
:10166800000E0001636F640E626F00018951000172
:10167800606F616B60BF6107ADEC1AF060C066F027
:1016880061C067F092EC19F0090E000166250001AF
:101698006E6F000E0001672100016F6FD7EC1DF01F
:1016A800440E00016E25F66E7F0E00016F21F76E65
:1016B8000900F5CF77F00900F5CF78F00A00F5CFEB
:1016C80079F0000E0001696F640E686F000189519E
:1016D8000001666F676B66BF670792EC19F0120E20
:1016E8000001662500016E6F000E000167210001F0
:1016F8006F6F000E0001716F030E706FD7EC1DF055
:10170800440E00016E25F66E7F0E00016F21F76E04
:101718000900F5CF74F00900F5CF75F00A00F5CF90
:1017280076F0FFEC14F074C086F075C087F076C0D0
:1017380088F086C074F087C075F088C076F0000E17
:101748000001716F030E706F000E0001636F0A0EC7
:10175800626F000189510001606F616B60BF6107B2
:10176800ADEC1AF060C06EF061C06FF0D7EC1DF000
:10177800440E00016E25F66E7F0E00016F21F76E94
:101788000900F5CF77F00900F5CF78F00A00F5CF1A
:1017980079F0FFEC14F074C083F075C084F076C063
:1017A80085F0120000018951800A750FD8A05DD01C
:1017B800000E0001696F0A0E686F0001895100016F
:1017C800666F676B66BF670792EC19F0090E000138
:1017D800662500016E6F000E0001672100016F6F22
:1017E800000E0001716F030E706FD7EC1DF0440EF0
:1017F80000016E25F66E7F0E00016F21F76E09005D
:10180800F5CF74F00900F5CF75F00A00F5CF76F042
:10181800000E0001716F030E706F000E0001636F00
:101828000A0E626F000189510001606F616B60BF31
:101838006107ADEC1AF060C06EF061C06FF0D7ECD4
:101848001DF0440E00016E25F66E7F0E00016F211B
:10185800F76E0900F5CF77F00900F5CF78F00A00A8
:10186800F5CF79F0FFEC14F096D700018951030DFC
:10187800440EF324F66E7F0EF420F76E0900F5CFC0
:1018880083F00900F5CF84F00A00F5CF85F0120047
:1018980000016C6F74D1E80E0001666F7F0E0001C5
:1018A800676FCFEC1BF0EBD1D00E0001666F7F0E97
:1018B8000001676FCFEC1BF0E2D1F50E0001666FF7
:1018C8007F0E0001676FCFEC1BF0D9D1CB0E000162
:1018D800666F7F0E0001676FCFEC1BF0D0D1C10E91
:1018E8000001666F7F0E0001676FCFEC1BF0C7D158
:1018F800C40E0001666F7F0E0001676FCFEC1BF00E
:10190800BED1BF0E0001666F7F0E0001676FCFEC7E
:101918001BF0B5D1D60E0001666F7F0E0001676F10
:10192800CFEC1BF0ACD1CC0E0001666F7F0E00012E
:10193800676FCFEC1BF0A3D1B20E0001666F7F0E6C
:101948000001676FCFEC1BF09AD1E70E0001666FBC
:101958007F0E0001676FCFEC1BF091D1FA0E0001EA
:10196800666F7F0E0001676FCFEC1BF088D1A80E61
:101978000001666F7F0E0001676FCFEC1BF07FD10F
:10198800C00E0001666F7F0E0001676FCFEC1BF081
:1019980076D1A70E0001666F7F0E0001676FCFEC4E
:1019A8001BF06DD1F00E0001666F7F0E0001676FAE
:1019B800CFEC1BF064D1E60E0001666F7F0E0001CC
:1019C800676FCFEC1BF05BD1F60E0001666F7F0EE0
:1019D8000001676FCFEC1BF052D1D10E0001666F8A
:1019E8007F0E0001676FCFEC1BF049D1A90E0001F3
:1019F800666F7F0E0001676FCFEC1BF040D1EC0ED5
:101A08000001666F7F0E0001676FCFEC1BF037D1C6
:101A1800920E0001666F7F0E0001676FCFEC1BF01E
:101A28002ED1E20E0001666F7F0E0001676FCFECCA
:101A38001BF025D1EB0E0001666F7F0E0001676F6A
:101A4800CFEC1BF01CD1E10E0001666F7F0E000188
:101A5800676FCFEC1BF013D1CA0E0001666F7F0EC3
:101A68000001676FCFEC1BF00AD1A50E0001666F6D
:101A78007F0E0001676FCFEC1BF001D1AB0E0001A8
:101A8800666F7F0E0001676FCFEC1BF0F8D0B10EC8
:101A98000001666F7F0E0001676FCFEC1BF0EFD07F
:101AA800B70E0001666F7F0E0001676FCFEC1BF069
:101AB800E6D0910E0001666F7F0E0001676FCFECD4
:101AC8001BF0DDD0DB0E0001666F7F0E0001676F33
:101AD800CFEC1BF0D4D0D50E0001666F7F0E00014D
:101AE800676FCFEC1BF0CBD0CF0E0001666F7F0E77
:101AF8000001676FCFEC1BF0C2D0C90E0001666F02
:101B08007F0E0001676FCFEC1BF0B9D0BD0E00014E
:101B1800666F7F0E0001676FCFEC1BF0B0D0820EAE
:101B28000001666F7F0E0001676FCFEC1BF0A7D036
:101B3800970E0001666F7F0E0001676FCFEC1BF0F8
:101B48009ED0C30E0001666F7F0E0001676FCFEC59
:101B58001BF095D0890E0001666F7F0E0001676F3C
:101B6800CFEC1BF08CD0900E0001666F7F0E000149
:101B7800676FCFEC1BF083D0E1EC1EF080D0000142
:101B88006C51200AD8B4F8D70C0AD8B4C8D7010ABF
:101B9800D8B4E9D7030AD8B4DDD7010AD8B4D1D765
:101BA8001F0AD8B462D7010AD8B468D7030AD8B4D0
:101BB8006ED7010AD8B474D7070AD8B47AD7010AFD
:101BC800D8B480D7030AD8B486D7010AD8B48CD73A
:101BD8000F0AD8B492D7010AD8B498D7060AD8B44D
:101BE800A7D77E0AD8B457D6030AD8B45DD6010A57
:101BF800D8B463D6070AD8B469D6010AD8B46FD660
:101C0800030AD8B475D6010AD8B47BD60F0AD8B45B
:101C180081D6010AD8B487D6030AD8B48DD6010A6A
:101C2800D8B493D6070AD8B499D6010AD8B49FD69F
:101C3800030AD8B4A5D6010AD8B4ABD61F0AD8B4BB
:101C4800B1D6010AD8B4B7D6030AD8B4BDD6010AAA
:101C5800D8B4C3D6070AD8B4C9D6010AD8B4CFD6DF
:101C6800030AD8B4D5D6010AD8B4DBD60F0AD8B43B
:101C7800E1D6010AD8B4E7D6030AD8B4EDD6E9EC20
:101C88001EF0120000018C6F6D0E00018C65BAD039
:101C9800000E0001716F030E706F000E0001696F76
:101CA8000A0E686F000E0001636F640E626F8CC0CD
:101CB80060F00001616BADEC1AF060C066F061C0C5
:101CC80067F092EC19F0090E0001662500016E6FAD
:101CD800000E0001672100016F6FD7EC1DF01D0E8B
:101CE80000016E25F66E7F0E00016F21F76E090068
:101CF800F5CF77F00900F5CF78F00A00F5CF79F045
:101D0800000E0001696F640E686F8CC066F00001F8
:101D1800676B92EC19F0120E0001662500016E6FD8
:101D2800000E0001672100016F6F000E0001716F46
:101D3800030E706FD7EC1DF01D0E00016E25F66EB8
:101D48007F0E00016F21F76E0900F5CF74F00900CE
:101D5800F5CF75F00A00F5CF76F0FFEC14F074C0FB
:101D680089F075C08AF076C08BF0000E0001716FA3
:101D7800030E706F000E0001636F0A0E626F8CC055
:101D880060F00001616BADEC1AF060C06EF061C0EC
:101D98006FF0D7EC1DF01D0E00016E25F66E7F0E5C
:101DA80000016F21F76E0900F5CF77F00900F5CF34
:101DB80078F00A00F5CF79F089C074F08AC075F020
:101DC8008BC076F0FFEC14F074C086F075C087F015
:101DD80076C088F086C074F087C075F088C076F049
:101DE800000E0001776F000E0001786F3F0E0001B2
:101DF800796FFFEC14F074C083F075C084F076C07E
:101E080085F012000A0E00018C656ED0000E0001EC
:101E1800716F030E706F000E0001636F0A0E626F20
:101E28008CC060F00001616BADEC1AF060C06EF020
:101E380061C06FF0D7EC1DF01D0E00016E25F66E27
:101E48007F0E00016F21F76E0900F5CF77F00900CA
:101E5800F5CF78F00A00F5CF79F0000E0001696F30
:101E68000A0E686F8CC066F00001676B92EC19F07F
:101E7800090E0001662500016E6F000E0001672142
:101E880000016F6F000E0001716F030E706FD7ECC9
:101E98001DF01D0E00016E25F66E7F0E00016F21EC
:101EA800F76E0900F5CF74F00900F5CF75F00A0058
:101EB800F5CF76F0FFEC14F074C089F075C08AF0A5
:101EC80076C08BF089C074F08AC075F08BC076F04C
:101ED800000E0001776F000E0001786F3F0E0001C1
:101EE800796FFFEC14F087D700018C51030D1D0E9C
:101EF800F324F66E7F0EF420F76E0900F5CF74F028
:101F08000900F5CF75F00A00F5CF76F0000E000154
:101F1800776F000E0001786F3F0E0001796FFFECBC
:101F280014F074C083F075C084F076C085F0120098
:101F38008FC093F00001946B956B00018E35000102
:101F4800933701E39481000193510001986F92C087
:101F580093F00001946B956B000191350001933764
:101F680001E39481000193510001976F000198519A
:101F78000001D8B411D0000197510001985DD8B084
:101F880012D0000198510008000197250001936FB5
:101F9800180E0001936507D090C08DF091C08EF0A7
:101FA80092C08FF01200000197510001D8B411D0EF
:101FB800000198510001975DD8B012D000019751E7
:101FC8000008000198250001936F180E0001936521
:101FD80007D08DC08DF08EC08EF08FC08FF01200AC
:101FE800060E0001966F00018FAF02D00001968F98
:101FF800000192AF02D00001968D00018E8FFF0E76
:1020080000018D17FF0E00018E17000E00018F17BB
:102018000001918FFF0E00019017FF0E000191172C
:10202800000E00019217000197510001985DD8B089
:1020380025D00001D8909037913792370001970743
:102048000001985100019719D8B411D000019607E2
:1020580096C093F0070E00019317D8B408D0E9D7BB
:102068000001D8908F338E338D330001982B0001F7
:10207800975100019819D8B42BD0F2D70001985184
:102088000001975DD8B024D00001D8908D378E37E5
:102098008F37000198070001985100019719D8B4AB
:1020A80011D00001960796C093F0070E0001931710
:1020B800D8B408D0E9D70001D8909233913390333F
:1020C8000001972B0001975100019819D8A4F3D764
:1020D800000196AF12D0FF0E00018D1BFF0E00010C
:1020E8008E1BFF0E00018F1B010E00018D27000EB5
:1020F80000018E23000E00018F23000196AD12D03F
:10210800FF0E0001901BFF0E0001911BFF0E000146
:10211800921B010E00019027000E00019123000E72
:1021280000019223000E0001966F00018D510001FD
:10213800902700018E510001912300018F51000169
:102148009223000192AF15D0FF0E0001901BFF0EE5
:102158000001911BFF0E0001921B010E0001902748
:10216800000E00019123000E00019223010E0001D0
:10217800966F90C060F091C061F092C062F098C014
:1021880063F096C064F07FEC17F060C08DF061C01A
:102198008EF062C08FF01200FACF0CF0FBCF0DF07A
:1021A800E9CF0EF0EACF0FF0E1CF10F0E2CF11F057
:1021B800D9CF12F0DACF13F0F3CF14F0F4CF15F033
:1021C800F6CF16F0F7CF17F0F8CF18F0F5CF19F0D3
:1021D800000E1B6E000E1A6E9EA202D09E92B2D006
:1021E8009EA0B0D0EC0ECF6E770ECE6E83BA03D021
:1021F8000B6A0B2A01D00B6A0B3A0B4683500B185B
:10220800DF0B0B18836E334A342A320E331834101E
:10221800D8A411D083B803D00B6A0B2A01D00B6A5B
:102228000B3A83500B18EF0B0B18836E0400000E4B
:10223800346E000E336E365006E1640E355CD8B04D
:1022480002D0354A362AC294C296C288C29AC29C23
:10225800C2809E9CC2829EACFED7C3CF1AF0C4CF68
:102268001BF09E9CC2903750D8B402D02D4A2E2A1B
:102278001B5004E1810E1A5CD8A019D01A503B5C9F
:102288001B503C58D8B013D0314A322AC80E3118E6
:102298003210D8A456D08182010E376E000E2E6EF1
:1022A800000E2D6E000E326E000E316E4AD0000EFA
:1022B800326E000E316EE00E2D1807E12E0E2E182C
:1022C800D8A403D08192000E376ED8902F34D96EDF
:1022D8003034DA6E000ED926020EDA221AC0DEFF7A
:1022E8001BC0DDFF2F4A302A640E2F183010D8A4E7
:1022F80004D0000E306E000E2F6E640E35183610A6
:10230800D8A41FD0000E386E000E396E000E3A6E3B
:1023180038C001F039C002F03AC003F0640E046E10
:10232800000E056E000E066E3EEC1CF001C038F083
:1023380002C039F003C03AF0D89038343B6E3934D3
:102348003C6E9E9019C0F5FF18C0F8FF17C0F7FF44
:1023580016C0F6FF15C0F4FF14C0F3FF13C0DAFF70
:1023680012C0D9FF11C0E2FF10C0E1FF0FC0EAFFA1
:102378000EC0E9FF0DC0FBFF0CC0FAFF3D92110033
:10238800010E000162150001676F0001686B000112
:10239800633563310001656F000162310001646FCC
:1023A800010E000164150001696F00016A6B62C0CB
:1023B80064F063C065F0000165356533643300017E
:1023C800653565336433010E0001641500016B6FD8
:1023D80000016C6B62C064F063C065F00001653594
:1023E8006533643300016535653364330001653551
:1023F80065336433010E0001641500016D6F00013F
:102408006E6B62C064F063C065F0040E0001666F15
:1024180000016535653364330001662FF9D7010E75
:102428000001641500016F6F0001706B62C064F0F9
:1024380063C065F0050E0001666F00016535653300
:1024480064330001662FF9D7010E000164150001FD
:10245800716F0001726B62C064F063C065F0060EB4
:102468000001666F00016535653364330001662F2E
:10247800F9D7010E000164150001736F0001746B38
:1024880062C064F063C065F0070E0001666F00016A
:102498006535653364330001662FF9D7010E0001F5
:1024A80064150001756F0001766B67C060F068C045
:1024B80061F0F2EC1DF000D000D000F069C060F0CF
:1024C8006AC061F0F2EC1DF000D000D000F06BC0E3
:1024D80060F06CC061F0F2EC1DF000D000D000F0AC
:1024E8006DC060F06EC061F0F2EC1DF000D000D05D
:1024F80000F06FC060F070C061F0F2EC1DF000D029
:1025080000D000F071C060F072C061F0F2EC1DF014
:1025180000D000D000F073C060F074C061F0F2EC3D
:102528001DF000D000D000F075C060F076C061F0FA
:10253800F2EC1DF000D000D000F0120062C066F08E
:102548000001676B686B000161350001663701E3C4
:1025580067810001665100016E6F00016E51D8A4B9
:102568000AD0000E0001606F000E616F000E626FEE
:10257800000E636F120065C066F00001676B686B40
:10258800000164350001663701E367810001665187
:1025980000016D6F00016D51D8A40AD0000E000132
:1025A800606F000E616F000E626F000E636F1200A5
:1025B8000001618FFF0E00016017FF0E0001611717
:1025C800000E000162170001648FFF0E00016317FF
:1025D800FF0E00016417000E00016517000E0001D0
:1025E800696F000E6A6F000E6B6F000E6C6F7F0EC6
:1025F80000016E5F00016D51980F00016E5F180EAB
:1026080000016D6F0001D89069376A376B376C37F6
:10261800000163510001605D0001645100016159CE
:102628000001655100016259D8A00ED00001635124
:102638000001605F000164510001615B00016551A8
:102648000001625B000169810001D8906037613741
:10265800623700016D2FD6D700016EAF1AD0000186
:102668006E51800A970FD8B00AD0000E0001606F33
:10267800000E616F000E626F000E636F12000001A2
:10268800D8906C336B336A33693300016E3FF7D7E8
:102698001BD0170E00016E6512D0000E0001606F8E
:1026A800000E616F000E626F000E636F1200000172
:1026B800D89069376A376B376C3700016E070001AD
:1026C8006E510001D8A4F3D769C060F06AC061F008
:1026D8006BC062F06CC063F01200000E0001866FE0
:1026E800000E856F92869BEC1DF060C075F061C08E
:1026F80076F09BEC1DF060C077F061C078F09BEC41
:102708001DF060C079F061C07AF09BEC1DF060C0EC
:102718007BF061C07CF09BEC1DF060C07DF061C077
:102728007EF09BEC1DF060C07FF061C080F09BECF8
:102738001DF060C081F061C082F09BEC1DF060C0AC
:1027480083F061C084F083C067F084C068F0070E2E
:10275800D890000167376837E82EFAD781C069F04A
:1027680082C06AF0060ED890000169376A37E82EF1
:10277800FAD77FC06BF080C06CF0050ED8900001CE
:102788006B376C37E82EFAD77DC06DF07EC06EF0DF
:1027980000016D3B6E3BF00E6E176D510F0B6E1303
:1027A800F00E6D177BC06FF07CC070F00001D89000
:1027B8006F3770370001D8906F3770370001D890A5
:1027C8006F37703779C071F07AC072F00001D89015
:1027D800713772370001D8907137723777C073F04C
:1027E80078C074F0D89000017337743700017151C4
:1027F80000017327000172510001742300016F5119
:1028080000017327000170510001742300016D510C
:102818000001732700016E510001742300016B5100
:102828000001732700016C510001742300016951F4
:102838000001732700016A510001742300016751E8
:1028480000017327000168510001742300017551CC
:10285800000173250001856F000176510001742184
:102868000001866F85C065F086C066F01200000121
:102878006235633500016B6F00016B51D8A40AD033
:10288800000E0001606F000E616F000E626F000E97
:10289800636F120000016535663500016A6F00013B
:1028A8006A51D8A40AD0000E0001606F000E616F53
:1028B800000E626F000E636F12000001628FFF0E40
:1028C80000016017FF0E6117FF0E6217000E6317F5
:1028D8000001658FFF0E00016317FF0E6417FF0EDE
:1028E8006517000E6617000E0001666F000E676F11
:1028F800000E686F000E696F7F0E00016B5F0001AC
:102908006A51A00F00016B5F200E00016A6F000181
:10291800D890663767376837693700016351000117
:10292800605D0001645100016159000165510001B9
:1029380062590001665100016359D8A012D0000104
:1029480063510001605F000164510001615B000197
:1029580065510001625B000166510001635B000183
:1029680066810001D89060376137623763370001AC
:102978006A2FCDD700016BAF1AD000016B51800AC6
:102988009F0FD8B00AD0000E0001606F000E616F73
:10299800000E626F000E636F12000001D890693359
:1029A80068336733663300016B3FF7D71BD01F0EC0
:1029B80000016B6512D0000E0001606F000E616FA0
:1029C800000E626F000E636F12000001D890663728
:1029D80067376837693700016B0700016B510001E1
:1029E800D8A4F3D766C060F067C061F068C062F031
:1029F80069C063F0120076C07AF000017B6B7C6BD3
:102A08000001753500017A3701E37B8100017A51B5
:102A180000017D6F00017D51D8A40AD0000E00018D
:102A2800746F000E0001756F000E0001766F1200C2
:102A380079C07AF000017B6B7C6B0001783500016E
:102A48007A3701E37B8100017A510001826F00012E
:102A58008251D8A40AD0000E0001746F000E000144
:102A6800756F000E0001766F1200000182517B0F16
:102A780000017D2776C082F0000179510001821B98
:102A8800800E000182170001758F0001788FFF0EFC
:102A980000017717FF0E00017817000E0001791763
:102AA800000E00017E6F000E00017F6F000E000116
:102AB800806F070E0001816F000174A10CD0000126
:102AC800775100017E270001785100017F23000122
:102AD8007951000180230001D8907633753374331F
:102AE8000001D8907737783779370001812FE4D7FC
:102AF800090E0001816F000174A10CD0000177510B
:102B080000017E270001785100017F2300017951DF
:102B1800000180230001D8907633753374330001A7
:102B2800D89080337F337E330001812FE4D77EC075
:102B380060F07FC061F080C062F07DC063F082C049
:102B480064F07FEC17F060C074F061C075F062C08B
:102B580076F012006EC072F00001736B746B0001A6
:102B68006D350001723701E3738100017251000174
:102B7800796F00017951D8A40AD0000E00016C6F5A
:102B8800000E00016D6F000E00016E6F120071C023
:102B980072F00001736B746B0001703500017237BD
:102BA80001E373810001725100017A6F00017A51CB
:102BB800D8A40AD0000E00016C6F000E00016D6FE2
:102BC800000E00016E6F1200000E0001766F000EFD
:102BD8000001776F000E0001786F00017A51890FAC
:102BE8000001795F6EC07AF00001715100017A1B13
:102BF800800E00017A1700016D8FFF0E00016C171F
:102C0800FF0E00016D17000E00016E170001708F96
:102C1800FF0E00016F17FF0E00017017000E000174
:102C28007117180E0001756F0001D8907637773745
:102C3800783700016F5100016C5D0001705100018F
:102C48006D590001715100016E59D8A00ED00001D4
:102C58006F5100016C5F0001705100016D5B000154
:102C6800715100016E5B000176810001D8906C37CC
:102C78006D376E370001752FD7D776C060F077C0F3
:102C880061F078C062F079C063F07AC064F07FECDC
:102C980017F060C06CF061C06DF062C06EF0120099
:102CA8008CC08EF000018F6B906B00018B3500019A
:102CB8008E3701E38F8100018E510001986F00016A
:102CC8009851D8A40AD0000E00018A6F000E8B6FAD
:102CD800000E8C6F000E8D6F1200170E00018E6FA4
:102CE8008AC08FF08BC090F08CC091F000018E29C3
:102CF8000001926F05D00001D890913390338F3343
:102D08000001922FF8D700018F510001936F000145
:102D18008B8FFF0E00018A17FF0E00018B17000E24
:102D280000018C1700018A510001946F00018B513A
:102D38000001956F00018C510001966F0001976B9F
:102D48008E0E0001985F000198AF1AD000019851CB
:102D5800800A8F0FD8B00AD0000E00018A6F000ECB
:102D68008B6F000E8C6F000E8D6F12000001D890D3
:102D780097339633953394330001983FF7D71BD098
:102D8800170E0001986512D0000E00018A6F000E20
:102D98008B6F000E8C6F000E8D6F12000001D890A3
:102DA800943795379637973700019807000198515F
:102DB8000001D8A4F3D7000193510001D8B409D079
:102DC8000001971F961F951F946D000E952396235B
:102DD800972394C08AF095C08BF096C08CF097C06A
:102DE8008DF01200000E0001606F010E0001616F8E
:102DF800000E0001636F000E626F000E0001656F28
:102E0800800E646F26EC1EF0000E0001606F010E4C
:102E18000001616F9E0E0001626F7F0E0001636FFB
:102E28000CEC1EF0800E0001606F010E0001616F56
:102E3800000E0001636F000E626F000E0001656FE7
:102E4800400E646F26EC1EF0800E00019F6F010E8D
:102E58000001A06F6B0E0001A16F7F0E0001A26F31
:102E6800D3C0A3F0D4C0A4F0D5C0A5F0CCC0A6F0C0
:102E7800CDC0A7F0CEC0A8F0CFC0A9F0D0C0AAF0AE
:102E8800D1C0ABF0D2C0ACF055EC00F0000E0001A0
:102E9800606F010E0001616F800E0001626F010E0C
:102EA8000001636FF0EC1CF0000E0101C16F000E11
:102EB800C06F0ED0000E0101C025D96E010E0101B0
:102EC800C121DA6EDF504CEC0CF00101C04BC12B74
:102ED800000E0001606F010E0001616F73EC1CF0C1
:102EE800000160510101C05D000161510101C1593A
:102EF800D8B01200DFD7000163510001D8B408D060
:102F0800000160510001611100016211D8A411D0C3
:102F1800000E0001606F000E0001616F000E0001DD
:102F2800626F12000001632B0001D8906233613395
:102F38006033000E000160150001656F000E00018E
:102F480061150001666FFE0E000162150001676FD2
:102F5800000165510001661100016711D8B411D054
:102F6800E1D70001632B010E00016027000E00016C
:102F78006123000E000162230001D890623361339F
:102F88006033000E000160150001656F000E00013E
:102F980061150001666FFF0E000162150001676F81
:102FA800000165510001661100016711D8B408D00D
:102FB800D8D7000163070001D890603761376237BE
:102FC800000161BF04D0020E00016361F2D7000165
:102FD80063B102D00001619F0001D8906333000102
:102FE800635100016213000164510001D8B402D09A
:102FF8000001628F60C060F061C061F062C062F081
:103008001200000E00019B6F000E00019C6F000E65
:1030180000019D6F000E00019E6F000E00019F6F62
:10302800000E0001A06FC284C296C298C29AC29CC8
:10303800C2809E9CC2829EACFED7C3CF68F0C4CF2C
:1030480069F072EC1EF068C09BF069C09CF06AC021
:103058009DF09E9CC2909BC074F09CC075F09DC072
:1030680076F0330E0001776F030E0001786F3B0E88
:103078000001796FFFEC14F074C09EF075C09FF0EA
:1030880076C0A0F09EC074F09FC075F0A0C076F026
:10309800000E0001776F800E0001786F3F0E00016F
:1030A800796FFFEC14F074C09EF075C09FF076C085
:1030B800A0F09EC08AF09FC08BF0A0C08CF054ECAA
:1030C80016F08AC099F08BC09AF01200000E000129
:1030D8009B6F000E00019C6F000E00019D6F000E9B
:1030E80000019E6F000E00019F6F000E0001A06F8F
:1030F800C294C296C288C28AC29CC2809E9CC28266
:103108009EACFED7C3CF68F0C4CF69F072EC1EF056
:1031180068C09BF069C09CF06AC09DF09E9CC290FC
:103128009BC074F09CC075F09DC076F0330E000112
:10313800776F030E0001786F3B0E0001796FFFEC8B
:1031480014F074C09EF075C09FF076C0A0F09EC0C9
:1031580074F09FC075F0A0C076F0000E0001776F84
:10316800800E0001786F3F0E0001796FFFEC14F0BC
:1031780074C09EF075C09FF076C0A0F09EC08AF023
:103188009FC08BF0A0C08CF054EC16F08AC099F068
:103198008BC09AF01200000162AF1DD060C066F0CB
:1031A80061C067F062C068F00001661F671F681F92
:1031B800662B000E67236823000E000166250001B8
:1031C800606F000E000167210001616F800E000131
:1031D80068210001626F000165AF1DD063C066F011
:1031E80064C067F065C068F00001661F671F681F4C
:1031F800662B000E67236823000E00016625000178
:10320800636F000E000167210001646F800E0001EA
:1032180068210001656F000E0001601B000E0001AF
:10322800611B800E0001621B000E0001631B000E73
:103238000001641B800E0001651B00016351000141
:10324800605D000164510001615900016551000190
:103258006259D8B002D0D8901200D8801200000E5F
:103268000001866F000E0001876F000E0001886F55
:10327800000E0001896F000E00018A6F000E000128
:103288008B6FC294C296C298C29AC29CC2809E9CFE
:10329800C2829EACFED7C3CF68F0C4CF69F072EC8F
:1032A8001EF068C086F069C087F06AC088F09E9CEE
:1032B800C29086C074F087C075F088C076F0330E6F
:1032C8000001776F030E0001786F3B0E0001796FE4
:1032D800FFEC14F074C089F075C08AF076C08BF0EA
:1032E80089C074F08AC075F08BC076F0660E000154
:1032F800776FB60E0001786F400E0001796FFFEC12
:1033080014F074C089F075C08AF076C08BF089C05B
:1033180083F08AC084F08BC085F01200000E000193
:103328006B6F000169AF08D00001686D691FD8B0E4
:10333800692B010E00016B6F000167AF08D0000117
:10334800666D671FD8B0672B010E00016B1B000E5E
:1033580000016D6F000E6C6F00016851000169116A
:10336800D8B42CD0010E00016A6F06D00001D890A5
:103378006837693700016A2B000169AFF7D7000188
:10338800D8906C376D37000168510001665D000107
:10339800695100016759D8A00AD00001685100019D
:1033A800665F000169510001675B00016C810001E3
:1033B800D8906933683300016A2FE1D700016B5157
:1033C8000001D8B405D000016C6D6D1FD8B06D2B0D
:1033D8006CC066F06DC067F01200000E0001686FE7
:1033E800000E696F000E6A6F000E6B6F000164516A
:1033F800000165110001661100016711D8B442D0BF
:10340800010E00016C6F08D00001D8906437653751
:103418006637673700016C2B000167AFF5D70001ED
:10342800D890683769376A376B37000164510001F3
:10343800605D00016551000161590001665100019C
:1034480062590001675100016359D8A012D00001E8
:1034580064510001605F000165510001615B00017A
:1034680066510001625B000167510001635B000166
:1034780068810001D890673366336533643300018F
:103488006C2FCDD768C060F069C061F06AC062F087
:103498006BC063F012000F01428F0F0142990F01B8
:1034A800428B0F01428D080EC16EAF0EC06E928026
:1034B8009282929492869288928A0F0138810F01A3
:1034C80038830F0138850F0138970F01388B8990A1
:1034D8008992899489968998899A000E616EF18EED
:1034E80093809392939493969398939A939C939E94
:1034F8000F0139810F0139930F0139950F01399760
:103508000F01399B8A908A928A948A968A988A9A15
:1035180095909592959495969598959A959C959E43
:103528000F013B910F013B930F013B950F013B9717
:103538000F013B990F013B9B0F013B9D0F013B9FE7
:103548008C908C928C948C968C988C9A8C9C8C9E5B
:103558001200000E0001656F000161AF08D0000184
:10356800606D611FD8B0612B010E0001656F00010D
:1035780063AF05D00001626D631FD8B0632B0001F3
:10358800625100016311D8B426D0010E0001646FA6
:1035980006D00001D890623763370001642B000120
:1035A80063AFF7D7000162510001605D000163510C
:1035B80000016159D8A008D0000162510001605F84
:1035C800000163510001615B0001D89063336233ED
:1035D8000001642FE7D7000165510001D8B405D078
:1035E8000001606D611FD8B0612B60C060F061C0E0
:1035F80061F0120000017151000172110001731194
:1036080000017411D8B43AD0010E0001756F08D0CA
:103618000001D89071377237733774370001752BF2
:10362800000174AFF5D70001715100016D5D000113
:10363800725100016E590001735100016F59000168
:10364800745100017059D8A010D0000171510001C7
:103658006D5F0001725100016E5B00017351000142
:103668006F5B000174510001705B0001D8907433E6
:103678007333723371330001752FD5D76DC06DF078
:103688006EC06EF06FC06FF070C070F01200040072
:1036980033EC19F083C0DDF084C0DEF085C0DFF0C4
:1036A80005EC18F099C0D9F09AC0DAF06AEC18F075
:1036B80099C0DBF09AC0DCF024EC06F099C0D6F093
:1036C8009AC0D7F09BC0D8F00001DFBF17D0DDC08B
:1036D800CCF0DEC0CDF0DFC0CEF0D9C0CFF0DAC07C
:1036E800D0F0DBC0D1F0DCC0D2F0D6C0D3F0D7C068
:1036F800D4F0D8C0D5F0F6EC16F007D0000E0001D3
:10370800726F020E716F59EC1DF0000E00016D6FA3
:10371800030E6C6F7AEC1DF0BAD78E0E0001706F35
:1037280008D00001D8906B336A33693368330001DD
:10373800702B000E0001681500016C6F000E00016F
:10374800691500016D6F000E00016A1500016E6FAA
:10375800FF0E00016B1500016F6F00016C51000135
:103768006D1100016E1100016F11D8A4DAD768C07D
:1037780060F069C061F06AC062F070C063F0000E6A
:103788000001646F7FEC17F060C068F061C069F0F9
:1037980062C06AF01200000E00016B6F000E6A6FC3
:1037A80023D0AFEC1EF01BD0BDEC1EF018D00001EA
:1037B8006A51000166250001686F00016B51000124
:1037C80067210001696F68C0F6FF69C0F7FF08004C
:1037D800F5502D0AD8B4E8D7030AD8B4E2D7F1ECEB
:1037E8001EF000016A4B6B2B66C060F067C061F089
:1037F80073EC1CF00001605100016A5D0001615129
:1038080000016B59D8B01200D2D7000E0001696FC1
:10381800000E686F1ED0000E00016B6F000E6A6FFD
:1038280000016BBF08D000016B5110E10A0E0001C6
:103838006A5DD8B00BD0000E0001616F640E606F36
:10384800B9EC1DF000016A4B6B2BEAD70001684BFD
:10385800692B000165510001685D00016951800A0A
:103868000001676F00016651800A00016759D8B0EE
:103878001200D1D7000E076E000E086E000E096EFA
:10388800045005100610D8B423D0010E0A6E05D0D6
:10389800D8900436053606360A2A06AEF9D7D890E7
:1038A8000736083609360450015C055002580650A0
:1038B8000358D8A007D00450015E0550025A06509C
:1038C800035A0780D8900632053204320A2EE7D709
:1038D80007C001F008C002F009C003F0120060C080
:1038E80064F061C065F003D00001644B652B64C0CF
:1038F800F6FF65C0F7FFF86A050EF76403D0080005
:10390800F55005D0F6CFE9FFF7CFEAFFEF500009F1
:10391800D8A4EAD760C062F061C063F00001621FFA
:10392800631F624B632B0001645100016225000193
:10393800606F00016551000163210001616F120091
:10394800000E0001646F010E636F929680965D0E03
:10395800E82EFED700F080860B0EE82EFED700D0AA
:10396800928680A604D00001626B622B02D000010F
:10397800626B000162510001636F646B460EE82EB2
:10398800FED763C060F064C061F0120000019C5172
:1039980000019D1100019E11D8B409D0000E00014C
:1039A8009C1B000E00019D1B800E00019E1B99C0F0
:1039B8008DF09AC08EF09BC08FF09CC090F09DC097
:1039C80091F09EC092F09CEC0FF08DC099F08EC0E3
:1039D8009AF08FC09BF0120060C064F061C065F07F
:1039E80003D00001644B652B64C0D9FF65C0DAFFC2
:1039F800DF50D8B407D0F5D70001644B652B000120
:103A0800624B632B62C0D9FF63C0DAFF64C0E1FF79
:103A180065C0E2FFDFCFE7FFE750D8B41200ECD76C
:103A28000E0EF66E3E0EF76E000EF86E00EE38F0D3
:103A380010EE05F00900F5CFEEFFE550E150FAE190
:103A480002EE00F0C80EEE6AE806FDE100EE2DF089
:103A58000B0EEE6AE806FDE13D903D92000EF86E11
:103A68000001F9EF1EF0000E00016B6F000169AF55
:103A780008D00001686D691FD8B0692B010E0001DC
:103A88006B6F68C060F069C061F00001626B8E0EF8
:103A98000001636F6BC064F07FEC17F060C068F0E2
:103AA80061C069F062C06AF01200000E0001756F13
:103AB800000E746F0AD0000E00016D6F3C0E6C6F23
:103AC8007AEC1DF00001744B752B00017151000157
:103AD800745D00017551800A0001736F0001725115
:103AE800800A00017359D8B01200E5D7000E000112
:103AF800706F000E6F6F0AD0000E0001666F3C0EEB
:103B0800656F09EC1CF000016F4B702B00016C51C4
:103B180000016F5D00017051800A00016E6F0001A5
:103B28006D51800A00016E59D8B01200E5D7000E19
:103B38000001646F000E636F92968096808600D0B5
:103B480080A604D00001626B622B02D00001626B78
:103B5800000162510001636F646B0A0EE82EFED704
:103B680063C060F064C061F01200000E0001646F71
:103B7800000E636F07D0A60EE82EFED700D0000116
:103B8800634B642B000160510001635D00016451C7
:103B9800800A0001626F00016151800A00016259C8
:103BA800D8B01200E8D700016E5100017003F3CFBE
:103BB80072F0F4CF73F000016E5100017103F350FD
:103BC8000001732700016F5100017003F3500001D9
:103BD800732772C06EF073C06FF0120092960001E6
:103BE800605100016111D8B409D0809600D000D08E
:103BF80000F08086090EE82EFED7120080960B0E84
:103C0800E82EFED700D0808600D000D000F0120049
:103C180060C064F061C065F006D00001644B652B9C
:103C28000001624B632B62C0F6FF63C0F7FF64C0FC
:103C3800D9FF65C0DAFF0800F5CFDFFFDF50D8B441
:103C48001200EBD760C066F061C067F009D066C0AB
:103C5800D9FF67C0DAFF62C0DFFF0001664B672B40
:103C680000016407D8A0650700016429F0E100019C
:103C78006529D8B41200EBD795849586E70E0F0115
:103C880049177C0EBB6E3F0E66166650F00B0C098A
:103C9800666E63906382638463963E0E676E6650B9
:103CA800CF0B2009666EBA949E92120000016051F3
:103CB8000001611100016211D8B409D0000E0001A1
:103CC800601B000E0001611B800E0001621B60C0BA
:103CD80060F061C061F062C062F0120068C060F01C
:103CE80069C061F00001626B8E0E0001636F000E07
:103CF8000001646F7FEC17F060C068F061C069F084
:103D080062C06AF012000001626F000E0001616F6C
:103D18003A0E0001626107D02F0E0001626503D0E0
:103D2800010E0001616F61C060F000016031120096
:103D3800D08ECD90CD9CCD9ECD9ACD98CD96CD826E
:103D4800EC0ECF6E770ECE6E9D809F809E90CD80BC
:103D5800F29CF28E1200838203EC1FF0000E000129
:103D6800616F4B0E606FB9EC1DF0FFEC1EF0839293
:103D78001200838203EC1FF0000E0001616FE10E58
:103D8800606FB9EC1DF0FFEC1EF083921200BA943C
:103D9800BA80BA92BA96BA98BA9ABA9C000EBC6E11
:103DA8009D829F929E9212004FEC1AF09CEC1EF09E
:103DB800CBEC1EF040EC1EF01200020E0001616F09
:103DC8000D0E606FB9EC1DF01200000E0001616F5E
:103DD800E10E606FB9EC1DF01200000E0001616F7A
:103DE8004B0E606FB9EC1DF01200D8EC1EF04BECD6
:103DF8001BF053EF00F095849586BA9412009594C1
:0B3E08009596BA841200007D00007D3A
:107EF40000010000000A00000064000000E8030024
:107F04000010270000A086010040420F00809698D0
:107F14000000E1F50500CA9A3B00803FCDCC3DD777
:107F2400233C12833AB7D138C62737388635C0D6B2
:107F340033CC2B32708930E7DB2EE53C1E42A20D98
:107F440000803F00204100C842007A44401C465053
:107F5400C34724744997184BBCBE4C6B6E4E031533
:107F64005079AD60F3497120252E316620252E31DC
:107F7400662025332E30642025332E3064002D2DC9
:107F84002E2E2D2D002E2D2E2D2E2D002D2E2E2E6F
:107F94002E2D002E2E2D2D2E2E00454153415432D0
:107FA400002D2D2D2D2D002E2D2D2D2D002E2E2D81
:107FB4002D2D002E2E2E2D2D002D2D2D2D2E002D70
:107FC4002E2E2D2E002D2D2D2E2E002D2D2E2E2E2F
:107FD400002D2E2E2E2E002E2E2E2E2E002D2E2D4A
:107FE4002D002D2D2E2D002D2E2E2D002E2D2D2E3F
:0C7FF400002D2E2D2E002E2D2E2E000014
:020000040020DA
:08000000FFFFFFFFFFFFFFFF00
:020000040030CA
:0E000000FF21193FFF8581FF0FC00F400F4009
:00000001FF
