:0400000053EF00F0CA
:060008003E82CEEF10F075
:100018003E80D8CF60F0E8CF61F0E0CF62F0FACF51
:1000280063F0FBCF64F0E9CF65F0EACF66F0E1CF8B
:1000380067F0E2CF68F0D9CF69F0DACF6AF0F3CF92
:100048006BF0F4CF6CF0F6CF6DF0F7CF6EF0F8CF21
:100058006FF0F5CF70F070C0F5FF6FC0F8FF6EC09D
:10006800F7FF6DC0F6FF6CC0F4FF6BC0F3FF6AC00A
:10007800DAFF69C0D9FF68C0E2FF67C0E1FF66C068
:10008800EAFF65C0E9FF64C0FBFF63C0FAFF62C016
:10009800E0FF61C0E8FF60C0D8FF3E90100039EF74
:1000A8001CF0A90E0001BC6F000E0001BD6F0EEF21
:1000B80006F0250E0001D119D8B40BD0A5C0D9FF80
:1000C800A6C0DAFFD1C0DFFF0001A54BA62B0EEFBB
:1000D80006F0000E0001C16F000EC06F000E000197
:1000E800BF6F000EBE6FA7C0F6FFA8C0F7FF0800DD
:1000F800F5502EEC1EF0D8A040D0000E0001C16FC4
:10010800000EC06FC0C079F0C1C07AF0000E0001C7
:100118007C6F0A0E7B6F7BEC1DF079C0C0F07AC053
:10012800C1F0D00E0001B36FFF0E0001B46FA7C07D
:10013800F6FFA8C0F7FF0800F5500001B56FB66BD1
:100148000001B3510001B5270001B4510001B623E5
:100158000001B5510001C0270001B6510001C123BB
:100168000001A74BA82BA7C0F6FFA8C0F7FF0800FF
:10017800F5502EEC1EF0D8B0C5D7A7C0F6FFA8C022
:10018800F7FF0800F5502E0AD8A439D00001BF8D1A
:100198000001A74BA82B000E0001D06F000ECF6FF7
:1001A80023D0CFC079F0D0C07AF0000E00017C6F68
:1001B8000A0E7B6F7BEC1DF0A7C0F6FFA8C0F7FF07
:1001C8000800F55000017927000E00017A23D00EAF
:1001D800000179250001CF6FFF0E00017A2100018F
:1001E800D06F0001A74BA82BA7C0F6FFA8C0F7FF48
:1001F8000800F5502EEC1EF0D8A00CD0D2D7000E77
:100208000001D06F000ECF6F0001BF8903D000013D
:10021800BF851AD0A7C0F6FFA8C0F7FF0001A74BFB
:10022800A82B0800F5CFD1F00001D151000AD8B4AD
:100238001DEF06F0640AD8B407D0020AD8B4E7D78D
:100248000F0AD8A40EEF06F0070E0001BF15D8B4A8
:1002580079D30001BFA905D0000E0001D06F060EAA
:10026800CF6FBCC0D9FFBDC0DAFFDECFCCF0DECF88
:10027800CDF0DDCFCEF0030E0001BC27000EBD236C
:100288000001CEAF11D0CCC071F0CDC072F0CEC09D
:1002980073F0DDEC1DF071C0CCF072C0CDF073C00E
:1002A800CEF0030E0001BE13000E0001CB6F000E4E
:1002B800CA6F0001CC510001CD110001CE11D8B494
:1002C8009BD0820E0001B36FFF0E0001B46FCCC04B
:1002D800B5F0CDC0B6F0CEC0B7F0CFC0B8F0100EB4
:1002E80006D00001D890B833B733B633B533E82E0B
:1002F800F8D70001B5510001B3250001CA6F000EFF
:100308000001B4210001CB6F0001CA07D8A0CB07B8
:10031800CAC079F0CBC07AF0000E00017C6F030EE2
:100328007B6F7BEC1DF079C0CAF07AC0CBF0CAC0F5
:1003380075F0CBC076F0000E0001786F0A0E776F6B
:10034800F6EC19F075C0CAF076C0CBF00001CBAF5F
:1003580004D00001CA07D8A0CB070001CA51000881
:10036800F5EC09F089C0C2F08AC0C3F08BC0C4F0B4
:10037800C2C07DF0C3C07EF0C4C07FF0CCC080F0A6
:10038800CDC081F0CEC082F0D0EC14F07DC0C2F0B8
:100398007EC0C3F07FC0C4F0C2C071F0C3C072F0A9
:1003A800C4C073F0000E0001746F800E0001756FF9
:1003B8003F0E0001766FE7EC18F00001D8B005D0C9
:1003C8000001CA07D8A0CB0717D0C2C071F0C3C0BC
:1003D80072F0C4C073F0000E0001746F200E0001AB
:1003E800756F410E0001766FE7EC18F00001D8A098
:1003F80003D00001CA4BCB2B0001D0BF08D00001AD
:10040800D0511DE10D0E0001CF5DD8B018D0CCC081
:1004180093F0CDC094F0CEC095F00001CF5144ECDC
:100428000EF089C096F08AC097F08BC098F09AECCD
:100438000FF093C0CCF094C0CDF095C0CEF0000181
:10044800CBBF08D00001CB512AE10A0E0001CA5DDA
:10045800D8B025D00001CC510001CD110001CE113A
:10046800D8B463D0CCC090F0CDC091F0CEC092F09B
:1004780079EC15F0000190510001911100019211E1
:1004880000019311D8A451D00001CBBF4ED0000178
:10049800CB5105E1020E0001CA5DD8A046D0C2C00A
:1004A80071F0C3C072F0C4C073F0700E0001746FB5
:1004B800890E0001756F400E0001766FE7EC18F0A9
:1004C8000001D8B003D00001F70E02D00001F80EE9
:1004D800CA27FF0ECB230001CA51F5EC09F089C0E9
:1004E800C2F08AC0C3F08BC0C4F0CCC071F0CDC0DC
:1004F80072F0CEC073F0C2C074F0C3C075F0C4C04F
:1005080076F06DEC13F071C0C6F072C0C7F073C01E
:10051800C8F074C0C9F0000E0001CC6F000E0001D5
:10052800CD6F000E0001CE6F33D0CCC090F0CDC09F
:1005380091F0CEC092F079EC15F090C0C6F091C061
:10054800C7F092C0C8F093C0C9F0CCC09FF0CDC02E
:10055800A0F0CEC0A1F0C6C076F0C7C077F0C8C082
:1005680078F0C9C079F058EC1BF076C0A2F077C0DB
:10057800A3F078C0A4F013EC1CF09FC0CCF0A0C08E
:10058800CDF0A1C0CEF0000E0001CB6F000ECA6FF7
:10059800010E0001D16F0A0E0001D119D8B41ED086
:1005A8000001D151040DF50EF324F66E7E0EF420F1
:1005B800F76E0900F5500001C65D0900F55000010D
:1005C800C7590900F5500001C8590900F550000144
:1005D800C959D8A003D00001D12BDDD7D1C0B3F0C1
:1005E8000001B46BB3BFB4070001CF510001B327BA
:1005F8000001D0510001B4230001CA510001B32702
:100608000001CB510001B4230001B3510001C05FC8
:100618000001B4510001C15B0001CF510001D011AC
:10062800D8B404D00001C007D8A0C107030E000148
:10063800BE150001B36F000E0001BF150001B46FB5
:100648000001B3510001B411D8B40ED009D0A5C02F
:10065800D9FFA6C0DAFF200EDF6E0001A54BA62B3E
:100668000001C007D8A0C1070001C1BF07D0000121
:10067800C151EDE10001C005D8B0E9D7030E000172
:10068800BE150001B36F000E0001BF150001B46F65
:100698000001B3510001B411D8B455D0A5C0D9FF99
:1006A800A6C0DAFF2D0E4DD00001A54BA62B4BD0CE
:1006B800C6C071F0C7C072F0C8C073F0C9C074F08A
:1006C8000001D151040DF50EF324F66E7E0EF420D0
:1006D800F76E0900F5CF75F00900F5CF76F009003F
:1006E800F5CF77F00A00F5CF78F09EEC19F071C0DD
:1006F800C2F072C0C3F073C0C4F074C0C5F0C2C009
:1007080079F0C3C07AF0C4C07BF0C5C07CF00A0E93
:1007180000017D6F000E7E6F000E7F6F000E806FF0
:1007280093EC1AF079C0C2F07AC0C3F07BC0C4F071
:100738007CC0C5F00001C251300FA5C0D9FFA6C0CA
:10074800DAFFDF6EB1D70001D1070001D129D8B493
:100758000ED0AED7A5C0D9FFA6C0DAFF300EDF6E27
:100768000001A54BA62B0001CA07D8A0CB070001A2
:10077800CBBF07D00001CB51EDE10001CA05D8B0CD
:10078800E9D70001D0BF0CD00001D05105E1090E16
:100798000001CF5DD8A004D0080E0001D16F02D0AF
:1007A800CFC0D1F00001D1510001CF5F000E000190
:1007B800D1BFFF0E0001D05B0001D1510001D8B4B8
:1007C80009D0A5C0D9FFA6C0DAFF2E0EDF6E000142
:1007D800A54BA62B0001D151F5EC09F089C0B9F061
:1007E8008AC0BAF08BC0BBF0CCC080F0CDC081F01D
:1007F800CEC082F0B9C07DF0BAC07EF0BBC07FF039
:10080800D0EC14F07DC090F07EC091F07FC092F0E3
:1008180079EC15F090C0C6F091C0C7F092C0C8F04E
:1008280093C0C9F074D0C6C071F0C7C072F0C8C018
:1008380073F0C9C074F00001D151040DF50EF32412
:10084800F66E7E0EF420F76E0900F5CF75F00900FC
:10085800F5CF76F00900F5CF77F00A00F5CF78F0FC
:100868009EEC19F071C0C2F072C0C3F073C0C4F03E
:1008780074C0C5F0C2C079F0C3C07AF0C4C07BF0C0
:10088800C5C07CF00A0E00017D6F000E7E6F000E61
:100898007F6F000E806F93EC1AF079C0C2F07AC0B7
:1008A800C3F07BC0C4F07CC0C5F00001C251300F5A
:1008B800A5C0D9FFA6C0DAFFDF6E0001A54BA62BA5
:1008C800C6C079F0C7C07AF0C8C07BF0C9C07CF058
:1008D8000001D151040DF50EF324F66E7E0EF420BE
:1008E800F76E0900F5CF7DF00900F5CF7EF009001D
:1008F800F5CF7FF00A00F5CF80F093EC1AF079C0BD
:10090800C6F07AC0C7F07BC0C8F07CC0C9F000014F
:10091800D1070001D129D8B40ED085D7A5C0D9FFF9
:10092800A6C0DAFF300EDF6E0001A54BA62B000132
:10093800CF07D8A0D0070001CF510001D011D8B4FB
:1009480069D1ECD7BCC0D9FFBDC0DAFFDECFC6F095
:10095800DDCFC7F00001000EC7BFFF0EC86FC96F1B
:10096800020E0001BC27000EBD230001C9AF0CD048
:10097800030E0001BE130001C91FC81FC71FC66DA3
:10098800000EC723C823C9230001CF510001D0118D
:10099800D8A40DD00001C6510001C7110001C8112B
:1009A8000001C911D8A403D00001CF4BD02B010EF0
:1009B8000001D16F0A0E0001D119D8B41ED0000170
:1009C800D151040DF50EF324F66E7E0EF420F76E69
:1009D8000900F5500001C65D0900F5500001C7592E
:1009E8000900F5500001C8590900F5500001C9591E
:1009F800D8A003D00001D12BDDD7800E0001D1BFD4
:100A08007F0E0001B36F0001CF510001D15D0001DD
:100A1800D051800A0001B359D8B003D0CFC0D1F06B
:100A280018D00001D051800A0001B36F0001D151E4
:100A38000001CF5D800E0001D1BF7F0E0001B359C8
:100A4800D8B007D00001D1510001CF6FD06BCFBF14
:100A5800D0070001C0510001C111D8B414D0030E51
:100A68000001BE150001B36F000E0001BF150001A3
:100A7800B46F0001B3510001B411D8B404D000011F
:100A8800C007D8A0C1070001BFAD1ED00001C051EA
:100A98000001CF5D0001D051800A0001B36F000151
:100AA800C151800A0001B359D8B009D00001CF5113
:100AB8000001C05F0001D0510001C15B05D0000EEC
:100AC8000001C16F000EC06F800E0001D1BF7F0E04
:100AD8000001B36F0001C0510001D15D0001C15197
:100AE800800A0001B359D8B00BD00001D1510001E0
:100AF800C05F000E0001D1BFFF0E0001C15B05D031
:100B0800000E0001C16F000EC06F0001C05100014E
:100B1800C111D8B413D0A5C0D9FFA6C0DAFF200EE2
:100B2800DF6E0001A54BA62B0001C007D8A0C107A6
:100B38000001C0510001C111D8A4EDD7030E000176
:100B4800BE150001B36F000E0001BF150001B46FA0
:100B58000001B3510001B411D8B451D0A5C0D9FFD8
:100B6800A6C0DAFF2D0EDF6E47D0CFC0B3F0D0C0DD
:100B7800B4F00001D890B337B4370001D890B33738
:100B8800B437F50E0001B325F66E7E0EB421F76E6C
:100B98000900F5CF75F00900F5CF76F00900F5CF1B
:100BA80077F00A00F5CF78F0C6C071F0C7C072F0D0
:100BB800C8C073F0C9C074F09EEC19F071C079F028
:100BC80072C07AF073C07BF074C07CF00A0E00012A
:100BD8007D6F000E7E6F000E7F6F000E806F93ECAE
:100BE8001AF000017951300F0001D16FA5C0D9FF6B
:100BF800A6C0DAFFD1C0DFFF0001A54BA62B00017C
:100C0800CF07D8A0D0070001CF29AFE10001D02934
:100C1800D8A4ABD7A7C0F6FFA8C0F7FF0001A74B21
:100C2800A82B0800F5CFD1F00001D151D8A45DEF71
:100C380000F0A5C0D9FFA6C0DAFF000EDF6E1200D3
:100C4800000E0101B46F000EB36F000E0101B66F04
:100C5800000EB56F000E0101B86F000EB76F000EE1
:100C68000101BA6F000EB96F000E0101BC6F000ED2
:100C7800BB6F000E0101BE6F000EBD6F000E0101BB
:100C8800C06F000EBF6F000E0101C26F000EC16F72
:100C9800000E0101C46F000EC36F000E0101A36FA7
:100CA800000EA26F000E0101C66F000EC56F000E88
:100CB8000101C86F000EC76F000E0101C96F000E59
:100CC8000101CA6F000E0101CB6F000E0101A46F74
:100CD800800E0101A56F3F0E0101A66F000E0101F4
:100CE800CD6F000ECC6F9FEC1CF00001715100011C
:100CF8007211D8B40AD0330E00019F6FC60E0001DE
:100D0800A06FC20E0001A16F1200000E0001746FE7
:100D1800CC0E736FA9EC12F0000E0001746F440E34
:100D2800736FA9EC12F09286000E0101CD6F000ED0
:100D3800CC6F0AD0000E0001746F010E736FE9ECDE
:100D48001BF00101CC4BCD2B0101CDBF08D0010117
:100D5800CD5107E1050E0101CC5DD8B002D080A6C7
:100D6800E9D7050E0101CC190101CD11D8A40AD08B
:100D7800660E00019F6FC60E0001A06FC20E000133
:100D8800A16F12009FEC1CF000017151000172115B
:100D9800D8B40AD09A0E00019F6FC60E0001A06F4A
:100DA800C20E0001A16F1200000E0001746FCC0E7C
:100DB800736FA9EC12F0000E0001746FBE0E736F12
:100DC800A9EC12F0DFEC11F073C090F174C091F14E
:100DD800DFEC11F073C092F174C093F1DFEC11F005
:100DE80073C094F174C095F1DFEC11F073C096F103
:100DF80074C097F1DFEC11F073C098F174C099F1E9
:100E0800DFEC11F073C09AF174C09BF1DFEC11F0C4
:100E180073C09CF174C09DF1DFEC11F073C09EF1BA
:100E280074C09FF1DFEC11F073C0A0F174C0A1F1A0
:100E3800000E0101C66F000EC56F0101C6BF08D0C4
:100E48000101C6514FE1090E0101C55DD8B04AD074
:100E5800000E0101C86F000EC76F0101C8BF08D09E
:100E68000101C8513BE1080E0101C75DD8B036D079
:100E7800C7C1A2F0D8900101C535D96E0101C635A8
:100E8800DA6E900ED926010EDA22DECFA3F0DDCF7E
:100E9800A4F00001A22B04D00001A435A433A3338D
:100EA8000001A22FF9D7010E0001A317000EA41705
:100EB800D8900101A235D96E0101A335DA6E000E72
:100EC800D926010EDA22A3C0DEFFA4C0DDFF01018E
:100ED800A24BA32B0101C74BC82BBFD70101C54BA0
:100EE800C62BABD7000E0101CD6F000ECC6F0101F0
:100EF800CDBF08D00101CD5154E1480E0101CC5DB0
:100F0800D8B04FD0D8900101CC35D96E0101CD357C
:100F1800DA6E000ED926010EDA22DECFA2F0DDCF7E
:100F2800A3F00101B3510001A2190101C36F01012E
:100F3800B4510001A3190101C46FB5C1B3F1B6C121
:100F4800B4F1B7C1B5F1B8C1B6F10101C35101019E
:100F5800B9190101B76F0101C4510101BA190101A1
:100F6800B86F0101C3510101BB190101B96F01013A
:100F7800C4510101BC190101BA6FBDC1BBF1BEC1A9
:100F8800BCF1BFC1BDF1C0C1BEF1C1C1BFF1C2C199
:100F9800C0F1C3C1C1F1C4C1C2F10101CC4BCD2B19
:100FA800A6D70101B3510101B411D8A42AD0010177
:100FB800B5510101B611D8A424D00101B7510101DE
:100FC800B811D8B406D00101B9510101BA11D8A499
:100FD80018D00101BB510101BC11D8A412D00101E4
:100FE800BD510101BE11D8B406D00101BF510101A4
:100FF800C011D8A406D00101C1510101C211D8B451
:101008000AD0660E00019F6FC70E0001A06FC20EC6
:101018000001A16F12000101165101011711D8A496
:1010280008D0000E0101A46F800E0101A56F3F0ECC
:1010380007D0000E0101A46F800E0101A56FBF0E3D
:101048000101A66F000E00017C6F000E00017D6F8C
:10105800410E00017E6F02C176F003C177F0C0EC4B
:101068001CF076C079F077C07AF078C07BF01BEC82
:1010780016F079C096F07AC097F07BC098F0000E11
:1010880000017C6F800E00017D6F410E00017E6FB4
:1010980000C176F001C177F0C0EC1CF076C079F0A1
:1010A80077C07AF078C07BF01BEC16F079C093F02B
:1010B8007AC094F07BC095F09AEC0FF093C0A7F13A
:1010C80094C0A8F195C0A9F1000E00017C6F800EB4
:1010D80000017D6F400E00017E6F04C176F005C1EE
:1010E80077F0C0EC1CF076C079F077C07AF078C061
:1010F8007BF01BEC16F079C096F07AC097F07BC0B5
:1011080098F0A7C193F0A8C194F0A9C195F09AEC02
:101118000FF093C0AAF194C0ABF195C0ACF1000EEA
:1011280000017C6F000E00017D6F400E00017E6F94
:1011380006C176F007C177F0C0EC1CF076C079F0F4
:1011480077C07AF078C07BF01BEC16F079C096F087
:101158007AC097F07BC098F0AAC193F0ABC194F025
:10116800ACC195F09AEC0FF093C0ADF194C0AEF11C
:1011780095C0AFF108C176F009C177F0C0EC1CF05A
:1011880076C096F077C097F078C098F0ADC193F02C
:10119800AEC194F0AFC195F09AEC0FF093C0B0F1E6
:1011A80094C0B1F195C0B2F1B0C193F0B1C194F05F
:1011B800B2C195F0000E0001806F000E0001816F32
:1011C800400E0001826F0AC176F00BC177F0C0ECC7
:1011D8001CF076C07DF077C07EF078C07FF0D0EC50
:1011E80014F07DC096F07EC097F07FC098F09AEC1E
:1011F8000FF093C0C9F194C0CAF195C0CBF1000EAD
:101208000001806F000E0001816F410E0001826FA6
:101218000EC176F00FC177F0C0EC1CF076C07DF0FF
:1012280077C07EF078C07FF0D0EC14F07DC096F0E7
:101238007EC097F07FC098F0000E0001806F800E8E
:101248000001816F400E0001826F0CC176F00DC164
:1012580077F0C0EC1CF076C07DF077C07EF078C0E7
:101268007FF0D0EC14F07DC093F07EC094F07FC086
:1012780095F09AEC0FF093C0A7F194C0A8F195C02F
:10128800A9F1000E0001806F800E0001816F410EF0
:101298000001826F10C176F011C177F0C0EC1CF02C
:1012A80076C07DF077C07EF078C07FF0D0EC14F087
:1012B8007DC096F07EC097F07FC098F0A7C193F0EC
:1012C800A8C194F0A9C195F09AEC0FF093C0AAF1C7
:1012D80094C0ABF195C0ACF1000E0001806F000E18
:1012E8000001816F420E0001826F12C176F013C1B6
:1012F80077F0C0EC1CF076C07DF077C07EF078C047
:101308007FF0D0EC14F07DC096F07EC097F07FC0DF
:1013180098F0AAC193F0ABC194F0ACC195F09AECE7
:101328000FF093C0ADF194C0AEF195C0AFF1000ECF
:101338000001806F800E0001816F420E0001826FF4
:1013480014C176F015C177F0C0EC1CF076C07DF0C2
:1013580077C07EF078C07FF0D0EC14F07DC096F0B6
:101368007EC097F07FC098F0ADC193F0AEC194F005
:10137800AFC195F09AEC0FF093C0B0F194C0B1F101
:1013880095C0B2F1B0C193F0B1C194F0B2C195F07B
:10139800C9C196F0CAC197F0CBC198F09AEC0FF08A
:1013A80093C0C9F194C0CAF195C0CBF1C9C17DF011
:1013B800CAC17EF0CBC17FF0A4C180F0A5C181F085
:1013C800A6C182F0D0EC14F07DC0C9F17EC0CAF18C
:1013D8007FC0CBF1C9C19FF0CAC1A0F0CBC1A1F0B9
:1013E800120000018F6F00018FAF2AD100018F6DAD
:1013F80000018F51800A120FD8A0ACD0000E000156
:101408007C6F030E7B6F000E0001786F0A0E776FFA
:10141800000E0001746F640E736F00018F5100019C
:10142800716F726B71BF720749EC1AF071C075F079
:1014380072C076F0F6EC19F0090E0001752500016E
:10144800796F000E0001762100017A6F7BEC1DF0A8
:10145800440E00017925F66E7F0E00017A21F76EA1
:101468000900F5CF80F00900F5CF81F00A00F5CF2B
:1014780082F0000E0001786F640E776F00018F51C3
:101488000001756F766B75BF7607F6EC19F0120ED2
:10149800000175250001796F000E00017621000119
:1014A8007A6F000E00017C6F030E7B6F7BEC1DF0E2
:1014B800440E00017925F66E7F0E00017A21F76E41
:1014C8000900F5CF7DF00900F5CF7EF00A00F5CFD1
:1014D8007FF0D0EC14F07DC08CF07EC08DF07FC022
:1014E8008EF08CC07DF08DC07EF08EC07FF0000E37
:1014F80000017C6F030E7B6F000E0001746F0A0EF3
:10150800736F00018F510001716F726B71BF7207A9
:1015180049EC1AF071C079F072C07AF07BEC1DF0DA
:10152800440E00017925F66E7F0E00017A21F76ED0
:101538000900F5CF80F00900F5CF81F00A00F5CF5A
:1015480082F0D0EC14F07DC089F07EC08AF07FC0B4
:101558008BF0120000018F51800A750FD8A05DD062
:10156800000E0001786F0A0E776F00018F5100019D
:10157800756F766B75BF7607F6EC19F0090E0001EA
:1015880075250001796F000E0001762100017A6F40
:10159800000E00017C6F030E7B6F7BEC1DF0440E88
:1015A80000017925F66E7F0E00017A21F76E090099
:1015B800F5CF7DF00900F5CF7EF00A00F5CF7FF07A
:1015C800000E00017C6F030E7B6F000E0001746F2C
:1015D8000A0E736F00018F510001716F726B71BF3A
:1015E800720749EC1AF071C079F072C07AF07BEC9E
:1015F8001DF0440E00017925F66E7F0E00017A2158
:10160800F76E0900F5CF80F00900F5CF81F00A00E8
:10161800F5CF82F0D0EC14F096D700018F51030D6E
:10162800440EF324F66E7F0EF420F76E0900F5CF12
:1016380089F00900F5CF8AF00A00F5CF8BF0120087
:1016480000018F51800A120FD8A0ACD0000E000103
:101658007C6F030E7B6F000E0001786F0A0E776FA8
:10166800000E0001746F640E736F00018F5100014A
:10167800716F726B71BF720749EC1AF071C075F027
:1016880072C076F0F6EC19F0090E0001752500011C
:10169800796F000E0001762100017A6F7BEC1DF056
:1016A8001D0E00017925F66E7F0E00017A21F76E76
:1016B8000900F5CF80F00900F5CF81F00A00F5CFD9
:1016C80082F0000E0001786F640E776F00018F5171
:1016D8000001756F766B75BF7607F6EC19F0120E80
:1016E800000175250001796F000E000176210001C7
:1016F8007A6F000E00017C6F030E7B6F7BEC1DF090
:101708001D0E00017925F66E7F0E00017A21F76E15
:101718000900F5CF7DF00900F5CF7EF00A00F5CF7E
:101728007FF0D0EC14F07DC08CF07EC08DF07FC0CF
:101738008EF08CC07DF08DC07EF08EC07FF0000EE4
:1017480000017C6F030E7B6F000E0001746F0A0EA0
:10175800736F00018F510001716F726B71BF720757
:1017680049EC1AF071C079F072C07AF07BEC1DF088
:101778001D0E00017925F66E7F0E00017A21F76EA5
:101788000900F5CF80F00900F5CF81F00A00F5CF08
:1017980082F0D0EC14F07DC089F07EC08AF07FC062
:1017A8008BF0120000018F51800A750FD8A05DD010
:1017B800000E0001786F0A0E776F00018F5100014B
:1017C800756F766B75BF7607F6EC19F0090E000198
:1017D80075250001796F000E0001762100017A6FEE
:1017E800000E00017C6F030E7B6F7BEC1DF01D0E5D
:1017F80000017925F66E7F0E00017A21F76E090047
:10180800F5CF7DF00900F5CF7EF00A00F5CF7FF027
:10181800000E00017C6F030E7B6F000E0001746FD9
:101828000A0E736F00018F510001716F726B71BFE7
:10183800720749EC1AF071C079F072C07AF07BEC4B
:101848001DF01D0E00017925F66E7F0E00017A212C
:10185800F76E0900F5CF80F00900F5CF81F00A0096
:10186800F5CF82F0D0EC14F096D700018F51030D1C
:101878001D0EF324F66E7F0EF420F76E0900F5CFE7
:1018880089F00900F5CF8AF00A00F5CF8BF0120035
:101898002B6E74D1E80E0001736F7F0E0001746F18
:1018A8008CEC1BF0EAD1D00E0001736F7F0E0001A3
:1018B800746F8CEC1BF0E1D1F50E0001736F7F0E95
:1018C8000001746F8CEC1BF0D8D1CB0E0001736F44
:1018D8007F0E0001746F8CEC1BF0CFD1C10E00019C
:1018E800736F7F0E0001746F8CEC1BF0C6D1C40EB1
:1018F8000001736F7F0E0001746F8CEC1BF0BDD17B
:10190800BF0E0001736F7F0E0001746F8CEC1BF02B
:10191800B4D1D60E0001736F7F0E0001746F8CEC8A
:101928001BF0ABD1CC0E0001736F7F0E0001746FFA
:101938008CEC1BF0A2D1B20E0001736F7F0E000178
:10194800746F8CEC1BF099D1E70E0001736F7F0E5A
:101958000001746F8CEC1BF090D1FA0E0001736FCC
:101968007F0E0001746F8CEC1BF087D1A80E00016C
:10197800736F7F0E0001746F8CEC1BF07ED1C00E6C
:101988000001736F7F0E0001746F8CEC1BF075D132
:10199800A70E0001736F7F0E0001746F8CEC1BF0B3
:1019A8006CD1F00E0001736F7F0E0001746F8CEC28
:1019B8001BF063D1E60E0001736F7F0E0001746F98
:1019C8008CEC1BF05AD1F60E0001736F7F0E0001EC
:1019D800746F8CEC1BF051D1D10E0001736F7F0E28
:1019E8000001746F8CEC1BF048D1A90E0001736FD5
:1019F8007F0E0001746F8CEC1BF03FD1EC0E0001E0
:101A0800736F7F0E0001746F8CEC1BF036D1920E51
:101A18000001736F7F0E0001746F8CEC1BF02DD1E9
:101A2800E20E0001736F7F0E0001746F8CEC1BF0E7
:101A380024D1EB0E0001736F7F0E0001746F8CECE4
:101A48001BF01BD1E10E0001736F7F0E0001746F54
:101A58008CEC1BF012D1CA0E0001736F7F0E0001CF
:101A6800746F8CEC1BF009D1A50E0001736F7F0E0B
:101A78000001746F8CEC1BF000D1AB0E0001736F8A
:101A88007F0E0001746F8CEC1BF0F7D0B10E0001D3
:101A9800736F7F0E0001746F8CEC1BF0EED0B70EE5
:101AA8000001736F7F0E0001746F8CEC1BF0E5D0A2
:101AB800910E0001736F7F0E0001746F8CEC1BF0A8
:101AC800DCD0DB0E0001736F7F0E0001746F8CECAD
:101AD8001BF0D3D0D50E0001736F7F0E0001746F19
:101AE8008CEC1BF0CAD0CF0E0001736F7F0E000183
:101AF800746F8CEC1BF0C1D0C90E0001736F7F0EA0
:101B08000001746F8CEC1BF0B8D0BD0E0001736F30
:101B18007F0E0001746F8CEC1BF0AFD0820E0001B9
:101B2800736F7F0E0001746F8CEC1BF0A6D0970EBC
:101B38000001736F7F0E0001746F8CEC1BF09DD059
:101B4800C30E0001736F7F0E0001746F8CEC1BF0E5
:101B580094D0890E0001736F7F0E0001746F8CECB6
:101B68001BF08BD0900E0001736F7F0E0001746F15
:101B78008CEC1BF082D03DEC1EF07FD02B50200A5D
:101B8800D8B4F9D70C0AD8B4C9D7010AD8B4EAD757
:101B9800030AD8B4DED7010AD8B4D2D71F0AD8B4FA
:101BA80063D7010AD8B469D7030AD8B46FD7010A32
:101BB800D8B475D7070AD8B47BD7010AD8B481D767
:101BC800030AD8B487D7010AD8B48DD70F0AD8B476
:101BD80093D7010AD8B499D7060AD8B4A8D77E0AE9
:101BE800D8B458D6030AD8B45ED6010AD8B464D695
:101BF800070AD8B46AD6010AD8B470D6030AD8B48A
:101C080076D6010AD8B47CD60F0AD8B482D6010A8F
:101C1800D8B488D6030AD8B48ED6010AD8B494D6D4
:101C2800070AD8B49AD6010AD8B4A0D6030AD8B4F9
:101C3800A6D6010AD8B4ACD61F0AD8B4B2D6010ABF
:101C4800D8B4B8D6030AD8B4BED6010AD8B4C4D614
:101C5800070AD8B4CAD6010AD8B4D0D6030AD8B469
:101C6800D6D6010AD8B4DCD60F0AD8B4E2D6010A0F
:101C7800D8B4E8D6030AD8B4EED645EC1EF0120064
:101C88000001926F6D0E00019265BAD0000E00013E
:101C98007C6F030E7B6F000E0001786F0A0E776F62
:101CA800000E0001746F640E736F92C071F0000132
:101CB800726B49EC1AF071C075F072C076F0F6ECF0
:101CC80019F0090E000175250001796F000E000159
:101CD800762100017A6F7BEC1DF0440E0001792516
:101CE800F66E7F0E00017A21F76E0900F5CF80F0BD
:101CF8000900F5CF81F00A00F5CF82F0000E00014F
:101D0800786F640E776F92C075F00001766BF6EC11
:101D180019F0120E000175250001796F000E0001FF
:101D2800762100017A6F000E00017C6F030E7B6F35
:101D38007BEC1DF0440E00017925F66E7F0E000144
:101D48007A21F76E0900F5CF7DF00900F5CF7EF016
:101D58000A00F5CF7FF0D0EC14F07DC08FF07EC084
:101D680090F07FC091F0000E00017C6F030E7B6F36
:101D7800000E0001746F0A0E736F92C071F00001BB
:101D8800726B49EC1AF071C079F072C07AF07BEC92
:101D98001DF0440E00017925F66E7F0E00017A21B0
:101DA800F76E0900F5CF80F00900F5CF81F00A0041
:101DB800F5CF82F08FC07DF090C07EF091C07FF0AB
:101DC800D0EC14F07DC08CF07EC08DF07FC08EF01A
:101DD8008CC07DF08DC07EF08EC07FF0000E0001BB
:101DE800806F000E0001816F3F0E0001826FD0EC02
:101DF80014F07DC089F07EC08AF07FC08BF012009D
:101E08000A0E000192656ED0000E00017C6F030E71
:101E18007B6F000E0001746F0A0E736F92C071F031
:101E28000001726B49EC1AF071C079F072C07AF057
:101E38007BEC1DF0440E00017925F66E7F0E000143
:101E48007A21F76E0900F5CF80F00900F5CF81F00F
:101E58000A00F5CF82F0000E0001786F0A0E776F46
:101E680092C075F00001766BF6EC19F0090E0001CE
:101E780075250001796F000E0001762100017A6F47
:101E8800000E00017C6F030E7B6F7BEC1DF0440E8F
:101E980000017925F66E7F0E00017A21F76E0900A0
:101EA800F5CF7DF00900F5CF7EF00A00F5CF7FF081
:101EB800D0EC14F07DC08FF07EC090F07FC091F020
:101EC8008FC07DF090C07EF091C07FF0000E0001C1
:101ED800806F000E0001816F3F0E0001826FD0EC11
:101EE80014F087D700019251030D440EF324F66EC7
:101EF8007F0EF420F76E0900F5CF7DF00900F5CFCD
:101F08007EF00A00F5CF7FF0000E0001806F000E12
:101F18000001816F3F0E0001826FD0EC14F07DC08C
:101F280089F07EC08AF07FC08BF0120095C099F0CE
:101F380000019A6B9B6B000194350001993701E30E
:101F48009A810001995100019E6F98C099F0000193
:101F58009A6B9B6B000197350001993701E39A81D1
:101F68000001995100019D6F00019E510001D8B4F4
:101F780011D000019D5100019E5DD8B012D0000122
:101F88009E51000800019D250001996F180E00015F
:101F9800996507D096C093F097C094F098C095F0D3
:101FA800120000019D510001D8B411D000019E51CA
:101FB80000019D5DD8B012D000019D5100080001BC
:101FC8009E250001996F180E0001996507D093C0EE
:101FD80093F094C094F095C095F01200060E00019D
:101FE8009C6F000195AF02D000019C8F000198AF53
:101FF80002D000019C8D0001948FFF0E0001931701
:10200800FF0E00019417000E000195170001978F2D
:10201800FF0E00019617FF0E00019717000E000132
:10202800981700019D5100019E5DD8B025D0000190
:10203800D89096379737983700019D0700019E5131
:1020480000019D19D8B411D000019C079CC099F0DB
:10205800070E00019917D8B408D0E9D70001D89025
:1020680095339433933300019E2B00019D51000159
:102078009E19D8B42BD0F2D700019E5100019D5D66
:10208800D8B024D00001D890933794379537000101
:102098009E0700019E5100019D19D8B411D000017E
:1020A8009C079CC099F0070E00019917D8B408D076
:1020B800E9D70001D89098339733963300019D2BC8
:1020C80000019D5100019E19D8A4F3D700019CAFCF
:1020D80012D0FF0E0001931BFF0E0001941BFF0E90
:1020E8000001951B010E00019327000E00019423A7
:1020F800000E0001952300019CAD12D0FF0E0001D7
:10210800961BFF0E0001971BFF0E0001981B010E86
:1021180000019627000E00019723000E0001982366
:10212800000E00019C6F00019351000196270001E9
:102138009451000197230001955100019823000153
:1021480098AF15D0FF0E0001961BFF0E0001971BDC
:10215800FF0E0001981B010E00019627000E0001DA
:102168009723000E00019823010E00019C6F96C072
:1021780071F097C072F098C073F09EC074F09CC064
:1021880075F044EC17F071C093F072C094F073C00E
:1021980095F01200FACF10F0FBCF11F0E9CF12F052
:1021A800EACF13F0E1CF14F0E2CF15F0D9CF16F053
:1021B800DACF17F0F3CF18F0F4CF19F0F6CF1AF002
:1021C800F7CF1BF0F8CF1CF0F5CF1DF0000E1F6EF7
:1021D800000E1E6E9EA0D1D0EC0ECF6E770ECE6E86
:1021E8000400374A382A320E37183810D8A410D0CD
:1021F80083B803D00B6A0B2A01D00B6A0B3A8350C1
:102208000B18EF0B0B18836E000E386E000E376E2E
:102218002EBE06D02E5006E1640E2D5CD8B002D03A
:102228002D4A2E2AC294C296C288C29AC29CC280E3
:102238009E9CC2829EACFED7C3CF1EF0C4CF1FF0B7
:102248009E9CC2902F503010D8B402D0314A322A06
:102258001F5004E1810E1E5CD8A01BD01E503C5CB0
:102268001F503D58D8B015D0334A342AC80E3318F9
:102278003410D8A481D08182000E306E010E2F6EEA
:10228800000E326E000E316E000E346E000E336E8C
:1022980073D0000E346E000E336EE00E311809E173
:1022A8002E0E3218D8A405D08192000E306E000E82
:1022B8002F6ED8903534D96E3634DA6E000ED926A2
:1022C800020EDA221EC0DEFF1FC0DDFF354A362AA5
:1022D800640E35183610D8A404D0000E366E000EE1
:1022E800356E640E2D182E10D8A446D0000E396E07
:1022F800000E3A6E000E3B6E000E216E000E206E30
:1023080021BE06D021501FE1640E205CD8B01BD03E
:10231800D8902034D96E2134DA6E000ED926020EF8
:10232800DA22DECF0BF0DDCF0CF00BC00DF00CC0C5
:102338000EF00F6A0D5039260E503A220F503B22EC
:10234800204A212ADDD739C001F03AC002F03BC04B
:1023580003F0640E046E000E056E000E066E23EC8C
:102368001BF001C039F002C03AF003C03BF0D8902E
:1023780039343C6E3A343D6E9E901DC0F5FF1CC04A
:10238800F8FF1BC0F7FF1AC0F6FF19C0F4FF18C00A
:10239800F3FF17C0DAFF16C0D9FF15C0E2FF14C05B
:1023A800E1FF13C0EAFF12C0E9FF11C0FBFF10C034
:1023B800FAFF3E921100000E0001946F000E936F19
:1023C800928649EC1DF071C083F072C084F049EC2C
:1023D8001DF071C085F072C086F049EC1DF071C027
:1023E80087F072C088F049EC1DF071C089F072C0A6
:1023F8008AF049EC1DF071C08BF072C08CF049EC8A
:102408001DF071C08DF072C08EF049EC1DF071C0E6
:102418008FF072C090F049EC1DF071C091F072C05D
:1024280092F091C075F092C076F0070ED890000136
:1024380075377637E82EFAD78FC077F090C078F0E6
:10244800060ED890000177377837E82EFAD78DC076
:1024580079F08EC07AF0050ED890000179377A3776
:10246800E82EFAD78BC07BF08CC07CF000017B3B58
:102478007C3BF00E7C177B510F0B7C13F00E7B1707
:1024880089C07DF08AC07EF00001D8907D377E3704
:102498000001D8907D377E370001D8907D377E3790
:1024A80087C07FF088C080F00001D8907F378037E0
:1024B8000001D8907F37803785C081F086C082F0D0
:1024C800D89000018137823700017F5100018127B0
:1024D800000180510001822300017D510001812704
:1024E80000017E510001822300017B5100018127F8
:1024F80000017C51000182230001795100018127EC
:1025080000017A51000182230001775100018127DF
:1025180000017851000182230001755100018127D3
:1025280000017651000182230001835100018125B9
:102538000001936F00018451000182210001946F12
:1025480093C073F094C074F01200010E000173156B
:102558000001756F0001766B000174357431236ECC
:1025680000017331226E010E22140001776F000101
:10257800786B73C022F074C023F0233423322232E4
:10258800233423322232010E22140001796F000114
:102598007A6B73C022F074C023F0233423322232C2
:1025A800233423322232233423322232010E2214DE
:1025B80000017B6F00017C6B73C022F074C023F0B4
:1025C800040E246E233423322232242EFBD7010E2C
:1025D800221400017D6F00017E6B73C022F074C06D
:1025E80023F0050E246E233423322232242EFBD707
:1025F800010E221400017F6F0001806B73C022F06E
:1026080074C023F0060E246E233423322232242E83
:10261800FBD7010E22140001816F0001826B73C089
:1026280022F074C023F0070E246E233423322232A2
:10263800242EFBD7010E22140001836F0001846B46
:1026480075C071F076C072F0FBEC1CF000D000D0C1
:1026580000F077C071F078C072F0FBEC1CF000D08D
:1026680000D000F079C071F07AC072F0FBEC1CF079
:1026780000D000D000F07BC071F07CC072F0FBECA1
:102688001CF000D000D000F07DC071F07EC072F068
:10269800FBEC1CF000D000D000F07FC071F080C0CF
:1026A80072F0FBEC1CF000D000D000F081C071F09B
:1026B80082C072F0FBEC1CF000D000D000F083C0A8
:1026C80071F084C072F0FBEC1CF000D000D000F078
:1026D800120073C022F0236A246A00017235223680
:1026E80001E3238022502A6E2A50D8A40AD0000E73
:1026F8000001716F000E726F000E736F000E746F21
:10270800120076C022F0236A246A00017535223649
:1027180001E323802250296E2950D8A40AD0000E44
:102728000001716F000E726F000E736F000E746FF0
:1027380012000001728FFF0E00017117FF0E0001D9
:102748007217000E000173170001758FFF0E00014C
:102758007417FF0E00017517000E00017617000EA2
:10276800256E000E266E000E276E000E286E7F0E58
:102778002A5E2950980F2A5E180E296ED8902536A1
:10278800263627362836000174510001715D000194
:102798007551000172590001765100017359D8A092
:1027A8000DD0000174510001715F000175510001E5
:1027B800725B000176510001735B25800001D8909F
:1027C800713772377337292ED9D72AAE17D02A50C6
:1027D800800A970FD8B00AD0000E0001716F000E62
:1027E800726F000E736F000E746F1200D89028324B
:1027F8002732263225322A3EF9D716D0170E2A64F8
:1028080010D0000E0001716F000E726F000E736F12
:10281800000E746F1200D8902536263627362836D3
:102828002A062A50D8A4F7D725C071F026C072F01E
:1028380027C073F028C074F0120000017335743596
:10284800276E2750D8A40AD0000E0001716F000E21
:10285800726F000E736F000E746F120000017635F0
:102868007735266E2650D8A40AD0000E0001716F65
:10287800000E726F000E736F000E746F120000016D
:10288800738FFF0E00017117FF0E7217FF0E73177B
:10289800000E74170001768FFF0E00017417FF0EEB
:1028A8007517FF0E7617000E7717000E226E000EB2
:1028B800236E000E246E000E256E7F0E275E2650B6
:1028C800A00F275E200E266ED89022362336243697
:1028D8002536000174510001715D00017551000138
:1028E80072590001765100017359000177510001B6
:1028F8007459D8A011D0000174510001715F000112
:1029080075510001725B000176510001735B000193
:1029180077510001745B22800001D89071377237BB
:1029280073377437262ED0D727AE17D02750800A92
:102938009F0FD8B00AD0000E0001716F000E726FA1
:10294800000E736F000E746F1200D8902532243277
:1029580023322232273EF9D716D01F0E276410D013
:10296800000E0001716F000E726F000E736F000E83
:10297800746F1200D890223623362436253627065F
:102988002750D8A4F7D722C071F023C072F024C012
:1029980073F025C074F012007FC02AF02B6A2C6AED
:1029A80000017E352A3601E32B802A500001836F0F
:1029B80000018351D8A40AD0000E00017D6F000EDB
:1029C80000017E6F000E00017F6F120082C02AF0A6
:1029D8002B6A2C6A000181352A3601E32B802A50A4
:1029E8000001886F00018851D8A40AD0000E0001A8
:1029F8007D6F000E00017E6F000E00017F6F1200D8
:102A0800000188517B0F000183277FC088F00001F7
:102A180082510001881B800E0001881700017E8FFB
:102A28000001818FFF0E00018017FF0E0001811742
:102A3800000E00018217000E0001846F000E0001D5
:102A4800856F000E0001866F070E0001876F000179
:102A58007DA10CD000018051000184270001815123
:102A68000001852300018251000186230001D890CE
:102A78007F337E337D330001D890803781378237AA
:102A88000001872FE4D7090E0001876F00017DA19F
:102A98000CD0000180510001842700018151000100
:102AA800852300018251000186230001D8907F33DD
:102AB8007E337D330001D89086338533843300011B
:102AC800872FE4D784C071F085C072F086C073F098
:102AD80083C074F088C075F044EC17F071C07DF0C5
:102AE80072C07EF073C07FF0120092C094F00001B3
:102AF800956B966B000191350001943701E3958140
:102B08000001945100019E6F00019E51D8A40AD083
:102B1800000E0001906F000E916F000E926F000E74
:102B2800936F1200170E0001946F90C095F091C03A
:102B380096F092C097F0000194290001986F05D093
:102B48000001D8909733963395330001982FF8D722
:102B5800000195510001996F0001918FFF0E00014E
:102B68009017FF0E00019117000E00019217000147
:102B7800905100019A6F0001915100019B6F000173
:102B8800925100019C6F00019D6B8E0E00019E5FAB
:102B980000019EAF1AD000019E51800A8F0FD8B055
:102BA8000AD0000E0001906F000E916F000E926F18
:102BB800000E936F12000001D8909D339C339B3315
:102BC8009A3300019E3FF7D71BD0170E00019E6570
:102BD80012D0000E0001906F000E916F000E926FE0
:102BE800000E936F12000001D8909A379B379C37DC
:102BF8009D3700019E0700019E510001D8A4F3D71C
:102C0800000199510001D8B409D000019D1F9C1FF3
:102C18009B1F9A6D000E9B239C239D239AC090F0C6
:102C28009BC091F09CC092F09DC093F012007BC0B5
:102C380026F0276A286A00017A35263601E32780BC
:102C480026500001836F00018351D8A40AD0000EDA
:102C58000001796F000E00017A6F000E00017B6F92
:102C680012007EC026F0276A286A00017D352636C4
:102C780001E3278026500001846F00018451D8A405
:102C88000AD0000E0001796F000E00017A6F000E65
:102C980000017B6F1200000E0001806F000E000122
:102CA800816F000E0001826F00018451890F0001BD
:102CB800835F7BC084F000017E510001841B800E7D
:102CC8000001841700017A8FFF0E00017917FF0EAB
:102CD80000017A17000E00017B1700017D8FFF0E9F
:102CE80000017C17FF0E00017D17000E00017E1702
:102CF800180E00017F6F0001D89080378137823726
:102D080000017C510001795D00017D5100017A5973
:102D180000017E5100017B59D8A00ED000017C51E2
:102D28000001795F00017D5100017A5B00017E514D
:102D380000017B5B000180810001D89079377A37E8
:102D48007B3700017F2FD7D780C071F081C072F028
:102D580082C073F083C074F084C075F044EC17F03F
:102D680071C079F072C07AF073C07BF01200000E67
:102D78000001716F010E0001726F000E0001746F87
:102D8800000E736F000E0001766F800E756F94EC65
:102D98001DF0000E0001716F010E0001726F9E0E92
:102DA8000001736F7F0E0001746F62EC1DF0800EDE
:102DB8000001716F010E0001726F000E0001746F47
:102DC800000E736F000E0001766F400E756F94EC65
:102DD8001DF0800E0001A56F010E0001A66F6B0E9D
:102DE8000001A76F7F0E0001A86FD9C0A9F0DAC053
:102DF800AAF0DBC0ABF0D2C0ACF0D3C0ADF0D4C009
:102E0800AEF0D5C0AFF0D6C0B0F0D7C0B1F0D8C0E2
:102E1800B2F055EC00F0000E0001716F010E0001D8
:102E2800726F800E0001736F010E0001746F5CEC0D
:102E38001CF0000E0101C16F000EC06F0ED0000E15
:102E48000101C025D96E010E0101C121DA6EDF50E2
:102E58004CEC0CF00101C04BC12B000E0001716F4E
:102E6800010E0001726FBEEC1BF0000171510101EF
:102E7800C05D000172510101C159D8B01200DFD7FD
:102E8800000174510001D8B408D00001715100014B
:102E9800721100017311D8A411D0000E0001716FD6
:102EA800000E0001726F000E0001736F1200000126
:102EB800742B0001D890733372337133000E000104
:102EC8007115226E000E00017215236EFE0E0001B0
:102ED8007315246E225023102410D8B411D0E7D7CC
:102EE8000001742B010E00017127000E00017223EE
:102EF800000E000173230001D890733372337133CD
:102F0800000E00017115226E000E00017215236E6D
:102F1800FF0E00017315246E225023102410D8B41C
:102F280008D0DED7000174070001D89071377237D6
:102F38007337000172BF04D0020E00017461F2D72A
:102F4800000174B102D00001729F0001D89074335F
:102F58000001745100017313000175510001D8B4C8
:102F680002D00001738F71C071F072C072F073C02B
:102F780073F01200000E0001A16F000E0001A26F95
:102F8800000E0001A36F000E0001A46F000E0001E7
:102F9800A56F000E0001A66FC284C296C298C29A9D
:102FA800C29CC2809E9CC2829EACFED7C3CF76F0E4
:102FB800C4CF77F0F5EC1DF076C0A1F077C0A2F091
:102FC80078C0A3F09E9CC290A1C07DF0A2C07EF004
:102FD800A3C07FF0330E0001806F030E0001816FE4
:102FE8003B0E0001826FD0EC14F07DC0A4F07EC0CF
:102FF800A5F07FC0A6F0A4C07DF0A5C07EF0A6C055
:103008007FF0000E0001806F800E0001816F3F0E7F
:103018000001826FD0EC14F07DC0A4F07EC0A5F052
:103028007FC0A6F0A4C090F0A5C091F0A6C092F011
:1030380079EC15F090C09FF091C0A0F01200000E3E
:103048000001A16F000E0001A26F000E0001A36F26
:10305800000E0001A46F000E0001A56F000E000114
:10306800A66FC294C296C288C28AC29CC2809E9C25
:10307800C2829EACFED7C3CF76F0C4CF77F0F5EC12
:103088001DF076C0A1F077C0A2F078C0A3F09E9C96
:10309800C290A1C07DF0A2C07EF0A3C07FF0330E25
:1030A8000001806F030E0001816F3B0E0001826FEB
:1030B800D0EC14F07DC0A4F07EC0A5F07FC0A6F0CF
:1030C800A4C07DF0A5C07EF0A6C07FF0000E000170
:1030D800806F800E0001816F3F0E0001826FD0EC7F
:1030E80014F07DC0A4F07EC0A5F07FC0A6F0A4C0F7
:1030F80090F0A5C091F0A6C092F079EC15F090C0C0
:103108009FF091C0A0F01200000E00018C6F000E1D
:1031180000018D6F000E00018E6F000E00018F6F91
:10312800000E0001906F000E0001916FC294C296CC
:10313800C298C29AC29CC2809E9CC2829EACFED794
:10314800C3CF76F0C4CF77F0F5EC1DF076C08CF0E5
:1031580077C08DF078C08EF09E9CC2908CC07DF0B8
:103168008DC07EF08EC07FF0330E0001806F030E9D
:103178000001816F3B0E0001826FD0EC14F07DC01E
:103188008FF07EC090F07FC091F08FC07DF090C02E
:103198007EF091C07FF0660E0001806FB60E0001D0
:1031A800816F400E0001826FD0EC14F07DC08FF06B
:1031B8007EC090F07FC091F08FC089F090C08AF0F7
:1031C80091C08BF01200000173AF19D071C022F0CA
:1031D80072C023F073C024F0221E231E241E222A4C
:1031E800000E23222422000E22240001716F000EFB
:1031F80023200001726F800E24200001736F0001EC
:1032080076AF19D074C022F075C023F076C024F0D0
:10321800221E231E241E222A000E23222422000EF0
:1032280022240001746F000E23200001756F800EA8
:1032380024200001766F000E0001711B000E0001B2
:10324800721B800E0001731B000E0001741B000E20
:103258000001751B800E0001761B000174510001EE
:10326800715D00017551000172590001765100012C
:103278007359D8B002D0D8901200D88012000F012C
:10328800428F0F0142990F01428B0F01428D080EA8
:10329800C16EAF0EC06E928092829294928692888E
:1032A800928A0F0138810F0138830F0138850F0189
:1032B80038970F01388B89908992899489968998D3
:1032C800899A93809392939493969398939A939CC4
:1032D800939E0F0139810F0139930F0139950F0121
:1032E80039970F01399B8A908A928A948A968A988C
:1032F8008A9A95909592959495969598959A959C75
:10330800959E0F013B910F013B930F013B950F01D8
:103318003B970F013B990F013B9B0F013B9D0F0111
:103328003B9F8C908C928C948C968C988C9A8C9CCD
:103338008C9E1200000E226E000E236E000E246E6C
:10334800000E256E000175510001761100017711FC
:1033580000017811D8B43DD0010E266E07D00001C7
:10336800D8907537763777377837262A000178AFBF
:10337800F6D7D890223623362436253600017551E3
:103388000001715D00017651000172590001775109
:10339800000173590001785100017459D8A011D067
:1033A800000175510001715F000176510001725BE7
:1033B800000177510001735B000178510001745BD3
:1033C80022800001D8907833773376337533262EF0
:1033D800D0D722C071F023C072F024C073F025C08A
:1033E80074F01200000E256E000178AF07D00001BE
:1033F800776D781FD8B0782B010E256E000176AF57
:1034080007D00001756D761FD8B0762B010E251AEE
:10341800000E276E000E266E00017751000178110C
:10342800D8B427D0010E246E05D00001D890773784
:103438007837242A000178AFF8D7D890263627366F
:10344800000177510001755D00017851000176593E
:10345800D8A009D0000177510001755F00017851AB
:103468000001765B26800001D89078337733242ECC
:10347800E4D72550D8B404D0266C271ED8B0272A04
:1034880026C075F027C076F01200000E236E0001EA
:1034980072AF07D00001716D721FD8B0722B010E88
:1034A800236E000174AF05D00001736D741FD8B08E
:1034B800742B0001735100017411D8B423D0010E8C
:1034C800226E05D00001D89073377437222A000184
:1034D80074AFF8D7000173510001715D0001745198
:1034E80000017259D8A008D0000173510001715F22
:1034F800000174510001725B0001D890743373337A
:10350800222EE8D72350D8B405D00001716D721F60
:10351800D8B0722B71C071F072C072F01200000145
:103528007D5100017E1100017F1100018011D8B486
:1035380037D0010E276E07D00001D8907D377E372F
:103548007F378037272A000180AFF6D700017D51E9
:103558000001795D00017E5100017A5900017F5117
:1035680000017B590001805100017C59D8A010D07E
:1035780000017D510001795F00017E5100017A5BF5
:1035880000017F5100017B5B0001805100017C5BE1
:103598000001D89080337F337E337D33272ED6D7F2
:1035A80079C079F07AC07AF07BC07BF07CC07CF07F
:1035B8001200040088EC18F089C0E3F08AC0E4F037
:1035C8008BC0E5F0BEEC17F09FC0DFF0A0C0E0F0C4
:1035D80023EC18F09FC0E1F0A0C0E2F024EC06F064
:1035E8009FC0DCF0A0C0DDF0A1C0DEF00001E5BFA7
:1035F80017D0E3C0D2F0E4C0D3F0E5C0D4F0DFC008
:10360800D5F0E0C0D6F0E1C0D7F0E2C0D8F0DCC019
:10361800D9F0DDC0DAF0DEC0DBF0BBEC16F007D085
:10362800000E0001786F020E776F7EEC1CF0000E22
:103638000001766F030E756FE0EC1CF0BAD7000E30
:10364800076E000E086E000E096E04500510061075
:10365800D8B423D0010E0A6E05D0D89004360536AA
:1036680006360A2A06AEF9D7D8900736083609363C
:103678000450015C0550025806500358D8A007D0E2
:103688000450015E0550025A0650035A0780D8902C
:103698000632053204320A2EE7D707C001F008C007
:1036A80002F009C003F012008E0E296E07D0000147
:1036B800D8907933783377337633292A000E00018E
:1036C8007615256E000E00017715266E000E000196
:1036D8007815276EFF0E00017915286E25502610E3
:1036E80027102810D8A4E3D776C071F077C072F0FD
:1036F80078C073F029C074F0000E0001756F44ECB7
:1037080017F071C076F072C077F073C078F01200CD
:10371800000E2A6E000E296E1ED015EC1DF017D073
:103728002FEC1DF014D0295000017325276E2A5064
:1037380000017421286E27C0F6FF28C0F7FF080093
:10374800F5502D0AD8B4ECD7030AD8B4E6D74DEC17
:103758001EF0294A2A2A73C071F074C072F0BEECB8
:103768001BF000017151295C000172512A58D8B030
:103778001200D9D771C024F072C025F002D0244AB3
:10378800252A24C0F6FF25C0F7FFF86A050EF7645E
:1037980003D00800F55005D0F6CFE9FFF7CFEAFFD0
:1037A800EF500009D8A4EBD771C022F072C023F003
:1037B800221E231E224A232A245022240001716F2C
:1037C800255023200001726F1200000E276E000E94
:1037D800266E18D0000E296E000E286E29BE06D05F
:1037E80029500EE10A0E285CD8B00AD0000E00015C
:1037F800726F640E716FADEC1DF0284A292AEED75E
:10380800264A272A00017351265C2750800A256E14
:1038180000017451800A2558D8B01200DBD7000186
:10382800A2510001A3110001A411D8B409D0000EBF
:103838000001A21B000E0001A31B800E0001A41BA7
:103848009FC093F0A0C094F0A1C095F0A2C096F0DC
:10385800A3C097F0A4C098F09AEC0FF093C09FF023
:1038680094C0A0F095C0A1F01200C00EF66E3C0EF8
:10387800F76E000EF86E00EE39F010EE05F0090054
:10388800F5CFEEFFE550E150FAE102EE00F0C80E88
:10389800EE6AE806FDE100EE2DF00C0EEE6AE80691
:1038A800FDE13E903E92000EF86E000155EF1EF0CD
:1038B80071C022F072C023F002D0224A232A22C00B
:1038C800D9FF23C0DAFFDF50D8B406D0F6D7224A92
:1038D800232A0001734B742B73C0D9FF74C0DAFF1D
:1038E80022C0E1FF23C0E2FFDFCFE7FFE750D8B4F3
:1038F8001200EDD7000E00017B6F000E7A6F0AD020
:10390800000E0001766F3C0E756FE0EC1CF00001B4
:103918007A4B7B2B0001775100017A5D00017B51C6
:10392800800A0001796F00017851800A00017959F5
:10393800D8B01200E5D7000E246E010E236E9296C1
:1039480080965D0EE82EFED700F080860B0EE82EDE
:10395800FED700D0928680A603D0226A222A01D000
:10396800226A2250236E246A460EE82EFED723C010
:1039780071F024C072F01200000E256E000177AFBE
:1039880007D00001766D771FD8B0772B010E256E12
:1039980076C071F077C072F00001736B8E0E000173
:1039A800746F25C075F044EC17F071C076F072C0E2
:1039B80077F073C078F01200000E2C6E000E2B6E9C
:1039C80009D0000E0001746F3C0E736FE9EC1BF018
:1039D8002B4A2C2A000175512B5C2C50800A2A6E28
:1039E80000017651800A2A58D8B01200EAD7929678
:1039F8000001715100017211D8B409D0809600D02D
:103A080000D000F08086090EE82EFED712008096BE
:103A18000B0EE82EFED700D0808600D000D000F034
:103A2800120083828386000E266E000E256E26BE47
:103A380006D026500DE14B0E255CD8B009D01DEC00
:103A48001EF0254A262A26BEFAD7265001E1F3D7CA
:103A580083928396120083828386000E266E000E60
:103A6800256E26BE06D026500DE1E10E255CD8B0A5
:103A780009D01DEC1EF0254A262A26BEFAD7265064
:103A880001E1F3D7839283961200000E246E000E94
:103A9800236E92968096808600D080A603D0226AF4
:103AA800222A01D0226A2250236E246A0A0EE82EA6
:103AB800FED723C071F024C072F0120071C022F04A
:103AC80072C023F005D0224A232A0001734B742BBD
:103AD80073C0F6FF74C0F7FF22C0D9FF23C0DAFF16
:103AE8000800F5CFDFFFDF50D8B41200ECD7000193
:103AF800795100017B03F3CF28F0F4CF29F00001BE
:103B0800795100017C03F350292600017A51000104
:103B18007B03F350292628C079F029C07AF01200D7
:103B280071C022F072C023F008D022C0D9FF23C090
:103B3800DAFF73C0DFFF224A232A00017507D8A0E5
:103B4800760700017529F1E100017629D8B4120041
:103B5800ECD7000E246E000E236E06D0A60EE82EBB
:103B6800FED700D0234A242A00017151235C245037
:103B7800800A226E00017251800A2258D8B01200C1
:103B8800EDD7000E246E000E236E06D0100EE82E20
:103B9800FED700D0234A242A00017151235C245007
:103BA800800A226E00017251800A2258D8B0120091
:103BB800EDD7000171510001721100017311D8B4E1
:103BC80009D0000E0001711B000E0001721B800E4F
:103BD8000001731B71C071F072C072F073C073F092
:103BE800120076C071F077C072F00001736B8E0E10
:103BF8000001746F000E0001756F44EC17F071C07E
:103C080076F072C077F073C078F01200D08ECD9045
:103C1800CD9CCD9ECD9ACD98CD96CD82EC0ECF6E13
:103C2800770ECE6E9D809F809E90CD80F29CF28E06
:103C380012008384000E0001726F050E716FC5ECCF
:103C48001DF08394000E0001726F050E716FC5ECB4
:103C58001DF01200246E000E236E3A0E246005D06B
:103C68002F0E246402D0010E236E23C022F02230CE
:103C78001200020E0001726F0D0E716FADEC1DF097
:103C88001200000E0001726FE10E716FADEC1DF0B5
:103C98001200000E0001726F4B0E716FADEC1DF03B
:103CA80012005BEC1EF0DDEC1AF053EF00F043EC71
:0D3CB80019F00AEC1EF01200007D00007DE6
:107EF40000010000000A00000064000000E8030024
:107F04000010270000A086010040420F00809698D0
:107F14000000E1F50500CA9A3B00803F00204100C3
:107F2400C842007A44401C4650C3472474499718F9
:107F34004BBCBE4C6B6E4E03155079AD60F349716A
:107F440000803FCDCC3DD7233C12833AB7D138C60D
:107F54002737388635C0D633CC2B32708930E7DBEF
:107F64002EE53C1E42A20D20252E316620252E3101
:107F7400662025332E30642025332E3064002D2DC9
:107F84002E2E2D2D002E2D2E2D2E2D002D2E2E2E6F
:107F94002E2D002E2E2D2D2E2E00454153415432D0
:107FA400002D2D2D2D2D002E2D2D2D2D002E2E2D81
:107FB4002D2D002E2E2E2D2D002D2D2D2D2E002D70
:107FC4002E2E2D2E002D2D2D2E2E002D2D2E2E2E2F
:107FD400002D2E2E2E2E002E2E2E2E2E002D2E2D4A
:107FE4002D002D2D2E2D002D2E2E2D002E2D2D2E3F
:0C7FF400002D2E2D2E002E2D2E2E000014
:020000040020DA
:08000000FFFFFFFFFFFFFFFF00
:020000040030CA
:0E000000FF21193FFF8581FF0FC00F400F4009
:00000001FF
