:0400000053EF00F0CA
:060008004682B7EF0FF085
:100018004680D8CF60F0E8CF61F0E0CF62F0FACF49
:1000280063F0FBCF64F0E9CF65F0EACF66F0E1CF8B
:1000380067F0E2CF68F0D9CF69F0DACF6AF0F3CF92
:100048006BF0F4CF6CF0F6CF6DF0F7CF6EF0F8CF21
:100058006FF0F5CF70F070C0F5FF6FC0F8FF6EC09D
:10006800F7FF6DC0F6FF6CC0F4FF6BC0F3FF6AC00A
:10007800DAFF69C0D9FF68C0E2FF67C0E1FF66C068
:10008800EAFF65C0E9FF64C0FBFF63C0FAFF62C016
:10009800E0FF61C0E8FF60C0D8FF46901000C3EFE2
:1000A8001DF0E3EF07F0250E0001CA19D8B438D0C7
:1000B800000120EE02F0A851D926A951DA22DE501B
:1000C800DE10D8B416D0000120EE02F0A851D926CF
:1000D800A951DA2202D8E3EF07F00500FA6EDE50E4
:1000E800FD6EDE50FE6EF850FF6EFA500001CA51E8
:1000F8001200A8C0D9FFA9C0DAFFDECFAEF0DDCF6D
:10010800AFF0AEC0D9FFAFC0DAFFCAC0DFFFA8C0EA
:10011800D9FFA9C0DAFFDE2A000EDD22E3EF07F0DF
:10012800000E0001BA6F000EB96F000E0001B86F23
:10013800000EB76FAAC0F6FFABC0F7FF0800F55076
:10014800AFEC1FF0D8A040D0000E0001BA6F000E2F
:10015800B96FB9C079F0BAC07AF0000E00017C6FAF
:100168000A0E7B6F03EC1FF079C0B9F07AC0BAF0C1
:10017800D00E0001AE6FFF0E0001AF6FAAC0F6FFF0
:10018800ABC0F7FF0800F5500001B06FB16B00017C
:10019800AE510001B0270001AF510001B1230001A9
:1001A800B0510001B9270001B1510001BA23000183
:1001B800AA4BAB2BAAC0F6FFABC0F7FF0800F5505F
:1001C800AFEC1FF0D8B0C5D7AAC0F6FFABC0F7FF99
:1001D8000800F5502E0AD8A439D00001B88D0001C6
:1001E800AA4BAB2B000E0001C96F000EC86F23D0BD
:1001F800C8C079F0C9C07AF0000E00017C6F0A0E01
:100208007B6F03EC1FF0AAC0F6FFABC0F7FF080036
:10021800F55000017927000E00017A23D00E000165
:1002280079250001C86FFF0E00017A210001C96F0E
:100238000001AA4BAB2BAAC0F6FFABC0F7FF080022
:10024800F550AFEC1FF0D8A00CD0D2D7000E0001AB
:10025800C96F000EC86F0001B88903D00001B885C6
:100268001AD0AAC0F6FFABC0F7FF0001AA4BAB2B10
:100278000800F5CFCAF00001CA51000AD8B4F2EF5D
:1002880007F0640AD8B407D0020AD8B4E7D70F0A2F
:10029800D8A4E3EF07F0070E0001B815D8B4F6EFBD
:1002A80005F00001B8A905D0000E0001C96F060EBF
:1002B800C86FACC0D9FFADC0DAFFDFCFAEF0030E18
:1002C800DE26DFCFAFF0000EDD22AEC0D9FFAFC013
:1002D800DAFFDECFC5F0DECFC6F0DDCFC7F0000114
:1002E800C7AF11D0C5C01AF0C6C01BF0C7C01CF0FC
:1002F8009DEC1FF01AC0C5F01BC0C6F01CC0C7F0AB
:10030800030E0001B713000E0001C06F000EBF6F8F
:100318000001C5510001C6110001C711D8B493D01E
:10032800820E0001AE6FFF0E0001AF6FC5C0B0F0C6
:10033800C6C0B1F0C7C0B2F0C8C0B3F0100E06D046
:100348000001D890B333B233B133B033E82EF8D7C5
:100358000001B0510001AE250001BF6F000E000181
:10036800AF210001C06F0001BF07D8A0C007BFC000
:1003780079F0C0C07AF0000E00017C6F030E7B6F2D
:1003880003EC1FF079C0BFF07AC0C0F0BFC071F0B5
:10039800C0C072F0000E0001746F0A0E736F55EC46
:1003A8001AF071C0BFF072C0C0F00001C0AF04D035
:1003B8000001BF07D8A0C0070001BF510008C4EC66
:1003C8000BF08CC0C1F08DC0C2F08EC0C3F0C1C0AC
:1003D8007DF0C2C07EF0C3C07FF0C5C080F0C6C04B
:1003E80081F0C7C082F017EC16F07DC0C1F07EC066
:1003F800C2F07FC0C3F0C1C01AF0C2C01BF0C3C0B6
:100408001CF0000E1D6E800E1E6E3F0E1F6E69ECF6
:100418001BF0D8B005D00001BF07D8A0C00713D083
:10042800C1C01AF0C2C01BF0C3C01CF0000E1D6E84
:10043800200E1E6E410E1F6E69EC1BF0D8A003D073
:100448000001BF4BC02B0001C9BF08D00001C95132
:100458001DE10D0E0001C85DD8B018D0C5C096F0DA
:10046800C6C097F0C7C098F00001C85154EC11F00D
:100478008CC099F08DC09AF08EC09BF0A4EC12F05D
:1004880096C0C5F097C0C6F098C0C7F00001C0BFBD
:1004980008D00001C0512AE10A0E0001BF5DD8B0A2
:1004A80025D00001C5510001C6110001C711D8B4FB
:1004B8005FD0C5C093F0C6C094F0C7C095F015ECE6
:1004C80018F00001935100019411000195110001E9
:1004D8009611D8A44DD00001C0BF4AD00001C05128
:1004E80005E1020E0001BF5DD8A042D0C1C01AF0DC
:1004F800C2C01BF0C3C01CF0700E1D6E890E1E6EAC
:10050800400E1F6E69EC1BF0D8B003D00001F70E47
:1005180002D00001F80EBF27FF0EC0230001BF5113
:10052800C4EC0BF08CC0C1F08DC0C2F08EC0C3F01B
:10053800C5C01AF0C6C01BF0C7C01CF0C1C01DF072
:10054800C2C01EF0C3C01FF063EC15F01AC0BBF0A8
:100558001BC0BCF01CC0BDF01DC0BEF0000E0001E9
:10056800C56F000E0001C66F000E0001C76F33D0C3
:10057800C5C093F0C6C094F0C7C095F015EC18F04C
:1005880093C0BBF094C0BCF095C0BDF096C0BEF05F
:10059800C5C0A2F0C6C0A3F0C7C0A4F0BBC071F02C
:1005A800BCC072F0BDC073F0BEC074F096EC1CF015
:1005B80071C0A5F072C0A6F073C0A7F0EAEC1DF0F8
:1005C800A2C0C5F0A3C0C6F0A4C0C7F0000E0001C9
:1005D800C06F000EBF6F010E0001CA6F0A0E000146
:1005E800CA19D8B41ED00001CA51040DD50EF3247F
:1005F800F66E7E0EF420F76E0900F5500001BB5D23
:100608000900F5500001BC590900F5500001BD5919
:100618000900F5500001BE59D8A003D00001CA2B2B
:10062800DDD7CAC0AEF00001AF6BAEBFAF070001A7
:10063800C8510001AE270001C9510001AF230001D4
:10064800BF510001AE270001C0510001AF230001D6
:10065800AE510001B95F0001AF510001BA5B000162
:10066800C8510001C911D8B404D00001B907D8A0F5
:10067800BA07030E0001B7150001AE6F000E0001A6
:10068800B8150001AF6F0001AE510001AF11D8B429
:1006980039D034D0000120EE02F0A851D926A95152
:1006A800DA22DE50DE10D8B414D0000120EE02F0B9
:1006B800A851D926A951DA2201D820D00500FA6E0E
:1006C800DE50FD6EDE50FE6EF850FF6EFA50200EC2
:1006D8001200A8C0D9FFA9C0DAFFDECFAEF0DDCF87
:1006E800AFF0AEC0D9FFAFC0DAFF200EDF6EA8C0F2
:1006F800D9FFA9C0DAFFDE2A000EDD220001B90702
:10070800D8A0BA070001BABF07D00001BA51C2E1A8
:100718000001B905D8B0BED7030E0001B715000116
:10072800AE6F000E0001B8150001AF6F0001AE51A9
:100738000001AF11D8B4A9D0000120EE02F0A851F1
:10074800D926A951DA22DE50DE10D8B414D000011F
:1007580020EE02F0A851D926A951DA2201D895D065
:100768000500FA6EDE50FD6EDE50FE6EF850FF6E2C
:10077800FA502D0E1200A8C0D9FFA9C0DAFFDECFAB
:10078800AEF0DDCFAFF0AEC0D9FFAFC0DAFF2D0EAF
:100798007AD0A8C0D9FFA9C0DAFFDE2A000EDD2270
:1007A80074D0BBC01AF0BCC01BF0BDC01CF0BEC0EA
:1007B8001DF00001CA51040DD50EF324F66E7E0E0D
:1007C800F420F76E0900F5CF1EF00900F5CF1FF0F1
:1007D8000900F5CF20F00A00F5CF21F04FEC1CF00E
:1007E8001AC0C1F01BC0C2F01CC0C3F01DC0C4F0C9
:1007F800C1C076F0C2C077F0C3C078F0C4C079F049
:100808000A0E00017A6F000E7B6F000E7C6F000EDF
:100818007D6FB9EC1BF076C0C1F077C0C2F078C02C
:10082800C3F079C0C4F0000120EE02F0A851D92627
:10083800A951DA22DE50DE10D8B416D0000120EE1D
:1008480002F0A851D926A951DA2201D81ED00500F4
:10085800FA6EDE50FD6EDE50FE6EF850FF6EFA50F6
:100868000001C151300F12000001C151300FA8C062
:10087800D9FFA9C0DAFFDECFAEF0DDCFAFF0AEC052
:10088800D9FFAFC0DAFFDF6E84D70001CA070001C5
:10089800CA29D8B439D085D7000120EE02F0A85172
:1008A800D926A951DA22DE50DE10D8B414D00001BE
:1008B80020EE02F0A851D926A951DA2201D820D079
:1008C8000500FA6EDE50FD6EDE50FE6EF850FF6ECB
:1008D800FA50300E1200A8C0D9FFA9C0DAFFDECF47
:1008E800AEF0DDCFAFF0AEC0D9FFAFC0DAFF300E4B
:1008F800DF6EA8C0D9FFA9C0DAFFDE2A000EDD220C
:100908000001BF07D8A0C0070001C0BF07D0000181
:10091800C051C2E10001BF05D8B0BED70001C9BFB0
:100928000CD00001C95105E1090E0001C85DD8A02D
:1009380004D0080E0001CA6F02D0C8C0CAF0000176
:10094800CA510001C85F000E0001CABFFF0E0001B6
:10095800C95B0001CA510001D8B434D0000120EEAF
:1009680002F0A851D926A951DA22DE50DE10D8B4F7
:1009780014D0000120EE02F0A851D926A951DA229C
:1009880001D820D00500FA6EDE50FD6EDE50FE6EF6
:10099800F850FF6EFA502E0E1200A8C0D9FFA9C059
:1009A800DAFFDECFAEF0DDCFAFF0AEC0D9FFAFC01B
:1009B800DAFF2E0EDF6EA8C0D9FFA9C0DAFFDE2A43
:1009C800000EDD220001CA51C4EC0BF08CC0B4F05B
:1009D8008DC0B5F08EC0B6F0C5C080F0C6C081F03D
:1009E800C7C082F0B4C07DF0B5C07EF0B6C07FF05D
:1009F80017EC16F07DC093F07EC094F07FC095F0A0
:100A080015EC18F093C0BBF094C0BCF095C0BDF0D5
:100A180096C0BEF0A1D0BBC01AF0BCC01BF0BDC0D0
:100A28001CF0BEC01DF00001CA51040DD50EF32400
:100A3800F66E7E0EF420F76E0900F5CF1EF0090061
:100A4800F5CF1FF00900F5CF20F00A00F5CF21F00F
:100A58004FEC1CF01AC0C1F01BC0C2F01CC0C3F0A0
:100A68001DC0C4F0C1C076F0C2C077F0C3C078F032
:100A7800C4C079F00A0E00017A6F000E7B6F000E79
:100A88007C6F000E7D6FB9EC1BF076C0C1F077C0AB
:100A9800C2F078C0C3F079C0C4F0000120EE02F0C3
:100AA800A851D926A951DA22DE50DE10D8B416D0C2
:100AB800000120EE02F0A851D926A951DA2201D866
:100AC80024D00500FA6EDE50FD6EDE50FE6EF85042
:100AD800FF6EFA500001C151300F12000001C151E0
:100AE800300FA8C0D9FFA9C0DAFFDECFAEF0DDCF46
:100AF800AFF0AEC0D9FFAFC0DAFFDF6EA8C0D9FF34
:100B0800A9C0DAFFDE2A000EDD22BBC076F0BCC029
:100B180077F0BDC078F0BEC079F00001CA51040D6D
:100B2800D50EF324F66E7E0EF420F76E0900F5CF8D
:100B38007AF00900F5CF7BF00900F5CF7CF00A00C8
:100B4800F5CF7DF0B9EC1BF076C0BBF077C0BCF0F8
:100B580078C0BDF079C0BEF00001CA070001CA29FB
:100B6800D8B439D058D7000120EE02F0A851D926C0
:100B7800A951DA22DE50DE10D8B414D0000120EEDC
:100B880002F0A851D926A951DA2201D820D00500AF
:100B9800FA6EDE50FD6EDE50FE6EF850FF6EFA50B3
:100BA800300E1200A8C0D9FFA9C0DAFFDECFAEF020
:100BB800DDCFAFF0AEC0D9FFAFC0DAFF300EDF6EC9
:100BC800A8C0D9FFA9C0DAFFDE2A000EDD22000185
:100BD800C807D8A0C9070001C8510001C911D8B475
:100BE800EED1C1D7ACC0D9FFADC0DAFFDFCFAEF0D0
:100BF800020EDE26DFCFAFF0000EDD22AEC0D9FF39
:100C0800AFC0DAFFDECFBBF0DDCFBCF00001000ED5
:100C1800BCBFFF0EBD6FBE6F0001BEAF0CD0030E90
:100C28000001B7130001BE1FBD1FBC1FBB6D000E26
:100C3800BC23BD23BE230001C8510001C911D8A49B
:100C48000DD00001BB510001BC110001BD11000114
:100C5800BE11D8A403D00001C84BC92B010E000156
:100C6800CA6F0A0E0001CA19D8B41ED00001CA51B1
:100C7800040DD50EF324F66E7E0EF420F76E0900EF
:100C8800F5500001BB5D0900F5500001BC59090091
:100C9800F5500001BD590900F5500001BE59D8A012
:100CA80003D00001CA2BDDD7800E0001CABF7F0E1A
:100CB8000001AE6F0001C8510001CA5D0001C951B1
:100CC800800A0001AE59D8B003D0C8C0CAF018D005
:100CD8000001C951800A0001AE6F0001CA5100012C
:100CE800C85D800E0001CABF7F0E0001AE59D8B0A2
:100CF80007D00001CA510001C86FC96BC8BFC90736
:100D08000001B9510001BA11D8B414D0030E000182
:100D1800B7150001AE6F000E0001B8150001AF6FE6
:100D28000001AE510001AF11D8B404D00001B907D9
:100D3800D8A0BA070001B8AD1ED00001B951000112
:100D4800C85D0001C951800A0001AE6F0001BA51A7
:100D5800800A0001AE59D8B009D00001C85100017D
:100D6800B95F0001C9510001BA5B05D0000E00014E
:100D7800BA6F000EB96F800E0001CABF7F0E000166
:100D8800AE6F0001B9510001CA5D0001BA51800A75
:100D98000001AE59D8B00BD00001CA510001B95FAB
:100DA800000E0001CABFFF0E0001BA5B05D0000E9D
:100DB8000001BA6F000EB96F0001B9510001BA11F4
:100DC800D8B43ED0000120EE02F0A851D926A9518E
:100DD800DA22DE50DE10D8B414D0000120EE02F082
:100DE800A851D926A951DA2201D820D00500FA6ED7
:100DF800DE50FD6EDE50FE6EF850FF6EFA50200E8B
:100E08001200A8C0D9FFA9C0DAFFDECFAEF0DDCF4F
:100E1800AFF0AEC0D9FFAFC0DAFF200EDF6EA8C0BA
:100E2800D9FFA9C0DAFFDE2A000EDD220001B907CA
:100E3800D8A0BA070001B9510001BA11D8A4C2D785
:100E4800030E0001B7150001AE6F000E0001B815C2
:100E58000001AF6F0001AE510001AF11D8B4A4D0AA
:100E6800000120EE02F0A851D926A951DA22DE505D
:100E7800DE10D8B414D0000120EE02F0A851D92613
:100E8800A951DA2201D890D00500FA6EDE50FD6E25
:100E9800DE50FE6EF850FF6EFA502D0E1200A8C0FC
:100EA800D9FFA9C0DAFFDECFAEF0DDCFAFF0AEC01C
:100EB800D9FFAFC0DAFF2D0EDF6E6FD0C8C0AEF01D
:100EC800C9C0AFF00001D890AE37AF370001D89055
:100ED800AE37AF37D50E0001AE25F66E7E0EAF21C8
:100EE800F76E0900F5CF1EF00900F5CF1FF00900D5
:100EF800F5CF20F00A00F5CF21F0BBC01AF0BCC036
:100F08001BF0BDC01CF0BEC01DF04FEC1CF01AC099
:100F180076F01BC077F01CC078F01DC079F00A0E7F
:100F280000017A6F000E7B6F000E7C6F000E7D6FE4
:100F3800B9EC1BF000017651300F0001CA6F0001B7
:100F480020EE02F0A851D926A951DA22DE50DE108F
:100F5800D8B415D0000120EE02F0A851D926A95125
:100F6800DA2201D821D00500FA6EDE50FD6EDE507F
:100F7800FE6EF850FF6EFA500001CA511200A8C068
:100F8800D9FFA9C0DAFFDECFAEF0DDCFAFF0AEC03B
:100F9800D9FFAFC0DAFFCAC0DFFFA8C0D9FFA9C018
:100FA800DAFFDE2A000EDD220001C807D8A0C90733
:100FB8000001C82983E10001C929D8A47FD7AAC0A4
:100FC800F6FFABC0F7FF0001AA4BAB2B0800F5CF2B
:100FD800CAF00001CA51D8A457EF00F0000E000172
:100FE800A96F000EA86F1200000E0101B46F000E69
:100FF800B36F000E0101B66F000EB56F000E010150
:10100800B86F000EB76F000E0101BA6F000EB96F0E
:10101800000E0101BC6F000EBB6F000E0101BE6F18
:10102800000EBD6F000E0101C06F000EBF6F000EF5
:101038000101C26F000EC16F000E0101C46F000EE6
:10104800C36F000E0101A36F000EA26F000E010115
:10105800C66F000EC56F000E0101C86F000EC76F86
:10106800000E0101C96F000E0101CA6F000E0101D7
:10107800CB6F000E0101A46F800E0101A56F3F0E1A
:101088000101A66F000E0101CD6F000ECC6FF29E1C
:1010980031EC1EF01A501B10D8B40AD0330E0001E0
:1010A800A26FC60E0001A36FC20E0001A46F12004A
:1010B800000E1D6ECC0E1C6EA2EC14F0000E1D6E00
:1010C800440E1C6EA2EC14F09286F28E000E010102
:1010D800CD6F000ECC6F09D0000E206E010E1F6E72
:1010E80041EC1DF00101CC4BCD2B0101CDBF08D047
:1010F8000101CD5107E1050E0101CC5DD8B002D048
:1011080080A6EAD7050E0101CC190101CD11D8A49A
:101118000AD0660E0001A26FC60E0001A36FC20EB0
:101128000001A46F1200F29E31EC1EF01A501B1041
:10113800D8B40AD09A0E0001A26FC60E0001A36FA0
:10114800C20E0001A46F1200000E1D6ECC0E1C6EA4
:10115800A2EC14F0000E1D6EBE0E1C6EA2EC14F074
:10116800D8EC13F01FC090F120C091F1D8EC13F027
:101178001FC092F120C093F1D8EC13F01FC094F176
:1011880020C095F1D8EC13F01FC096F120C097F15C
:10119800D8EC13F01FC098F120C099F1D8EC13F0E7
:1011A8001FC09AF120C09BF1D8EC13F01FC09CF12E
:1011B80020C09DF1D8EC13F01FC09EF120C09FF114
:1011C800D8EC13F01FC0A0F120C0A1F1F28E000EE0
:1011D8000101C66F000EC56F0101C6BF08D001012D
:1011E800C6514FE1090E0101C55DD8B04AD0000EC5
:1011F8000101C86F000EC76F0101C8BF08D0010107
:10120800C8513BE1080E0101C75DD8B036D0C7C14F
:10121800A5F0D8900101C535D96E0101C635DA6E41
:10122800900ED926010EDA22DECFA6F0DDCFA7F088
:101238000001A52B04D00001A735A733A633000170
:10124800A52FF9D7010E0001A617000EA717D890F1
:101258000101A235D96E0101A335DA6E000ED92637
:10126800010EDA22A6C0DEFFA7C0DDFF0101A24BF6
:10127800A32B0101C74BC82BBFD70101C54BC62BF8
:10128800ABD7000E0101CD6F000ECC6F0101CDBFB1
:1012980008D00101CD5154E1480E0101CC5DD8B010
:1012A8004FD0D8900101CC35D96E0101CD35DA6E19
:1012B800000ED926010EDA22DECFA5F0DDCFA6F08A
:1012C8000101B3510001A5190101C36F0101B45116
:1012D8000001A6190101C46FB5C1B3F1B6C1B4F1DB
:1012E800B7C1B5F1B8C1B6F10101C3510101B919CE
:1012F8000101B76F0101C4510101BA190101B86FA9
:101308000101C3510101BB190101B96F0101C451A8
:101318000101BC190101BA6FBDC1BBF1BEC1BCF16D
:10132800BFC1BDF1C0C1BEF1C1C1BFF1C2C1C0F1F1
:10133800C3C1C1F1C4C1C2F10101CC4BCD2BA6D7A9
:101348000101B3510101B411D8A42AD00101B5514A
:101358000101B611D8A424D00101B7510101B81177
:10136800D8B406D00101B9510101BA11D8A418D0D6
:101378000101BB510101BC11D8A412D00101BD511A
:101388000101BE11D8B406D00101BF510101C0113D
:10139800D8A406D00101C1510101C211D8B40AD0A4
:1013A800660E0001A26FC70E0001A36FC20E0001F6
:1013B800A46F12000101165101011711D8A408D019
:1013C800000E0101A46F800E0101A56F3F0E07D02A
:1013D800000E0101A46F800E0101A56FBF0E01016F
:1013E800A66F000E0001786F000E0001796F410EA4
:1013F80000017A6F02C171F003C172F093EC1EF024
:1014080071C075F072C076F073C077F06FEC17F0AA
:1014180075C099F076C09AF077C09BF0000E000175
:10142800786F800E0001796F410E00017A6F00C15C
:1014380071F001C172F093EC1EF071C075F072C0CA
:1014480076F073C077F06FEC17F075C096F076C041
:1014580097F077C098F0A4EC12F096C0A7F197C067
:10146800A8F198C0A9F1000E0001786F800E000164
:10147800796F400E00017A6F04C171F005C172F0F6
:1014880093EC1EF071C075F072C076F073C077F0FF
:101498006FEC17F075C099F076C09AF077C09BF0A2
:1014A800A7C196F0A8C197F0A9C198F0A4EC12F0D2
:1014B80096C0AAF197C0ABF198C0ACF1000E00013C
:1014C800786F000E0001796F400E00017A6F06C137
:1014D80071F007C172F093EC1EF071C075F072C024
:1014E80076F073C077F06FEC17F075C099F076C09E
:1014F8009AF077C09BF0AAC196F0ABC197F0ACC147
:1015080098F0A4EC12F096C0ADF197C0AEF198C077
:10151800AFF108C171F009C172F093EC1EF071C00F
:1015280099F072C09AF073C09BF0ADC196F0AEC14D
:1015380097F0AFC198F0A4EC12F096C0B0F197C044
:10154800B1F198C0B2F1B0C196F0B1C197F0B2C193
:1015580098F0000E0001806F000E0001816F400EB0
:101568000001826F0AC171F00BC172F093EC1EF09A
:1015780071C07DF072C07EF073C07FF017EC16F07A
:101588007DC099F07EC09AF07FC09BF0A4EC12F069
:1015980096C0C9F197C0CAF198C0CBF1000E0001FE
:1015A800806F000E0001816F410E0001826F0EC135
:1015B80071F00FC172F093EC1EF071C07DF072C033
:1015C8007EF073C07FF017EC16F07DC099F07EC0F6
:1015D8009AF07FC09BF0000E0001806F800E000122
:1015E800816F400E0001826F0CC171F00DC172F065
:1015F80093EC1EF071C07DF072C07EF073C07FF076
:1016080017EC16F07DC096F07EC097F07FC098F07A
:10161800A4EC12F096C0A7F197C0A8F198C0A9F160
:10162800000E0001806F800E0001816F410E0001E5
:10163800826F10C171F011C172F093EC1EF071C08D
:101648007DF072C07EF073C07FF017EC16F07DC09D
:1016580099F07EC09AF07FC09BF0A7C196F0A8C110
:1016680097F0A9C198F0A4EC12F096C0AAF197C01F
:10167800ABF198C0ACF1000E0001806F000E0001C4
:10168800816F420E0001826F12C171F013C172F0B6
:1016980093EC1EF071C07DF072C07EF073C07FF0D5
:1016A80017EC16F07DC099F07EC09AF07FC09BF0D1
:1016B800AAC196F0ABC197F0ACC198F0A4EC12F0B7
:1016C80096C0ADF197C0AEF198C0AFF1000E000121
:1016D800806F800E0001816F420E0001826F14C17D
:1016E80071F015C172F093EC1EF071C07DF072C0FC
:1016F8007EF073C07FF017EC16F07DC099F07EC0C5
:101708009AF07FC09BF0ADC196F0AEC197F0AFC123
:1017180098F0A4EC12F096C0B0F197C0B1F198C05F
:10172800B2F1B0C196F0B1C197F0B2C198F0C9C199
:1017380099F0CAC19AF0CBC19BF0A4EC12F096C004
:10174800C9F197C0CAF198C0CBF1C9C17DF0CAC12F
:101758007EF0CBC17FF0A4C180F0A5C181F0A6C105
:1017680082F017EC16F07DC0C9F17EC0CAF17FC0C7
:10177800CBF1C9C1A2F0CAC1A3F0CBC1A4F0120039
:101788000001926F000192AF24D10001926D000117
:101798009251800A120FD8A0A8D0000E00017C6FC9
:1017A800030E7B6F000E0001746F0A0E736F000E3C
:1017B8001D6E640E1C6E000192511A6E1B6A1ABED1
:1017C8001B06D3EC1CF01AC071F01BC072F055EC6C
:1017D8001AF0090E000171250001796F000E000151
:1017E800722100017A6F03EC1FF0240E00017925A5
:1017F800F66E7F0E00017A21F76E0900F5CF80F0B2
:101808000900F5CF81F00A00F5CF82F0000E000143
:10181800746F640E736F000192510001716F726BE7
:1018280071BF720755EC1AF0120E00017125000104
:10183800796F000E0001722100017A6F000E00011D
:101848007C6F030E7B6F03EC1FF0240E00017925DB
:10185800F66E7F0E00017A21F76E0900F5CF7DF054
:101868000900F5CF7EF00A00F5CF7FF017EC16F0EF
:101878007DC08FF07EC090F07FC091F08FC07DF06A
:1018880090C07EF091C07FF0000E00017C6F030EC7
:101898007B6F000E1D6E0A0E1C6E000192511A6EAF
:1018A8001B6A1ABE1B06D3EC1CF01AC079F01BC0C9
:1018B8007AF003EC1FF0240E00017925F66E7F0EF6
:1018C80000017A21F76E0900F5CF80F00900F5CF05
:1018D80081F00A00F5CF82F017EC16F07DC08CF08D
:1018E8007EC08DF07FC08EF0120000019251800AF8
:1018F800750FD8A05BD0000E0001746F0A0E736FCD
:10190800000192510001716F726B71BF720755EC43
:101918001AF0090E000171250001796F000E00010F
:10192800722100017A6F000E00017C6F030E7B6F3D
:1019380003EC1FF0240E00017925F66E7F0E0001DE
:101948007A21F76E0900F5CF7DF00900F5CF7EF01A
:101958000A00F5CF7FF0000E00017C6F030E7B6F4D
:10196800000E1D6E0A0E1C6E000192511A6E1B6A43
:101978001ABE1B06D3EC1CF01AC079F01BC07AF013
:1019880003EC1FF0240E00017925F66E7F0E00018E
:101998007A21F76E0900F5CF80F00900F5CF81F0C4
:1019A8000A00F5CF82F017EC16F098D70001925193
:1019B800030D240EF324F66E7F0EF420F76E090053
:1019C800F5CF8CF00900F5CF8DF00A00F5CF8EF039
:1019D800120000019251800A120FD8A0A8D0000E60
:1019E80000017C6F030E7B6F000E0001746F0A0EFE
:1019F800736F000E1D6E640E1C6E000192511A6EFC
:101A08001B6A1ABE1B06D3EC1CF01AC071F01BC06F
:101A180072F055EC1AF0090E000171250001796F7A
:101A2800000E0001722100017A6F03EC1FF0FD0E19
:101A380000017925F66E7E0E00017A21F76E090005
:101A4800F5CF80F00900F5CF81F00A00F5CF82F0DC
:101A5800000E0001746F640E736F00019251000153
:101A6800716F726B71BF720755EC1AF0120E00019C
:101A780071250001796F000E0001722100017A6F53
:101A8800000E00017C6F030E7B6F03EC1FF0FD0E50
:101A980000017925F66E7E0E00017A21F76E0900A5
:101AA800F5CF7DF00900F5CF7EF00A00F5CF7FF085
:101AB80017EC16F07DC08FF07EC090F07FC091F0DB
:101AC8008FC07DF090C07EF091C07FF0000E0001C5
:101AD8007C6F030E7B6F000E1D6E0A0E1C6E0001DC
:101AE80092511A6E1B6A1ABE1B06D3EC1CF01AC060
:101AF80079F01BC07AF003EC1FF0FD0E0001792588
:101B0800F66E7E0E00017A21F76E0900F5CF80F09F
:101B18000900F5CF81F00A00F5CF82F017EC16F036
:101B28007DC08CF07EC08DF07FC08EF01200000169
:101B38009251800A750FD8A05BD0000E0001746F17
:101B48000A0E736F000192510001716F726B71BFC1
:101B5800720755EC1AF0090E000171250001796F22
:101B6800000E0001722100017A6F000E00017C6FE7
:101B7800030E7B6F03EC1FF0FD0E00017925F66E56
:101B88007E0E00017A21F76E0900F5CF7DF009007D
:101B9800F5CF7EF00A00F5CF7FF0000E00017C6FD4
:101BA800030E7B6F000E1D6E0A0E1C6E0001925113
:101BB8001A6E1B6A1ABE1B06D3EC1CF01AC079F009
:101BC8001BC07AF003EC1FF0FD0E00017925F66EBC
:101BD8007E0E00017A21F76E0900F5CF80F009002A
:101BE800F5CF81F00A00F5CF82F017EC16F098D700
:101BF80000019251030DFD0EF324F66E7E0EF420C3
:101C0800F76E0900F5CF8CF00900F5CF8DF00A00CA
:101C1800F5CF8EF012000001756F22D1E30E206E11
:101C28007F0E216E0BEC1DF09BD1CB0E206E7F0E2C
:101C3800216E0BEC1DF094D1F00E206E7F0E216EFC
:101C48000BEC1DF08DD1C60E206E7F0E216E0BECB5
:101C58001DF086D1BC0E206E7F0E216E0BEC1DF0A0
:101C68007FD1BF0E206E7F0E216E0BEC1DF078D158
:101C7800BA0E206E7F0E216E0BEC1DF071D1D10EC5
:101C8800206E7F0E216E0BEC1DF06AD1C70E206E00
:101C98007F0E216E0BEC1DF063D1AD0E206E7F0E12
:101CA800216E0BEC1DF05CD1E20E206E7F0E216ED2
:101CB8000BEC1DF055D1F50E206E7F0E216E0BEC4E
:101CC8001DF04ED1A30E206E7F0E216E0BEC1DF081
:101CD80047D1BB0E206E7F0E216E0BEC1DF040D15C
:101CE800A20E206E7F0E216E0BEC1DF039D1EB0E8B
:101CF800206E7F0E216E0BEC1DF032D1E10E206EAE
:101D08007F0E216E0BEC1DF02BD1F10E206E7F0E95
:101D1800216E0BEC1DF024D1CC0E206E7F0E216EAF
:101D28000BEC1DF01DD1A40E206E7F0E216E0BEC66
:101D38001DF016D1E70E206E7F0E216E0BEC1DF004
:101D48000FD18D0E206E7F0E216E0BEC1DF008D189
:101D5800DD0E206E7F0E216E0BEC1DF001D1E60E1C
:101D6800206E7F0E216E0BEC1DF0FAD0DC0E206E7B
:101D78007F0E216E0BEC1DF0F3D0C50E206E7F0E8A
:101D8800216E0BEC1DF0ECD0A00E206E7F0E216EA4
:101D98000BEC1DF0E5D0A60E206E7F0E216E0BEC2D
:101DA8001DF0DED0AC0E206E7F0E216E0BEC1DF008
:101DB800D7D0B20E206E7F0E216E0BEC1DF0D0D066
:101DC8008C0E206E7F0E216E0BEC1DF0C9D0D60E46
:101DD800206E7F0E216E0BEC1DF0C2D0D00E206E4F
:101DE8007F0E216E0BEC1DF0BBD0CA0E206E7F0E4D
:101DF800216E0BEC1DF0B4D0C40E206E7F0E216E48
:101E08000BEC1DF0ADD0B80E206E7F0E216E0BECE2
:101E18001DF0A6D07D0E206E7F0E216E0BEC1DF0FE
:101E28009FD0920E206E7F0E216E0BEC1DF098D085
:101E3800BE0E206E7F0E216E0BEC1DF091D0840E2D
:101E4800206E7F0E216E0BEC1DF08AD08B0E206E5B
:101E58007F0E216E0BEC1DF083D0FFEC1FF080D0BD
:101E680000017551200AD8B4F8D70C0AD8B4D2D7D3
:101E7800010AD8B4EBD7030AD8B4E1D7010AD8B419
:101E8800D7D71F0AD8B480D7010AD8B484D7030A91
:101E9800D8B488D7010AD8B48CD7070AD8B490D751
:101EA800010AD8B494D7030AD8B498D7010AD8B489
:101EB8009CD70F0AD8B4A0D7010AD8B4A4D7060A69
:101EC800D8B4AFD77E0AD8B4A9D6030AD8B4ADD649
:101ED800010AD8B4B1D6070AD8B4B5D6010AD8B41D
:101EE800B9D6030AD8B4BDD6010AD8B4C1D60F0AE8
:101EF800D8B4C5D6010AD8B4C9D6030AD8B4CDD641
:101F0800010AD8B4D1D6070AD8B4D5D6010AD8B4AC
:101F1800D9D6030AD8B4DDD6010AD8B4E1D61F0A47
:101F2800D8B4E5D6010AD8B4E9D6030AD8B4EDD6B0
:101F3800010AD8B4F1D6070AD8B4F5D6010AD8B43C
:101F4800F9D6030AD8B4FDD6010AD8B401D70F0AC6
:101F5800D8B405D7010AD8B409D7030AD8B40DD71D
:101F680006EC20F01200FACF06F0FBCF07F0E9CF1D
:101F780008F0EACF09F0E1CF0AF0E2CF0BF0D9CFB1
:101F88000CF0DACF0DF0F3CF0EF0F4CF0FF0F6CF60
:101F980010F0F7CF11F0F8CF12F0F5CF13F0000ED4
:101FA800196E000E186E000E156E000E146E000EDF
:101FB800176E000E166E9EA202D09E9253D19EA05E
:101FC80051D1EC0ECF6E770ECE6E83BA03D0016A74
:101FD800012A01D0016A013A014683500118DF0B3A
:101FE8000118836E3C4A3D2A320E3C183D10D8B485
:101FF80009D00A0E3C183D10D8A415D03E043F1055
:10200800D8A411D083B803D0016A012A01D0016A8B
:10201800013A83500118EF0B0118836E0400000E7B
:102028003D6E000E3C6EC294C296C288C29AC29C93
:10203800C2809E9CC2829EACFED7C3CF18F0C4CF8C
:1020480019F09E9CC2904050D8B402D0364A372A24
:102058002EC030F02FC031F01850445C195045584C
:10206800D8B018D0000E2F6E010E2E6E384A392ABD
:10207800395004E1C80E385CD8A098D08182010E8E
:10208800406E000E376E000E366E000E396E000E72
:10209800386E8CD0000E2F6E000E2E6E000E396E2C
:1020A800000E386EE00E365C2E0E3758D8A003D0DE
:1020B8008192000E406E800E32183310D8A40ED0D4
:1020C800D8903A34D96E3B34DA6E000ED926020E17
:1020D800DA22DECF14F0DDCF15F004D0000E156E35
:1020E800000E146ED8903A34D96E3B34DA6E000E76
:1020F800D926020EDA2218C0DEFF19C0DDFF3350E0
:1021080006E1800E325CD8B002D0324A332A3A4A0D
:102118003B2A800E3A183B10D8A404D0000E3B6E20
:10212800000E3A6E14C001F015C002F0011E021E26
:10213800014A022A3450012635500222185001243F
:10214800346E19500220356E800E32183310D8A420
:102158002DD034C041F035C042F0436A070E016EFD
:1021680041C002F042C003F043C004F00128056EEC
:1021780004D0D890043203320232052EFAD702C0B6
:1021880041F003C042F004C043F041C001F042C036
:1021980002F0D89001360236000E0124446E080E73
:1021A8000220456E000E456E320E446E2A502B10EA
:1021B800D8A40CD02E042F10D8A408D0000E296E55
:1021C800010E286E000E2B6E010E2A6E2850291063
:1021D800D8B443D030503110D8A408D02E042F10D2
:1021E800D8A404D0000E176E010E0BD030043110A5
:1021F800D8A409D02E502F10D8A405D0000E176EE1
:10220800000E166E0CD0000E176E020E166E000E23
:102218002B6E000E2A6E000E296E000E286E020E1E
:1022280016181710D8B403D0264A272A12D0200E21
:1022380026182710D8A409D03E503F10D8A402D0A1
:10224800010E01D0000E3E6E3F6A000E276E000E92
:10225800266E000E296E000E03D0000E296E010EA8
:10226800286E9E9013C0F5FF12C0F8FF11C0F7FF4B
:1022780010C0F6FF0FC0F4FF0EC0F3FF0DC0DAFF69
:102288000CC0D9FF0BC0E2FF0AC0E1FF09C0EAFF9A
:1022980008C0E9FF07C0FBFF06C0FAFF469211001D
:1022A8000001956F6D0E00019565B6D0000E000116
:1022B8007C6F030E7B6F000E0001746F0A0E736F44
:1022C800000E1D6E640E1C6E95C01AF01B6AD3ECCE
:1022D8001CF01AC071F01BC072F055EC1AF0090E10
:1022E800000171250001796F000E000172210001C3
:1022F8007A6F03EC1FF0240E00017925F66E7F0E2D
:1023080000017A21F76E0900F5CF80F00900F5CFBA
:1023180081F00A00F5CF82F0000E0001746F640EA0
:10232800736F95C071F00001726B55EC1AF0120EC4
:10233800000171250001796F000E00017221000172
:102348007A6F000E00017C6F030E7B6F03EC1FF0A9
:10235800240E00017925F66E7F0E00017A21F76EB2
:102368000900F5CF7DF00900F5CF7EF00A00F5CF22
:102378007FF017EC16F07DC092F07EC093F07FC01E
:1023880094F0000E00017C6F030E7B6F000E1D6E33
:102398000A0E1C6E95C01AF01B6AD3EC1CF01AC00A
:1023A80079F01BC07AF003EC1FF0240E00017925A8
:1023B800F66E7F0E00017A21F76E0900F5CF80F0E6
:1023C8000900F5CF81F00A00F5CF82F092C07DF0C8
:1023D80093C07EF094C07FF017EC16F07DC08FF0AC
:1023E8007EC090F07FC091F08FC07DF090C07EF0ED
:1023F80091C07FF0000E0001806F000E0001816F18
:102408003F0E0001826F17EC16F07DC08CF07EC085
:102418008DF07FC08EF012000A0E000195656CD019
:10242800000E00017C6F030E7B6F000E1D6E0A0EFE
:102438001C6E95C01AF01B6AD3EC1CF01AC079F018
:102448001BC07AF003EC1FF0240E00017925F66E0C
:102458007F0E00017A21F76E0900F5CF80F00900A0
:10246800F5CF81F00A00F5CF82F0000E0001746FFD
:102478000A0E736F95C071F00001726B55EC1AF07B
:10248800090E000171250001796F000E000172210B
:1024980000017A6F000E00017C6F030E7B6F03EC66
:1024A8001FF0240E00017925F66E7F0E00017A21B7
:1024B800F76E0900F5CF7DF00900F5CF7EF00A0030
:1024C800F5CF7FF017EC16F07DC092F07EC093F048
:1024D8007FC094F092C07DF093C07EF094C07FF0EE
:1024E800000E0001806F000E0001816F3F0E000199
:1024F800826F17EC16F089D700019551030D240E51
:10250800F324F66E7F0EF420F76E0900F5CF7DF008
:102518000900F5CF7EF00A00F5CF7FF0000E00012C
:10252800806F000E0001816F3F0E0001826F17EC73
:1025380016F07DC08CF07EC08DF07FC08EF012004A
:1025480098C09CF000019D6B9E6B000197350001BF
:102558009C3701E39D8100019C510001A16F9BC044
:102568009CF000019D6B9E6B00019A3500019C3721
:1025780001E39D8100019C510001A06F0001A15160
:102588000001D8B411D00001A0510001A15DD8B05C
:1025980012D00001A15100080001A02500019C6F84
:1025A800180E00019C6507D099C096F09AC097F064
:1025B8009BC098F012000001A0510001D8B411D0BE
:1025C8000001A1510001A05DD8B012D00001A051B6
:1025D80000080001A12500019C6F180E00019C65F0
:1025E80007D096C096F097C097F098C098F0120060
:1025F800060E00019F6F000198AF02D000019F8F67
:1026080000019BAF02D000019F8D0001978FFF0E44
:1026180000019617FF0E00019717000E000198178A
:1026280000019A8FFF0E00019917FF0E00019A17FB
:10263800000E00019B170001A0510001A15DD8B058
:1026480025D00001D89099379A379B370001A00709
:102658000001A1510001A019D8B411D000019F07B1
:102668009FC09CF0070E00019C17D8B408D0E9D78A
:102678000001D8909833973396330001A12B0001BD
:10268800A0510001A119D8B42BD0F2D70001A15153
:102698000001A05DD8B024D00001D89096379737B4
:1026A80098370001A1070001A1510001A019D8B471
:1026B80011D000019F079FC09CF0070E00019C17D6
:1026C800D8B408D0E9D70001D8909B339A3399330E
:1026D8000001A02B0001A0510001A119D8A4F3D733
:1026E80000019FAF12D0FF0E0001961BFF0E0001E4
:1026F800971BFF0E0001981B010E00019627000E84
:1027080000019723000E0001982300019FAD12D00D
:10271800FF0E0001991BFF0E00019A1BFF0E00011E
:102728009B1B010E00019927000E00019A23000E41
:1027380000019B23000E00019F6F000196510001CC
:1027480099270001975100019A230001985100012F
:102758009B2300019BAF15D0FF0E0001991BFF0EB4
:1027680000019A1BFF0E00019B1B010E0001992717
:10277800000E00019A23000E00019B23010E0001A8
:102788009F6F99C01AF09AC01BF09BC01CF0A1C0A3
:102798001DF09FC01EF012EC1BF01AC096F01BC073
:1027A80097F01CC098F01200000E0001906F000E08
:1027B8008F6F9286EAEC1EF01AC07FF01BC080F083
:1027C800EAEC1EF01AC081F01BC082F0EAEC1EF0A1
:1027D8001AC083F01BC084F0EAEC1EF01AC085F022
:1027E8001BC086F0EAEC1EF01AC087F01BC088F008
:1027F800EAEC1EF01AC089F01BC08AF0EAEC1EF061
:102808001AC08BF01BC08CF0EAEC1EF01AC08DF0D9
:102818001BC08EF08DC071F08EC072F0070ED8907C
:10282800000171377237E82EFAD78BC073F08CC06D
:1028380074F0060ED890000173377437E82EFAD773
:1028480089C075F08AC076F0050ED89000017537FA
:102858007637E82EFAD787C077F088C078F000017D
:10286800773B783BF00E781777510F0B7813F00E03
:10287800771785C079F086C07AF00001D89079374B
:102888007A370001D89079377A370001D8907937AC
:102898007A3783C07BF084C07CF00001D8907B3706
:1028A8007C370001D8907B377C3781C07DF082C0AF
:1028B8007EF0D89000017D377E3700017B51000102
:1028C8007D2700017C5100017E2300017951000120
:1028D8007D2700017A5100017E2300017751000114
:1028E8007D270001785100017E2300017551000108
:1028F8007D270001765100017E23000173510001FC
:102908007D270001745100017E23000171510001EF
:102918007D270001725100017E2300017F510001D3
:102928007D2500018F6F0001805100017E2100018B
:10293800906F8FC01FF090C020F01200010E1C1481
:102948000001716F0001726B1D341D301F6E1C3049
:102958001E6E010E1E140001736F0001746B1CC003
:102968001EF01DC01FF01F341F321E321F341F32CD
:102978001E32010E1E140001756F0001766B1CC01B
:102988001EF01DC01FF01F341F321E321F341F32AD
:102998001E321F341F321E32010E1E140001776FC3
:1029A8000001786B1CC01EF01DC01FF0040E206EC5
:1029B8001F341F321E32202EFBD7010E1E140001B9
:1029C800796F00017A6B1CC01EF01DC01FF0050E48
:1029D800206E1F341F321E32202EFBD7010E1E140C
:1029E80000017B6F00017C6B1CC01EF01DC01FF036
:1029F800060E206E1F341F321E32202EFBD7010E0A
:102A08001E1400017D6F00017E6B1CC01EF01DC0EE
:102A18001FF0070E206E1F341F321E32202EFBD7E8
:102A2800010E1E1400017F6F0001806B71C01AF047
:102A380072C01BF01CEC1FF000D000D000F073C077
:102A48001AF074C01BF01CEC1FF000D000D000F08E
:102A580075C01AF076C01BF01CEC1FF000D000D037
:102A680000F077C01AF078C01BF01CEC1FF000D003
:102A780000D000F079C01AF07AC01BF01CEC1FF0EF
:102A880000D000D000F07BC01AF07CC01BF01CEC1A
:102A98001FF000D000D000F07DC01AF07EC01BF0FF
:102AA8001CEC1FF000D000D000F07FC01AF080C0EE
:102AB8001BF01CEC1FF000D000D000F012001CC06E
:102AC80071F00001726B736B1B340001713701E305
:102AD8007281000171510001796F00017951D8A408
:102AE80009D0000E1A6E000E1B6E000E1C6E000E32
:102AF8001D6E12001FC071F00001726B736B1E34E3
:102B08000001713701E37281000171510001786F92
:102B180000017851D8A409D0000E1A6E000E1B6E61
:102B2800000E1C6E000E1D6E12001B8EFF0E1A1674
:102B3800FF0E1B16000E1C161E8EFF0E1D16FF0E16
:102B48001E16000E1F16000E0001746F000E756F22
:102B5800000E766F000E776F7F0E0001795F00011F
:102B68007851980F0001795F180E0001786F000105
:102B7800D89074377537763777371D501A5C1E50E2
:102B88001B581F501C58D8A008D01D501A5E1E5044
:102B98001B5A1F501C5A00017481D8901A361B36D4
:102BA8001C360001782FE3D7000179AF19D0000156
:102BB8007951800A970FD8B009D0000E1A6E000E0E
:102BC8001B6E000E1C6E000E1D6E12000001D890C8
:102BD80077337633753374330001793FF7D71AD0DA
:102BE800170E0001796511D0000E1A6E000E1B6ECB
:102BF800000E1C6E000E1D6E12000001D890743776
:102C08007537763777370001790700017951000168
:102C1800D8A4F3D774C01AF075C01BF076C01CF0A6
:102C280077C01DF012007FC083F00001846B856BB4
:102C380000017E350001833701E38481000183515F
:102C48000001866F00018651D8A40AD0000E000149
:102C58007D6F000E00017E6F000E00017F6F120075
:102C680082C083F00001846B856B0001813500010F
:102C7800833701E384810001835100018B6F0001D8
:102C88008B51D8A40AD0000E00017D6F000E000100
:102C98007E6F000E00017F6F120000018B517B0FC9
:102CA800000186277FC08BF00001825100018B1B39
:102CB800800E00018B1700017E8F0001818FFF0EAF
:102CC80000018017FF0E00018117000E0001821716
:102CD800000E0001876F000E0001886F000E0001D2
:102CE800896F070E00018A6F00017DA10CD00001D9
:102CF80080510001872700018151000188230001CC
:102D08008251000189230001D8907F337E337D33BF
:102D18000001D89080378137823700018A2FE4D7A5
:102D2800090E00018A6F00017DA10CD000018051BD
:102D38000001872700018151000188230001825189
:102D4800000189230001D8907F337E337D33000151
:102D5800D89089338833873300018A2FE4D787C016
:102D68001AF088C01BF089C01CF086C01DF08BC00B
:102D78001EF012EC1BF01AC07DF01BC07EF01CC0C8
:102D88007FF012001C341D340001766F000176516B
:102D9800D8A409D0000E1A6E000E1B6E000E1C6E11
:102DA800000E1D6E12001F3420340001756F0001E3
:102DB8007551D8A409D0000E1A6E000E1B6E000EB5
:102DC8001C6E000E1D6E12001C8EFF0E1A16FF0ED2
:102DD8001B16FF0E1C16000E1D161F8EFF0E1D164D
:102DE800FF0E1E16FF0E1F16000E2016000E000105
:102DF800716F000E726F000E736F000E746F7F0E8E
:102E08000001765F00017551A00F0001765F200E6A
:102E18000001756F0001D8907137723773377437B6
:102E28001D501A5C1E501B581F501C5820501D580E
:102E3800D8A00AD01D501A5E1E501B5A1F501C5A8B
:102E480020501D5A00017181D8901A361B361C3645
:102E58001D360001752FDED7000176AF19D00001AD
:102E68007651800A9F0FD8B009D0000E1A6E000E56
:102E78001B6E000E1C6E000E1D6E12000001D89015
:102E880074337333723371330001763FF7D71AD036
:102E98001F0E0001766511D0000E1A6E000E1B6E13
:102EA800000E1C6E000E1D6E12000001D8907137C6
:102EB80072377337743700017607000176510001C5
:102EC800D8A4F3D771C01AF072C01BF073C01CF0FD
:102ED80074C01DF0120077C07BF000017C6B7D6B25
:102EE8000001763500017B3701E37C8100017B51CD
:102EF8000001826F00018251D8A40AD0000E00019F
:102F0800756F000E0001766F000E0001776F1200DA
:102F18007AC07BF000017C6B7D6B00017935000184
:102F28007B3701E37C8100017B510001836F000145
:102F38008351D8A40AD0000E0001756F000E00015D
:102F4800766F000E0001776F1200000E00017F6F90
:102F5800000E0001806F000E0001816F0001835197
:102F6800890F0001825F77C083F000017A51000168
:102F7800831B800E000183170001768FFF0E00016E
:102F88007517FF0E00017617000E00017717000174
:102F9800798FFF0E00017817FF0E00017917000ED8
:102FA80000017A17180E00017E6F0001D8907F3754
:102FB80080378137000178510001755D0001795132
:102FC8000001765900017A5100017759D8A00ED036
:102FD800000178510001755F000179510001765BAD
:102FE80000017A510001775B00017F810001D890D0
:102FF80075377637773700017E2FD7D77FC01AF01D
:1030080080C01BF081C01CF082C01DF083C01EF080
:1030180012EC1BF01AC075F01BC076F01CC077F0DC
:10302800120095C097F00001986B996B00019435D8
:103038000001973701E39881000197510001A16FC2
:103048000001A151D8A40AD0000E0001936F000E10
:10305800946F000E956F000E966F1200170E000108
:10306800976F93C098F094C099F095C09AF00001BA
:10307800972900019B6F05D00001D8909A339933A6
:10308800983300019B2FF8D70001985100019C6FDD
:103098000001948FFF0E00019317FF0E0001941793
:1030A800000E000195170001935100019D6F00016A
:1030B800945100019E6F0001955100019F6F00011E
:1030C800A06B8E0E0001A15F0001A1AF1AD0000114
:1030D800A151800A8F0FD8B00AD0000E0001936F5B
:1030E800000E946F000E956F000E966F120000018F
:1030F800D890A0339F339E339D330001A13FF7D76B
:103108001BD0170E0001A16512D0000E0001936FAD
:10311800000E946F000E956F000E966F120000015E
:10312800D8909D379E379F37A0370001A10700012F
:10313800A1510001D8A4F3D700019C510001D8B4D3
:1031480009D00001A01F9F1F9E1F9D6D000E9E238A
:103158009F23A0239DC093F09EC094F09FC095F03C
:10316800A0C096F01200000E1A6E010E1B6E000E23
:103178001D6E000E1C6E000E1F6E800E1E6E62EC21
:103188001FF0000E1A6E010E1B6E990E1C6E7F0E3C
:103198001D6E34EC1FF0800E1A6E010E1B6E000EB1
:1031A8001D6E000E1C6E000E1F6E400E1E6E62EC31
:1031B8001FF0800E0001CB6F010E0001CC6F5B0E7B
:1031C8000001CD6F7F0E0001CE6FE6C0CFF0E7C0E3
:1031D800D0F0E8C0D1F0DFC0D2F0E0C0D3F0E1C059
:1031E800D4F0E2C0D5F0E3C0D6F0E4C0D7F0E5C033
:1031F800D8F09AEC1DF0000E1A6E010E1B6E800EB0
:103208001C6E010E1D6E52EC1EF0000E0101C16F06
:10321800000EC06F0ED0000E0101C025D96E010E40
:103228000101C121DA6EDF500FEC0EF00101C04B35
:10323800C12B000E1A6E010E1B6E71EC1DF01A5098
:103248000101C05D1B500101C159D8B01200E3D77C
:10325800000E0001A46F000E0001A56F000E000112
:10326800A66F000E0001A76F000E0001A86F000EE8
:103278000001A96FC284C296C298C29AC29CC28039
:103288009E9CC2829EACFED7C3CF71F0C4CF72F0B1
:103298008BEC1FF071C0A4F072C0A5F073C0A6F04B
:1032A8009E9CC290A4C07DF0A5C07EF0A6C07FF011
:1032B800330E0001806F030E0001816F3B0E000189
:1032C800826F17EC16F07DC0A7F07EC0A8F07FC013
:1032D800A9F0A7C07DF0A8C07EF0A9C07FF0000EBD
:1032E8000001806F800E0001816F3F0E0001826F28
:1032F80017EC16F07DC0A7F07EC0A8F07FC0A9F03B
:10330800A7C093F0A8C094F0A9C095F015EC18F0E8
:1033180093C0A2F094C0A3F01200000E0001A46FA5
:10332800000E0001A56F000E0001A66F000E00013F
:10333800A76F000E0001A86F000E0001A96FC294CC
:10334800C296C288C28AC29CC2809E9CC2829EAC1F
:10335800FED7C3CF71F0C4CF72F08BEC1FF071C0F1
:10336800A4F072C0A5F073C0A6F09E9CC290A4C041
:103378007DF0A5C07EF0A6C07FF0330E0001806FFF
:10338800030E0001816F3B0E0001826F17EC16F0EF
:103398007DC0A7F07EC0A8F07FC0A9F0A7C07DF0CF
:1033A800A8C07EF0A9C07FF0000E0001806F800EDB
:1033B8000001816F3F0E0001826F17EC16F07DC08F
:1033C800A7F07EC0A8F07FC0A9F0A7C093F0A8C05E
:1033D80094F0A9C095F015EC18F093C0A2F094C031
:1033E800A3F01200000E00018F6F000E0001906F15
:1033F800000E0001916F000E0001926F000E000197
:10340800936F000E0001946FC294C296C298C29A3C
:10341800C29CC2809E9CC2829EACFED7C3CF71F074
:10342800C4CF72F08BEC1FF071C08FF072C090F0B7
:1034380073C091F09E9CC2908FC07DF090C07EF0CA
:1034480091C07FF0330E0001806F030E0001816F81
:103458003B0E0001826F17EC16F07DC092F07EC023
:1034680093F07FC094F092C07DF093C07EF094C03A
:103478007FF0660E0001806FB60E0001816F400E6E
:103488000001826F17EC16F07DC092F07EC093F0B9
:103498007FC094F092C08CF093C08DF094C08EF0F1
:1034A8001200000E0001766F000174AF08D0000111
:1034B800736D741FD8B0742B010E0001766F000174
:1034C80072AF08D00001716D721FD8B0722B010E57
:1034D8000001761B000E0001786F000E776F000167
:1034E800735100017411D8B42CD0010E0001756F0E
:1034F80006D00001D890733774370001752B00018E
:1035080074AFF7D70001D890773778370001735137
:103518000001715D0001745100017259D8A00AD0F0
:10352800000173510001715F000174510001725B69
:10353800000177810001D890743373330001752F2F
:10354800E1D7000176510001D8B405D00001776DAC
:10355800781FD8B0782B77C071F078C072F012005D
:103568000F01428F0F0142990F01428B0F01428DCB
:10357800080EC16EAF0EC06E9280928292949286AF
:103588009288928A0F0138810F0138830F0138859C
:103598000F0138970F01388B899089928994899601
:1035A8008998899A000E616EF18E93809392939414
:1035B80093969398939A939C939E0F0139810F0148
:1035C80039930F0139950F0139970F01399B8A906B
:1035D8008A928A948A968A988A9A959095929594CE
:1035E80095969598959A959C959E0F013B910F01FC
:1035F8003B930F013B950F013B970F013B990F013F
:103608003B9B0F013B9D0F013B9F8C908C928C94B0
:103618008C968C988C9A8C9C8C9E12001D50D8B4D9
:1036280005D01A501B101C10D8A40CD0000E1A6E0E
:10363800000E1B6E000E1C6E12001D2AD8901C3244
:103648001B321A32000E1A141F6E000E1B14206E45
:10365800FE0E1C14216E1F5020102110D8B40CD05F
:10366800ECD71D2A010E1A26000E1B22000E1C2262
:10367800D8901C321B321A32000E1A141F6E000E1C
:103688001B14206EFF0E1C14216E1F5020102110D9
:10369800D8B406D0E6D71D06D8901A361B361C3685
:1036A8001BBE03D0020E1D60F6D71DA01B9ED8902E
:1036B8001D321D501C121E50D8A41C8E1AC01AF0A0
:1036C8001BC01BF01CC01CF012001CAE1AD01AC084
:1036D80071F01BC072F01CC073F00001711F721FE3
:1036E800731F712B000E72237323000E00017125C6
:1036F8001A6E000E000172211B6E800E00017321EC
:103708001C6E1FAE1AD01DC071F01EC072F01FC013
:1037180073F00001711F721F731F712B000E72234B
:103728007323000E000171251D6E000E0001722129
:103738001E6E800E000173211F6E000E1A1A000EF5
:103748001B1A800E1C1A000E1D1A000E1E1A800E5F
:103758001F1A1D501A5C1E501B581F501C58D8B0F9
:1037680002D0D8901200D880120000017A510001CE
:103778007B1100017C1100017D11D8B43AD0010EF3
:1037880000017E6F08D00001D8907A377B377C37EC
:103798007D3700017E2B00017DAFF5D700017A51FE
:1037A8000001765D00017B510001775900017C51D1
:1037B8000001785900017D5100017959D8A010D035
:1037C80000017A510001765F00017B510001775BAF
:1037D80000017C510001785B00017D510001795B9B
:1037E8000001D8907D337C337B337A3300017E2F00
:1037F800D5D776C076F077C077F078C078F079C002
:1038080079F01200BEEC1FF0B3EC1EF0F6EC19F0E4
:103818008CC0D5F18DC0D6F18EC0D7F12CEC19F043
:10382800A2C0D1F1A3C0D2F191EC19F0A2C0D3F19A
:10383800A3C0D4F1F8EC07F0A2C0CEF1A3C0CFF139
:10384800A4C0D0F10101D7BF17D0D5C1DFF0D6C1D0
:10385800E0F0D7C1E1F0D1C1E2F0D2C1E3F0D3C1C9
:10386800E4F0D4C1E5F0CEC1E6F0CFC1E7F0D0C1B5
:10387800E8F0B7EC18F007D0000E00017B6F020EDD
:103888007A6F10EC1EF0000E0001766F030E756F54
:1038980073EC1EF0B7D7000E0001716F000E726F47
:1038A800000E736F000E746F1E501F102010211031
:1038B800D8B42FD0010E0001756F07D0D8901E36EE
:1038C8001F36203621360001752B21AEF7D70001AF
:1038D800D89071377237733774371E501A5C1F507F
:1038E8001B5820501C5821501D58D8A00AD01E50D3
:1038F8001A5E1F501B5A20501C5A21501D5A000195
:103908007181D890213220321F321E320001752F6A
:10391800DED771C01AF072C01BF073C01CF074C0FF
:103928001DF012008E0E0001796F08D00001D890AA
:1039380074337333723371330001792B000E000135
:1039480071150001756F000E000172150001766F88
:10395800000E000173150001776FFF0E000174154A
:103968000001786F0001755100017611000177118F
:1039780000017811D8A4DAD771C01AF072C01BF010
:1039880073C01CF079C01DF0000E1E6E12EC1BF007
:103998001AC071F01BC072F01CC073F01200000E48
:1039A8001F6E1BAE06D01A6C1B1ED8B01B2A010E48
:1039B8001F6E1DAE04D01C6C1D1ED8B01D2A1C50D5
:1039C8001D10D8B418D0010E1E6E04D0D8901C3625
:1039D8001D361E2A1DAEFAD71C501A5C1D501B58E6
:1039E800D8A004D01C501A5E1D501B5AD8901D3206
:1039F8001C321E2EF1D71F50D8B404D01A6C1B1ECF
:103A0800D8B01B2A1AC01AF01BC01BF01200000EF7
:103A18000001746F000E736F21D0CDEC1FF019D028
:103A2800DAEC1FF016D00001735120240001716FE9
:103A38000001745121200001726F71C0F6FF72C03D
:103A4800F7FF0800F5502D0AD8B4EAD7030AD8B40E
:103A5800E4D70DEC20F00001734B742B20C01AF052
:103A680021C01BF071EC1DF01A500001735D1B5052
:103A780000017459D8B01200D6D7000E0001726F39
:103A8800000E716F1DD0000E0001746F000E736F71
:103A9800000174BF08D0000174510FE10A0E000143
:103AA800735DD8B00AD0000E1B6E640E1A6E4CEC13
:103AB8001FF00001734B742BEBD70001714B722B75
:103AC8001F500001715D00017251800A216E205063
:103AD800800A2158D8B01200D6D71AC01EF01BC0D1
:103AE8001FF002D01E4A1F2A1EC0F6FF1FC0F7FF94
:103AF800F86A050EF76403D00800F55005D0F6CF34
:103B0800E9FFF7CFEAFFEF500009D8A4EBD71AC0B6
:103B18001CF01BC01DF01C1E1D1E1C4A1D2A1E5019
:103B28001C241A6E1F501D201B6E1200CBC0DBF028
:103B3800CCC0DCF0000E0001DD6F000E0001DE6F6E
:103B4800CF0E0001D96F000E0001DA6FDB0E000105
:103B5800A86F000E0001A96FCDC0AAF0CEC0ABF0CF
:103B6800D90E0001AC6F000E0001AD6F55EC00F0EE
:103B7800DBC0D9FFDCC0DAFF000EDF6E1200440E96
:103B8800F66E400EF76E000EF86E00EE41F010EE85
:103B980005F00900F5CFEEFFE550E150FAE102EE3D
:103BA80000F011EE00F0EE6AE550E150FCE1E25061
:103BB800FAE100EE22F01F0EEE6AE806FDE14690FB
:103BC8004692000EF86E000114EF20F00001A55196
:103BD8000001A6110001A711D8B409D0000E0001F8
:103BE800A51B000E0001A61B800E0001A71BA2C08A
:103BF80096F0A3C097F0A4C098F0A5C099F0A6C00D
:103C08009AF0A7C09BF0A4EC12F096C0A2F097C05F
:103C1800A3F098C0A4F01200000E00017E6F000E01
:103C28007D6F0AD0000E0001766F3C0E756F73EC45
:103C38001EF000017D4B7E2B00017A5100017D5D55
:103C480000017E51800A00017C6F00017B51800ACF
:103C580000017C59D8B01200E5D7000E1E6E010E87
:103C68001D6E929680965D0EE82EFED700F0808637
:103C78000B0EE82EFED700D0928680A603D01C6AD1
:103C88001C2A01D01C6A1C501D6E1E6A460EE82EA6
:103C9800FED71DC01AF01EC01BF012001AC01EF07D
:103CA8001BC01FF002D01E4A1F2A1EC0D9FF1FC00A
:103CB800DAFFDF50D8B405D0F6D71E4A1F2A1C4AAF
:103CC8001D2A1CC0D9FF1DC0DAFF1EC0E1FF1FC09E
:103CD800E2FFDFCFE7FFE750D8B41200EED7000EBF
:103CE8000001796F000E786F09D0000E206E3C0E2F
:103CF8001F6E41EC1DF00001784B792B00017551C6
:103D08000001785D00017951800A0001776F000198
:103D18007651800A00017759D8B01200E6D7000E14
:103D28000001746F000172AF08D00001716D721F3D
:103D3800D8B0722B010E0001746F71C01AF072C0F6
:103D48001BF01C6A8E0E1D6E74C01EF012EC1BF068
:103D58001AC071F01BC072F01CC073F01200000E84
:103D68001B6E000E1A6E000E1D6E000E1C6E000EED
:103D78001E6E000E1F6E000E206E000E216E3E504D
:103D88003F10D8B4120022C01EF023C01FF024C078
:103D980020F025C021F0120095849586E70E0F01CA
:103DA80049177C0EBB6E3F0E66166650F00B0C0969
:103DB800666E63906382638463963E0E676E665098
:103DC800CF0B2009666EBA949E921200000E1E6EEA
:103DD800000E1D6E92968096808600D080A603D035
:103DE8001C6A1C2A01D01C6A1C501D6E1E6A0A0E11
:103DF800E82EFED71DC01AF01EC01BF012000001ED
:103E0800795100017B03F3CF20F0F4CF21F00001BA
:103E1800795100017C03F350212600017A510001F9
:103E28007B03F350212620C079F021C07AF01200DC
:103E380092961A501B10D8B409D0809600D000D0A2
:103E480000F08086090EE82EFED7120080960B0E31
:103E5800E82EFED700D0808600D000D000F01200F7
:103E68001AC01EF01BC01FF004D01E4A1F2A1C4A8D
:103E78001D2A1CC0F6FF1DC0F7FF1EC0D9FF1FC0BA
:103E8800DAFF0800F5CFDFFFDF50D8B41200EDD716
:103E9800000E1E6E000E1D6E06D0A60EE82EFED772
:103EA80000D01D4A1E2A1A501D5C1E50800A1C6E26
:103EB8001B50800A1C58D8B01200EFD71AC020F047
:103EC8001BC021F008D020C0D9FF21C0DAFF1CC0D8
:103ED800DFFF204A212A1E06D8A01F061E28F3E16C
:103EE8001F28D8B41200EFD7D08ECD90CD9CCD9E90
:103EF800CD9ACD98CD96CD82EC0ECF6E770ECE6E44
:103F08009D809F809E90CD80F29CF28E120071C0A1
:103F18001AF072C01BF01C6A8E0E1D6E000E1E6E0B
:103F280012EC1BF01AC071F01BC072F01CC073F0C9
:103F380012001A501B101C10D8B406D0000E1A1A02
:103F4800000E1B1A800E1C1A1AC01AF01BC01BF098
:103F58001CC01CF012001C6E000E1B6E3A0E1C607A
:103F680005D02F0E1C6402D0010E1B6E1BC01AF068
:103F78001A30120083BA03D01A6A1A2A01D01A6AB0
:103F88001A3A1A4683501A18DF0B1A18836E04005F
:103F9800120083821EEC20F0000E1B6E4B0E1A6E70
:103FA8004CEC1FF01AEC20F08392120083821EEC76
:103FB80020F0000E1B6EE10E1A6E4CEC1FF01AEC8E
:103FC80020F083921200BA94BA80BA92BA96BA983C
:103FD800BA9ABA9C000EBC6E9D829F929E92120065
:103FE800BEEC1FF0B4EC1AF078EC1FF0E7EC1FF011
:103FF800D0EC1EF01200020E1B6E0D0E1A6E4CEC69
:104008001FF01200000E1B6EE10E1A6E4CEC1FF032
:104018001200000E1B6E4B0E1A6E4CEC1FF01200B5
:10402800F4EC1FF006EC1CF053EF00F09584958635
:10403800BA94120095949596BA841200007D0000F7
:014048007DFA
:02404A00120062
:107ED40000010000000A00000064000000E8030044
:107EE4000010270000A086010040420F00809698F1
:107EF4000000E1F50500CA9A3B00803F00204100E4
:107F0400C842007A44401C4650C347247449971819
:107F14004BBCBE4C6B6E4E03155079AD60F349718A
:107F240000803FCDCC3DD7233C12833AB7D138C62D
:107F34002737388635C0D633CC2B32708930E7DB0F
:107F44002EE53C1E42A20D000101020102020301C2
:107F54000202030203030420252E316620252E315C
:107F6400662025332E30642025332E3064004541AD
:107F7400534154322041434B002D2D2E2E2D2D00E4
:107F84002E2D2E2D2E2D002D2E2E2E2E2D002E2E6E
:107F94002D2D2E2E00454153415432002D2D2D2DD3
:107FA4002D002E2D2D2D2D002E2E2D2D2D002E2E7F
:107FB4002E2D2D002D2D2D2D2E002D2E2E2D2E006F
:107FC4002D2D2D2E2E002D2D2E2E2E002D2E2E2E2F
:107FD4002E002E2E2E2E2E002D2E2D2D002D2D2E4C
:107FE4002D002D2E2E2D002E2D2D2E002D2E2D2E3E
:0B7FF400002E2D2E2E0030003100006A
:020000040020DA
:08000000FFFFFFFFFFFFFFFF00
:020000040030CA
:0E000000FF21193FFF8581FF0FC00F400F4009
:00000001FF
