:0400000053EF00F0CA
:06000800448228EF0EF017
:100018004480D8CF60F0E8CF61F0E0CF62F0FACF4B
:1000280063F0FBCF64F0E9CF65F0EACF66F0E1CF8B
:1000380067F0E2CF68F0D9CF69F0DACF6AF0F3CF92
:100048006BF0F4CF6CF0F6CF6DF0F7CF6EF0F8CF21
:100058006FF0F5CF70F070C0F5FF6FC0F8FF6EC09D
:10006800F7FF6DC0F6FF6CC0F4FF6BC0F3FF6AC00A
:10007800DAFF69C0D9FF68C0E2FF67C0E1FF66C068
:10008800EAFF65C0E9FF64C0FBFF63C0FAFF62C016
:10009800E0FF61C0E8FF60C0D8FF44901000DDEFCA
:1000A8001BF0A80E0001BB6F000E0001BC6F02EF31
:1000B80006F0250E0001D019D8B40BD0A4C0D9FF82
:1000C800A5C0DAFFD0C0DFFF0001A44BA52B02EFCB
:1000D80006F0000E0001C06F000EBF6F000E000199
:1000E800BE6F000EBD6FA6C0F6FFA7C0F7FF0800E1
:1000F800F550A7EC1DF0D8A040D0000E0001C06F4D
:10010800000EBF6FBFC075F0C0C076F0000E0001D2
:10011800786F0A0E776FFBEC1CF075C0BFF076C0E5
:10012800C0F0D00E0001B26FFF0E0001B36FA6C081
:10013800F6FFA7C0F7FF0800F5500001B46FB56BD4
:100148000001B2510001B4270001B3510001B523E9
:100158000001B4510001BF270001B5510001C023BF
:100168000001A64BA72BA6C0F6FFA7C0F7FF080003
:10017800F550A7EC1DF0D8B0C5D7A6C0F6FFA7C0AC
:10018800F7FF0800F5502E0AD8A439D00001BE8D1B
:100198000001A64BA72B000E0001CF6F000ECE6FFB
:1001A80023D0CEC075F0CFC076F0000E0001786F76
:1001B8000A0E776FFBEC1CF0A6C0F6FFA7C0F7FF8E
:1001C8000800F55000017527000E00017623D00EB7
:1001D800000175250001CE6FFF0E00017621000198
:1001E800CF6F0001A64BA72BA6C0F6FFA7C0F7FF4D
:1001F8000800F550A7EC1DF0D8A00CD0D2D7000EFF
:100208000001CF6F000ECE6F0001BE8903D0000140
:10021800BE851AD0A6C0F6FFA7C0F7FF0001A64BFF
:10022800A72B0800F5CFD0F00001D051000AD8B4B0
:1002380011EF06F0640AD8B407D0020AD8B4E7D799
:100248000F0AD8A402EF06F0070E0001BE15D8B4B5
:100258006DD30001BEA905D0000E0001CF6F060EB8
:10026800CE6FBBC0D9FFBCC0DAFFDECFCBF0DECF8C
:10027800CCF0DDCFCDF0030E0001BB27000EBC2370
:100288000001CDAF11D0CBC01CF0CCC01DF0CDC04B
:100298001EF095EC1DF01CC0CBF01DC0CCF01EC0AC
:1002A800CDF0030E0001BD13000E0001CA6F000E51
:1002B800C96F0001CB510001CC110001CD11D8B498
:1002C80093D0820E0001B26FFF0E0001B36FCBC056
:1002D800B4F0CCC0B5F0CDC0B6F0CEC0B7F0100EBB
:1002E80006D00001D890B733B633B533B433E82E0F
:1002F800F8D70001B4510001B2250001C96F000E02
:100308000001B3210001CA6F0001C907D8A0CA07BC
:10031800C9C075F0CAC076F0000E0001786F030EF0
:10032800776FFBEC1CF075C0C9F076C0CAF0C9C085
:1003380071F0CAC072F0000E0001746F0A0E736F7C
:10034800C2EC19F071C0C9F072C0CAF00001CAAF9E
:1003580004D00001C907D8A0CA070001C951000884
:10036800E5EC09F088C0C1F089C0C2F08AC0C3F0CA
:10037800C1C079F0C2C07AF0C3C07BF0CBC07CF0BA
:10038800CCC07DF0CDC07EF0E4EC13F079C0C1F0B4
:100398007AC0C2F07BC0C3F0C1C01CF0C2C01DF05F
:1003A800C3C01EF0000E1F6E800E206E3F0E216E21
:1003B8005FEC1AF0D8B005D00001C907D8A0CA0769
:1003C80013D0C1C01CF0C2C01DF0C3C01EF0000E87
:1003D8001F6E200E206E410E216E5FEC1AF0D8A021
:1003E80003D00001C94BCA2B0001CFBF08D00001C0
:1003F800CF511DE10D0E0001CE5DD8B018D0CBC095
:1004080092F0CCC093F0CDC094F00001CE51D5EC61
:100418000FF088C095F089C096F08AC097F025EC57
:1004280011F092C0CBF093C0CCF094C0CDF0000195
:10043800CABF08D00001CA512AE10A0E0001C95DED
:10044800D8B025D00001CB510001CC110001CD114D
:10045800D8B45FD0CBC08FF0CCC090F0CDC091F0B5
:1004680041EC15F000018F5100019011000191112C
:1004780000019211D8A44DD00001CABF4AD0000192
:10048800CA5105E1020E0001C95DD8A042D0C1C021
:100498001CF0C2C01DF0C3C01EF0700E1F6E890E86
:1004A800206E400E216E5FEC1AF0D8B003D0000128
:1004B800F70E02D00001F80EC927FF0ECA2300016B
:1004C800C951E5EC09F088C0C1F089C0C2F08AC002
:1004D800C3F0CBC01CF0CCC01DF0CDC01EF0C1C015
:1004E8001FF0C2C020F0C3C021F093EC14F01CC070
:1004F800C5F01DC0C6F01EC0C7F01FC0C8F0000E72
:100508000001CB6F000E0001CC6F000E0001CD6F13
:1005180033D0CBC08FF0CCC090F0CDC091F041EC7F
:1005280015F08FC0C5F090C0C6F091C0C7F092C05A
:10053800C8F0CBC09EF0CCC09FF0CDC0A0F0C5C025
:1005480071F0C6C072F0C7C073F0C8C074F026EC72
:100558001BF071C0A1F072C0A2F073C0A3F004EC4C
:100568001CF09EC0CBF09FC0CCF0A0C0CDF0000E18
:100578000001CA6F000EC96F010E0001D06F0A0E8C
:100588000001D019D8B41ED00001D051040DF50EC9
:10059800F324F66E7E0EF420F76E0900F550000184
:1005A800C55D0900F5500001C6590900F550000164
:1005B800C7590900F5500001C859D8A003D0000157
:1005C800D02BDDD7D0C0B2F00001B36BB2BFB307F8
:1005D8000001CE510001B2270001CF510001B32321
:1005E8000001C9510001B2270001CA510001B3231B
:1005F8000001B2510001BF5F0001B3510001C05BAF
:100608000001CE510001CF11D8B404D00001BF07BA
:10061800D8A0C007030E0001BD150001B26F000E7F
:100628000001BE150001B36F0001B2510001B31102
:10063800D8B40ED009D0A4C0D9FFA5C0DAFF200EC7
:10064800DF6E0001A44BA52B0001BF07D8A0C0078F
:100658000001C0BF07D00001C051EDE10001BF0596
:10066800D8B0E9D7030E0001BD150001B26F000E26
:100678000001BE150001B36F0001B2510001B311B2
:10068800D8B455D0A4C0D9FFA5C0DAFF2D0E4DD0DF
:100698000001A44BA52B4BD0C5C071F0C6C072F0A9
:1006A800C7C073F0C8C074F00001D051040DF50E36
:1006B800F324F66E7E0EF420F76E0900F5CF75F080
:1006C8000900F5CF76F00900F5CF77F00A00F5CFED
:1006D80078F013EC19F071C0C1F072C0C2F073C0A9
:1006E800C3F074C0C4F0C1C079F0C2C07AF0C3C00E
:1006F8007BF0C4C07CF00A0E00017D6F000E7E6F97
:10070800000E7F6F000E806F15EC1AF079C0C1F0F3
:100718007AC0C2F07BC0C3F07CC0C4F00001C151F4
:10072800300FA4C0D9FFA5C0DAFFDF6EB1D7000132
:10073800D0070001D029D8B40ED0AED7A4C0D9FFB5
:10074800A5C0DAFF300EDF6E0001A44BA52B000117
:10075800C907D8A0CA070001CABF07D00001CA51FB
:10076800EDE10001C905D8B0E9D70001CFBF0CD031
:100778000001CF5105E1090E0001CE5DD8A004D0DB
:10078800080E0001D06F02D0CEC0D0F00001D051C9
:100798000001CE5F000E0001D0BFFF0E0001CF5B4D
:1007A8000001D0510001D8B409D0A4C0D9FFA5C018
:1007B800DAFF2E0EDF6E0001A44BA52B0001D051ED
:1007C800E5EC09F088C0B8F089C0B9F08AC0BAF081
:1007D800CBC07CF0CCC07DF0CDC07EF0B8C079F045
:1007E800B9C07AF0BAC07BF0E4EC13F079C08FF0AE
:1007F8007AC090F07BC091F041EC15F08FC0C5F045
:1008080090C0C6F091C0C7F092C0C8F074D0C5C0FF
:1008180071F0C6C072F0C7C073F0C8C074F00001B0
:10082800D051040DF50EF324F66E7E0EF420F76E0B
:100838000900F5CF75F00900F5CF76F00900F5CF7E
:1008480077F00A00F5CF78F013EC19F071C0C1F019
:1008580072C0C2F073C0C3F074C0C4F0C1C079F0F4
:10086800C2C07AF0C3C07BF0C4C07CF00A0E00019D
:100878007D6F000E7E6F000E7F6F000E806F15EC8F
:100888001AF079C0C1F07AC0C2F07BC0C3F07CC056
:10089800C4F00001C151300FA4C0D9FFA5C0DAFFD0
:1008A800DF6E0001A44BA52BC5C079F0C6C07AF055
:1008B800C7C07BF0C8C07CF00001D051040DF50E14
:1008C800F324F66E7E0EF420F76E0900F5CF7DF066
:1008D8000900F5CF7EF00900F5CF7FF00A00F5CFCB
:1008E80080F015EC1AF079C0C5F07AC0C6F07BC06C
:1008F800C7F07CC0C8F00001D0070001D029D8B4E7
:100908000ED085D7A4C0D9FFA5C0DAFF300EDF6EA0
:100918000001A44BA52B0001CE07D8A0CF070001EA
:10092800CE510001CF11D8B469D1ECD7BBC0D9FFE3
:10093800BCC0DAFFDECFC5F0DDCFC6F00001000E87
:10094800C6BFFF0EC76FC86F020E0001BB27000E9F
:10095800BC230001C8AF0CD0030E0001BD13000179
:10096800C81FC71FC61FC56D000EC623C723C823CF
:100978000001CE510001CF11D8A40DD00001C551FE
:100988000001C6110001C7110001C811D8A403D085
:100998000001CE4BCF2B010E0001D06F0A0E0001D3
:1009A800D019D8B41ED00001D051040DF50EF3248F
:1009B800F66E7E0EF420F76E0900F5500001C55D55
:1009C8000900F5500001C6590900F5500001C75942
:1009D8000900F5500001C859D8A003D00001D02B58
:1009E800DDD7800E0001D0BF7F0E0001B26F00017D
:1009F800CE510001D05D0001CF51800A0001B259EB
:100A0800D8B003D0CEC0D0F018D00001CF51800AA2
:100A18000001B26F0001D0510001CE5D800E0001CF
:100A2800D0BF7F0E0001B259D8B007D00001D05115
:100A38000001CE6FCF6BCEBFCF070001BF510001C1
:100A4800C011D8B414D0030E0001BD150001B26F57
:100A5800000E0001BE150001B36F0001B251000184
:100A6800B311D8B404D00001BF07D8A0C007000153
:100A7800BEAD1ED00001BF510001CE5D0001CF51B7
:100A8800800A0001B26F0001C051800A0001B2590A
:100A9800D8B009D00001CE510001BF5F0001CF518D
:100AA8000001C05B05D0000E0001C06F000EBF6FD3
:100AB800800E0001D0BF7F0E0001B26F0001BF5150
:100AC8000001D05D0001C051800A0001B259D8B0C0
:100AD8000BD00001D0510001BF5F000E0001D0BF54
:100AE800FF0E0001C05B05D0000E0001C06F000EB4
:100AF800BF6F0001BF510001C011D8B413D0A4C00A
:100B0800D9FFA5C0DAFF200EDF6E0001A44BA52B8C
:100B18000001BF07D8A0C0070001BF510001C011E4
:100B2800D8A4EDD7030E0001BD150001B26F000E69
:100B38000001BE150001B36F0001B2510001B311ED
:100B4800D8B451D0A4C0D9FFA5C0DAFF2D0EDF6EEE
:100B580047D0CEC0B2F0CFC0B3F00001D890B237C2
:100B6800B3370001D890B237B337F50E0001B2257C
:100B7800F66E7E0EB321F76E0900F5CF75F0090009
:100B8800F5CF76F00900F5CF77F00A00F5CF78F0C9
:100B9800C5C071F0C6C072F0C7C073F0C8C074F0A9
:100BA80013EC19F071C079F072C07AF073C07BF061
:100BB80074C07CF00A0E00017D6F000E7E6F000E7F
:100BC8007F6F000E806F15EC1AF000017951300F1D
:100BD8000001D06FA4C0D9FFA5C0DAFFD0C0DFFFE5
:100BE8000001A44BA52B0001CE07D8A0CF07000118
:100BF800CE29AFE10001CF29D8A4ABD7A6C0F6FF14
:100C0800A7C0F7FF0001A64BA72B0800F5CFD0F02F
:100C18000001D051D8A45DEF00F0A4C0D9FFA5C051
:100C2800DAFF000EDF6E1200000E0101B46F000E35
:100C3800B36F000E0101B66F000EB56F000E010113
:100C4800B86F000EB76F000E0101BA6F000EB96FD2
:100C5800000E0101BC6F000EBB6F000E0101BE6FDC
:100C6800000EBD6F000E0101C06F000EBF6F000EB9
:100C78000101C26F000EC16F000E0101C46F000EAA
:100C8800C36F000E0101A36F000EA26F000E0101D9
:100C9800C66F000EC56F000E0101C86F000EC76F4A
:100CA800000E0101C96F000E0101CA6F000E01019B
:100CB800CB6F000E0101A46F800E0101A56F3F0EDE
:100CC8000101A66F000E0101CD6F000ECC6FF29EE0
:100CD8002AEC1CF01C501D10D8B40AD0330E0001A9
:100CE8009E6FC60E00019F6FC20E0001A06F12001A
:100CF800000E1F6ECC0E1E6E23EC13F0000E1F6E3E
:100D0800440E1E6E23EC13F09286F28E000E010143
:100D1800CD6F000ECC6F0AD0000E0001726F010E6D
:100D2800716F8BEC1BF00101CC4BCD2B0101CDBFBA
:100D380008D00101CD5107E1050E0101CC5DD8B005
:100D480002D080A6E9D7050E0101CC190101CD1109
:100D5800D8A40AD0660E00019E6FC60E00019F6FD0
:100D6800C20E0001A06F1200F29E2AEC1CF01C506B
:100D78001D10D8B40AD09A0E00019E6FC60E00014D
:100D88009F6FC20E0001A06F1200000E1F6ECC0EE6
:100D98001E6E23EC13F0000E1F6EBE0E1E6E23ECAB
:100DA80013F059EC12F071C090F172C091F159EC46
:100DB80012F071C092F172C093F159EC12F071C047
:100DC80094F172C095F159EC12F071C096F172C0AD
:100DD80097F159EC12F071C098F172C099F159EC81
:100DE80012F071C09AF172C09BF159EC12F071C007
:100DF8009CF172C09DF159EC12F071C09EF172C065
:100E08009FF159EC12F071C0A0F172C0A1F1F28EFD
:100E1800000E0101C66F000EC56F0101C6BF08D0E4
:100E28000101C6514FE1090E0101C55DD8B04AD094
:100E3800000E0101C86F000EC76F0101C8BF08D0BE
:100E48000101C8513BE1080E0101C75DD8B036D099
:100E5800C7C1A1F0D8900101C535D96E0101C635C9
:100E6800DA6E900ED926010EDA22DECFA2F0DDCF9F
:100E7800A3F00001A12B04D00001A335A333A233B2
:100E88000001A12FF9D7010E0001A217000EA31728
:100E9800D8900101A235D96E0101A335DA6E000E92
:100EA800D926010EDA22A2C0DEFFA3C0DDFF0101B0
:100EB800A24BA32B0101C74BC82BBFD70101C54BC0
:100EC800C62BABD7000E0101CD6F000ECC6F010110
:100ED800CDBF08D00101CD5154E1480E0101CC5DD0
:100EE800D8B04FD0D8900101CC35D96E0101CD359D
:100EF800DA6E000ED926010EDA22DECFA1F0DDCFA0
:100F0800A2F00101B3510001A1190101C36F010150
:100F1800B4510001A2190101C46FB5C1B3F1B6C142
:100F2800B4F1B7C1B5F1B8C1B6F10101C3510101BE
:100F3800B9190101B76F0101C4510101BA190101C1
:100F4800B86F0101C3510101BB190101B96F01015A
:100F5800C4510101BC190101BA6FBDC1BBF1BEC1C9
:100F6800BCF1BFC1BDF1C0C1BEF1C1C1BFF1C2C1B9
:100F7800C0F1C3C1C1F1C4C1C2F10101CC4BCD2B39
:100F8800A6D70101B3510101B411D8A42AD0010197
:100F9800B5510101B611D8A424D00101B7510101FE
:100FA800B811D8B406D00101B9510101BA11D8A4B9
:100FB80018D00101BB510101BC11D8A412D0010104
:100FC800BD510101BE11D8B406D00101BF510101C4
:100FD800C011D8A406D00101C1510101C211D8B471
:100FE8000AD0660E00019E6FC70E00019F6FC20EE9
:100FF8000001A06F12000101165101011711D8A4B8
:1010080008D0000E0101A46F800E0101A56F3F0EEC
:1010180007D0000E0101A46F800E0101A56FBF0E5D
:101028000101A66F000E0001776F000E0001786FB6
:10103800410E0001796F02C171F003C172F0AAEC90
:101048001CF071C074F072C075F073C076F0E3ECF8
:1010580015F074C095F075C096F076C097F0000E44
:101068000001776F800E0001786F410E0001796FE3
:1010780000C171F001C172F0AAEC1CF071C074F0EB
:1010880072C075F073C076F0E3EC15F074C092F09E
:1010980075C093F076C094F025EC11F092C0A7F1DA
:1010A80093C0A8F194C0A9F1000E0001776F800EDB
:1010B8000001786F400E0001796F04C171F005C11D
:1010C80072F0AAEC1CF071C074F072C075F073C0B5
:1010D80076F0E3EC15F074C095F075C096F076C024
:1010E80097F0A7C192F0A8C193F0A9C194F025EC9C
:1010F80011F092C0AAF193C0ABF194C0ACF1000E0C
:101108000001776F000E0001786F400E0001796FC3
:1011180006C171F007C172F0AAEC1CF071C074F03E
:1011280072C075F073C076F0E3EC15F074C095F0FA
:1011380075C096F076C097F0AAC192F0ABC193F053
:10114800ACC194F025EC11F092C0ADF193C0AEF1B2
:1011580094C0AFF108C171F009C172F0AAEC1CF09B
:1011680071C095F072C096F073C097F0ADC192F05F
:10117800AEC193F0AFC194F025EC11F092C0B0F17C
:1011880093C0B1F194C0B2F1B0C192F0B1C193F083
:10119800B2C194F0000E00017C6F000E00017D6F5B
:1011A800400E00017E6F0AC171F00BC172F0AAEC0B
:1011B8001CF071C079F072C07AF073C07BF0E4EC77
:1011C80013F079C095F07AC096F07BC097F025ECC3
:1011D80011F092C0C9F193C0CAF194C0CBF1000ECE
:1011E80000017C6F000E00017D6F410E00017E6FD3
:1011F8000EC171F00FC172F0AAEC1CF071C079F049
:1012080072C07AF073C07BF0E4EC13F079C095F00B
:101218007AC096F07BC097F0000E00017C6F800EBC
:1012280000017D6F400E00017E6F0CC171F00DC191
:1012380072F0AAEC1CF071C079F072C07AF073C039
:101248007BF0E4EC13F079C092F07AC093F07BC0A5
:1012580094F025EC11F092C0A7F193C0A8F194C0C6
:10126800A9F1000E00017C6F800E00017D6F410E18
:1012780000017E6F10C171F011C172F0AAEC1CF070
:1012880071C079F072C07AF073C07BF0E4EC13F0AF
:1012980079C095F07AC096F07BC097F0A7C192F01C
:1012A800A8C193F0A9C194F025EC11F092C0AAF15D
:1012B80093C0ABF194C0ACF1000E00017C6F000E3E
:1012C80000017D6F420E00017E6F12C171F013C1E3
:1012D80072F0AAEC1CF071C079F072C07AF073C099
:1012E8007BF0E4EC13F079C095F07AC096F07BC0FF
:1012F80097F0AAC192F0ABC193F0ACC194F025EC81
:1013080011F092C0ADF193C0AEF194C0AFF1000EF0
:1013180000017C6F800E00017D6F420E00017E6F20
:1013280014C171F015C172F0AAEC1CF071C079F00B
:1013380072C07AF073C07BF0E4EC13F079C095F0DA
:101348007AC096F07BC097F0ADC192F0AEC193F031
:10135800AFC194F025EC11F092C0B0F193C0B1F197
:1013680094C0B2F1B0C192F0B1C193F0B2C194F09F
:10137800C9C195F0CAC196F0CBC197F025EC11F020
:1013880092C0C9F193C0CAF194C0CBF1C9C179F038
:10139800CAC17AF0CBC17BF0A4C17CF0A5C17DF0B5
:1013A800A6C17EF0E4EC13F079C0C9F17AC0CAF1A5
:1013B8007BC0CBF1C9C19EF0CAC19FF0CBC1A0F0E0
:1013C800120000018E6F00018EAF24D100018E6DD6
:1013D80000018E51800A120FD8A0A8D0000E00017B
:1013E800786F030E776F000E0001746F0A0E736F2B
:1013F800000E1F6E640E1E6E00018E511C6E1D6A5B
:101408001CBE1D06EEEC1AF01CC071F01DC072F077
:10141800C2EC19F0090E000171250001756F000E6C
:10142800000172210001766FFBEC1CF0440E0001F4
:101438007525F66E7F0E00017621F76E0900F5CF4F
:101448007CF00900F5CF7DF00A00F5CF7EF0000EA4
:101458000001746F640E736F00018E510001716F8B
:10146800726B71BF7207C2EC19F0120E0001712580
:101478000001756F000E000172210001766F000EE9
:101488000001786F030E776FFBEC1CF0440E00012F
:101498007525F66E7F0E00017621F76E0900F5CFEF
:1014A80079F00900F5CF7AF00A00F5CF7BF0E4EC8B
:1014B80013F079C08BF07AC08CF07BC08DF08BC0B4
:1014C80079F08CC07AF08DC07BF0000E0001786F47
:1014D800030E776F000E1F6E0A0E1E6E00018E51EE
:1014E8001C6E1D6A1CBE1D06EEEC1AF01CC075F0C1
:1014F8001DC076F0FBEC1CF0440E00017525F66E5D
:101508007F0E00017621F76E0900F5CF7CF0090007
:10151800F5CF7DF00A00F5CF7EF0E4EC13F079C04A
:1015280088F07AC089F07BC08AF0120000018E51E1
:10153800800A750FD8A05BD0000E0001746F0A0EE8
:10154800736F00018E510001716F726B71BF72076A
:10155800C2EC19F0090E000171250001756F000E2B
:10156800000172210001766F000E0001786F030EF2
:10157800776FFBEC1CF0440E00017525F66E7F0EAC
:1015880000017621F76E0900F5CF79F00900F5CF53
:101598007AF00A00F5CF7BF0000E0001786F030E99
:1015A800776F000E1F6E0A0E1E6E00018E511C6EA4
:1015B8001D6A1CBE1D06EEEC1AF01CC075F01DC09D
:1015C80076F0FBEC1CF0440E00017525F66E7F0EDC
:1015D80000017621F76E0900F5CF7CF00900F5CF00
:1015E8007DF00A00F5CF7EF0E4EC13F098D7000107
:1015F8008E51030D440EF324F66E7F0EF420F76E21
:101608000900F5CF88F00900F5CF89F00A00F5CF79
:101618008AF0120000018E51800A120FD8A0A8D0BB
:10162800000E0001786F030E776F000E0001746FD3
:101638000A0E736F000E1F6E640E1E6E00018E512F
:101648001C6E1D6A1CBE1D06EEEC1AF01CC071F063
:101658001DC072F0C2EC19F0090E000171250001DD
:10166800756F000E000172210001766FFBEC1CF013
:101678001D0E00017525F66E7F0E00017621F76EAE
:101688000900F5CF7CF00900F5CF7DF00A00F5CF11
:101698007EF0000E0001746F640E736F00018E51AE
:1016A8000001716F726B71BF7207C2EC19F0120EF4
:1016B800000171250001756F000E00017221000103
:1016C800766F000E0001786F030E776FFBEC1CF04D
:1016D8001D0E00017525F66E7F0E00017621F76E4E
:1016E8000900F5CF79F00900F5CF7AF00A00F5CFB7
:1016F8007BF0E4EC13F079C08BF07AC08CF07BC0FF
:101708008DF08BC079F08CC07AF08DC07BF0000E24
:101718000001786F030E776F000E1F6E0A0E1E6EA3
:1017280000018E511C6E1D6A1CBE1D06EEEC1AF0DF
:101738001CC075F01DC076F0FBEC1CF01D0E0001FE
:101748007525F66E7F0E00017621F76E0900F5CF3C
:101758007CF00900F5CF7DF00A00F5CF7EF0E4ECCF
:1017680013F079C088F07AC089F07BC08AF0120043
:1017780000018E51800A750FD8A05BD0000E0001C1
:10178800746F0A0E736F00018E510001716F726BD6
:1017980071BF7207C2EC19F0090E00017125000132
:1017A800756F000E000172210001766F000E0001B6
:1017B800786F030E776FFBEC1CF01D0E000175258A
:1017C800F66E7F0E00017621F76E0900F5CF79F0ED
:1017D8000900F5CF7AF00A00F5CF7BF0000E000182
:1017E800786F030E776F000E1F6E0A0E1E6E0001D3
:1017F8008E511C6E1D6A1CBE1D06EEEC1AF01CC034
:1018080075F01DC076F0FBEC1CF01D0E000175256F
:10181800F66E7F0E00017621F76E0900F5CF7CF099
:101828000900F5CF7DF00A00F5CF7EF0E4EC13F067
:1018380098D700018E51030D1D0EF324F66E7F0E0E
:10184800F420F76E0900F5CF88F00900F5CF89F08C
:101858000A00F5CF8AF01200266E74D1E80E000156
:10186800716F7F0E0001726F5BEC1BF0EAD1D00E36
:101878000001716F7F0E0001726F5BEC1BF0E1D10C
:10188800F50E0001716F7F0E0001726F5BEC1BF0AB
:10189800D8D1CB0E0001716F7F0E0001726F5BEC27
:1018A8001BF0CFD1C10E0001716F7F0E0001726F66
:1018B8005BEC1BF0C6D1C40E0001716F7F0E0001F6
:1018C800726F5BEC1BF0BDD1BF0E0001716F7F0E14
:1018D8000001726F5BEC1BF0B4D1D60E0001716F82
:1018E8007F0E0001726F5BEC1BF0ABD1CC0E0001D8
:1018F800716F7F0E0001726F5BEC1BF0A2D1B20E0C
:101908000001716F7F0E0001726F5BEC1BF099D1C3
:10191800E70E0001716F7F0E0001726F5BEC1BF028
:1019280090D1FA0E0001716F7F0E0001726F5BECAF
:101938001BF087D1A80E0001716F7F0E0001726F36
:101948005BEC1BF07ED1C00E0001716F7F0E0001B1
:10195800726F5BEC1BF075D1A70E0001716F7F0EE3
:101968000001726F5BEC1BF06CD1F00E0001716F1F
:101978007F0E0001726F5BEC1BF063D1E60E000175
:10198800716F7F0E0001726F5BEC1BF05AD1F60E7F
:101998000001716F7F0E0001726F5BEC1BF051D17B
:1019A800D10E0001716F7F0E0001726F5BEC1BF0AE
:1019B80048D1A90E0001716F7F0E0001726F5BECB8
:1019C8001BF03FD1EC0E0001716F7F0E0001726FAA
:1019D8005BEC1BF036D1920E0001716F7F0E000197
:1019E800726F5BEC1BF02DD1E20E0001716F7F0E60
:1019F8000001726F5BEC1BF024D1EB0E0001716FDC
:101A08007F0E0001726F5BEC1BF01BD1E10E000131
:101A1800716F7F0E0001726F5BEC1BF012D1CA0E62
:101A28000001716F7F0E0001726F5BEC1BF009D132
:101A3800A50E0001716F7F0E0001726F5BEC1BF049
:101A480000D1AB0E0001716F7F0E0001726F5BEC6D
:101A58001BF0F7D0B10E0001716F7F0E0001726F9D
:101A68005BEC1BF0EED0B70E0001716F7F0E00012A
:101A7800726F5BEC1BF0E5D0910E0001716F7F0E69
:101A88000001726F5BEC1BF0DCD0DB0E0001716FA4
:101A98007F0E0001726F5BEC1BF0D3D0D50E0001F6
:101AA800716F7F0E0001726F5BEC1BF0CAD0CF0E16
:101AB8000001716F7F0E0001726F5BEC1BF0C1D0EB
:101AC800C90E0001716F7F0E0001726F5BEC1BF095
:101AD800B8D0BD0E0001716F7F0E0001726F5BEC14
:101AE8001BF0AFD0820E0001716F7F0E0001726F84
:101AF8005BEC1BF0A6D0970E0001716F7F0E000102
:101B0800726F5BEC1BF09DD0C30E0001716F7F0EEE
:101B18000001726F5BEC1BF094D0890E0001716FAD
:101B28007F0E0001726F5BEC1BF08BD0900E0001F2
:101B3800716F7F0E0001726F5BEC1BF082D0F7ECC7
:101B48001DF07FD02650200AD8B4F9D70C0AD8B493
:101B5800C9D7010AD8B4EAD7030AD8B4DED7010A2C
:101B6800D8B4D2D71F0AD8B463D7010AD8B469D772
:101B7800030AD8B46FD7010AD8B475D7070AD8B4FE
:101B88007BD7010AD8B481D7030AD8B487D7010A0A
:101B9800D8B48DD70F0AD8B493D7010AD8B499D737
:101BA800060AD8B4A8D77E0AD8B458D6030AD8B437
:101BB8005ED6010AD8B464D6070AD8B46AD6010A30
:101BC800D8B470D6030AD8B476D6010AD8B47CD66D
:101BD8000F0AD8B482D6010AD8B488D6030AD8B472
:101BE8008ED6010AD8B494D6070AD8B49AD6010A70
:101BF800D8B4A0D6030AD8B4A6D6010AD8B4ACD6AD
:101C08001F0AD8B4B2D6010AD8B4B8D6030AD8B4D1
:101C1800BED6010AD8B4C4D6070AD8B4CAD6010AAF
:101C2800D8B4D0D6030AD8B4D6D6010AD8B4DCD6EC
:101C38000F0AD8B4E2D6010AD8B4E8D6030AD8B451
:101C4800EED6FEEC1DF01200FACF06F0FBCF07F03F
:101C5800E9CF08F0EACF09F0E1CF0AF0E2CF0BF0C4
:101C6800D9CF0CF0DACF0DF0F3CF0EF0F4CF0FF0A0
:101C7800F6CF10F0F7CF11F0F8CF12F0F5CF13F040
:101C8800000E196E000E186E000E156E000E146E02
:101C9800000E176E000E166E000E1B6E000E1A6EEA
:101CA8009EA202D09E925FD19EA05DD1EC0ECF6E17
:101CB800770ECE6E83BA03D0016A012A01D0016A79
:101CC800013A014683500118DF0B0118836E384A28
:101CD800392A320E38183910D8A411D083B803D055
:101CE800016A012A01D0016A013A83500118EF0BF9
:101CF8000118836E0400000E396E000E386E2F50E6
:101D080006E1800E2E5CD8B002D02E4A2F2AC2944B
:101D1800C296C288C29AC29CC2809E9CC2829EAC55
:101D2800FED7C3CF18F0C4CF19F09E9CC2903E5086
:101D3800D8B402D0324A332A195004E1810E185C13
:101D4800D8A01DD01850425C19504358D8B017D0AD
:101D5800000E176E010E166E344A352AC80E341856
:101D68003510D8A48DD08182010E3E6E000E336EE0
:101D7800000E326E000E356E000E346E81D0000EED
:101D8800176E000E166E000E356E000E346EE00EE5
:101D9800321807E12E0E3318D8A403D08192000E12
:101DA8003E6E800E2E182F10D8A40ED0D890363440
:101DB800D96E3734DA6E000ED926020EDA22DECF5B
:101DC80014F0DDCF15F004D0000E156E000E146E61
:101DD800D8903634D96E3734DA6E000ED926020E12
:101DE800DA2218C0DEFF19C0DDFF2F5006E1800E91
:101DF8002E5CD8B002D02E4A2F2A364A372A800EB7
:101E080036183710D8A404D0000E376E000E366E80
:101E180014C001F015C002F0011E021E014A022A78
:101E2800305001263150022218500124306E1950CA
:101E38000220316E800E2E182F10D8A421D030C069
:101E48003FF031C040F0416A070E016E3FC002F01A
:101E580040C003F041C004F00128056E04D0D890BA
:101E6800043203320232052EFAD702C03FF003C013
:101E780040F004C041F0D8903F34426E4034436E85
:101E88002C502D10D8A409D016041710D8A405D0AA
:101E9800000E1B6E010E1A6E0CD02C042D10D8A447
:101EA80011D016501710D8A40DD0000E1B6E000EBE
:101EB800F2D729500FE1200E285CD8B00BD0284A61
:101EC800292A08D0000E1B6E020E1A6E000E296E0B
:101ED800000E286E020E1A181B10D8B416D02950FE
:101EE80014E1210E285CD8B010D03A503B10D8A489
:101EF8000CD0FE0E3C143C6EFF0E3D143D6E1A5085
:101F08003C103C6E1B503D103D6E020E1A181B1003
:101F1800D8A412D0020E2A182B10D8B40DD03A50DB
:101F28003B10D8A409D0200E28182910D8A404D012
:101F3800000E3B6E010E3A6E020E1A181B10D8A442
:101F480011D0020E2A182B10D8A40CD03A503B10EE
:101F5800D8A408D0000E3D6E000E3C6E000E296E0F
:101F6800000E286E9E9013C0F5FF12C0F8FF11C036
:101F7800F7FF10C0F6FF0FC0F4FF0EC0F3FF0DC04F
:101F8800DAFF0CC0D9FF0BC0E2FF0AC0E1FF09C0AD
:101F9800EAFF08C0E9FF07C0FBFF06C0FAFF44924A
:101FA80011000001916F6D0E00019165B6D0000E11
:101FB8000001786F030E776F000E0001746F0A0E30
:101FC800736F000E1F6E640E1E6E91C01CF01D6AAA
:101FD800EEEC1AF01CC071F01DC072F0C2EC19F0E2
:101FE800090E000171250001756F000E00017221B4
:101FF8000001766FFBEC1CF0440E00017525F66EAF
:102008007F0E00017621F76E0900F5CF7CF00900FC
:10201800F5CF7DF00A00F5CF7EF0000E0001746F59
:10202800640E736F91C071F00001726BC2EC19F00D
:10203800120E000171250001756F000E000172215A
:102048000001766F000E0001786F030E776FFBECCE
:102058001CF0440E00017525F66E7F0E00017621F6
:10206800F76E0900F5CF79F00900F5CF7AF00A008C
:10207800F5CF7BF0E4EC13F079C08EF07AC08FF0E6
:102088007BC090F0000E0001786F030E776F000E92
:102098001F6E0A0E1E6E91C01CF01D6AEEEC1AF03F
:1020A8001CC075F01DC076F0FBEC1CF0440E00015E
:1020B8007525F66E7F0E00017621F76E0900F5CFC3
:1020C8007CF00900F5CF7DF00A00F5CF7EF08EC0D8
:1020D80079F08FC07AF090C07BF0E4EC13F079C00F
:1020E8008BF07AC08CF07BC08DF08BC079F08CC0FF
:1020F8007AF08DC07BF0000E00017C6F000E0001AD
:102108007D6F3F0E00017E6FE4EC13F079C088F01C
:102118007AC089F07BC08AF012000A0E000191652E
:102128006CD0000E0001786F030E776F000E1F6EE3
:102138000A0E1E6E91C01CF01D6AEEEC1AF01CC04F
:1021480075F01DC076F0FBEC1CF0440E00017525FF
:10215800F66E7F0E00017621F76E0900F5CF7CF050
:102168000900F5CF7DF00A00F5CF7EF0000E0001E2
:10217800746F0A0E736F91C071F00001726BC2EC3C
:1021880019F0090E000171250001756F000E00019C
:1021980072210001766F000E0001786F030E776FD1
:1021A800FBEC1CF0440E00017525F66E7F0E000155
:1021B8007621F76E0900F5CF79F00900F5CF7AF0AE
:1021C8000A00F5CF7BF0E4EC13F079C08EF07AC00A
:1021D8008FF07BC090F08EC079F08FC07AF090C0FD
:1021E8007BF0000E00017C6F000E00017D6F3F0E3A
:1021F80000017E6FE4EC13F089D700019151030DC3
:10220800440EF324F66E7F0EF420F76E0900F5CF26
:1022180079F00900F5CF7AF00A00F5CF7BF0000ECF
:1022280000017C6F000E00017D6F3F0E00017E6F84
:10223800E4EC13F079C088F07AC089F07BC08AF0AA
:10224800120094C098F00001996B9A6B00019335C5
:102258000001983701E399810001985100019D6FB1
:1022680097C098F00001996B9A6B000196350001B0
:10227800983701E399810001985100019C6F000192
:102288009D510001D8B411D000019C5100019D5D01
:10229800D8B012D000019D51000800019C25000112
:1022A800986F180E0001986507D095C092F096C0F7
:1022B80093F097C094F0120000019C510001D8B42B
:1022C80011D000019D5100019C5DD8B012D00001D1
:1022D8009C51000800019D250001986F180E00010F
:1022E800986507D092C092F093C093F094C094F090
:1022F8001200060E00019B6F000194AF02D000018E
:102308009B8F000197AF02D000019B8D0001938F36
:10231800FF0E00019217FF0E00019317000E000137
:1023280094170001968FFF0E00019517FF0E00010C
:102338009617000E0001971700019C5100019D5D42
:10234800D8B025D00001D890953796379737000137
:102358009C0700019D5100019C19D8B411D00001BF
:102368009B079BC098F0070E00019817D8B408D0B7
:10237800E9D70001D89094339333923300019D2B11
:1023880000019C5100019D19D8B42BD0F2D700014F
:102398009D5100019C5DD8B024D00001D89092379F
:1023A8009337943700019D0700019D5100019C1946
:1023B800D8B411D000019B079BC098F0070E00010C
:1023C8009817D8B408D0E9D70001D8909733963336
:1023D800953300019C2B00019C5100019D19D8A444
:1023E800F3D700019BAF12D0FF0E0001921BFF0E26
:1023F8000001931BFF0E0001941B010E00019227A0
:10240800000E00019323000E0001942300019BADF0
:1024180012D0FF0E0001951BFF0E0001961BFF0E48
:102428000001971B010E00019527000E000196235D
:10243800000E00019723000E00019B6F00019251CE
:102448000001952700019351000196230001945142
:1024580000019723000197AF15D0FF0E0001951BCF
:10246800FF0E0001961BFF0E0001971B010E0001D5
:102478009527000E00019623000E00019723010EF8
:1024880000019B6F95C01CF096C01DF097C01EF010
:102498009DC01FF09BC020F06BEC19F01CC092F09F
:1024A8001DC093F01EC094F01200000E0001926F40
:1024B800000E916F9286E2EC1CF01CC081F01DC0EA
:1024C80082F0E2EC1CF01CC083F01DC084F0E2EC4A
:1024D8001CF01CC085F01DC086F0E2EC1CF01CC08E
:1024E80087F01DC088F0E2EC1CF01CC089F01DC00C
:1024F8008AF0E2EC1CF01CC08BF01DC08CF0E2EC02
:102508001CF01CC08DF01DC08EF0E2EC1CF01CC04D
:102518008FF01DC090F08FC073F090C074F0070E5C
:10252800D890000173377437E82EFAD78DC075F04C
:102538008EC076F0060ED890000175377637E82EF3
:10254800FAD78BC077F08CC078F0050ED8900001D0
:1025580077377837E82EFAD789C079F08AC07AF0C9
:102568000001793B7A3BF00E7A1779510F0B7A13F9
:10257800F00E791787C07BF088C07CF00001D890F6
:102588007B377C370001D8907B377C370001D890A7
:102598007B377C3785C07DF086C07EF00001D890FF
:1025A8007D377E370001D8907D377E3783C07FF036
:1025B80084C080F0D89000017F37803700017D51BA
:1025C80000017F2700017E510001802300017B511B
:1025D80000017F2700017C5100018023000179510F
:1025E80000017F2700017A51000180230001775103
:1025F80000017F27000178510001802300017551F7
:1026080000017F27000176510001802300017351EA
:1026180000017F27000174510001802300018151CE
:1026280000017F250001916F000182510001802186
:102638000001926F91C071F092C072F01200010E09
:102648001E140001716F0001726B1F341F30216E60
:102658001E30206E010E20140001736F0001746B90
:102668001EC020F01FC021F0213421322032213435
:1026780021322032010E20140001756F0001766BA3
:102688001EC020F01FC021F0213421322032213415
:1026980021322032213421322032010E201400014F
:1026A800776F0001786B1EC020F01FC021F0040E68
:1026B800226E213421322032222EFBD7010E201423
:1026C8000001796F00017A6B1EC020F01FC021F055
:1026D800050E226E213421322032222EFBD7010E24
:1026E800201400017B6F00017C6B1EC020F01FC00E
:1026F80021F0060E226E213421322032222EFBD701
:10270800010E201400017D6F00017E6B1EC020F0B9
:102718001FC021F0070E226E213421322032222ED2
:10272800FBD7010E201400017F6F0001806B71C080
:102738001CF072C01DF014EC1DF000D000D000F0A9
:1027480073C01CF074C01DF014EC1DF000D000D054
:1027580000F075C01CF076C01DF014EC1DF000D020
:1027680000D000F077C01CF078C01DF014EC1DF00C
:1027780000D000D000F079C01CF07AC01DF014EC35
:102788001DF000D000D000F07BC01CF07CC01DF014
:1027980014EC1DF000D000D000F07DC01CF07EC00D
:1027A8001DF014EC1DF000D000D000F07FC01CF02C
:1027B80080C01DF014EC1DF000D000D000F0120015
:1027C8007BC07FF00001806B816B00017A350001CE
:1027D8007F3701E3808100017F510001826F000192
:1027E8008251D8A40AD0000E0001796F000E0001B2
:1027F8007A6F000E00017B6F12007EC07FF000012F
:10280800806B816B00017D3500017F3701E380819A
:1028180000017F510001876F00018751D8A40AD0B9
:10282800000E0001796F000E00017A6F000E0001A2
:102838007B6F1200000187517B0F000182277BC04C
:1028480087F000017E510001871B800E0001871769
:1028580000017A8F00017D8FFF0E00017C17FF0EAB
:1028680000017D17000E00017E17000E0001836F26
:10287800000E0001846F000E0001856F070E000135
:10288800866F000179A10CD000017C5100018327DB
:1028980000017D510001842300017E510001852340
:1028A8000001D8907B337A3379330001D8907C3794
:1028B8007D377E370001862FE4D7090E0001866F29
:1028C800000179A10CD000017C510001832700018F
:1028D8007D510001842300017E5100018523000100
:1028E800D8907B337A3379330001D8908533843399
:1028F80083330001862FE4D783C01CF084C01DF009
:1029080085C01EF082C01FF087C020F06BEC19F064
:102918001CC079F01DC07AF01EC07BF012001EC0EA
:1029280022F0236A246A1D34223601E323802250D0
:102938000001766F00017651D8A409D0000E1C6EF4
:10294800000E1D6E000E1E6E000E1F6E120021C0BE
:1029580022F0236A246A2034223601E3238022509D
:102968000001756F00017551D8A409D0000E1C6EC6
:10297800000E1D6E000E1E6E000E1F6E12001D8EC4
:10298800FF0E1C16FF0E1D16000E1E16208EFF0EC3
:102998001F16FF0E2016000E2116000E0001716F83
:1029A800000E726F000E736F000E746F7F0E0001C1
:1029B800765F00017551980F0001765F180E0001CF
:1029C800756F0001D89071377237733774371F509D
:1029D8001C5C20501D5821501E58D8A008D01F50EC
:1029E8001C5E20501D5A21501E5A00017181D8903A
:1029F8001C361D361E360001752FE3D7000176AF51
:102A080019D000017651800A970FD8B009D0000E6E
:102A18001C6E000E1D6E000E1E6E000E1F6E120044
:102A28000001D89074337333723371330001763FE9
:102A3800F7D71AD0170E0001766511D0000E1C6E5C
:102A4800000E1D6E000E1E6E000E1F6E120000019D
:102A5800D8907137723773377437000176070001E1
:102A680076510001D8A4F3D771C01CF072C01DF0D4
:102A780073C01EF074C01FF0120091C093F00001E3
:102A8800946B956B000190350001933701E39481B5
:102A98000001935100019D6F00019D51D8A40AD0F7
:102AA800000E00018F6F000E906F000E916F000EE8
:102AB800926F1200170E0001936F8FC094F090C0B0
:102AC80095F091C096F0000193290001976F05D009
:102AD8000001D8909633953394330001972FF8D797
:102AE800000194510001986F0001908FFF0E0001C2
:102AF8008F17FF0E00019017000E000191170001BB
:102B08008F510001996F0001905100019A6F0001E7
:102B1800915100019B6F00019C6B8E0E00019D5F1F
:102B280000019DAF1AD000019D51800A8F0FD8B0C7
:102B38000AD0000E00018F6F000E906F000E916F8B
:102B4800000E926F12000001D8909C339B339A3389
:102B5800993300019D3FF7D71BD0170E00019D65E3
:102B680012D0000E00018F6F000E906F000E916F53
:102B7800000E926F12000001D89099379A379B3750
:102B88009C3700019D0700019D510001D8A4F3D78F
:102B9800000198510001D8B409D000019C1F9B1F67
:102BA8009A1F996D000E9A239B239C2399C08FF03E
:102BB8009AC090F09BC091F09CC092F0120076C031
:102BC80025F0266A276A00017535253601E3268037
:102BD800255000017E6F00017E51D8A40AD0000E56
:102BE8000001746F000E0001756F000E0001766F12
:102BF800120079C025F0266A276A00017835253643
:102C080001E32680255000017F6F00017F51D8A481
:102C18000AD0000E0001746F000E0001756F000EDF
:102C28000001766F1200000E00017B6F000E00019C
:102C38007C6F000E00017D6F00017F51890F00013C
:102C48007E5F76C07FF00001795100017F1B800E06
:102C580000017F170001758FFF0E00017417FF0E2A
:102C680000017517000E000176170001788FFF0E1E
:102C780000017717FF0E00017817000E0001791781
:102C8800180E00017A6F0001D8907B377C377D37AA
:102C9800000177510001745D0001785100017559F8
:102CA8000001795100017659D8A00ED00001775162
:102CB8000001745F000178510001755B00017951D2
:102CC8000001765B00017B810001D890743775376D
:102CD800763700017A2FD7D77BC01CF07CC01DF057
:102CE8007DC01EF07EC01FF07FC020F06BEC19F095
:102CF8001CC074F01DC075F01EC076F012001E34A2
:102D08001F34276E2750D8A409D0000E1C6E000E61
:102D18001D6E000E1E6E000E1F6E1200213422342E
:102D2800266E2650D8A409D0000E1C6E000E1D6E0B
:102D3800000E1E6E000E1F6E12001E8EFF0E1C1659
:102D4800FF0E1D16FF0E1E16000E1F16218EFF0EFB
:102D58001F16FF0E2016FF0E2116000E2216000E5B
:102D6800226E000E236E000E246E000E256E7F0E5E
:102D7800275E2650A00F275E200E266ED89022369A
:102D88002336243625361F501C5C20501D582150F0
:102D98001E5822501F58D8A009D01F501C5E205022
:102DA8001D5A21501E5A22501F5A2280D8901C3674
:102DB8001D361E361F36262EE1D727AE16D02750D1
:102DC800800A9F0FD8B009D0000E1C6E000E1D6E31
:102DD800000E1E6E000E1F6E1200D890253224328F
:102DE80023322232273EF9D715D01F0E27640FD081
:102DF800000E1C6E000E1D6E000E1E6E000E1F6E65
:102E08001200D89022362336243625362706275036
:102E1800D8A4F7D722C01CF023C01DF024C01EF090
:102E280025C01FF01200000E1C6E010E1D6E000E54
:102E38001F6E000E1E6E000E216E800E206E5AEC64
:102E48001DF0000E1C6E010E1D6E9E0E1E6E7F0E76
:102E58001F6E2CEC1DF0800E1C6E010E1D6E000EF8
:102E68001F6E000E1E6E000E216E400E206E5AEC74
:102E78001DF0800E0001A46F010E0001A56F6B0EFE
:102E88000001A66F7F0E0001A76FD8C0A8F0D9C0B7
:102E9800A9F0DAC0AAF0D1C0ABF0D2C0ACF0D3C070
:102EA800ADF0D4C0AEF0D5C0AFF0D6C0B0F0D7C04A
:102EB800B1F055EC00F0000E1C6E010E1D6E800E78
:102EC8001E6E010E1F6E4BEC1CF0000E0101C16F4F
:102ED800000EC06F0ED0000E0101C025D96E010E84
:102EE8000101C121DA6EDF5030EC0CF00101C04B5A
:102EF800C12B000E1C6E010E1D6EB4EC1BF01C5095
:102F08000101C05D1D500101C159D8B01200E3D7BD
:102F1800000E0001A06F000E0001A16F000E00015D
:102F2800A26F000E0001A36F000E0001A46F000E37
:102F38000001A56FC284C296C298C29AC29CC28080
:102F48009E9CC2829EACFED7C3CF71F0C4CF72F0F4
:102F580083EC1DF071C0A0F072C0A1F073C0A2F0A4
:102F68009E9CC290A0C079F0A1C07AF0A2C07BF06C
:102F7800330E00017C6F030E00017D6F3B0E0001D4
:102F88007E6FE4EC13F079C0A3F07AC0A4F07BC0A4
:102F9800A5F0A3C079F0A4C07AF0A5C07BF0000E1C
:102FA80000017C6F800E00017D6F3F0E00017E6F77
:102FB800E4EC13F079C0A3F07AC0A4F07BC0A5F0CC
:102FC800A3C08FF0A4C090F0A5C091F041EC15F01B
:102FD8008FC09EF090C09FF01200000E0001A06FFD
:102FE800000E0001A16F000E0001A26F000E00018B
:102FF800A36F000E0001A46F000E0001A56FC2941C
:10300800C296C288C28AC29CC2809E9CC2829EAC62
:10301800FED7C3CF71F0C4CF72F083EC1DF071C03E
:10302800A0F072C0A1F073C0A2F09E9CC290A0C094
:1030380079F0A1C07AF0A2C07BF0330E00017C6F5A
:10304800030E00017D6F3B0E00017E6FE4EC13F070
:1030580079C0A3F07AC0A4F07BC0A5F0A3C079F032
:10306800A4C07AF0A5C07BF0000E00017C6F800E32
:1030780000017D6F3F0E00017E6FE4EC13F079C014
:10308800A3F07AC0A4F07BC0A5F0A3C08FF0A4C0C1
:1030980090F0A5C091F041EC15F08FC09EF090C063
:1030A8009FF01200000E00018B6F000E00018C6F64
:1030B800000E00018D6F000E00018E6F000E0001E2
:1030C8008F6F000E0001906FC294C296C298C29A88
:1030D800C29CC2809E9CC2829EACFED7C3CF71F0B8
:1030E800C4CF72F083EC1DF071C08BF072C08CF00D
:1030F80073C08DF09E9CC2908BC079F08CC07AF022
:103108008DC07BF0330E00017C6F030E00017D6FD4
:103118003B0E00017E6FE4EC13F079C08EF07AC0AC
:103128008FF07BC090F08EC079F08FC07AF090C09D
:103138007BF0660E00017C6FB60E00017D6F400EBD
:1031480000017E6FE4EC13F079C08EF07AC08FF046
:103158007BC090F08EC088F08FC089F090C08AF054
:1031680012000F01428F0F0142990F01428B0F018C
:10317800428D080EC16EAF0EC06E928092829294FC
:1031880092869288928A0F0138810F0138830F0145
:1031980038850F0138970F01388B89908992899467
:1031A80089968998899A000E616EF18E9380939220
:1031B800939493969398939A939C939E0F01398135
:1031C8000F0139930F0139950F0139970F01399B79
:1031D8008A908A928A948A968A988A9A95909592E1
:1031E800959495969598959A959C959E0F013B91E7
:1031F8000F013B930F013B950F013B970F013B9943
:103208000F013B9B0F013B9D0F013B9F8C908C92C4
:103218008C948C968C988C9A8C9C8C9E1200000EA8
:103228001C6E000E1D6E000E1E6E000E1F6E00013D
:103238007551000176110001771100017811D8B499
:103248003DD0010E206E07D00001D8907537763733
:1032580077377837202A000178AFF6D7D8901C3610
:103268001D361E361F36000175510001715D0001C3
:10327800765100017259000177510001735900011C
:10328800785100017459D8A011D00001755100017E
:10329800715F000176510001725B000177510001F6
:1032A800735B000178510001745B1C800001D890A9
:1032B8007833773376337533202ED0D71CC071F02E
:1032C8001DC072F01EC073F01FC074F012001F50B2
:1032D800D8B405D01C501D101E10D8A40CD0000E58
:1032E8001C6E000E1D6E000E1E6E12001F2AD89056
:1032F8001E321D321C32000E1C14216E000E1D14CD
:10330800226EFE0E1E14236E215022102310D8B4F4
:103318000CD0ECD71F2A010E1C26000E1D22000E11
:103328001E22D8901E321D321C32000E1C14216E33
:10333800000E1D14226EFF0E1E14236E2150221043
:103348002310D8B406D0E6D71F06D8901C361D36F1
:103358001E361DBE03D0020E1F60F6D71FA01D9E8D
:10336800D8901F321F501E122050D8A41E8E1CC089
:103378001CF01DC01DF01EC01EF01200000E236EB2
:10338800000174AF07D00001736D741FD8B0742B9F
:10339800010E236E000172AF07D00001716D721F1C
:1033A800D8B0722B010E231A000E256E000E246E63
:1033B8000001735100017411D8B427D0010E226E98
:1033C80005D00001D89073377437222A000174AFF2
:1033D800F8D7D89024362536000173510001715D65
:1033E8000001745100017259D8A009D0000173512D
:1033F8000001715F000174510001725B24800001BB
:10340800D89074337333222EE4D72350D8B404D021
:10341800246C251ED8B0252A24C071F025C072F06E
:10342800120000017D5100017E1100017F11000191
:103438008011D8B437D0010E216E07D00001D89082
:103448007D377E377F378037212A000180AFF6D756
:1034580000017D510001795D00017E5100017A591A
:1034680000017F5100017B590001805100017C5906
:10347800D8A010D000017D510001795F00017E5174
:1034880000017A5B00017F5100017B5B00018051E4
:1034980000017C5B0001D89080337F337E337D331D
:1034A800212ED6D779C079F07AC07AF07BC07BF02C
:1034B8007CC07CF012001EAE16D01CC022F01DC0CD
:1034C80023F01EC024F0221E231E241E222A000ED2
:1034D80023222422000E22241C6E000E23201D6E9F
:1034E800800E24201E6E21AE16D01FC022F020C0F0
:1034F80023F021C024F0221E231E241E222A000E9F
:1035080023222422000E22241F6E000E2320206E68
:10351800800E2420216E000E1C1A000E1D1A800E2B
:103528001E1A000E1F1A000E201A800E211A1F5094
:103538001C5C20501D5821501E58D8B002D0D8907D
:103548001200D8801200B6EC1DF056EC18F088C0B6
:10355800E2F089C0E3F08AC0E4F08CEC17F09EC07A
:10356800DEF09FC0DFF0F1EC17F09EC0E0F09FC0E6
:10357800E1F018EC06F09EC0DBF09FC0DCF0A0C0C4
:10358800DDF00001E4BF17D0E2C0D1F0E3C0D2F013
:10359800E4C0D3F0DEC0D4F0DFC0D5F0E0C0D6F090
:1035A800E1C0D7F0DBC0D8F0DCC0D9F0DDC0DAF07C
:1035B80017EC17F007D0000E0001786F020E776F36
:1035C8006CEC1CF0000E0001746F030E736F8BEC33
:1035D8001CF0B9D7000E216E1DAE06D01C6C1D1E46
:1035E800D8B01D2A010E216E1FAE04D01E6C1F1EFE
:1035F800D8B01F2A1E501F10D8B418D0010E206E44
:1036080004D0D8901E361F36202A1FAEFAD71E5077
:103618001C5C1F501D58D8A004D01E501C5E1F50A3
:103628001D5AD8901F321E32202EF1D72150D8B4FF
:1036380004D01C6C1D1ED8B01D2A1CC01CF01DC057
:103648001DF012008E0E0001756F08D00001D89091
:1036580074337333723371330001752B000E00011C
:103668007115246E000E00017215256E000E000102
:103678007315266EFF0E00017415276E2450251051
:1036880026102710D8A4E2D771C01CF072C01DF014
:1036980073C01EF075C01FF0000E206E6BEC19F0A1
:1036A8001CC071F01DC072F01EC073F01200000E35
:1036B800256E000E246E1ED0C5EC1DF017D0D2EC7E
:1036C8001DF014D0245000017125226E25500001F0
:1036D8007221236E22C0F6FF23C0F7FF0800F550C1
:1036E8002D0AD8B4ECD7030AD8B4E6D705EC1EF0F7
:1036F800244A252A71C01CF072C01DF0B4EC1BF0DE
:103708001C50245C1D502558D8B01200DBD7000E81
:10371800236E000E226E17D0000E256E000E246E4A
:1037280025BE06D025500DE10A0E245CD8B009D07C
:10373800000E1D6E640E1C6E44EC1DF0244A252AF2
:10374800EFD7224A232A00017151225C2350800AB4
:10375800216E00017251800A2158D8B01200DCD7BE
:103768001CC020F01DC021F002D0204A212A20C010
:10377800F6FF21C0F7FFF86A050EF76403D00800CA
:10378800F55005D0F6CFE9FFF7CFEAFFEF50000973
:10379800D8A4EBD71CC01EF01DC01FF01E1E1F1E94
:1037A8001E4A1F2A20501E241C6E21501F201D6EE9
:1037B8001200340EF66E3C0EF76E000EF86E00EE38
:1037C8003FF010EE05F00900F5CFEEFFE550E150AF
:1037D800FAE102EE00F011EE00F0EE6AE550E15079
:1037E800FCE1E250FAE100EE28F0170EEE6AE80676
:1037F800FDE144904492000EF86E00010CEF1EF0BB
:103808000001A1510001A2110001A311D8B409D0EF
:10381800000E0001A11B000E0001A21B800E00017A
:10382800A31B9EC092F09FC093F0A0C094F0A1C0CB
:1038380095F0A2C096F0A3C097F025EC11F092C0C5
:103848009EF093C09FF094C0A0F01200000E206E6E
:10385800010E1F6E929680965D0EE82EFED700F040
:1038680080860B0EE82EFED700D0928680A603D065
:103878001E6A1E2A01D01E6A1E501F6E206A460E3E
:10388800E82EFED71FC01CF020C01DF012001CC07F
:1038980020F01DC021F002D0204A212A20C0D9FFE3
:1038A80021C0DAFFDF50D8B405D0F6D7204A212A44
:1038B8001E4A1F2A1EC0D9FF1FC0DAFF20C0E1FF21
:1038C80021C0E2FFDFCFE7FFE750D8B41200EED700
:1038D800000E00017A6F000E796F0AD0000E000109
:1038E800746F3C0E736F8BEC1CF00001794B7A2BD4
:1038F800000177510001795D00017A51800A276E35
:1039080000017851800A2758D8B01200E7D7000E76
:103918000001766F000E756F0AD0000E0001726FFD
:103928003C0E716F8BEC1BF00001754B762B000180
:1039380073510001755D00017651800A266E000101
:103948007451800A2658D8B01200E7D7000E246EAA
:10395800000172AF07D00001716D721FD8B0722BD1
:10396800010E246E71C01CF072C01DF01E6A8E0E0E
:103978001F6E24C020F06BEC19F01CC071F01DC044
:1039880072F01EC073F0120095849586E70E0F0141
:1039980049177C0EBB6E3F0E66166650F00B0C097D
:1039A800666E63906382638463963E0E676E6650AC
:1039B800CF0B2009666EBA949E921200000E206EFC
:1039C800000E1F6E92968096808600D080A603D047
:1039D8001E6A1E2A01D01E6A1E501F6E206A0A0E19
:1039E800E82EFED71FC01CF020C01DF012000001F9
:1039F800755100017703F3CF26F0F4CF27F00001CB
:103A0800755100017803F350272600017651000113
:103A18007703F350272626C075F027C076F01200EA
:103A280092961C501D10D8B409D0809600D000D0B2
:103A380000F08086090EE82EFED7120080960B0E45
:103A4800E82EFED700D0808600D000D000F012000B
:103A58001CC020F01DC021F004D0204A212A1E4A93
:103A68001F2A1EC0F6FF1FC0F7FF20C0D9FF21C0C4
:103A7800DAFF0800F5CFDFFFDF50D8B41200EDD72A
:103A8800000E206E000E1F6E06D0A60EE82EFED782
:103A980000D01F4A202A1C501F5C2050800A1E6E2E
:103AA8001D50800A1E58D8B01200EFD71CC022F053
:103AB8001DC023F008D022C0D9FF23C0DAFF1EC0E2
:103AC800DFFF224A232A2006D8A021062028F3E176
:103AD8002128D8B41200EFD7D08ECD90CD9CCD9EA2
:103AE800CD9ACD98CD96CD82EC0ECF6E770ECE6E58
:103AF8009D809F809E90CD80F29CF28E120071C0B6
:103B08001CF072C01DF01E6A8E0E1F6E000E206E15
:103B18006BEC19F01CC071F01DC072F01EC073F080
:103B280012001C501D101E10D8B406D0000E1C1A0E
:103B3800000E1D1A800E1E1A1CC01CF01DC01DF0A0
:103B48001EC01EF012001E6E000E1D6E3A0E1E6084
:103B580005D02F0E1E6402D0010E1D6E1DC01CF074
:103B68001C30120083BA03D01C6A1C2A01D01C6ABC
:103B78001C3A1C4683501C18DF0B1C18836E04006B
:103B88001200838216EC1EF0000E1D6E4B0E1C6E8A
:103B980044EC1DF012EC1EF083921200838216ECA6
:103BA8001EF0000E1D6EE10E1C6E44EC1DF012ECB2
:103BB8001EF083921200BA94BA80BA92BA96BA9852
:103BC800BA9ABA9C000EBC6E9D829F929E92120079
:103BD800B6EC1DF0B5EC18F070EC1DF0DFEC1DF044
:103BE800C8EC1CF01200020E1D6E0D0E1C6E44EC8B
:103BF8001DF01200000E1D6EE10E1C6E44EC1DF04F
:103C08001200000E1D6E4B0E1C6E44EC1DF01200CF
:103C1800ECEC1DF0A7EC1AF053EF00F095849586B4
:103C2800BA94120095949596BA841200007D00000B
:013C38007D0E
:107EF40000010000000A00000064000000E8030024
:107F04000010270000A086010040420F00809698D0
:107F14000000E1F50500CA9A3B00803F00204100C3
:107F2400C842007A44401C4650C3472474499718F9
:107F34004BBCBE4C6B6E4E03155079AD60F349716A
:107F440000803FCDCC3DD7233C12833AB7D138C60D
:107F54002737388635C0D633CC2B32708930E7DBEF
:107F64002EE53C1E42A20D20252E316620252E3101
:107F7400662025332E30642025332E3064002D2DC9
:107F84002E2E2D2D002E2D2E2D2E2D002D2E2E2E6F
:107F94002E2D002E2E2D2D2E2E00454153415432D0
:107FA400002D2D2D2D2D002E2D2D2D2D002E2E2D81
:107FB4002D2D002E2E2E2D2D002D2D2D2D2E002D70
:107FC4002E2E2D2E002D2D2D2E2E002D2D2E2E2E2F
:107FD400002D2E2E2E2E002E2E2E2E2E002D2E2D4A
:107FE4002D002D2D2E2D002D2E2E2D002E2D2D2E3F
:0C7FF400002D2E2D2E002E2D2E2E000014
:020000040020DA
:08000000FFFFFFFFFFFFFFFF00
:020000040030CA
:0E000000FF21193FFF8581FF0FC00F400F4009
:00000001FF
