:0400000040EF2EF0AF
:105C680012001200000E026E640E016E1200000E89
:105C7800026E780E016E1200000EF86E000145EFFC
:105C88002EF034EC2EF047EC31F000EF00F0EE0E81
:105C9800016E6C0E026E400E036E1200080E016E4D
:105CA800480E026EC10E036E1200000E026E4B0EFD
:105CB800016ECAEC2EF01200000E026EE10E016EAB
:105CC800CAEC2EF01200020E026E0D0E016ECAEC26
:105CD8002EF01200036E000E026E3A0E036005D01D
:105CE8002F0E036402D0010E026E02C001F00130D3
:105CF8001200015002100310D8B406D0000E011A89
:105D0800000E021A800E031A01C001F002C002F050
:105D180003C003F01200000E056E000E046E02D0E0
:105D2800044A052A0150045C0550800A036E02509B
:105D3800800A0358D8B01200F3D70F501102F3CFDE
:105D480013F0F4CF14F00F501202F3501426105031
:105D58001102F350142613C00FF014C010F01200F3
:105D680001C007F002C008F008D007C0D9FF08C07A
:105D7800DAFF03C0DFFF074A082A0506D8A006068F
:105D88000528F3E10628D8B41200EFD7000E056EF7
:105D9800000E046E06D0A60EE82EFED700D0044AE8
:105DA800052A0150045C0550800A036E0250800ADF
:105DB8000358D8B01200EFD701C005F002C006F0B2
:105DC80004D0054A062A034A042A03C0F6FF04C081
:105DD800F7FF05C0D9FF06C0DAFF0800F5CFDFFFDF
:105DE800DF50D8B41200EDD783808384000E096E8B
:105DF800000E086E09BE06D009500DE1E10E085CE0
:105E0800D8B009D02CEC2FF0084A092A09BEFAD7D5
:105E1800095001E1F3D7839083941200838083842F
:105E2800000E096E000E086E09BE06D009500DE17D
:105E38004B0E085CD8B009D02CEC2FF0084A092A80
:105E480009BEFAD7095001E1F3D783908394120071
:105E5800000E076E000E066E07BE05D0075014E14F
:105E68000604D8B012008382010E026EF40E016E91
:105E78008FEC2EF08392010E026EF40E016E8FEC01
:105E88002EF0064A072AE8D712003D503E103F1070
:105E9800D8B406D0000E3D1A000E3E1A800E3F1AE6
:105EA8003AC02EF03BC02FF03CC030F03DC031F07E
:105EB8003EC032F03FC033F079EC34F02EC03AF0F7
:105EC8002FC03BF030C03CF0120001C005F002C00A
:105ED80006F002D0054A062A05C0D9FF06C0DAFF37
:105EE800DF50D8B405D0F6D7054A062A034A042A53
:105EF80003C0D9FF04C0DAFF05C0E1FF06C0E2FF16
:105F0800DFCFE7FFE750D8B41200EED701C005F0A5
:105F180002C006F002D0054A062A05C0F6FF06C0F0
:105F2800F7FFF86A050EF76403D00800F55005D0AE
:105F3800F6CFE9FFF7CFEAFFEF500009D8A4EBD777
:105F480001C003F002C004F0031E041E034A042A21
:105F580005500324016E06500420026E12008E0EB6
:105F6800116E06D0D8900C320B320A320932112A3F
:105F7800000E09140D6E000E0A140E6E000E0B149E
:105F88000F6EFF0E0C14106E0D500E100F10101027
:105F9800D8A4E8D709C001F00AC002F00BC003F08A
:105FA80011C004F0000E056E90EC31F001C009F04C
:105FB80002C00AF003C00BF01200000E0F6E000EB4
:105FC8000E6E1ED012EC2FF019D0F8EC2EF016D071
:105FD80059EC2EF013D00E500A240C6E0F500B20E3
:105FE8000D6E0CC0F6FF0DC0F7FF0800F5502D0A26
:105FF800D8B4EBD7030AD8B4E5D7EAD70E4A0F2AA4
:106008000AC001F00BC002F08AEC2FF001500E5CC0
:1060180002500F58D8B01200DED7125013101410C7
:106028001510D8B424D0010E166E06D0D8901236AA
:10603800133614361536162A15AEF8D712500E5CDC
:1060480013500F581450105815501158D8A008D094
:1060580012500E5E13500F5A1450105A1550115A00
:10606800D8901532143213321232162EE7D70EC0DA
:106078000EF00FC00FF010C010F011C011F0120098
:10608800000E066E02AE06D0016C021ED8B0022ABF
:10609800010E066E04AE04D0036C041ED8B0042AA8
:1060A80003500410D8B418D0010E056E04D0D8904F
:1060B80003360436052A04AEFAD70350015C0450AF
:1060C8000258D8A004D00350015E0450025AD89058
:1060D80004320332052EF1D70650D8B404D0016C2F
:1060E800021ED8B0022A01C001F002C002F012005C
:1060F800000E096E000E0A6E000E0B6E000E0C6E7E
:106108000550061007100810D8B42AD0010E0D6EDD
:1061180006D0D89005360636073608360D2A08AE5A
:10612800F8D7D89009360A360B360C360550015C7C
:10613800065002580750035808500458D8A009D0F0
:106148000550015E0650025A0750035A0850045A77
:106158000980D89008320732063205320D2EE1D771
:1061680009C001F00AC002F00BC003F00CC004F033
:106178001200000E0C6E0AAE06D0096C0A1ED8B0CA
:106188000A2A010E0C6E08AE06D0076C081ED8B09D
:10619800082A010E0C1A000E0E6E000E0D6E095024
:1061A8000A10D8B41CD0010E0B6E04D0D890093652
:1061B8000A360B2A0AAEFAD7D8900D360E36095091
:1061C800075C0A500858D8A005D00950075E0A5045
:1061D800085A0D80D8900A3209320B2EEDD70C5090
:1061E800D8B404D00D6C0E1ED8B00E2A0DC007F01E
:1061F8000EC008F0120003AE16D001C007F002C0AE
:1062080008F003C009F0071E081E091E072A000E21
:1062180008220922000E0724016E000E0820026ED3
:10622800800E0920036E06AE16D004C007F005C024
:1062380008F006C009F0071E081E091E072A000EEE
:1062480008220922000E0724046E000E0820056E9D
:10625800800E0920066E000E011A000E021A800E2A
:10626800031A000E041A000E051A800E061A0450AE
:10627800015C0550025806500358D8B002D0D89097
:106288001200D88012004BEC2EF001C080F002C042
:1062980081F003C082F03BEC2EF001C07CF002C01C
:1062A8007DF036EC2EF001C07EF002C07FF052EC9B
:1062B8002EF001C079F002C07AF003C07BF0330EF3
:1062C800016E330E026E400E036E80C004F081C072
:1062D80005F082C006F0FFEC30F0D8B016D080C0D0
:1062E80054F081C055F082C056F07CC057F07DC094
:1062F80058F07EC059F07FC05AF079C05BF07AC080
:106308005CF07BC05DF0E7EC31F0000E026E030E2E
:10631800016E35EC2EF0B7D70450D8B405D0015033
:1063280002100310D8A40CD0000E016E000E026EED
:10633800000E036E1200042AD89003320232013292
:10634800000E0114066E000E0214076EFE0E0314F2
:10635800086E065007100810D8B40CD0ECD7042AE1
:10636800010E0126000E0222000E0322D8900332ED
:1063780002320132000E0114066E000E0214076E7E
:10638800FF0E0314086E065007100810D8B406D084
:10639800E6D70406D89001360236033602BE03D08B
:1063A800020E0460F6D704A0029ED890043204506E
:1063B80003120550D8A4038E01C001F002C002F0F8
:1063C80003C003F01200000E016E010E026E000EF3
:1063D800046E000E036E000E066E800E056EB4ECA1
:1063E8002EF0000E016E010E026E970E036E7F0EE8
:1063F800046EE0EC2EF0800E016E010E026E000EAF
:10640800046E000E036E000E066E400E056EB4ECB0
:106418002EF0800E406E010E416E6B0E426E7F0EA6
:10642800436E5BC044F05CC045F05DC046F054C0AC
:1064380047F055C048F056C049F057C04AF058C018
:106448004BF059C04CF05AC04DF006EC3AF0000E33
:10645800016E010E026E800E036E010E046E69EC71
:106468002FF0000E0101C16F000EC06F0ED0000E9C
:106478000101C025D96E010E0101C121DA6EDF507C
:1064880072EC36F00101C04BC12B000E016E010EFB
:10649800026E8AEC2FF001500101C05D025001012B
:1064A800C159D8B01200E3D72DC02FF0306A316A35
:1064B8002C342F3601E330802F50396E3950D8A450
:1064C80009D0000E2B6E000E2C6E000E2D6E000EE5
:1064D8002E6E1200170E2F6E2BC030F02CC031F02C
:1064E8002DC032F02F28336E04D0D890323231329A
:1064F8003032332EFAD73050346E2C8EFF0E2B16D6
:10650800FF0E2C16000E2D162B50356E2C50366EA5
:106518002D50376E386A8E0E395E39AE16D0395026
:10652800800A8F0FD8B009D0000E2B6E000E2C6E8B
:10653800000E2D6E000E2E6E1200D89038323732B3
:1065480036323532393EF9D715D0170E39640FD0A7
:10655800000E2B6E000E2C6E000E2D6E000E2E6E91
:106568001200D8903536363637363836390639502F
:10657800D8A4F7D73450D8B408D0381E371E361EE2
:10658800356C000E36223722382235C02BF036C043
:106598002CF037C02DF038C02EF0120017C01BF0B9
:1065A8001C6A1D6A16341B3601E31C801B501E6EC4
:1065B8001E50D8A407D0000E156E000E166E000EE1
:1065C800176E12001AC01BF01C6A1D6A19341B369C
:1065D80001E31C801B50236E2350D8A407D0000E63
:1065E800156E000E166E000E176E120023507B0FEC
:1065F8001E2617C023F01A50231A800E2316168E53
:10660800198EFF0E1816FF0E1916000E1A16000E18
:106618001F6E000E206E000E216E070E226E15A052
:1066280006D018501F26195020221A502122D8901F
:10663800173216321532D890183619361A36222ED5
:10664800EED7090E226E15A006D018501F26195035
:1066580020221A502122D890173216321532D8909B
:10666800213220321F32222EEED71FC001F020C067
:1066780002F021C003F01EC004F023C005F090EC26
:1066880031F001C015F002C016F003C017F0120077
:10669800033404340C6E0C50D8A409D0000E016EDB
:1066A800000E026E000E036E000E046E1200063419
:1066B80007340B6E0B50D8A409D0000E016E000EE3
:1066C800026E000E036E000E046E1200038EFF0EA3
:1066D8000116FF0E0216FF0E0316000E0416068E94
:1066E800FF0E0416FF0E0516FF0E0616000E0716FF
:1066F800000E076E000E086E000E096E000E0A6E80
:106708007F0E0C5E0B50A00F0C5E200E0B6ED89007
:106718000736083609360A360450015C0550025817
:106728000650035807500458D8A009D00450015EF9
:106738000550025A0650035A0750045A0780D89049
:1067480001360236033604360B2EE1D70CAE16D0CE
:106758000C50800A9F0FD8B009D0000E016E000EB1
:10676800026E000E036E000E046E1200D8900A32FC
:106778000932083207320C3EF9D715D01F0E0C64C7
:106788000FD0000E016E000E026E000E036E000E9A
:10679800046E1200D8900736083609360A360C06F9
:1067A8000C50D8A4F7D707C001F008C002F009C000
:1067B80003F00AC004F0120003C007F0086A096A6F
:1067C8000234073601E3088007500F6E0F50D8A433
:1067D80009D0000E016E000E026E000E036E000E50
:1067E800046E120006C007F0086A096A0534073605
:1067F80001E3088007500E6E0E50D8A409D0000E91
:10680800016E000E026E000E036E000E046E120082
:10681800028EFF0E0116FF0E0216000E0316058EDD
:10682800FF0E0416FF0E0516000E0616000E0A6E61
:10683800000E0B6E000E0C6E000E0D6E7F0E0F5EBE
:106848000E50980F0F5E180E0E6ED8900A360B3643
:106858000C360D360450015C05500258065003589A
:10686800D8A007D00450015E0550025A0650035ABA
:106878000A80D8900136023603360E2EE6D70FAEC0
:1068880016D00F50800A970FD8B009D0000E016EAD
:10689800000E026E000E036E000E046E1200D890F9
:1068A8000D320C320B320A320F3EF9D715D0170EC3
:1068B8000F640FD0000E016E000E026E000E036E04
:1068C800000E046E1200D8900A360B360C360D36C0
:1068D8000F060F50D8A4F7D70AC001F00BC002F07A
:1068E8000CC003F00DC004F0120030C034F0356A5B
:1068F800366A2F34343601E335803450396E33C06C
:1069080034F0356A366A3234343601E3358034502F
:10691800386E3950D8B40BD03850395CD8B00ED056
:10692800395000083824346E180E346407D031C04A
:106938002EF032C02FF033C030F012003850D8B4E7
:106948000BD03950385CD8B00ED0385000083924F4
:10695800346E180E346407D02EC02EF02FC02FF0DE
:1069680030C030F01200060E376E30BE378E33BEA0
:10697800378C2F8EFF0E2E16FF0E2F16000E301698
:10698800328EFF0E3116FF0E3216000E33163850B7
:10699800395CD8B01BD0D890313632363336380609
:1069A80039503818D8B40DD0370637C034F0070E30
:1069B8003416D8B406D0EFD7D89030322F322E32D2
:1069C800392A38503918D8B41FD0F6D73950385C1E
:1069D800D8B01AD0D8902E362F36303639063950DE
:1069E8003818D8B40DD0370637C034F0070E34162F
:1069F800D8B406D0EFD7D890333232323132382A71
:106A080038503918D8A4F7D737AE0CD0FF0E2E1A45
:106A1800FF0E2F1AFF0E301A010E2E26000E2F22FF
:106A2800000E302237AC0CD0FF0E311AFF0E321A8E
:106A3800FF0E331A010E3126000E3222000E3322C9
:106A4800000E376E2E5031262F503222305033220E
:106A580033AE0ED0FF0E311AFF0E321AFF0E331A64
:106A6800010E3126000E3222000E3322010E376E3F
:106A780031C001F032C002F033C003F039C004F075
:106A880037C005F090EC31F001C02EF002C02FF0B5
:106A980003C030F012002D6E6D0E2D649FD0000ED5
:106AA800126E030E116E000E0A6E0A0E096E000EAB
:106AB800046E640E036E2DC001F0026A44EC30F0DF
:106AC80001C007F002C008F0BDEC30F0090E072441
:106AD8000F6E000E0820106EA1EC2EF01D0E0F2474
:106AE800F66E7F0E1020F76E0900F5CF18F009003A
:106AF800F5CF19F00A00F5CF1AF0000E0A6E640EF1
:106B0800096E2DC007F0086ABDEC30F0120E07249C
:106B18000F6E000E0820106E000E126E030E116E1E
:106B2800A1EC2EF01D0E0F24F66E7F0E1020F76ECE
:106B38000900F5CF15F00900F5CF16F00A00F5CFDA
:106B480017F0D2EC32F015C02AF016C02BF017C09F
:106B58002CF0000E126E030E116E000E046E0A0E5B
:106B6800036E2DC001F0026A44EC30F001C00FF052
:106B780002C010F0A1EC2EF01D0E0F24F66E7F0E51
:106B88001020F76E0900F5CF18F00900F5CF19F0BD
:106B98000A00F5CF1AF02AC015F02BC016F02CC049
:106BA80017F0D2EC32F015C027F016C028F017C045
:106BB80029F027C015F028C016F029C017F0000EDC
:106BC800186E000E196E3F0E1A6ED2EC32F015C018
:106BD80024F016C025F017C026F012000A0E2D6406
:106BE8005DD0000E126E030E116E000E046E0A0EBA
:106BF800036E2DC001F0026A44EC30F001C00FF0C2
:106C080002C010F0A1EC2EF01D0E0F24F66E7F0EC0
:106C18001020F76E0900F5CF18F00900F5CF19F02C
:106C28000A00F5CF1AF0000E0A6E0A0E096E2DC082
:106C380007F0086ABDEC30F0090E07240F6E000E4D
:106C48000820106E000E126E030E116EA1EC2EF0CD
:106C58001D0E0F24F66E7F0E1020F76E0900F5CF7B
:106C680015F00900F5CF16F00A00F5CF17F0D2ECB1
:106C780032F015C02AF016C02BF017C02CF02AC02D
:106C880015F02BC016F02CC017F0000E186E000E71
:106C9800196E3F0E1A6ED2EC32F099D72D50030DB3
:106CA8001D0EF324F66E7F0EF420F76E0900F5CF63
:106CB80015F00900F5CF16F00A00F5CF17F0000E11
:106CC800186E000E196E3F0E1A6ED2EC32F015C017
:106CD80024F016C025F017C026F01200106E1DD142
:106CE800E70E0A6E7F0E0B6EE1EC2FF01200CF0E4E
:106CF8000A6E7F0E0B6EE1EC2FF01200F40E0A6E96
:106D08007F0E0B6EE1EC2FF01200CA0E0A6E7F0E9A
:106D18000B6EE1EC2FF01200C00E0A6E7F0E0B6EA8
:106D2800E1EC2FF01200C30E0A6E7F0E0B6EE1EC41
:106D38002FF01200BE0E0A6E7F0E0B6EE1EC2FF0E4
:106D48001200D50E0A6E7F0E0B6EE1EC2FF01200CA
:106D5800CB0E0A6E7F0E0B6EE1EC2FF01200AB0E1D
:106D68000A6E7F0E0B6EE1EC2FF01200E60E0A6E33
:106D78007F0E0B6EE1EC2FF01200F90E0A6E7F0EFB
:106D88000B6EE1EC2FF01200A10E0A6E7F0E0B6E57
:106D9800E1EC2FF01200BF0E0A6E7F0E0B6EE1ECD5
:106DA8002FF01200A00E0A6E7F0E0B6EE1EC2FF092
:106DB8001200EF0E0A6E7F0E0B6EE1EC2FF0120040
:106DC800E50E0A6E7F0E0B6EE1EC2FF01200F50E49
:106DD8000A6E7F0E0B6EE1EC2FF01200D00E0A6ED9
:106DE8007F0E0B6EE1EC2FF01200A20E0A6E7F0EE2
:106DF8000B6EE1EC2FF01200EB0E0A6E7F0E0B6E9D
:106E0800E1EC2FF01200B70E0A6E7F0E0B6EE1EC6C
:106E18002FF01200E10E0A6E7F0E0B6EE1EC2FF0E0
:106E28001200EA0E0A6E7F0E0B6EE1EC2FF01200D4
:106E3800E00E0A6E7F0E0B6EE1EC2FF01200C90E09
:106E48000A6E7F0E0B6EE1EC2FF012009E0E0A6E9A
:106E58007F0E0B6EE1EC2FF01200A40E0A6E7F0E6F
:106E68000B6EE1EC2FF01200AA0E0A6E7F0E0B6E6D
:106E7800E1EC2FF01200B00E0A6E7F0E0B6EE1EC03
:106E88002FF01200B60E0A6E7F0E0B6EE1EC2FF09B
:106E98001200DA0E0A6E7F0E0B6EE1EC2FF0120074
:106EA800D40E0A6E7F0E0B6EE1EC2FF01200CE0EA0
:106EB8000A6E7F0E0B6EE1EC2FF01200C80E0A6E00
:106EC8007F0E0B6EE1EC2FF01200BC0E0A6E7F0EE7
:106ED8000B6EE1EC2FF01200820E0A6E7F0E0B6E25
:106EE800E1EC2FF01200900E0A6E7F0E0B6EE1ECB3
:106EF8002FF01200C20E0A6E7F0E0B6EE1EC2FF01F
:106F08001200890E0A6E7F0E0B6EE1EC2FF0120054
:106F180067EC2EF060EC2EF012001050200AD8B466
:106F2800F7D70C0AD8B4D8D7020AD8B4EAD7010AD6
:106F3800D8B4E0D71F0AD8B489D7010AD8B48DD7F6
:106F4800030AD8B491D7010AD8B495D7070AD8B498
:106F580099D7010AD8B49DD7030AD8B4A1D7010A92
:106F6800D8B4A5D70F0AD8B4A9D7010AD8B4ADD7D1
:106F7800060AD8B4B8D77E0AD8B4B2D6030AD8B4A9
:106F8800B6D6010AD8B4BAD6070AD8B4BED6010A0A
:106F9800D8B4C2D6030AD8B4C6D6010AD8B4CAD659
:106FA8000F0AD8B4CED6010AD8B4D2D6030AD8B4B8
:106FB800D6D6010AD8B4DAD6070AD8B4DED6010A7A
:106FC800D8B4E2D6030AD8B4E6D6010AD8B4EAD6C9
:106FD8001F0AD8B4EED6010AD8B4F2D6030AD8B438
:106FE800F6D6010AD8B4FAD6070AD8B4FED6010AEA
:106FF800D8B402D7030AD8B406D7010AD8B40AD736
:107008000F0AD8B40ED7010AD8B412D7030AD8B4D5
:1070180016D780D72A6E2AAEFBD02A6C2A50800A4F
:10702800120FD8A091D0000E126E030E116E000E32
:107038000A6E0A0E096E000E046E640E036E2A5064
:10704800016E026A01BE020644EC30F001C007F08E
:1070580002C008F0BDEC30F0090E07240F6E000ED8
:107068000820106EA1EC2EF01D0E0F24F66E7F0E78
:107078001020F76E0900F5CF18F00900F5CF19F0C8
:107088000A00F5CF1AF0000E0A6E640E096E2A5037
:10709800076E086A07BE0806BDEC30F0120E07241A
:1070A8000F6E000E0820106E000E126E030E116E89
:1070B800A1EC2EF01D0E0F24F66E7F0E1020F76E39
:1070C8000900F5CF15F00900F5CF16F00A00F5CF45
:1070D80017F0D2EC32F015C027F016C028F017C010
:1070E80029F027C015F028C016F029C017F0000EA7
:1070F800126E030E116E000E046E0A0E036E2A50F5
:10710800016E026A01BE020644EC30F001C00FF0C5
:1071180002C010F0A1EC2EF01D0E0F24F66E7F0EAB
:107128001020F76E0900F5CF18F00900F5CF19F017
:107138000A00F5CF1AF0D2EC32F015C024F016C0D0
:1071480025F017C026F012002A50800A750FD8A023
:107158004DD0000E0A6E0A0E096E2A50076E086A94
:1071680007BE0806BDEC30F0090E07240F6E000EAE
:107178000820106E000E126E030E116EA1EC2EF098
:107188001D0E0F24F66E7F0E1020F76E0900F5CF46
:1071980015F00900F5CF16F00A00F5CF17F0000E2C
:1071A800126E030E116E000E046E0A0E036E2A5044
:1071B800016E026A01BE020644EC30F001C00FF015
:1071C80002C010F0A1EC2EF01D0E0F24F66E7F0EFB
:1071D8001020F76E0900F5CF18F00900F5CF19F067
:1071E8000A00F5CF1AF0D2EC32F0A7D72A50030DD7
:1071F8001D0EF324F66E7F0EF420F76E0900F5CF0E
:1072080024F00900F5CF25F00A00F5CF26F012008A
:107218002A50800A120FD8A091D0000E126E030EC9
:10722800116E000E0A6E0A0E096E000E046E640ED0
:10723800036E2A50016E026A01BE020644EC30F069
:1072480001C007F002C008F0BDEC30F0090E0724B9
:107258000F6E000E0820106EA1EC2EF0440E0F24C5
:10726800F66E7F0E1020F76E0900F5CF18F00900B2
:10727800F5CF19F00A00F5CF1AF0000E0A6E640E69
:10728800096E2A50076E086A07BE0806BDEC30F082
:10729800120E07240F6E000E0820106E000E126EDC
:1072A800030E116EA1EC2EF0440E0F24F66E7F0E25
:1072B8001020F76E0900F5CF15F00900F5CF16F08C
:1072C8000A00F5CF17F0D2EC32F015C027F016C03F
:1072D80028F017C029F027C015F028C016F029C0DB
:1072E80017F0000E126E030E116E000E046E0A0ED9
:1072F800036E2A50016E026A01BE020644EC30F0A9
:1073080001C00FF002C010F0A1EC2EF0440E0F24C3
:10731800F66E7F0E1020F76E0900F5CF18F0090001
:10732800F5CF19F00A00F5CF1AF0D2EC32F015C0FB
:1073380024F016C025F017C026F012002A50800A43
:10734800750FD8A04DD0000E0A6E0A0E096E2A508D
:10735800076E086A07BE0806BDEC30F0090E072460
:107368000F6E000E0820106E000E126E030E116EC6
:10737800A1EC2EF0440E0F24F66E7F0E1020F76E4F
:107388000900F5CF15F00900F5CF16F00A00F5CF82
:1073980017F0000E126E030E116E000E046E0A0E28
:1073A800036E2A50016E026A01BE020644EC30F0F8
:1073B80001C00FF002C010F0A1EC2EF0440E0F2413
:1073C800F66E7F0E1020F76E0900F5CF18F0090051
:1073D800F5CF19F00A00F5CF1AF0D2EC32F0A7D7A2
:1073E8002A50030D440EF324F66E7F0EF420F76E38
:1073F8000900F5CF24F00900F5CF25F00A00F5CFF4
:1074080026F01200440E0001636F000E0001646F45
:1074180065EF3FF0250E00017819D8B40AD040C0B6
:10742800D9FF41C0DAFF78C0DFFF404A412A65EF43
:107438003FF0000E0001686F000E676F000E00013C
:10744800666F000E656F42C0F6FF43C0F7FF080085
:10745800F5506EEC2EF0D8A035D0000E0001686F04
:10746800000E676F67C00FF068C010F0000E126E54
:107478000A0E116EA1EC2EF00FC067F010C068F074
:10748800D00E4E6EFF0E4F6E42C0F6FF43C0F7FFA0
:107498000800F550506E516A4E5050264F505122F8
:1074A800505000016727515000016823424A432A7F
:1074B80042C0F6FF43C0F7FF0800F5506EEC2EF00F
:1074C800D8B0D0D742C0F6FF43C0F7FF0800F55048
:1074D8002E0AD8A432D00001668D424A432A000EF3
:1074E8000001776F000E766F1DD076C00FF077C061
:1074F80010F0000E126E0A0E116EA1EC2EF042C0B2
:10750800F6FF43C0F7FF0800F5500F26000E1022C3
:10751800D00E0F240001766FFF0E10200001776F48
:10752800424A432A42C0F6FF43C0F7FF0800F5501D
:107538006EEC2EF0D8A00CD0D8D7000E0001776FD3
:10754800000E766F0001668903D00001668519D0A8
:1075580042C0F6FF43C0F7FF424A432A0800F5CF6E
:1075680078F000017851000AD8B473EF3FF0640A4C
:10757800D8B407D0020AD8B4E8D70F0AD8A465EF60
:107588003FF0070E00016615D8B44AD3000166A97A
:1075980005D0000E0001776F060E766F63C0D9FF25
:1075A80064C0DAFFDECF73F0DECF74F0DDCF75F0A4
:1075B800030E00016327000E6423000175AF11D08C
:1075C80073C001F074C002F075C003F07DEC2EF0BA
:1075D80001C073F002C074F003C075F0030E00011F
:1075E8006513000E0001726F000E716F0001735178
:1075F8000001741100017511D8B48BD0820E4E6E43
:10760800FF0E4F6E73C050F074C051F075C052F049
:1076180076C053F0100E05D0D89053325232513202
:107628005032E82EF9D750504E240001716F000EE9
:107638004F200001726F00017107D8A0720771C056
:107648000FF072C010F0000E126E030E116EA1EC56
:107658002EF00FC071F010C072F071C007F072C048
:1076680008F0000E0A6E0A0E096EBDEC30F007C075
:1076780071F008C072F0000172AF04D00001710708
:10768800D8A072070001715100080EEC38F024C030
:1076980069F025C06AF026C06BF069C015F06AC0B1
:1076A80016F06BC017F073C018F074C019F075C0ED
:1076B8001AF0D2EC32F015C069F016C06AF017C0A3
:1076C8006BF069C001F06AC002F06BC003F0000EF5
:1076D800046E800E056E3F0E066EFFEC30F0D8B0DB
:1076E80005D000017107D8A0720713D069C001F056
:1076F8006AC002F06BC003F0000E046E200E056E27
:10770800410E066EFFEC30F0D8A003D00001714B9B
:10771800722B000177BF08D0000177511DE10D0ED3
:107728000001765DD8B018D073C02EF074C02FF069
:1077380075C030F0000176514FEC35F024C031F0BF
:1077480025C032F026C033F079EC34F02EC073F047
:107758002FC074F030C075F0000172BF08D000016E
:10776800725126E10A0E0001715DD8B021D00001E6
:1077780073510001741100017511D8B45BD073C046
:107788002BF074C02CF075C02DF058EC32F02B5053
:107798002C102D102E10D8A44DD0000172BF4AD045
:1077A8000001725105E1020E0001715DD8A042D0BE
:1077B80069C001F06AC002F06BC003F0700E046E7D
:1077C800890E056E400E066EFFEC30F0D8B003D07F
:1077D8000001F70E02D00001F80E7127FF0E722388
:1077E800000171510EEC38F024C069F025C06AF030
:1077F80026C06BF073C001F074C002F075C003F0CE
:1078080069C004F06AC005F06BC006F0E0EC33F024
:1078180001C06DF002C06EF003C06FF004C070F0DC
:10782800000E0001736F000E0001746F000E00015E
:10783800756F33D073C02BF074C02CF075C02DF069
:1078480058EC32F02BC06DF02CC06EF02DC06FF0EC
:107858002EC070F073C03AF074C03BF075C03CF0B5
:107868006DC009F06EC00AF06FC00BF070C00CF06C
:10787800B3EC2FF009C03DF00AC03EF00BC03FF05A
:1078880049EC2FF03AC073F03BC074F03CC075F07F
:10789800000E0001726F000E716F010E0001786F0B
:1078A8000A0E00017819D8B41ED000017851040DD1
:1078B800F50EF324F66E7E0EF420F76E0900F550EF
:1078C80000016D5D0900F55000016E590900F55081
:1078D80000016F590900F55000017059D8A003D074
:1078E8000001782BDDD778C04EF04F6A4EBE4F06A8
:1078F800000176514E26000177514F220001715147
:107908004E26000172514F224E500001675F4F50C2
:107918000001685B0001765100017711D8B404D0EA
:1079280000016707D8A06807030E000165154E6EB1
:10793800000E000166154F6E4E504F10D8B40DD092
:1079480008D040C0D9FF41C0DAFF200EDF6E404AA0
:10795800412A00016707D8A06807000168BF07D05F
:1079680000016851EEE100016705D8B0EAD7030EBF
:10797800000165154E6E000E000166154F6E4E50E3
:107988004F10D8B453D040C0D9FF41C0DAFF2D0EF4
:107998004BD0404A412A4AD06DC001F06EC002F077
:1079A8006FC003F070C004F000017851040DF50EAB
:1079B800F324F66E7E0EF420F76E0900F5CF05F07D
:1079C8000900F5CF06F00900F5CF07F00A00F5CF5A
:1079D80008F07CEC30F001C069F002C06AF003C026
:1079E8006BF004C06CF069C00EF06AC00FF06BC099
:1079F80010F06CC011F00A0E126E000E136E000E1D
:107A0800146E000E156E11EC30F00EC069F00FC048
:107A18006AF010C06BF011C06CF000016951300FB2
:107A280040C0D9FF41C0DAFFDF6EB3D70001780745
:107A380000017829D8B40DD0AFD740C0D9FF41C0D4
:107A4800DAFF300EDF6E404A412A00017107D8A0E4
:107A58007207000172BF07D000017251EEE1000108
:107A68007105D8B0EAD7000177BF0CD00001775173
:107A780005E1090E0001765DD8A004D0080E0001CA
:107A8800786F02D076C078F0000178510001765FF7
:107A9800000E000178BFFF0E0001775B00017851EE
:107AA8000001D8B408D040C0D9FF41C0DAFF2E0E7B
:107AB800DF6E404A412A000178510EEC38F024C0AC
:107AC80060F025C061F026C062F073C018F074C081
:107AD80019F075C01AF060C015F061C016F062C0E8
:107AE80017F0D2EC32F015C02BF016C02CF017C0EE
:107AF8002DF058EC32F02BC06DF02CC06EF02DC07C
:107B08006FF02EC070F072D06DC001F06EC002F040
:107B18006FC003F070C004F000017851040DF50E39
:107B2800F324F66E7E0EF420F76E0900F5CF05F00B
:107B38000900F5CF06F00900F5CF07F00A00F5CFE8
:107B480008F07CEC30F001C069F002C06AF003C0B4
:107B58006BF004C06CF069C00EF06AC00FF06BC027
:107B680010F06CC011F00A0E126E000E136E000EAB
:107B7800146E000E156E11EC30F00EC069F00FC0D7
:107B88006AF010C06BF011C06CF000016951300F41
:107B980040C0D9FF41C0DAFFDF6E404A412A6DC0BC
:107BA8000EF06EC00FF06FC010F070C011F0000141
:107BB8007851040DF50EF324F66E7E0EF420F76E60
:107BC8000900F5CF12F00900F5CF13F00900F5CF41
:107BD80014F00A00F5CF15F011EC30F00EC06DF07E
:107BE8000FC06EF010C06FF011C070F00001780780
:107BF80000017829D8B40DD087D740C0D9FF41C03B
:107C0800DAFF300EDF6E404A412A00017607D8A01D
:107C180077070001765100017711D8B452D1EDD71A
:107C280063C0D9FF64C0DAFFDECF6DF0DDCF6EF040
:107C38000001000E6EBFFF0E6F6F706F020E000125
:107C48006327000E6423000170AF0CD0030E0001FF
:107C580065130001701F6F1F6E1F6D6D000E6E2380
:107C68006F2370230001765100017711D8A40DD03D
:107C780000016D5100016E1100016F1100017011BA
:107C8800D8A403D00001764B772B010E0001786F42
:107C98000A0E00017819D8B41ED000017851040DDD
:107CA800F50EF324F66E7E0EF420F76E0900F550FB
:107CB80000016D5D0900F55000016E590900F5508D
:107CC80000016F590900F55000017059D8A003D080
:107CD8000001782BDDD7800E000178BF7F0E4E6E35
:107CE800000176510001785D00017751800A4E58F5
:107CF800D8B003D076C078F016D000017751800A4A
:107D08004E6E000178510001765D800E000178BF4B
:107D18007F0E4E58D8B007D0000178510001766F19
:107D2800776B76BF77070001675100016811D8B4F7
:107D380010D0030E000165154E6E000E0001661589
:107D48004F6E4E504F10D8B404D000016707D8A02A
:107D58006807000166AD1CD0000167510001765D1F
:107D680000017751800A4E6E00016851800A4E5812
:107D7800D8B009D0000176510001675F0001775142
:107D88000001685B05D0000E0001686F000E676F88
:107D9800800E000178BF7F0E4E6E00016751000112
:107DA800785D00016851800A4E58D8B00BD00001A8
:107DB80078510001675F000E000178BFFF0E0001D7
:107DC800685B05D0000E0001686F000E676F000148
:107DD800675100016811D8B412D040C0D9FF41C022
:107DE800DAFF200EDF6E404A412A00016707D8A05B
:107DF80068070001675100016811D8A4EED7030E87
:107E0800000165154E6E000E000166154F6E4E504E
:107E18004F10D8B44BD040C0D9FF41C0DAFF2D0E67
:107E2800DF6E42D076C04EF077C04FF0D8904E3615
:107E38004F36D8904E364F36F50E4E24F66E7E0EDF
:107E48004F20F76E0900F5CF05F00900F5CF06F0D1
:107E58000900F5CF07F00A00F5CF08F06DC001F072
:107E68006EC002F06FC003F070C004F07CEC30F01C
:107E780001C00EF002C00FF003C010F004C011F0F2
:107E88000A0E126E000E136E000E146E000E156EA2
:107E980011EC30F00E50300F0001786F40C0D9FF60
:107EA80041C0DAFF78C0DFFF404A412A0001760767
:107EB800D8A0770700017629B5E100017729D8A471
:107EC800B1D742C0F6FF43C0F7FF424A432A080031
:107ED800F5CF78F000017851D8A40EEF3AF040C001
:107EE800D9FF41C0DAFF000EDF6E1200000100006A
:107EF800000A00000064000000E8030000102700EA
:107F080000A086010040420F008096980000E1F52D
:107F18000500CA9A3B00803FCDCC3DD7233C128355
:107F28003AB7D138C62737388635C0D633CC2B3246
:107F3800708930E7DB2EE53C1E42A20D00803F0031
:107F4800204100C842007A44401C4650C34724746C
:107F58004997184BBCBE4C6B6E4E03155079AD60FB
:107F6800F3497120252E316620252E3166202533D0
:107F78002E30642025332E3064002D2D2E2E2D2DED
:107F8800002E2D2E2D2E2D002E2E2D2D2E2E004581
:107F98004153415432002D2D2D2D2D002E2D2D2DE8
:107FA8002D002E2E2D2D2D002E2E2E2D2D002E2E79
:107FB8002E2E2D002D2D2D2D2E002D2E2E2D2E006A
:107FC8002D2D2D2E2E002D2D2E2E2E002D2E2E2E2B
:107FD8002E002E2E2E2E2E002D2E2D2D002D2D2E48
:107FE8002D002D2E2E2D002E2D2D2E002D2E2D2E3A
:077FF800002E2D2E2E0000CB
:020000040020DA
:08000000FFFFFFFFFFFFFFFF00
:020000040030CA
:0E000000FF21193CFF8581FF0FC00F400F400C
:00000001FF
