:0400000053EF00F0CA
:060008003E82D4EF15F06A
:100018003E80D8CF10F0E8CF11F0E0CF12F0FACF41
:1000280013F0FBCF14F0E9CF15F0EACF16F0E1CFCB
:1000380017F0E2CF18F0D9CF19F0DACF1AF0F3CFD2
:100048001BF0F4CF1CF0F6CF1DF0F7CF1EF0F8CF61
:100058001FF0F5CF20F020C0F5FF1FC0F8FF1EC02D
:10006800F7FF1DC0F6FF1CC0F4FF1BC0F3FF1AC04A
:10007800DAFF19C0D9FF18C0E2FF17C0E1FF16C0A8
:10008800EAFF15C0E9FF14C0FBFF13C0FAFF12C056
:10009800E0FF11C0E8FF10C0D8FF3E9010006FEFDE
:1000A8001AF0890E00019C6F000E00019D6FF6EF9B
:1000B80005F0250E0001B119D8B40BD085C0D9FFC1
:1000C80086C0DAFFB1C0DFFF0001854B862BF6EF53
:1000D80005F0000E0001A16F000EA06F000E0001D8
:1000E8009F6F000E9E6F87C0F6FF88C0F7FF08005D
:1000F800F55060EC1AF0D8A03FD0000E0001A16FB7
:10010800000EA06FA0C02FF0A1C030F0000E326E1C
:100118000A0E316E07EC1AF02FC0A0F030C0A1F023
:10012800D00E0001936FFF0E0001946F87C0F6FF99
:1001380088C0F7FF0800F5500001956F966B000125
:100148009351000195270001945100019623000165
:1001580095510001A027000196510001A12300013B
:10016800874B882B87C0F6FF88C0F7FF0800F5503B
:1001780060EC1AF0D8B0C6D787C0F6FF88C0F7FF82
:100188000800F5502E0AD8A434D000019F8D000134
:10019800874B882B000E0001B06F000EAF6F1ED08A
:1001A800AFC02FF0B0C030F0000E326E0A0E316EC4
:1001B80007EC1AF087C0F6FF88C0F7FF0800F55073
:1001C8002F26000E3022D00E2F240001AF6FFF0E15
:1001D80030200001B06F0001874B882B87C0F6FFE5
:1001E80088C0F7FF0800F55060EC1AF0D8A00CD0D2
:1001F800D7D7000E0001B06F000EAF6F00019F89C6
:1002080003D000019F851AD087C0F6FF88C0F7FF8A
:100218000001874B882B0800F5CFB1F00001B151E0
:10022800000AD8B405EF06F0640AD8B407D0020A69
:10023800D8B4E7D70F0AD8A4F6EF05F0070E0001E7
:100248009F15D8B469D300019FA905D0000E0001FD
:10025800B06F060EAF6F9CC0D9FF9DC0DAFFDECF2E
:10026800ACF0DECFADF0DDCFAEF0030E00019C2781
:10027800000E9D230001AEAF11D0ACC021F0ADC07F
:1002880022F0AEC023F03FEC1AF021C0ACF022C03F
:10029800ADF023C0AEF0030E00019E13000E000166
:1002A800AB6F000EAA6F0001AC510001AD11000147
:1002B800AE11D8B491D0820E0001936FFF0E0001E9
:1002C800946FACC095F0ADC096F0AEC097F0AFC0DB
:1002D80098F0100E06D00001D890983397339633D3
:1002E8009533E82EF8D700019551000193250001B8
:1002F800AA6F000E000194210001AB6F0001AA074C
:10030800D8A0AB07AAC02FF0ABC030F0000E326EF9
:10031800030E316E07EC1AF02FC0AAF030C0ABF014
:10032800AAC027F0ABC028F0000E2A6E0A0E296E6C
:10033800FAEC16F027C0AAF028C0ABF00001ABAF6A
:1003480004D00001AA07D8A0AB070001AA510008F1
:10035800B6EC09F069C0A2F06AC0A3F06BC0A4F0C3
:10036800A2C035F0A3C036F0A4C037F0ACC038F056
:10037800ADC039F0AEC03AF054EC12F035C0A2F07E
:1003880036C0A3F037C0A4F0A2C021F0A3C022F069
:10039800A4C023F0000E246E800E256E3F0E266E3C
:1003A80029EC16F0D8B005D00001AA07D8A0AB07F1
:1003B80013D0A2C021F0A3C022F0A4C023F0000EE5
:1003C800246E200E256E410E266E29EC16F0D8A05C
:1003D80003D00001AA4BAB2B0001B0BF08D000012D
:1003E800B0511DE10D0E0001AF5DD8B018D0ACC002
:1003F80073F0ADC074F0AEC075F00001AF519BEC66
:100408000EF069C076F06AC077F06BC078F067ECE0
:100418000DF073C0ACF074C0ADF075C0AEF0000163
:10042800ABBF08D00001AB512AE10A0E0001AA5D5A
:10043800D8B025D00001AC510001AD110001AE11BA
:10044800D8B45FD0ACC070F0ADC071F0AEC072F07F
:1004580019EC11F0000170510001711100017211C5
:1004680000017311D8A44DD00001ABBF4AD00001E0
:10047800AB5105E1020E0001AA5DD8A042D0A2C08E
:1004880021F0A3C022F0A4C023F0700E246E890EC0
:10049800256E400E266E29EC16F0D8B003D0000168
:1004A800F70E02D00001F80EAA27FF0EAB230001B9
:1004B800AA51B6EC09F069C0A2F06AC0A3F06BC0FB
:1004C800A4F0ACC021F0ADC022F0AEC023F0A2C0B1
:1004D80024F0A3C025F0A4C026F0BBEC11F021C085
:1004E800A6F022C0A7F023C0A8F024C0A9F0000EEF
:1004F8000001AC6F000E0001AD6F000E0001AE6F81
:1005080033D0ACC070F0ADC071F0AEC072F019EC71
:1005180011F070C0A6F071C0A7F072C0A8F073C047
:10052800A9F0ACC07FF0ADC080F0AEC081F0A6C02D
:1005380029F0A7C02AF0A8C02BF0A9C02CF016EC0F
:1005480018F029C082F02AC083F02BC084F094EC04
:1005580018F07FC0ACF080C0ADF081C0AEF0000EE6
:100568000001AB6F000EAA6F010E0001B16F0A0EF9
:100578000001B119D8B41ED00001B151040DF50E17
:10058800F324F66E7E0EF420F76E0900F550000194
:10059800A65D0900F5500001A7590900F5500001B2
:1005A800A8590900F5500001A959D8A003D00001A5
:1005B800B12BDDD7B1C093F00001946B93BF9407C2
:1005C8000001AF51000193270001B05100019423AD
:1005D8000001AA51000193270001AB5100019423A7
:1005E800000193510001A05F000194510001A15B3B
:1005F8000001AF510001B011D8B404D00001A00728
:10060800D8A0A107030E00019E150001936F000EEC
:1006180000019F150001946F00019351000194118E
:10062800D8B40ED009D085C0D9FF86C0DAFF200E15
:10063800DF6E0001854B862B0001A007D8A0A1071B
:100648000001A1BF07D00001A151EDE10001A00503
:10065800D8B0E9D7030E00019E150001936F000E74
:1006680000019F150001946F00019351000194113E
:10067800D8B454D085C0D9FF86C0DAFF2D0E4CD02F
:100688000001854B862B4AD0A6C021F0A7C022F0D6
:10069800A8C023F0A9C024F00001B151040DF50E43
:1006A800F324F66E7E0EF420F76E0900F5CF25F0E0
:1006B8000900F5CF26F00900F5CF27F00A00F5CF9D
:1006C80028F03CEC17F021C0A2F022C0A3F023C010
:1006D800A4F024C0A5F0A2C02EF0A3C02FF0A4C09F
:1006E80030F0A5C031F00A0E326E000E336E000EE7
:1006F800346E000E356EB5EC17F02EC0A2F02FC088
:10070800A3F030C0A4F031C0A5F00001A251300F11
:1007180085C0D9FF86C0DAFFDF6EB2D70001B10706
:100728000001B129D8B40ED0AFD785C0D9FF86C093
:10073800DAFF300EDF6E0001854B862B0001AA0719
:10074800D8A0AB070001ABBF07D00001AB51EDE16A
:100758000001AA05D8B0E9D70001B0BF0CD000014C
:10076800B05105E1090E0001AF5DD8A004D0080E14
:100778000001B16F02D0AFC0B1F00001B15100016A
:10078800AF5F000E0001B1BFFF0E0001B05B0001BA
:10079800B1510001D8B409D085C0D9FF86C0DAFFAD
:1007A8002E0EDF6E0001854B862B0001B151B6EC91
:1007B80009F069C099F06AC09AF06BC09BF0ACC0B0
:1007C80038F0ADC039F0AEC03AF099C035F09AC0F3
:1007D80036F09BC037F054EC12F035C070F036C0DC
:1007E80071F037C072F019EC11F070C0A6F071C04A
:1007F800A7F072C0A8F073C0A9F073D0A6C021F00A
:10080800A7C022F0A8C023F0A9C024F00001B1516C
:10081800040DF50EF324F66E7E0EF420F76E090033
:10082800F5CF25F00900F5CF26F00900F5CF27F020
:100838000A00F5CF28F03CEC17F021C0A2F022C046
:10084800A3F023C0A4F024C0A5F0A2C02EF0A3C03A
:100858002FF0A4C030F0A5C031F00A0E326E000EA1
:10086800336E000E346E000E356EB5EC17F02EC0E8
:10087800A2F02FC0A3F030C0A4F031C0A5F0000151
:10088800A251300F85C0D9FF86C0DAFFDF6E0001A4
:10089800854B862BA6C02EF0A7C02FF0A8C030F03D
:1008A800A9C031F00001B151040DF50EF324F66E24
:1008B8007E0EF420F76E0900F5CF32F00900F5CF6F
:1008C80033F00900F5CF34F00A00F5CF35F0B5EC78
:1008D80017F02EC0A6F02FC0A7F030C0A8F031C086
:1008E800A9F00001B1070001B129D8B40ED086D70C
:1008F80085C0D9FF86C0DAFF300EDF6E0001854B58
:10090800862B0001AF07D8A0B0070001AF51000146
:10091800B011D8B467D1ECD79CC0D9FF9DC0DAFF1D
:10092800DECFA6F0DDCFA7F00001000EA7BFFF0EB7
:10093800A86FA96F020E00019C27000E9D230001DD
:10094800A9AF0CD0030E00019E130001A91FA81F18
:10095800A71FA66D000EA723A823A9230001AF5146
:100968000001B011D8A40DD00001A6510001A711B3
:100978000001A8110001A911D8A403D00001AF4BB0
:10098800B02B010E0001B16F0A0E0001B119D8B4E5
:100998001ED00001B151040DF50EF324F66E7E0E43
:1009A800F420F76E0900F5500001A65D0900F55026
:1009B8000001A7590900F5500001A8590900F55090
:1009C8000001A959D8A003D00001B12BDDD7800EB2
:1009D8000001B1BF7F0E0001936F0001AF5100010C
:1009E800B15D0001B051800A00019359D8B003D01D
:1009F800AFC0B1F018D00001B051800A0001936F68
:100A08000001B1510001AF5D800E0001B1BF7F0E42
:100A180000019359D8B007D00001B1510001AF6F60
:100A2800B06BAFBFB0070001A0510001A111D8B44D
:100A380014D0030E00019E150001936F000E0001F3
:100A48009F150001946F0001935100019411D8B4CF
:100A580004D00001A007D8A0A10700019FAD1ED0B7
:100A68000001A0510001AF5D0001B051800A0001F2
:100A7800936F0001A151800A00019359D8B009D0A1
:100A88000001AF510001A05F0001B0510001A15B5E
:100A980005D0000E0001A16F000EA06F800E0001AE
:100AA800B1BF7F0E0001936F0001A0510001B15D3D
:100AB8000001A151800A00019359D8B00BD0000160
:100AC800B1510001A05F000E0001B1BFFF0E00018F
:100AD800A15B05D0000E0001A16F000EA06F000100
:100AE800A0510001A111D8B413D085C0D9FF86C088
:100AF800DAFF200EDF6E0001854B862B0001A00770
:100B0800D8A0A1070001A0510001A111D8A4EDD7D8
:100B1800030E00019E150001936F000E00019F1542
:100B28000001946F0001935100019411D8B44FD083
:100B380085C0D9FF86C0DAFF2D0EDF6E45D0AFC065
:100B480093F0B0C094F00001D89093379437000127
:100B5800D89093379437F50E00019325F66E7E0EE4
:100B68009421F76E0900F5CF25F00900F5CF26F09E
:100B78000900F5CF27F00A00F5CF28F0A6C021F02C
:100B8800A7C022F0A8C023F0A9C024F03CEC17F0BD
:100B980021C02EF022C02FF023C030F024C031F045
:100BA8000A0E326E000E336E000E346E000E356E75
:100BB800B5EC17F02E50300F0001B16F85C0D9FF8A
:100BC80086C0DAFFB1C0DFFF0001854B862B00012C
:100BD800AF07D8A0B0070001AF29B1E10001B029E3
:100BE800D8A4ADD787C0F6FF88C0F7FF0001874BB0
:100BF800882B0800F5CFB1F00001B151D8A45DEF02
:100C080000F085C0D9FF86C0DAFF000EDF6E120043
:100C1800000E0101B46F000EB36F000E0101B66F34
:100C2800000EB56F000E0101B86F000EB76F000E11
:100C38000101BA6F000EB96F000E0101BC6F000E02
:100C4800BB6F000E0101BE6F000EBD6F000E0101EB
:100C5800C06F000EBF6F000E0101C26F000EC16FA2
:100C6800000E0101C46F000EC36F000E0101A36FD7
:100C7800000EA26F000E0101C66F000EC56F000EB8
:100C88000101C86F000EC76F000E0101C96F000E89
:100C98000101CA6F000E0101CB6F000E0101A46FA4
:100CA800800E0101A56F3F0E0101A66F000E010124
:100CB800CD6F000ECC6FBAEC18F021502210D8B4CA
:100CC8000AD0330E00017F6FC60E0001806FC20E7E
:100CD8000001816F1200000E246ECC0E236EC2EC50
:100CE8000FF0000E246E440E236EC2EC0FF09286B5
:100CF800000E0101CD6F000ECC6F09D0000E276EDB
:100D0800010E266E6DEC18F00101CC4BCD2B0101C4
:100D1800CDBF08D00101CD5107E1050E0101CC5D21
:100D2800D8B002D080A6EAD7050E0101CC1901017E
:100D3800CD11D8A40AD0660E00017F6FC60E00013F
:100D4800806FC20E0001816F1200BAEC18F02150BA
:100D58002210D8B40AD09A0E00017F6FC60E000187
:100D6800806FC20E0001816F1200000E246ECC0E3F
:100D7800236EC2EC0FF0000E246EBE0E236EC2EC82
:100D88000FF073EC10F026C090F127C091F173ECCE
:100D980010F026C092F127C093F173EC10F026C032
:100DA80094F127C095F173EC10F026C096F127C096
:100DB80097F173EC10F026C098F127C099F173EC05
:100DC80010F026C09AF127C09BF173EC10F026C0F2
:100DD8009CF127C09DF173EC10F026C09EF127C04E
:100DE8009FF173EC10F026C0A0F127C0A1F1000E0E
:100DF8000101C66F000EC56F0101C6BF08D0010111
:100E0800C6514FE1090E0101C55DD8B04AD0000EA8
:100E18000101C86F000EC76F0101C8BF08D00101EA
:100E2800C8513BE1080E0101C75DD8B036D0C7C133
:100E380082F0D8900101C535D96E0101C635DA6E48
:100E4800900ED926010EDA22DECF83F0DDCF84F0B2
:100E58000001822B04D000018435843383330001E0
:100E6800822FF9D7010E00018317000E8417D8903E
:100E78000101A235D96E0101A335DA6E000ED9261B
:100E8800010EDA2283C0DEFF84C0DDFF0101A24B20
:100E9800A32B0101C74BC82BBFD70101C54BC62BDC
:100EA800ABD7000E0101CD6F000ECC6F0101CDBF95
:100EB80008D00101CD5154E1480E0101CC5DD8B0F4
:100EC8004FD0D8900101CC35D96E0101CD35DA6EFD
:100ED800000ED926010EDA22DECF82F0DDCF83F0B4
:100EE8000101B351000182190101C36F0101B4511D
:100EF800000183190101C46FB5C1B3F1B6C1B4F1E2
:100F0800B7C1B5F1B8C1B6F10101C3510101B919B1
:100F18000101B76F0101C4510101BA190101B86F8C
:100F28000101C3510101BB190101B96F0101C4518C
:100F38000101BC190101BA6FBDC1BBF1BEC1BCF151
:100F4800BFC1BDF1C0C1BEF1C1C1BFF1C2C1C0F1D5
:100F5800C3C1C1F1C4C1C2F10101CC4BCD2BA6D78D
:100F68000101B3510101B411D8A42AD00101B5512E
:100F78000101B611D8A424D00101B7510101B8115B
:100F8800D8B406D00101B9510101BA11D8A418D0BA
:100F98000101BB510101BC11D8A412D00101BD51FE
:100FA8000101BE11D8B406D00101BF510101C01121
:100FB800D8A406D00101C1510101C211D8B40AD088
:100FC800660E00017F6FC70E0001806FC20E000120
:100FD800816F12000101165101011711D8A408D020
:100FE800000E0101A46F800E0101A56F3F0E07D00E
:100FF800000E0101A46F800E0101A56FBF0E010153
:10100800A66F000E306E000E316E410E326E02C1B8
:1010180029F003C12AF0FCEC18F029C02DF02AC0F1
:101028002EF02BC02FF0F3EC13F02DC076F02EC06D
:1010380077F02FC078F0000E306E800E316E410EC2
:10104800326E00C129F001C12AF0FCEC18F029C069
:101058002DF02AC02EF02BC02FF0F3EC13F02DC08A
:1010680073F02EC074F02FC075F067EC0DF073C0EC
:10107800A7F174C0A8F175C0A9F1000E306E800EFA
:10108800316E400E326E04C129F005C12AF0FCEC25
:1010980018F029C02DF02AC02EF02BC02FF0F3EC49
:1010A80013F02DC076F02EC077F02FC078F0A7C1CE
:1010B80073F0A8C174F0A9C175F067EC0DF073C0A6
:1010C800AAF174C0ABF175C0ACF1000E306E000E21
:1010D800316E400E326E06C129F007C12AF0FCECD1
:1010E80018F029C02DF02AC02EF02BC02FF0F3ECF9
:1010F80013F02DC076F02EC077F02FC078F0AAC17B
:1011080073F0ABC174F0ACC175F067EC0DF073C04F
:10111800ADF174C0AEF175C0AFF108C129F009C1D5
:101128002AF0FCEC18F029C076F02AC077F02BC022
:1011380078F0ADC173F0AEC174F0AFC175F067EC73
:101148000DF073C0B0F174C0B1F175C0B2F1B0C1A7
:1011580073F0B1C174F0B2C175F0000E386E000EB4
:10116800396E400E3A6E0AC129F00BC12AF0FCEC28
:1011780018F029C035F02AC036F02BC037F054ECEF
:1011880012F035C076F036C077F037C078F067ECEB
:101198000DF073C0C9F174C0CAF175C0CBF1000E6F
:1011A800386E000E396E410E3A6E0EC129F00FC12D
:1011B8002AF0FCEC18F029C035F02AC036F02BC014
:1011C80037F054EC12F035C076F036C077F037C0FF
:1011D80078F0000E386E800E396E400E3A6E0CC1F3
:1011E80029F00DC12AF0FCEC18F029C035F02AC00E
:1011F80036F02BC037F054EC12F035C073F036C01F
:1012080074F037C075F067EC0DF073C0A7F174C0C7
:10121800A8F175C0A9F1000E386E800E396E410E26
:101228003A6E10C129F011C12AF0FCEC18F029C05F
:1012380035F02AC036F02BC037F054EC12F035C028
:1012480076F036C077F037C078F0A7C173F0A8C140
:1012580074F0A9C175F067EC0DF073C0AAF174C001
:10126800ABF175C0ACF1000E386E000E396E420E4F
:101278003A6E12C129F013C12AF0FCEC18F029C00B
:1012880035F02AC036F02BC037F054EC12F035C0D8
:1012980076F036C077F037C078F0AAC173F0ABC1EA
:1012A80074F0ACC175F067EC0DF073C0ADF174C0AB
:1012B800AEF175C0AFF1000E386E800E396E420E79
:1012C8003A6E14C129F015C12AF0FCEC18F029C0B7
:1012D80035F02AC036F02BC037F054EC12F035C088
:1012E80076F036C077F037C078F0ADC173F0AEC194
:1012F80074F0AFC175F067EC0DF073C0B0F174C055
:10130800B1F175C0B2F1B0C173F0B1C174F0B2C13E
:1013180075F0C9C176F0CAC177F0CBC178F067EC37
:101328000DF073C0C9F174C0CAF175C0CBF1C9C161
:1013380035F0CAC136F0CBC137F0A4C138F0A5C129
:1013480039F0A6C13AF054EC12F035C0C9F136C0F4
:10135800CAF137C0CBF1C9C17FF0CAC180F0CBC197
:1013680081F0120000016F6F00016FAF04D100011E
:101378006F6D00016F51800A120FD8A094D0000E33
:10138800326E030E316E000E2A6E0A0E296E000EA2
:10139800246E640E236E00016F51216E226A21BEF5
:1013A80022067DEC17F021C027F022C028F0FAECC5
:1013B80016F0090E27242F6E000E2820306E07EC39
:1013C8001AF01D0E2F24F66E7F0E3020F76E0900DE
:1013D800F5CF38F00900F5CF39F00A00F5CF3AF02B
:1013E800000E2A6E640E296E00016F51276E286A5E
:1013F80027BE2806FAEC16F0120E27242F6E000ED0
:101408002820306E000E326E030E316E07EC1AF093
:101418001D0E2F24F66E7F0E3020F76E0900F5CFD3
:1014280035F00900F5CF36F00A00F5CF37F054EC67
:1014380012F035C06CF036C06DF037C06EF06CC07D
:1014480035F06DC036F06EC037F0000E326E030E08
:10145800316E000E246E0A0E236E00016F51216E4C
:10146800226A21BE22067DEC17F021C02FF022C08F
:1014780030F007EC1AF01D0E2F24F66E7F0E302088
:10148800F76E0900F5CF38F00900F5CF39F00A00FA
:10149800F5CF3AF054EC12F035C069F036C06AF076
:1014A80037C06BF0120000016F51800A750FD8A089
:1014B8004FD0000E2A6E0A0E296E00016F51276E5A
:1014C800286A27BE2806FAEC16F0090E27242F6E84
:1014D800000E2820306E000E326E030E316E07ECBF
:1014E8001AF01D0E2F24F66E7F0E3020F76E0900BD
:1014F800F5CF35F00900F5CF36F00A00F5CF37F013
:10150800000E326E030E316E000E246E0A0E236E2C
:1015180000016F51216E226A21BE22067DEC17F070
:1015280021C02FF022C030F007EC1AF01D0E2F2436
:10153800F66E7F0E3020F76E0900F5CF38F00900FF
:10154800F5CF39F00A00F5CF3AF054EC12F0A4D7F1
:1015580000016F51030D1D0EF324F66E7F0EF4206B
:10156800F76E0900F5CF69F00900F5CF6AF00A00B7
:10157800F5CF6BF0120000016F51800A120FD8A04E
:1015880094D0000E326E030E316E000E2A6E0A0ED3
:10159800296E000E246E640E236E00016F51216EB9
:1015A800226A21BE22067DEC17F021C027F022C056
:1015B80028F0FAEC16F0090E27242F6E000E2820CA
:1015C800306E07EC1AF0440E2F24F66E7F0E302092
:1015D800F76E0900F5CF38F00900F5CF39F00A00A9
:1015E800F5CF3AF0000E2A6E640E296E00016F5195
:1015F800276E286A27BE2806FAEC16F0120E272452
:101608002F6E000E2820306E000E326E030E316EE3
:1016180007EC1AF0440E2F24F66E7F0E3020F76E7A
:101628000900F5CF35F00900F5CF36F00A00F5CFFF
:1016380037F054EC12F035C06CF036C06DF037C09E
:101648006EF06CC035F06DC036F06EC037F0000E2D
:10165800326E030E316E000E246E0A0E236E0001E8
:101668006F51216E226A21BE22067DEC17F021C03F
:101678002FF022C030F007EC1AF0440E2F24F66E3B
:101688007F0E3020F76E0900F5CF38F00900F5CF4E
:1016980039F00A00F5CF3AF054EC12F035C069F091
:1016A80036C06AF037C06BF0120000016F51800A33
:1016B800750FD8A04FD0000E2A6E0A0E296E0001B1
:1016C8006F51276E286A27BE2806FAEC16F0090E15
:1016D80027242F6E000E2820306E000E326E030E67
:1016E800316E07EC1AF0440E2F24F66E7F0E302070
:1016F800F76E0900F5CF35F00900F5CF36F00A008E
:10170800F5CF37F0000E326E030E316E000E246EE8
:101718000A0E236E00016F51216E226A21BE220635
:101728007DEC17F021C02FF022C030F007EC1AF042
:10173800440E2F24F66E7F0E3020F76E0900F5CF89
:1017480038F00900F5CF39F00A00F5CF3AF054EC3B
:1017580012F0A4D700016F51030D440EF324F66E66
:101768007F0EF420F76E0900F5CF69F00900F5CF78
:101778006AF00A00F5CF6BF012002E6E22D1E80E47
:10178800286E7F0E296EE8EC17F09AD1D00E286EDD
:101798007F0E296EE8EC17F093D1F50E286E7F0EB8
:1017A800296EE8EC17F08CD1CB0E286E7F0E296ECF
:1017B800E8EC17F085D1C10E286E7F0E296EE8EC93
:1017C80017F07ED1C40E286E7F0E296EE8EC17F054
:1017D80077D1BF0E286E7F0E296EE8EC17F070D116
:1017E800D60E286E7F0E296EE8EC17F069D1CC0E64
:1017F800286E7F0E296EE8EC17F062D1B20E286EC3
:101808007F0E296EE8EC17F05BD1E70E286E7F0E8D
:10181800296EE8EC17F054D1FA0E286E7F0E296E67
:10182800E8EC17F04DD1A80E286E7F0E296EE8EC73
:1018380017F046D1C00E286E7F0E296EE8EC17F01F
:101848003FD1A70E286E7F0E296EE8EC17F038D12D
:10185800F00E286E7F0E296EE8EC17F031D1E60EF7
:10186800286E7F0E296EE8EC17F02AD1F60E286E46
:101878007F0E296EE8EC17F023D1D10E286E7F0E6B
:10188800296EE8EC17F01CD1A90E286E7F0E296E80
:10189800E8EC17F015D1EC0E286E7F0E296EE8ECF7
:1018A80017F00ED1920E286E7F0E296EE8EC17F015
:1018B80007D1E20E286E7F0E296EE8EC17F000D1F2
:1018C800EB0E286E7F0E296EE8EC17F0F9D0E10ECA
:1018D800286E7F0E296EE8EC17F0F2D0CA0E286E3B
:1018E8007F0E296EE8EC17F0EBD0A50E286E7F0E60
:1018F800296EE8EC17F0E4D0AB0E286E7F0E296E47
:10190800E8EC17F0DDD0B10E286E7F0E296EE8ECFA
:1019180017F0D6D0B70E286E7F0E296EE8EC17F0B8
:10192800CFD0910E286E7F0E296EE8EC17F0C8D044
:10193800DB0E286E7F0E296EE8EC17F0C1D0D50EAD
:10194800286E7F0E296EE8EC17F0BAD0CF0E286EFD
:101958007F0E296EE8EC17F0B3D0C90E286E7F0E03
:10196800296EE8EC17F0ACD0BD0E286E7F0E296EFC
:10197800E8EC17F0A5D0820E286E7F0E296EE8ECF1
:1019880017F09ED0970E286E7F0E296EE8EC17F0A0
:1019980097D0C30E286E7F0E296EE8EC17F090D012
:1019A800890E286E7F0E296EE8EC17F089D0900E0C
:1019B800286E7F0E296EE8EC17F082D078EC1AF0CA
:1019C8007FD02E50200AD8B4F9D70C0AD8B4D3D770
:1019D800010AD8B4ECD7030AD8B4E2D7010AD8B4BC
:1019E800D8D71F0AD8B481D7010AD8B485D7030A33
:1019F800D8B489D7010AD8B48DD7070AD8B491D7F3
:101A0800010AD8B495D7030AD8B499D7010AD8B42B
:101A18009DD70F0AD8B4A1D7010AD8B4A5D7060A0A
:101A2800D8B4B0D77E0AD8B4AAD6030AD8B4AED6EA
:101A3800010AD8B4B2D6070AD8B4B6D6010AD8B4BF
:101A4800BAD6030AD8B4BED6010AD8B4C2D60F0A89
:101A5800D8B4C6D6010AD8B4CAD6030AD8B4CED6E2
:101A6800010AD8B4D2D6070AD8B4D6D6010AD8B44F
:101A7800DAD6030AD8B4DED6010AD8B4E2D61F0AE9
:101A8800D8B4E6D6010AD8B4EAD6030AD8B4EED652
:101A9800010AD8B4F2D6070AD8B4F6D6010AD8B4DF
:101AA800FAD6030AD8B4FED6010AD8B402D70F0A68
:101AB800D8B406D7010AD8B40AD7030AD8B40ED7BF
:101AC8007FEC1AF0120075C079F000017A6B7B6B1D
:101AD800000174350001793701E37A8100017951F9
:101AE80000017E6F78C079F000017A6B7B6B000192
:101AF80077350001793701E37A81000179510001D6
:101B08007D6F00017E510001D8B411D000017D51D4
:101B180000017E5DD8B012D000017E51000800019E
:101B28007D250001796F180E0001796507D076C010
:101B380073F077C074F078C075F0120000017D5121
:101B48000001D8B411D000017E5100017D5DD8B0EC
:101B580012D000017D51000800017E250001796F37
:101B6800180E0001796507D073C073F074C074F063
:101B780075C075F01200060E00017C6F000175AF8C
:101B880002D000017C8F000178AF02D000017C8D6B
:101B98000001748FFF0E00017317FF0E0001741708
:101BA800000E000175170001778FFF0E00017617F0
:101BB800FF0E00017717000E0001781700017D5114
:101BC80000017E5DD8B025D00001D89076377737F0
:101BD800783700017D0700017E5100017D19D8B4D6
:101BE80011D000017C077CC079F0070E000179173D
:101BF800D8B408D0E9D70001D8907533743373335B
:101C080000017E2B00017D5100017E19D8B42BD034
:101C1800F2D700017E5100017D5DD8B024D00001CB
:101C2800D89073377437753700017E0700017E51ED
:101C380000017D19D8B411D000017C077CC079F06F
:101C4800070E00017917D8B408D0E9D70001D89059
:101C580078337733763300017D2B00017D51000105
:101C68007E19D8A4F3D700017CAF12D0FF0E000173
:101C7800731BFF0E0001741BFF0E0001751B010E84
:101C880000017327000E00017423000E0001752364
:101C980000017CAD12D0FF0E0001761BFF0E000183
:101CA800771BFF0E0001781B010E00017627000E3E
:101CB80000017723000E00017823000E00017C6FDD
:101CC8000001735100017627000174510001772348
:101CD8000001755100017823000178AF15D0FF0E7F
:101CE8000001761BFF0E0001771BFF0E0001781B19
:101CF800010E00017627000E00017723000E000177
:101D08007823010E00017C6F76C021F077C022F0A5
:101D180078C023F07EC024F07CC025F07DEC15F05F
:101D280021C073F022C074F023C075F012000001C6
:101D3800726F6D0E000172659FD0000E326E030E39
:101D4800316E000E2A6E0A0E296E000E246E640E85
:101D5800236E72C021F0226A7DEC17F021C027F0B3
:101D680022C028F0FAEC16F0090E27242F6E000E78
:101D78002820306E07EC1AF01D0E2F24F66E7F0E09
:101D88003020F76E0900F5CF38F00900F5CF39F0AB
:101D98000A00F5CF3AF0000E2A6E640E296E72C062
:101DA80027F0286AFAEC16F0120E27242F6E000E80
:101DB8002820306E000E326E030E316E07EC1AF0DA
:101DC8001D0E2F24F66E7F0E3020F76E0900F5CF1A
:101DD80035F00900F5CF36F00A00F5CF37F054ECAE
:101DE80012F035C06FF036C070F037C071F0000ED9
:101DF800326E030E316E000E246E0A0E236E72C010
:101E080021F0226A7DEC17F021C02FF022C030F0BB
:101E180007EC1AF01D0E2F24F66E7F0E3020F76E99
:101E28000900F5CF38F00900F5CF39F00A00F5CFF1
:101E38003AF06FC035F070C036F071C037F054EC2E
:101E480012F035C06CF036C06DF037C06EF06CC063
:101E580035F06DC036F06EC037F0000E386E000EEB
:101E6800396E3F0E3A6E54EC12F035C069F036C048
:101E78006AF037C06BF012000A0E000172655DD07F
:101E8800000E326E030E316E000E246E0A0E236EA3
:101E980072C021F0226A7DEC17F021C02FF022C019
:101EA80030F007EC1AF01D0E2F24F66E7F0E30204E
:101EB800F76E0900F5CF38F00900F5CF39F00A00C0
:101EC800F5CF3AF0000E2A6E0A0E296E72C027F07E
:101ED800286AFAEC16F0090E27242F6E000E282027
:101EE800306E000E326E030E316E07EC1AF01D0EC6
:101EF8002F24F66E7F0E3020F76E0900F5CF35F0EF
:101F08000900F5CF36F00A00F5CF37F054EC12F09F
:101F180035C06FF036C070F037C071F06FC035F063
:101F280070C036F071C037F0000E386E000E396E92
:101F38003F0E3A6E54EC12F098D700017251030D1F
:101F48001D0EF324F66E7F0EF420F76E0900F5CF10
:101F580035F00900F5CF36F00A00F5CF37F0000E5E
:101F6800386E000E396E3F0E3A6E54EC12F035C0E2
:101F780069F036C06AF037C06BF01200010E231406
:101F8800286E296A24342430266E2330256E010EEB
:101F980025142A6E2B6A23C025F024C026F0263487
:101FA80026322532263426322532010E25142C6E8F
:101FB8002D6A23C025F024C026F026342632253287
:101FC800263426322532263426322532010E2514AF
:101FD8002E6E2F6A23C025F024C026F0040E276E2B
:101FE800263426322532272EFBD7010E2514306ED3
:101FF800316A23C025F024C026F0050E276E26344A
:1020080026322532272EFBD7010E2514326E336A6D
:1020180023C025F024C026F0060E276E263426326B
:102028002532272EFBD7010E2514346E356A23C0BE
:1020380025F024C026F0070E276E263426322532D6
:10204800272EFBD7010E2514366E376A28C021F0DB
:1020580029C022F095EC19F000D000D000F02AC079
:1020680021F02BC022F095EC19F000D000D000F040
:102078002CC021F02DC022F095EC19F000D000D032
:1020880000F02EC021F02FC022F095EC19F000D0FE
:1020980000D000F030C021F031C022F095EC19F0EA
:1020A80000D000D000F032C021F033C022F095EC0F
:1020B80019F000D000D000F034C021F035C022F073
:1020C80095EC19F000D000D000F036C021F037C0F0
:1020D80022F095EC19F000D000D000F01200000EAC
:1020E8000001716F000E706F92864CEC19F021C0E0
:1020F80060F022C061F04CEC19F021C062F022C0FF
:1021080063F04CEC19F021C064F022C065F04CEC8F
:1021180019F021C066F022C067F04CEC19F021C01C
:1021280068F022C069F04CEC19F021C06AF022C0B6
:102138006BF04CEC19F021C06CF022C06DF04CEC47
:1021480019F021C06EF022C06FF06EC028F06FC089
:1021580029F0070ED89028362936E82EFBD76CC010
:102168002AF06DC02BF0060ED8902A362B36E82EB2
:10217800FBD76AC02CF06BC02DF0050ED8902C361A
:102188002D36E82EFBD768C02EF069C02FF02E3A06
:102198002F3AF00E2F162E500F0B2F12F00E2E1670
:1021A80066C030F067C031F0D89030363136D890FC
:1021B80030363136D8903036313664C032F065C0AA
:1021C80033F0D89032363336D8903236333662C050
:1021D80034F063C035F0D890343635363250342672
:1021E8003350352230503426315035222E50342683
:1021F8002F5035222C5034262D5035222A50342683
:102208002B503522285034262950352200016051A0
:1022180034240001706F0001615135200001716F95
:1022280070C026F071C027F0120072C074F000016F
:10223800756B766B000171350001743701E37581A8
:102248000001745100017E6F00017E51D8A40AD0AC
:10225800000E0001706F000E716F000E726F000E9D
:10226800736F1200170E0001746F70C075F071C0A3
:1022780076F072C077F0000174290001786F05D0FC
:102288000001D8907733763375330001782FF8D76B
:10229800000175510001796F0001718FFF0E000177
:1022A8007017FF0E00017117000E00017217000170
:1022B800705100017A6F0001715100017B6F0001BC
:1022C800725100017C6F00017D6B8E0E00017E5FF4
:1022D80000017EAF1AD000017E51800A8F0FD8B05E
:1022E8000AD0000E0001706F000E716F000E726F41
:1022F800000E736F12000001D8907D337C337B335E
:102308007A3300017E3FF7D71BD0170E00017E6598
:1023180012D0000E0001706F000E716F000E726F08
:10232800000E736F12000001D8907A377B377C3724
:102338007D3700017E0700017E510001D8A4F3D744
:10234800000179510001D8B409D000017D1F7C1F1C
:102358007B1F7A6D000E7B237C237D237AC070F06F
:102368007BC071F07CC072F07DC073F0120023C096
:1023780027F0286A296A2234273601E32880275063
:102388002F6E2F50D8A409D0000E216E000E226E99
:10239800000E236E000E246E120026C027F0286A55
:1023A800296A2534273601E3288027502E6E2E50BF
:1023B800D8A409D0000E216E000E226E000E236EE6
:1023C800000E246E1200228EFF0E2116FF0E22161A
:1023D800000E2316258EFF0E2416FF0E2516000E5E
:1023E8002616000E2A6E000E2B6E000E2C6E000EA6
:1023F8002D6E7F0E2F5E2E50980F2F5E180E2E6EAC
:10240800D8902A362B362C362D362450215C255070
:10241800225826502358D8A007D02450215E255092
:10242800225A2650235A2A80D8902136223623361B
:102438002E2EE6D72FAE16D02F50800A970FD8B081
:1024480009D0000E216E000E226E000E236E000EC3
:10245800246E1200D8902D322C322B322A322F3E85
:10246800F9D715D0170E2F640FD0000E216E000E6D
:10247800226E000E236E000E246E1200D8902A36AB
:102488002B362C362D362F062F50D8A4F7D72AC036
:1024980021F02BC022F02CC023F02DC024F0120014
:1024A80037C060F00001616B626B36340001603741
:1024B80001E36181000160510001636F0001635114
:1024C800D8A407D0000E356E000E366E000E376E9B
:1024D80012003AC060F00001616B626B3934000190
:1024E800603701E36181000160510001686F0001FC
:1024F8006851D8A407D0000E356E000E366E000E57
:10250800376E1200000168517B0F0001632737C046
:1025180068F03A500001681B800E00016817368E7B
:10252800398EFF0E3816FF0E3916000E3A16000EB9
:102538000001646F000E0001656F000E0001666FF8
:10254800070E0001676F35A009D0385000016427D5
:102558003950000165233A5000016623D89037327C
:1025680036323532D890383639363A360001672F48
:10257800EAD7090E0001676F35A009D0385000016D
:1025880064273950000165233A5000016623D8902A
:102598003732363235320001D890663365336433CA
:1025A8000001672FE9D764C021F065C022F066C03A
:1025B80023F063C024F068C025F07DEC15F021C03D
:1025C80035F022C036F023C037F01200233424340B
:1025D8002C6E2C50D8A409D0000E216E000E226E4D
:1025E800000E236E000E246E1200263427342B6E44
:1025F8002B50D8A409D0000E216E000E226E000EBA
:10260800236E000E246E1200238EFF0E2116FF0E7D
:102618002216FF0E2316000E2416268EFF0E2416F1
:10262800FF0E2516FF0E2616000E2716000E276E23
:10263800000E286E000E296E000E2A6E7F0E2C5E8C
:102648002B50A00F2C5E200E2B6ED89027362836E4
:1026580029362A362450215C2550225826502358E2
:1026680027502458D8A009D02450215E2550225A3A
:102678002650235A2750245A2780D89021362236AC
:10268800233624362B2EE1D72CAE16D02C50800AB8
:102698009F0FD8B009D0000E216E000E226E000EDA
:1026A800236E000E246E1200D8902A322932283266
:1026B80027322C3EF9D715D01F0E2C640FD0000EF0
:1026C800216E000E226E000E236E000E246E120084
:1026D800D8902736283629362A362C062C50D8A4E6
:1026E800F7D727C021F028C022F029C023F02AC03C
:1026F80024F01200000E216E010E226E000E246ED0
:10270800000E236E000E266E800E256EF1EC19F079
:10271800000E216E010E226E9E0E236E7F0E246E19
:10272800ADEC19F0800E216E010E226E000E246EA3
:10273800000E236E000E266E400E256EF1EC19F089
:10274800800E0001856F010E0001866F6B0E00017F
:10275800876F7F0E0001886FB9C089F0BAC08AF010
:10276800BBC08BF0B2C08CF0B3C08DF0B4C08EF09B
:10277800B5C08FF0B6C090F0B7C091F0B8C092F075
:1027880055EC00F0000E216E010E226E800E236EB5
:10279800010E246EDBEC18F0000E0101C16F000E73
:1027A800C06F0ED0000E0101C025D96E010E0101C7
:1027B800C121DA6EDF50C1EC0BF00101C04BC12B17
:1027C800000E216E010E226E44EC18F0215001011A
:1027D800C05D22500101C159D8B01200E3D72FC003
:1027E80033F0346A356A2E34333601E3348033509B
:1027F8003A6E3A50D8A407D0000E2D6E000E2E6EF9
:10280800000E2F6E120032C033F0346A356A31344C
:10281800333601E3348033503B6E3B50D8A407D0A5
:10282800000E2D6E000E2E6E000E2F6E1200000E82
:10283800376E000E386E000E396E3B50890F3A5EC7
:102848002FC03BF032503B1A800E3B162E8EFF0EE7
:102858002D16FF0E2E16000E2F16318EFF0E301677
:10286800FF0E3116000E3216180E366ED890373617
:102878003836393630502D5C31502E5832502F585A
:10288800D8A007D030502D5E31502E5A32502F5AD2
:102898003780D8902D362E362F36362EE7D737C0CC
:1028A80021F038C022F039C023F03AC024F03BC0F0
:1028B80025F07DEC15F021C02DF022C02EF023C0AC
:1028C8002FF01200000E0001816F000E0001826FD0
:1028D800000E0001836F000E0001846F000E0001DE
:1028E800856F000E0001866FC284C296C298C29A94
:1028F800C29CC2809E9CC2829EACFED7C3CF29F0E8
:10290800C4CF2AF02DEC1AF029C081F02AC082F039
:102918002BC083F09E9CC29081C035F082C036F0F7
:1029280083C037F0330E386E830E396E3A0E3A6E26
:1029380054EC12F035C084F036C085F037C086F00C
:1029480084C035F085C036F086C037F0000E386E8A
:10295800800E396E3F0E3A6E54EC12F035C084F09A
:1029680036C085F037C086F084C070F085C071F03D
:1029780086C072F019EC11F070C07FF071C080F061
:102988001200000E0001816F000E0001826F000E20
:102998000001836F000E0001846F000E0001856F37
:1029A800000E0001866FC294C286C298C29AC29C69
:1029B800C2809E9CC2829EACFED7C3CF29F0C4CFF2
:1029C8002AF02DEC1AF029C081F02AC082F02BC021
:1029D80083F09E9CC29081C035F082C036F083C0DF
:1029E80037F0330E386E830E396E3A0E3A6E54EC69
:1029F80012F035C084F036C085F037C086F084C048
:102A080035F085C036F086C037F0000E386E800E7F
:102A1800396E3F0E3A6E54EC12F035C084F036C071
:102A280085F037C086F084C070F085C071F086C02C
:102A380072F019EC11F070C07FF071C080F01200D4
:102A4800000E00016C6F000E00016D6F000E00019A
:102A58006E6F000E00016F6F000E0001706F000EA8
:102A68000001716FC294C296C298C29AC29CC28079
:102A78009E9CC2829EACFED7C3CF29F0C4CF2AF059
:102A88002DEC1AF029C06CF02AC06DF02BC06EF046
:102A98009E9CC2906CC035F06DC036F06EC037F0A9
:102AA800330E386E830E396E3A0E3A6E54EC12F0CD
:102AB80035C06FF036C070F037C071F06FC035F0B8
:102AC80070C036F071C037F0660E386EB60E396ECB
:102AD800400E3A6E54EC12F035C06FF036C070F00C
:102AE80037C071F06FC069F070C06AF071C06BF0E8
:102AF80012002450D8B405D0215022102310D8A495
:102B08000CD0000E216E000E226E000E236E1200F5
:102B1800242AD890233222322132000E2114266E24
:102B2800000E2214276EFE0E2314286E265027103E
:102B38002810D8B40CD0ECD7242A010E2126000E78
:102B48002222000E2322D890233222322132000E74
:102B58002114266E000E2214276EFF0E2314286EF1
:102B6800265027102810D8B406D0E6D72406D890C7
:102B780021362236233622BE03D0020E2460F6D731
:102B880024A0229ED8902432245023122550D8A461
:102B9800238E21C021F022C022F023C023F012008E
:102BA800FACF02F0FBCF03F0E9CF04F0EACF05F04B
:102BB800E1CF06F0E2CF07F0D9CF08F0DACF09F07D
:102BC800F3CF0AF0F4CF0BF0F6CF0CF0F7CF0DF0FF
:102BD800F8CF0EF0F5CF0FF09DB09EA018D03C4A6C
:102BE8003D2A050E3C183D10D8A410D083B803D058
:102BF800016A012A01D0016A013A83500118EF0BDA
:102C08000118836E000E3D6E000E3C6E9E900FC044
:102C1800F5FF0EC0F8FF0DC0F7FF0CC0F6FF0BC0A4
:102C2800F4FF0AC0F3FF09C0DAFF08C0D9FF07C0E4
:102C3800E2FF06C0E1FF05C0EAFF04C0E9FF03C0E8
:102C4800FBFF02C0FAFF3E92110023AE16D021C04E
:102C580027F022C028F023C029F0271E281E291E8D
:102C6800272A000E28222922000E2724216E000E72
:102C78002820226E800E2920236E26AE16D024C06E
:102C880027F025C028F026C029F0271E281E291E57
:102C9800272A000E28222922000E2724246E000E3F
:102CA8002820256E800E2920266E000E211A000E7F
:102CB800221A800E231A000E241A000E251A800EDE
:102CC800261A2450215C2550225826502358D8B063
:102CD80002D0D8901200D88012000F01428F0F0145
:102CE80042890F01429B0F01428D080EC16EAF0E43
:102CF800C06E92809282928492869288928A0F0104
:102D080038810F0138830F0138850F0138970F017B
:102D1800388B89908992899489968998899A95900F
:102D28009592959495969598959A959C959E0F0150
:102D38003B910F013B930F013B950F013B970F010F
:102D48003B990F013B9B0F013B9D0F013B9F8C90D3
:102D58008C928C948C968C988C9A8C9C8C9E1AEC69
:102D68001AF01200040024EC15F069C0C3F06AC020
:102D7800C4F06BC0C5F066EC14F07FC0BFF080C033
:102D8800C0F0C5EC14F07FC0C1F080C0C2F00CECFC
:102D980006F07FC0BCF080C0BDF081C0BEF000016D
:102DA800C5BF17D0C3C0B2F0C4C0B3F0C5C0B4F03B
:102DB800BFC0B5F0C0C0B6F0C1C0B7F0C2C0B8F06F
:102DC800BCC0B9F0BDC0BAF0BEC0BBF07EEC13F019
:102DD80006D0000E336E020E326E65EC19F0000E4E
:102DE8002E6E030E2D6E7DEC19F0BCD7000E2C6EE6
:102DF8002AAE06D0296C2A1ED8B02A2A010E2C6EBB
:102E080028AE06D0276C281ED8B0282A010E2C1A06
:102E1800000E2E6E000E2D6E29502A10D8B41CD02C
:102E2800010E2B6E04D0D89029362A362B2A2AAECA
:102E3800FAD7D8902D362E362950275C2A50285894
:102E4800D8A005D02950275E2A50285A2D80D8901E
:102E58002A3229322B2EEDD72C50D8B404D02D6C21
:102E68002E1ED8B02E2A2DC027F02EC028F0120012
:102E7800000E296E000E2A6E000E2B6E000E2C6EB0
:102E88002550261027102810D8B42AD0010E2D6EF0
:102E980006D0D89025362636273628362D2A28AE4D
:102EA800F8D7D89029362A362B362C362550215C6F
:102EB800265022582750235828502458D8A009D0E3
:102EC8002550215E2650225A2750235A2850245A2A
:102ED8002980D89028322732263225322D2EE1D764
:102EE80029C021F02AC022F02BC023F02CC024F0E6
:102EF8001200000E266E22AE06D0216C221ED8B01B
:102F0800222A010E266E24AE04D0236C241ED8B0CB
:102F1800242A23502410D8B418D0010E256E04D0CA
:102F2800D89023362436252A24AEFAD72350215C9C
:102F380024502258D8A004D02350215E2450225A6D
:102F4800D89024322332252EF1D72650D8B404D075
:102F5800216C221ED8B0222A21C021F022C022F0E2
:102F680012003250331034103510D8B424D0010E6A
:102F7800366E06D0D8903236333634363536362A61
:102F880035AEF8D732502E5C33502F583450305865
:102F980035503158D8A008D032502E5E33502F5AB1
:102FA8003450305A3550315AD89035323432333261
:102FB8003232362EE7D72EC02EF02FC02FF030C079
:102FC80030F031C031F01200000E2D6E000E2C6E64
:102FD8001CD018EC19F015D032EC19F012D02C5086
:102FE80028242A6E2D5029202B6E2AC0F6FF2BC0CC
:102FF800F7FF0800F5502D0AD8B4EED7030AD8B465
:10300800E8D786EC1AF02C4A2D2A28C021F029C0CE
:1030180022F044EC18F021502C5C22502D58D8B0E6
:103028001200DDD78E0E316E06D0D8902C322B329E
:103038002A322932312A000E29142D6E000E2A1444
:103048002E6E000E2B142F6EFF0E2C14306E2D508A
:103058002E102F103010D8A4E8D729C021F02AC08C
:1030680022F02BC023F031C024F0000E256E7DEC39
:1030780015F021C029F022C02AF023C02BF012003D
:1030880021C025F022C026F002D0254A262A25C0D4
:10309800F6FF26C0F7FFF86A050EF76403D00800AC
:1030A800F55005D0F6CFE9FFF7CFEAFFEF5000095A
:1030B800D8A4EBD721C023F022C024F0231E241E5D
:1030C800234A242A25502324216E26502420226EA8
:1030D8001200000E2A6E000E296E17D0000E2C6EFC
:1030E800000E2B6E2CBE06D02C500DE10A0E2B5C68
:1030F800D8B009D0000E226E640E216EC5EC19F00E
:103108002B4A2C2AEFD7294A2A2A2650295C2A50EA
:10311800800A286E2750800A2858D8B01200DED7B7
:10312800000182510001831100018411D8B409D033
:10313800000E0001821B000E0001831B800E00019F
:10314800841B7FC073F080C074F081C075F082C0AA
:1031580076F083C077F084C078F067EC0DF073C028
:103168007FF074C080F075C081F01200000E256EEB
:10317800010E246E929680965D0EE82EFED700F022
:1031880080860B0EE82EFED700D0928680A603D04C
:10319800236A232A01D0236A2350246E256A460E07
:1031A800E82EFED724C021F025C022F0120021C04D
:1031B80025F022C026F002D0254A262A25C0D9FFAC
:1031C80026C0DAFFDF50D8B405D0F6D7254A262A1C
:1031D800234A242A23C0D9FF24C0DAFF25C0E1FFEF
:1031E80026C0E2FFDFCFE7FFE750D8B41200EED7E2
:1031F800000E2C6E2AAE06D0296C2A1ED8B02A2AB8
:10320800010E2C6E29C021F02AC022F0236A8E0EEE
:10321800246E2CC025F07DEC15F021C029F022C0C9
:103228002AF023C02BF0120083828386000E276EBB
:10323800000E266E27BE06D027500DE14B0E265CE9
:10324800D8B009D051EC1AF0264A272A27BEFAD757
:10325800275001E1F3D783928396120083828386F5
:10326800000E276E000E266E27BE06D027500DE1F1
:10327800E10E265CD8B009D051EC1AF0264A272A6C
:1032880027BEFAD7275001E1F3D78392839612001D
:10329800000E256E000E246E92968096808600D0D1
:1032A80080A603D0236A232A01D0236A2350246EE0
:1032B800256A0A0EE82EFED724C021F025C022F088
:1032C8001200000E366E000E356E08D0000E2E6EFF
:1032D8003C0E2D6E7DEC19F0354A362A3250355C9D
:1032E8003650800A346E3350800A3458D8B01200F1
:1032F800EDD7000E316E000E306E08D0000E276E2E
:103308003C0E266E6DEC18F0304A312A2D50305C98
:103318003150800A2F6E2E50800A2F58D8B01200D4
:10332800EDD7929621502210D8B409D0809600D0BB
:1033380000D000F08086090EE82EFED71200809695
:103348000B0EE82EFED700D0808600D000D000F00B
:10335800120021C025F022C026F004D0254A262AD2
:10336800234A242A23C0F6FF24C0F7FF25C0D9FF2B
:1033780026C0DAFF0800F5CFDFFFDF50D8B412000F
:10338800EDD7000E256E000E246E06D0A60EE82E90
:10339800FED700D0244A252A2150245C2550800AD3
:1033A800236E2250800A2358D8B01200EFD7000E9F
:1033B800256E000E246E06D0100EE82EFED700D023
:1033C800244A252A2150245C2550800A236E225045
:1033D800800A2358D8B01200EFD721C027F022C0A6
:1033E80028F008D027C0D9FF28C0DAFF23C0DFFFA4
:1033F800274A282A2506D8A026062528F3E12628C4
:10340800D8B41200EFD72F503102F3CF33F0F4CFF6
:1034180034F02F503202F350342630503102F3503A
:10342800342633C02FF034C030F01200D08ECD9047
:10343800CD9CCD9ECD9ACD98CD96CD823C0ECF6EAB
:10344800AF0ECE6E9D809F809E90CD80F29CF28EB6
:10345800120029C021F02AC022F0236A8E0E246EA1
:10346800000E256E7DEC15F021C029F022C02AF04F
:1034780023C02BF01200215022102310D8B406D0FC
:10348800000E211A000E221A800E231A21C021F0E4
:1034980022C022F023C023F012008384000E226E83
:1034A800050E216EDBEC19F08394000E226E050EDA
:1034B800216EDBEC19F01200236E000E226E3A0E1C
:1034C800236005D02F0E236402D0010E226E22C085
:1034D80021F0213012003D6A3C6A3E903E92000E77
:1034E800F86E00018DEF1AF0020E226E0D0E216E9D
:1034F800C5EC19F01200000E226EE10E216EC5EC2B
:1035080019F01200000E226E4B0E216EC5EC19F058
:0E351800120071EC16F0B6EC16F053EF00F056
:107EF40000010000000A00000064000000E8030024
:107F04000010270000A086010040420F00809698D0
:107F14000000E1F50500CA9A3B00803FCDCC3DD777
:107F2400233C12833AB7D138C62737388635C0D6B2
:107F340033CC2B32708930E7DB2EE53C1E42A20D98
:107F440000803F00204100C842007A44401C465053
:107F5400C34724744997184BBCBE4C6B6E4E031533
:107F64005079AD60F3497120252E316620252E31DC
:107F7400662025332E30642025332E3064002D2DC9
:107F84002E2E2D2D002E2D2E2D2E2D002D2E2E2E6F
:107F94002E2D002E2E2D2D2E2E00454153415432D0
:107FA400002D2D2D2D2D002E2D2D2D2D002E2E2D81
:107FB4002D2D002E2E2E2D2D002D2D2D2D2E002D70
:107FC4002E2E2D2E002D2D2D2E2E002D2D2E2E2E2F
:107FD400002D2E2E2E2E002E2E2E2E2E002D2E2D4A
:107FE4002D002D2D2E2D002D2E2E2D002E2D2D2E3F
:0C7FF400002D2E2D2E002E2D2E2E000014
:020000040020DA
:08000000FFFFFFFFFFFFFFFF00
:020000040030CA
:0E000000FF21193FFF8581FF0FC00F400F4009
:00000001FF
