:0400000053EF00F0CA
:060008003E82D4EF03F07C
:100018003E80D8CF10F0E8CF11F0E0CF12F0FACF41
:1000280013F0FBCF14F0E9CF15F0EACF16F0E1CFCB
:1000380017F0E2CF18F0D9CF19F0DACF1AF0F3CFD2
:100048001BF0F4CF1CF0F6CF1DF0F7CF1EF0F8CF61
:100058001FF0F5CF20F020C0F5FF1FC0F8FF1EC02D
:10006800F7FF1DC0F6FF1CC0F4FF1BC0F3FF1AC04A
:10007800DAFF19C0D9FF18C0E2FF17C0E1FF16C0A8
:10008800EAFF15C0E9FF14C0FBFF13C0FAFF12C056
:10009800E0FF11C0E8FF10C0D8FF3E90100025EF28
:0200A80005F061
:1006000000000101020102020301020203020303CE
:10061000043000310000000E336E000E326E000E0A
:10062000316E000E306E000E2F6E000E2E6E010E1B
:100630002614306E316A30043110D8A408D0320448
:100640003310D8A404D0000E336E000E326E30503A
:100650003110D8A408D032503310D8A404D0000EE2
:10066000336E010E326E32B002D0809001D08080A5
:10067000000E226E050E216EEFEC04F030043110F6
:10068000D8A404D0000E336E010E03D0000E336EDA
:10069000000E326E32B002D0809001D08080000E09
:1006A000226E050E216EEFEC04F026C02AF027C062
:1006B0002BF028C02CF029C02DF0D8902D322C32F0
:1006C0002B322A322AC026F02BC027F02CC028F06B
:1006D0002DC029F02E4A2F2A2FBEA9D72F5005E171
:1006E000180E2E5CD8B01200A2D712000F01428F54
:1006F0000F0142990F01428B0F01428D080EC16E0E
:10070000AF0EC06E92809282929492869288928A64
:100710000F0138810F0138830F0138850F01389799
:100720000F01388B89908992899489968998899A42
:10073000000E616EF18E93809392939493969398AA
:10074000939A939C939E0F0139810F0139930F0166
:1007500039950F0139970F01399B8A908A928A94B3
:100760008A968A988A9A9590959295949596959856
:10077000959A959C959E0F013B910F013B930F011C
:100780003B950F013B970F013B990F013B9B0F01DD
:100790003B9D0F013B9F8C908C928C948C968C98F7
:1007A0008C9A8C9C8C9E1200FACF02F0FBCF03F047
:1007B000E9CF04F0EACF05F0E1CF06F0E2CF07F091
:1007C000D9CF08F0DACF09F0F3CF0AF0F4CF0BF06D
:1007D000F6CF0CF0F7CF0DF0F8CF0EF0F5CF0FF00D
:1007E0009EA202D09E9220D09EA01ED0EC0ECF6E74
:1007F000770ECE6E3C4A3D2A320E3C183D10D8A4EE
:1008000012D080B403D0016A012A01D0016A0146E6
:10081000014680500118FB0B0118806E0400000E89
:100820003D6E000E3C6E9E900FC0F5FF0EC0F8FFAF
:100830000DC0F7FF0CC0F6FF0BC0F4FF0AC0F3FFBA
:1008400009C0DAFF08C0D9FF07C0E2FF06C0E1FF18
:1008500005C0EAFF04C0E9FF03C0FBFF02C0FAFFC6
:100860003E921100FF0E21160F0E2216000E2316C7
:10087000000E241621C029F022C02AF023C02BF03C
:1008800024C02CF0000E2E6E010E2D6E2EBE06D052
:100890002E5016E10D0E2D5CD8B012D021A008D03C
:1008A000E30E211A0A0E221A000E231A000E241A31
:1008B000D89024322332223221322D4A2E2AE6D7F2
:1008C00021C025F022C026F023C027F024C028F044
:1008D0000C0ED8902536263627362836E82EF9D73E
:1008E00029502510216E2A502610226E2B502710D9
:1008F000236E2C502810246E1200AA0E346E0A0E9D
:10090000356E000E366E000E376E000E386E000E1D
:10091000396E000E3A6E000E3B6E34C021F035C0C9
:1009200022F036C023F037C024F032EC04F021C0AE
:1009300038F022C039F023C03AF024C03BF038C070
:1009400026F039C027F03AC028F03BC029F00BEC64
:1009500003F0000E2E6E010E2D6ED7EC04F0DDD7E5
:10096000000E2A6E000E296E17D0000E2C6E000E9F
:100970002B6E2CBE06D02C500DE10A0E2B5CD8B08D
:1009800009D0000E226E640E216EEFEC04F02B4AAB
:100990002C2AEFD7294A2A2A2650295C2A50800A75
:1009A000286E2750800A2858D8B01200DED7000ED3
:1009B000316E000E306E08D0000E276E3C0E266E93
:1009C000B0EC04F0304A312A2D50305C3150800AAE
:1009D0002F6E2E50800A2F58D8B01200EDD7000E7F
:1009E000256E000E246E06D0A60EE82EFED700D08F
:1009F000244A252A2150245C2550800A236E225047
:100A0000800A2358D8B01200EFD7D08ECD90CD9C5D
:100A1000CD9ECD9ACD98CD96CD82EC0ECF6E770E31
:100A2000CE6E9D809F809E90CD80F29CF28E1200B3
:100A3000BA94BA80BA92BA96BA98BA9ABA9C000E88
:100A4000BC6E9D829F929E9212003D6A3C6A3E90CF
:100A50003E92000EF86E060EF76E000139EF05F0BB
:100A60003FEC05F076EC03F005EC05F018EC05F032
:100A7000120030EC05F07DEC04F053EF00F00400C0
:020A8000120062
:020000040020DA
:08000000FFFFFFFFFFFFFFFF00
:020000040030CA
:0E000000FF21193FFF8581FF0FC00F400F4009
:00000001FF
