:0400000053EF00F0CA
:06000800398264EF04F0F0
:100018003980D8CF10F0E8CF11F0E0CF12F0FACF46
:1000280013F0FBCF14F0E9CF15F0EACF16F0E1CFCB
:1000380017F0E2CF18F0D9CF19F0DACF1AF0F3CFD2
:100048001BF0F4CF1CF0F6CF1DF0F7CF1EF0F8CF61
:100058001FF0F5CF20F020C0F5FF1FC0F8FF1EC02D
:10006800F7FF1DC0F6FF1CC0F4FF1BC0F3FF1AC04A
:10007800DAFF19C0D9FF18C0E2FF17C0E1FF16C0A8
:10008800EAFF15C0E9FF14C0FBFF13C0FAFF12C056
:10009800E0FF11C0E8FF10C0D8FF39901000B1EFA1
:0200A80005F061
:1006000000000101020102020301020203020303CE
:10061000043000310000000E0101C06F000EC16FF8
:10062000000EC26F000EC36F000E0101C76F000EF7
:10063000C66F000E0101CB6F000ECA6F000E0101E4
:10064000C56F000EC46F8192000E0101C76F000ECE
:10065000C66F000E276E010E266E4EEC05F08184EB
:10066000000E0101CB6F000ECA6F0101CBBF0AD093
:100670000101CB5106E1200E0101CA5DD8B0B1D015
:1006800001D0AFD00101CA512DC031F02EC032F0DF
:100690002FC033F030C034F0E82A05D0D89034327F
:1006A000333232323132E82EF9D7010E31140101E2
:1006B000C46F0101C56B010E0101CA25316E000E28
:1006C0000101CB21326E311E321E314A322A200EF8
:1006D00031240101C86F000E32200101C96FC8C169
:1006E00021F0C9C122F0000E246E060E236E8BECA1
:1006F00005F0000E2124D96E010E2220DA6EC4C14D
:10070000DEFFC5C1DDFF0101C4510101C511D8A43F
:100710002ED0C8C121F0C9C122F0000E246E060EF1
:10072000236E8BEC05F0020E2126000E2222000E15
:100730002124D96E010E2220DA6E010EDE6E000E2B
:10074000DD6EC8C121F0C9C122F0000E246E060E74
:10075000236E8BEC05F0040E2126000E2222000EE3
:100760002124D96E010E2220DA6E000E2DD0C8C1D0
:1007700021F0C9C122F0000E246E060E236E8BEC10
:1007800005F0020E2126000E2222000E2124D96E31
:10079000010E2220DA6E000EDE6E000EDD6EC8C184
:1007A00021F0C9C122F0000E246E060E236E8BECE0
:1007B00005F0040E2126000E2222000E2124D96EFF
:1007C000010E2220DA6E010EDE6E000EDD6E0101DA
:1007D000CA4BCB2B0101CBBF55D70101CB5101E156
:1007E0004AD7000E386E000E376E37503810D8B426
:1007F000FCD7000E0101CB6F000ECA6F0101CBBF09
:1008000008D00101CB5155E1200E0101CA5DD8B0DD
:1008100050D0000E386E000E376ECAC121F0CBC129
:1008200022F0000E246E060E236E8BEC05F0020EF5
:100830002126000E2222000E2124D96E010E222034
:10084000DA6EDECFC6F1DDCFC7F137503810D8B43D
:10085000FCD70101C6B102D0819201D08182000E85
:10086000386E000E376ECAC121F0CBC122F0000EE7
:10087000246E060E236E8BEC05F0040E2126000E6E
:100880002222000E2124D96E010E2220DA6EDECF44
:10089000C6F1DDCFC7F137503810D8B4FCD701010D
:1008A000C6B102D0819201D081820101CA4BCB2B0B
:1008B000A5D7000E386E000E376E37503810D8B4FA
:1008C000FCD7819281941200FACF02F0FBCF03F0A3
:1008D000E9CF04F0EACF05F0E1CF06F0E2CF07F070
:1008E000D9CF08F0DACF09F0F3CF0AF0F4CF0BF04C
:1008F000F6CF0CF0F7CF0DF0F8CF0EF0F5CF0FF0EC
:100900009EA202D09E9225D09EA023D0EC0ECF6E48
:10091000770ECE6E354A362A320E35183610D8A4E8
:1009200013D081B603D0016A012A01D0016A0146C1
:100930000146014681500118F70B0118816E040031
:10094000000E366E000E356E9E90000E386E010E53
:10095000376E0FC0F5FF0EC0F8FF0DC0F7FF0CC0DB
:10096000F6FF0BC0F4FF0AC0F3FF09C0DAFF08C0AE
:10097000D9FF07C0E2FF06C0E1FF05C0EAFF04C0DF
:10098000E9FF03C0FBFF02C0FAFF399211000F011B
:10099000428F0F0142990F01428B0F01428D080EC9
:1009A000C16EAF0EC06E92809282929492869288AF
:1009B000928A0F0138810F0138830F0138850F01AA
:1009C00038970F01388B89908992899489968998F4
:1009D000899A000E616EF18E938093929394939610
:1009E0009398939A939C939E0F0139810F013993A9
:1009F0000F0139950F0139970F01399B8A908A921F
:100A00008A948A968A988A9A9590959295949596C2
:100A10009598959A959C959E0F013B910F013B935C
:100A20000F013B950F013B970F013B990F013B9B3A
:100A30000F013B9D0F013B9F8C908C928C948C9668
:100A40008C988C9A8C9C8C9E1200A10E0001606F79
:100A5000000E616F000E626F550E636F000E000195
:100A6000646F000E656F000E666F000E676F000EFC
:100A7000276E050E266E4EEC05F0560E2D6E340ECA
:100A80002E6E120E2F6EAA0E306E0BEC03F0000EBF
:100A9000276E040E266E4EEC05F0EFD7000E2A6E80
:100AA000000E296E17D0000E2C6E000E2B6E2CBE81
:100AB00006D02C500DE10A0E2B5CD8B009D0000EE8
:100AC000226E640E216E75EC05F02B4A2C2AEFD7AE
:100AD000294A2A2A2650295C2A50800A286E275043
:100AE000800A2858D8B01200DED7000E256E000EFE
:100AF000246E06D0A60EE82EFED700D0244A252A62
:100B00002150245C2550800A236E2250800A2358ED
:100B1000D8B01200EFD721502302F3CF25F0F4CF45
:100B200026F021502402F350262622502302F350AF
:100B3000262625C021F026C022F01200D08ECD90AE
:100B4000CD9CCD9ECD9ACD98CD96CD82EC0ECF6E1C
:100B5000770ECE6E9D809F809E90CD80F29CF28E0F
:100B60001200386A376A366A356A39903992000E4F
:100B7000F86E060EF76E0001D4EF05F0BA94BA8055
:100B8000BA92BA96BA98BA9ABA9C000EBC6E9D8276
:100B90009F929E921200DAEC05F0C7EC04F09EECF6
:100BA00005F0BEEC05F01200CBEC05F025EC05F0ED
:080BB00053EF00F004001200F5
:020000040020DA
:08000000FFFFFFFFFFFFFFFF00
:020000040030CA
:0E000000FF21193FFF8581FF0FC00F400F4009
:00000001FF
